:020000040800F2
:1018F800D6574D2B4C2B474748120020D5190008C6
:10190800A54A00086D330008000000000000000030
:1019180000000000000000000000000000000000BF
:1019280000000000D9590008000000000000000075
:10193800A74A0008415F0008E719000800000000F6
:10194800594C0008E7190008E7190008E9250008BC
:10195800252600084D26000800000000E7190008A9
:10196800E7190008E7190008E7190008E71900084F
:10197800E719000800000000E7190008000000004F
:1019880000000000616000080000000071600008AD
:10199800E7190008E71900087D340008E71900086E
:1019A800E7190008BD600008056100080000000094
:1019B80000000000000000000348854600F006F91A
:1019C80000480047CD6800084812002004488047B6
:1019D80004480047FEE7FEE7FEE7FEE7FEE7FEE70E
:1019E80051600008C119000830B50B4601460020B7
:1019F8002022012409E00D46D5409D4205D31D460D
:101A08009540491B2546954040191546521E002D04
:101A1800F1DC30BD70B500242546002801DA012428
:101A28004042002901DA01254942FFF7DDFFAC42B7
:101A380000D04042002C00D0494270BDF8B50024C7
:101A48002546002904DA0E46012400214042B1410E
:101A5800002B04DA1E46002352420125B34100F050
:101A680075F88C4617461E46AC4203D00025404206
:101A78008D41AC46002C02D0002657429E4161465B
:101A88003A46334601B0F0BDF0B51FB486B0002029
:101A98000090019002900698069980B204900798E9
:101AA800090C02040014114307900027089D0998A7
:101AB80006913E463C4603900398A9B20204000CE6
:101AC800039004982D0C154348430021224600F04A
:101AD8006DF8C719714110340E46402CECDB3846BE
:101AE800029A00F063F8009A019B8018009059410F
:101AF80002980191103002904028CCDB00980BB07E
:101B0800F0BDD2B201E00270401C491EFBD2704702
:101B18000022F6E710B513460A4604461946FFF7B1
:101B2800F0FF204610BD0321001D401E037812025D
:101B38001A43491EF9D51046704703460322087018
:101B4800000A491C521EFAD518467047F0B51FB452
:101B58000646002082B005464024019100901BE013
:101B6800019922460F46304600F042F8049A059B38
:101B7800801A994110D310461946224600F016F8EB
:101B8800361A8F410197224601200021009F00F05C
:101B98000DF838184D4100902046641E0028DFDCFF
:101BA800019B00982946324607B0F0BD10B5202A9F
:101BB80004DB0146203A9140002010BD91402023CB
:101BC8009C1A0346E3401943904010BD064C01257A
:101BD800064E05E0E36807CC2B430C3C98471034CD
:101BE800B442F7D3FFF7ECFED86F0008F86F00088F
:101BF80010B5202A04DB0846203AD040002110BD49
:101C08000B46D340D0402024A21A914008431946DD
:101C180010BD70B58D180478401CA207920F01D131
:101C28000278401C231106D10378401C03E0067893
:101C38000E70401C491C521EF9D1002B15D0027899
:101C48000C268A1A3440401C0C2C03D0A401121B09
:101C58009B1C08E004782402121B401CF8E7147847
:101C68000C70491C521C5B1EF9D5A942D3D3002025
:101C780070BD000010B51D48002281681C4B490743
:101C880003D581681940103181601A4902E08A42FF
:101C980003D2521C8468E406F9D48268D20703D0C0
:101CA80082681A40921C8260002202E08A4203D2B3
:101CB800521C83689B07F9D4826817239A43DB0771
:101CC8001A43826083680022002B02DB05E08A4207
:101CD80003D28368521C002BF9DB04488030406B28
:101CE80005494006400E488010BD00000024014010
:101CF800E8FFFF7FFFFF03000400002007480021E2
:101D08008268074B1A40921C82605A1302E0914283
:101D180003D2491C83689B07F9D47047002401400B
:101D2800E8FFFF7F0020084901220A608A68074B04
:101D38001A40521C8A60DA1302E0904203D2401C17
:101D48000B68DB07F9D0704700240140E8FFFF7FEC
:101D5800F0B591B0002440216846FFF7D9FE0D4D3B
:101D68006E4604272F60A8680B490840001DA8602C
:101D780000F024F8286C6100641CE4B27052202C36
:101D8800F0D308231A462021684604F08BFA11B0D4
:101D9800F0BD000000240140E8FFFF7F054A002154
:101DA8009062054802E0814203D2491C13689B04F3
:101DB800F9D5704700240140FFFF00000020054AC4
:101DC800054902E0904203D2401C0B685B07F9D535
:101DD80070470000FFFF000000240140FEB503F03B
:101DE8005DFBB54E3820305EB449B54D02248842BB
:101DF80008DAB44908226F4616C701232A46B249B1
:101E080000F074F9AF48B049093800900194029481
:101E18003820305E01232A46643900F067F9A94862
:101E2800A54D801F01944035029400900123A74AD4
:101E3800A749286900F05AF9A248A64F801D0090CA
:101E4800019402943C20305E00233A46A24900F0F7
:101E58004DF99C4801940930009002943C20305E72
:101E680000233A46791000F041F996490420C91E2A
:101E78000091029401900023984A9949286900F03A
:101E880035F9904804210C306A4613C22E46803E2C
:101E9800B07C01237322822100F028F9894F0420A5
:101EA8001537009702940190F07B002330222B21F4
:101EB80000F01CF90421B81F6A4613C2B07B012345
:101EC80055225C2100F012F90421F81C6A4613C25D
:101ED800F07B00231E22152100F008F90421F81ECA
:101EE8006A4613C2B07B01235A22612100F0FEF832
:101EF800B81F007801280AD0387801280CD0B07BA8
:101F080055280ED3A88840094001083014E0A88855
:101F18004009400110300FE0A88840094001401CEA
:101F28000AE0F07B3228A88803D840094001801CC9
:101F380002E040094001001DA880624A286A062183
:101F480004262132019600920291002800DA4042CC
:101F58007D220123D200634900F0C8F8594A286A53
:101F680006212432019600920291002800DA4042AC
:101F78007D220123D2005B4900F0B8F8514EB61D0E
:101F880031461139097830788907C90F084330700C
:101F9800B01F01780520000701297DD000221021FB
:101FA80000F0B8FE00F058F900F05AFF4E49454AD3
:101FB80008604448921F0B380188801C007812780A
:101FC8001043C007C00F08433E493E4AC91C0932A6
:101FD80009781278830711433278DB0F1A431143CB
:101FE800C907384A890FA04301430C328806127882
:101FF800C00F1043C007820E202081430A43314995
:1020080010051B310978C00F08430121C007C90218
:10201800000D8A4310432B4AC1041E321278C90F9F
:102028001143012212039043C907264AC90C0143F0
:102038001832C8061278C00F1043C007C00E10220D
:102048009143084341053A78C90F1143012292028E
:102058009043C9071B4A490D01431232880512787B
:10206800C00F1043C007820D0120400281430A437C
:102078001449D0050F310978C00F0843FF210131F9
:102088008A43C0070F49C00D10430D390880410627
:10209800CA0F0C49213100E00CE00A704107CA0F51
:1020A800084924310A7069884904490CC00301436E
:1020B8006980FEBD012272E74009002088130000F4
:1020C800480D000025000020A60E00007C920000AC
:1020D80090970000B80B0000C4090000D0840000ED
:1020E800F47E0000C027090008000020F0B5002594
:1020F800069F079E059C002B02D0012B18D009E0F3
:10210800884203DC6078401C607002E0904213DC77
:102118006570A5706078B84203D9012020700A372D
:102128006770A078B04202D925700A36A670F0BD53
:102138008842E7DA9042EBDA002AE9D0A078401C1E
:10214800A0706570E6E708B500200090684601F0C9
:102158005BFA002801D0009880B203F023FA08BD8A
:1021680070B59CB00D460646642102A8FFF7D0FC66
:10217800BF2D19D207242846093003E0C82C19D2EC
:10218800641CA4B28442F9D3A01E81B22C4800F08A
:10219800D1F80090002001902948694609380019B3
:1021A800C2794A71007A087101990098884204D06E
:1021B800FF2D02D000201CB070BDAA20694608720D
:1021C80055204872BB2088720320C8720E732A46B5
:1021D800314602A803F068FA044669460090487838
:1021E800487308788873E01D81B202A800F0A2F84D
:1021F800009003A869460330497821546946097854
:1022080004A82154A12E01D0A02E03D10D48407856
:10221800012806D00934A1B202A803F093FF0120D7
:10222800C9E70A490848086000F01AFCBFF34F8F55
:1022380008490748C860BFF34F8F00BFFDE700009B
:10224800050A0020E0060020CDAB0000AC09002004
:102258000400FA0500ED00E070B5174D0623284686
:102268008030AE79026A154801240021002E0CD175
:10227800FF26F536B24208DB4678761CF6B2467081
:10228800042E04D94370047001E0417001700B48BA
:10229800ED79C01C002D0CD1FF25F535EA4208DC8C
:1022A8004178491CC9B24170042901D943700470AE
:1022B80070BD4170017070BD000900204000002011
:1022C80030B50346002007240EE01A78504000225B
:1022D8005B1C050602D54000604000E04000521C2F
:1022E800D2B2C0B2082AF4D30A46491EC9B2002A9B
:1022F800EBD130BD10B500F0EFFA00F0E9FD0A4966
:102308000A4BCA8B9A4204D10A464032D289824289
:1023180001D0012010BD06480A68824202D0086038
:10232800022010BD002010BDAC09002019160000C5
:102338003412000070B5044600200246064D08E03D
:10234800A65C030A73405B00EB5A0002584080B257
:10235800521C8A42F4D370BD886C000830B59625AB
:10236800062400221A4B1B49E8420DDA4A80888865
:10237800401C80B28880CA80012826D97D208C80A4
:10238800C000588144201FE096280CDD4888401C76
:1023980080B248808A80CA80012816D94C800E48AD
:1023A8001881432010E04A808A80C888401C85B282
:1023B800CD80186A002800DA4042962800DA1A62AE
:1023C800012D02D9CC8049200870087830BD000062
:1023D80080090020660000201A04000070B50C4C2B
:1023E8000020A0610B480C49408B88420DD20B4D50
:1023F800642808D932216438FFF70CFB08494843A0
:10240800281A606170BD656170BD0648F9E7000073
:1024180080090020AC090020AC0D0000808EF20D70
:10242800A0B42300400E6501F8B5414A414E5279E7
:102438000025414C442A02D0432A2DD03DE0658234
:10244800A28A3C2A01D9657201E0521CA2820028A6
:1024580000DA40424843C821FFF7DCFA344F80379E
:10246800F9694018F8617969884226D3334881426E
:1024780023D9FD61708B401C80B27083642808D911
:1024880032216438FFF7C6FA2D4948432D49081A06
:1024980000E02C48786110E0A582608A2A498842C9
:1024A80006D3658201206072306A401C306204E005
:1024B800617A002901D1401C608224481C490378B4
:1024C8004031AF203C2200018A5E012B0DD18242AF
:1024D8000BDC2583E07A002812D10120E072154830
:1024E80040308189491C81810AE0824207DD208BC6
:1024F8001E2802D2401C208302E0E57200E02583FA
:102508001348A17A0088012908D0E582000704D57C
:10251800706A401C70620120A072F8BD0007FCD4EC
:10252800E08A1E2802D2401CE082F8BDA572F8BDE0
:1025380000090020AC09002074000020802FA604A8
:10254800A0B42300808EF20D701700002B0000202D
:102558001800002010B500F083FA01200849C003D4
:1025680088627D20C00001F0F3FD05200022802153
:10257800000700F0CFFB7D20000101F0E9FD10BD50
:102588000004005010B51249002212480A703C237A
:10259800C35E1148834201DA012000E0104608704A
:1025A80004460E48FF21038801318B430849891EE0
:1025B800002C0AD04C78641CE4B24C70282C03D947
:1025C8004A700380FFF7C6FF10BD03804A7010BD34
:1025D8007000002040090020FC0800006400002072
:1025E80070B5012001F044FA0A4E0B4CF51400288E
:1025F80004D00120F060208828432080012001F0C9
:102608002DFA002804D0012030612088284320803A
:1026180070BD0000001802406400002010B50820BA
:1026280001F026FA064C002801D00820E0600820B6
:1026380001F014FA002801D00820206110BD000024
:1026480000180240F8B50126B603304601F010FA2A
:102658003711294D294C002803D0EE6020883843D3
:102668002080304601F0FAF9002803D02E61208836
:1026780038432080102001F0FBF90126760200285B
:1026880004D01020E860208830432080102001F01A
:10269800E5F9002804D010202861208830432080E4
:1026A800202001F0E5F901263603002804D0202077
:1026B800E860208830432080202001F0CFF90028EE
:1026C80004D020202861208830432080FF2601364E
:1026D800304601F0CDF97701002803D0EE6020885C
:1026E80038432080304601F0B9F9002803D02E6124
:1026F800208838432080F8BD00180240640000207C
:10270800F8B502F08BFFFF262D36304601F020FD8C
:1027180001225103194800F0FDFA03F037FA184C6A
:1027280020690225A84320610421304603F052F9AC
:1027380000F02CF800F0C4FA1248012102680A439C
:1027480002600068084000900E4809074038C26BD4
:102758000A43C263C06B08400090012003F00EFCDE
:102768000948C1690902090A62041143C161206963
:1027780028432061012003F079FFF8BD00040050D0
:1027880000E000E04010024004ED00E00748016866
:10279800C908C900491C01600548026904210A43A7
:1027A800026130BF02698A430261704700700040CD
:1027B80000ED00E030B5164A11680B18154902E023
:1027C80014689C421BD20C69E443E403F8D50B69F6
:1027D800114C2340641C0C618C690125AD072C4009
:1027E80003D08D6925438D612343002B01D001203F
:1027F80030BD1368181804E01368834201D303201E
:1028080030BD0B69DB43DB03F6D5002030BD00008B
:102818000000002000200240FA830000012200216D
:102828001203101A82B210B509480A4B006805E075
:102838004C001C5B944203D8491CC9B28142F7DBA7
:10284800002901D0814201DDFE2010BD084610BDDF
:10285800D4060020446B000810B5FFF74BFD002894
:1028680005D0012801D100F003F800F0F9F810BDF7
:102878007FB5002215481346114600920192029234
:102888006D4603928418267AFF2E01D0012B02D1BF
:10289800AE5C01232672521C102AF3DB0022831837
:1028A8002033521C1972202AF9DB094A0260416060
:1028B800012202760322427641830162034A416281
:1028C8004032816491810349C1837FBDAC090020F6
:1028D80034120000191600003EB55F49002208684E
:1028E8004968009001916846017801724178417207
:1028F80081788172C178C172584B02981860684615
:10290800017901724179417281798172C179C1720B
:102918000298586050480830D10008180468456883
:10292800009401956C46C91824780C726C4664783A
:102938004C726C46A4788C726C46E478CC726C4607
:1029480024790C736C4664794C736C46A4798C7347
:102958006C46E479521CCC73022ADDDB8168C268BC
:10296800009101926946097819766946497859763D
:1029780069468A784A72CA780A7209895983694607
:102988000A794A704A790A700988998369468A7966
:102998004A70CA790A700988D98301694269009125
:1029A800019269460A780A724A784A728A788A7263
:1029B800CA78CA720299196269460A790A724A790A
:1029C8004A728A798A72CA79CA72029900221830C0
:1029D8005962D1000818046845680094C91801951F
:1029E8006C46203124780C726C4664784C726C46C4
:1029F800A4788C726C46E478CC726C4624790C739B
:102A08006C4664794C736C46A4798C736C46E47993
:102A1800521CCC73042ADCDB8168C06801900091E9
:102A28006846017801724178417281788172C17873
:102A3800C1720298986468460179417041790170C1
:102A48000649008840318881684682794270C27997
:102A580002700088C8813EBD00F80008AC0900205B
:102A6800F0B589B00025944E079500F031FA01467B
:102A780092480190C18172B600F060FC0220049077
:102A8800304600F053FB05900120069007A904A8E2
:102A980000F0F6FB00287DD188486A464038016876
:102AA8000091117811725178517291789172D178A0
:102AB800D1724068009010781073507850739078F5
:102AC8009073D078D073029A039B17461C46314600
:102AD800012000F011FC0028DDD1306871687840D1
:102AE80061400843D7D1744C08347448EA00403830
:102AF8001018037A69460B72437A4B72837A8B7289
:102B0800C37ACB72037B0B73437B4B73837B8B73CF
:102B1800C07BC8731419029A039B17461E462146A8
:102B2800012000F0E9FB0028B5D1206861687840F1
:102B380071400843AFD16D1C022DD6DB25465F4C92
:102B48006846403C217E0172617E4172618B018042
:102B5800417881720178C172A18B0180417801733B
:102B680001784173E18B0180417881730178C173E9
:102B7800029A039B083517461E462946012000F095
:102B8800BBFB002806D12868696878407140084373
:102B980000D100E082E0206A009068460278027264
:102BA8004278427282788272C278C272606A0090F9
:102BB8006846017801734178417381788173C178DF
:102BC800C173029A039B083516461C462946012004
:102BD80000F092FB002861D1286869687040614064
:102BE80008435BD12C46083400253448EA004038B5
:102BF80010182030037A69460B72437A4B72837A35
:102C08008B72C37ACB72037B0B73437B4B73837BCF
:102C18008B73C07BC8731419029A039B16461F4610
:102C28002146012000F068FB002837D12168606840
:102C380071407840014331D16D1C042DD5DB1F480C
:102C480025464038806C00906846017801724178CA
:102C5800417281788172C178C17201980835818981
:102C68006846018041780173017841730198C189F0
:102C780068460180417881730178C173029A039B89
:102C880014461E462946012000F036FB002805D1CF
:102C98002868696860407140084305D000F01EFB51
:102CA80062B6012009B0F0BD00F018FB62B6FFF76C
:102CB80013FE0020F6E7000000F80008EC090020E9
:102CC80010B5012000F070FE012000F065FE102014
:102CD80000F06AFE102000F05FFE202000F064FE85
:102CE800202000F059FEFF240134204600F05CFE4D
:102CF800204600F051FEA401204600F055FE204673
:102D080000F04AFE10BD0069814301D000207047E1
:102D180001207047002A01D08161704781627047A5
:102D2800F8B5044600204B4D014606464A005219A4
:102D3800928A00926A4652782254401C6A46C0B26F
:102D480012782254401C491CC9B2C0B20B29EDD3D9
:102D580007E02654401CC0B22654401C491CC0B28F
:102D6800C9B21829F5D33B4A38214032515E009147
:102D7800694649782154401C6946C0B209782154F3
:102D88003C21515E0091401C6946C0B249782154EB
:102D9800401C6946C0B209782154401CC7B23E2085
:102DA800105E0A21FEF736FE0B2148436946009063
:102DB8004878E0557F1CF8B209782154401CC7B206
:102DC80024480A218030006AFEF724FE2249401870
:102DD800694600904878E0557F1CF8B2097821547C
:102DE800401CC0B2A9782154EA79A979520011434C
:102DF800401C8907C0B2890F21541849401C098812
:102E080000916946C0B249782154401C6946C0B255
:102E180009782154401CC0B2A97C2154401CC0B27E
:102E2800697C2154401CC0B2297A2154401CC0B28C
:102E3800697A2154401CC0B22654401CC0B22654A2
:102E4800401CC0B22654401CC0B22654401CC0B21C
:102E5800F8BD0000000900203075000018000020AF
:102E6800F0B5194B98681869186818490840810224
:102E780042044506890E540E6D0E084601F0E0FE28
:102E88000646204601F0DCFE0446284601F0D8FE3E
:102E980059680546C020C04308400902C204870695
:102EA800090ED30EBF0E084601F0CAFE184601F0FF
:102EB800C7FE384601F0C4FEE120000146433C202D
:102EC800444330194019F0BD002800407F7F7F003F
:102ED80010B5164800210CC89A18083843181B7AF0
:102EE800491C9A1889B21029F8D3017E8918427EA4
:102EF8005118428B51181C22825E5118C28B5118EE
:102F0800026A5118426A52180021431828241C5793
:102F1800491CA21889B22029F7D30449806C403192
:102F280089898018081880B210BD0000AC090020FB
:102F380010B502F071FA404210BD0000FEB5002441
:102F480069468C8005460C72264601A902A803F042
:102F5800ABFB00284CD06846007A264F012802D0E7
:102F680002280DD101E0244801E02348A830009050
:102F780069468B88387C0422204900F031F9C4B2B4
:102F8800BA78502A20D9101B401D0A281CD94B2773
:102F98005A263F01642C0CD26420011B801A7D2222
:102FA800D2005043FEF720FD80B22880B84203D8F3
:102FB80004E07D20000128802F8019E0FF21F531F1
:102FC800884215D2298013E0111B7D20C000491CBE
:102FD80002290BD907498031A24202D24B89834288
:102FE80004D3A24204D94989814201D928805A26AA
:102FF8003046FEBD00090020160400209100002084
:10300800FEB5002469468C8005460C72274601A946
:1030180002A803F09BFB00285DD06846007A324E78
:10302800032804D0042804D005280DD128E02F480F
:1030380000E02F48009069468B882C49307C072295
:103048000F3900F0CDF8C4B2B078411E132904D965
:10305800142C3BD8317C3C2938D9244901223039F9
:103068000A70011B7D264A1D36010A2A0DD9002C3B
:1030780008D0204948432146FEF7B6FC288002E0E4
:103088001D48D7E72E805A270DE01A4A491C022905
:1030980006D9A04207D2144880300089904202D94C
:1030A8002A805A271DE02888B04201D92E8018E0CE
:1030B8007D21C900884203D20B4A127C3C2A03D8DE
:1030C800FF21F53188420CD229800AE00749002007
:1030D8003039087004E0054830380078002800D1FD
:1030E800AA273846FEBD000000090020A4000020E1
:1030F800CA0100201A040000F002002010B504469E
:10310800094800218278142A0CD9007C00F026F89E
:103118007D225A2112012080904202D892109042BA
:1031280000D22280084610BD000900201F21C906D0
:103138004018C00A704770B50E46044664213046F0
:10314800FEF752FC0546C8213046FEF74DFC001933
:103158002946FEF749FCC0B270BD0000F8B51D490C
:1031680000254E882C46AA008A5A82421AD9002D78
:1031780008D0AC0063181F46403F095BBA8FFC8F2C
:103188005B8803E00A8834461146234691420DD9EC
:10319800A3420BD9801A1B1B5843891AFEF73AFC25
:1031A80081B204E06D1CEDB2052DDCD300210A4884
:1031B800002D08D0052D0BD26118322905D9FEF74C
:1031C80013FC80B2F8BD3146F9E729204001F8BD6B
:1031D8000248F8BD66050020289A01001A0400007C
:1031E80070B50024049E04E00D5D854203D8641C7C
:1031F800E4B29442F8D30025002C0BD0002D15D052
:10320800601E1521484340194000801940383E216E
:10321800415E10E06900705E002D04D08A19403AC2
:103228003E21515E0DE00021715E0AE0601E15210D
:1032380048434000315E601E15225043401940004B
:10324800305E834204DC6D1CEDB2152DD4D301E051
:10325800002D10D0142D10D881420CDD091A181A2F
:1032680082008018FEF7D6FB1421491B8A008918B2
:10327800401800B202E0642000E0002080B270BD77
:10328800F0B506467D200F46C000FFF793FA0028E8
:103298001FD1411E39600F4C756811E06069FF212C
:1032A800F9318843E90001430B48014361617D20FE
:1032B800C000FFF77FFA002801D03D6005E06D1CD3
:1032C8007268B1685118A942E8D86169022291432D
:1032D8006161F0BD002002400200010005490120A3
:1032E8004A69C3071A434A614969002900DA00207C
:1032F8007047000000200240F0B51FB406467D204C
:1033080017460D46C000FFF755FA002812D10A4C9F
:10331800012E08D160690121084360612F60BFF365
:103328006F8F039868607D20C000FFF743FA6169DA
:10333800B143616105B0F0BD00200240064900209C
:103348004A69002A07DA054A8A60054A8A60496993
:10335800002900DA01207047002002402301674558
:10336800AB89EFCDBFF34F8F04490348C860BFF363
:103378004F8F00BFFDE700000400FA0500ED00E0F4
:10338800F7B588B00446182101A8FEF7C1FB002054
:1033980000903348012684422ED1324D0220696BB9
:1033A80001436963696B014047050791E86B38433E
:1033B800E863E86B039638400790201501900220D7
:1033C8000290062006900496059601A9264800F06A
:1033D800A1FBE014019002200290062006900396BB
:1033E8000496059601A9204800F094FBE86A384342
:1033F800E862E86AB843E862206840084000206054
:1034080020681A490840206020680121490488433F
:103418002060C80020612068304320600098A060C8
:103428000998A1680143A160A1680120C003014374
:10343800A16061680E4A1140616061688143616002
:103448000021182002F0FAFF182002F0A7FF2168D7
:10345800BE20014321600020A0620BB0F0BD000037
:10346800005800400010024000040050FFE0CF0068
:10347800FF7FFF07F8B5594CA569FE21284608408B
:103488005749FEF75AFB0746072128460902084014
:103498005349091DFEF751FB00905148012108309E
:1034A800002642C038071AD5A069C00309D5A0690B
:1034B8000843A0614A48001FFEF735FB2105084371
:1034C80005E04748001FFEF72EFB4000400844492E
:1034D800091FFEF732FBE06908210843E061414D0E
:1034E800B8070DD528786A784108891809063E4A30
:1034F800C90D515AC207120FD140A162401C287051
:10350800780711D5636A3749AA78C91C8B54521CAD
:10351800D2B2AA702E700B786B70022A04D1487848
:103528000978000208436870F8060BD52C48AE707D
:10353800001FFEF7F8FA0121490708432849091F27
:10354800FEF7FBFAB8061AD5E06910210843E061D6
:103558002348001FFEF7E7FA002804DA4000400875
:103568000121890701E00121090708431C49091FB6
:10357800FEF7E3FAAE70E06920210843E0610098A5
:103588001A4DC0050AD5E814E0611548001FFEF77A
:10359800CAFA13492843091FFEF7CFFA0098800595
:1035A8000BD501204002E0610D48001FFEF7BBFA71
:1035B8000B492843091FFEF7C0FA009840050BD5B0
:1035C80001208002E0610648001FFEF7ACFA0449BA
:1035D8002843091FFEF7B1FAF8BD00000058004063
:1035E800140E0020E2070020960B002000000008BF
:1035F80010B5034A16210348FFF7C2FE10BD0000AC
:10360800A086010000580040F0B5214E38233C2424
:10361800F35E345F864600201B1B1F4609371D4C8E
:10362800014605460246122F01D9012703E01F1D56
:10363800082F01D800276770174FDB197F00BB429E
:1036480001D9002363703E23F35E9C46104B403B38
:103658004E00F618B68A114FBE4205D9664503DDFD
:1036680001252E468E403243491CC9B20B29EFD39F
:1036780071460A605979432908D1997B642905D292
:10368800012D03D16178012900D10120F0BD00008E
:1036980040090020D8060020E7030000480D00007C
:1036A80038B5324A32485179324C0025432940D046
:1036B800442954D000220821FFF72CFB69460D80CD
:1036C80008782D49400809784000C907C90F084300
:1036D800FD21084029490978C907890F0843FB21BA
:1036E800084027490978C907490F0843F7210840C6
:1036F80024490978C907090F0843EF2108402249DE
:103708000978C907C90E0843DF21084021784A070C
:10371800D20F520110434906BF22C90F1040890138
:1037280008436946087009881848002919D00122F9
:1037380018E0174909784B07164907D52378DB079E
:1037480004D09278642A01D38D7004E08A78002A24
:1037580003D000228A708A78ADE70122FAE70122B5
:10376800A9E700220821FFF7D5FA38BD0009002093
:10377800000C005018000020220000203A00002011
:10378800340000203D0000203700002000040050D5
:1037980064000020CA06002018B500210091826844
:1037A800D207D20F2DD0C26837239B019A43C2603B
:1037B80082683A4B5207D20F07D08268D206D20FDE
:1037C80003D182681A40103282600122D20300922B
:1037D80003E0009C641E009409D08468E406E40FAA
:1037E800F7D184681C40A41C8460009205E0012184
:1037F800F7E7009A521E00923BD082689207D20FD8
:10380800F7D1826817231A4230D14268244B1A40F4
:1038180042600268DB431A430260826801231B0787
:103828009A438260C2681F4B1A40C26002691E4BED
:103838001A40026142691D4B1A404261026A130B29
:103848001B4A1B0313430362436A1B0B1B031343EB
:103858004362C36A1B0B1B031343C362826AD20C05
:10386800D204826203221204009208E00121084671
:1038780018BD0121C5E7009A521E00920CD00268BB
:103888009204D20FF7D00122520302608030426BBB
:10389800D209D2014263EAE70121F4E7E8FFFF7F9A
:1038A80060D4FFFF00023E8302FCFF3F880000F85F
:1038B8000000FF0F70B583680022DB07DB0F02D022
:1038C8000122104670BD8C684B68C5682343CC68DC
:1038D800054E35402C432343C360036909689B00A8
:1038E8009B080B430361ECE7C73FFFFF70B54D68CA
:1038F80083680022DB07DB0F02D00122104670BD6F
:10390800C46801235B051C420E4B01D0F02D08D082
:103918008D680C680E692C43CD6835432C434D697E
:1039280005E0CD680C684E692C430D6935432C437E
:10393800C5681D402C43C4604968836A0B43836291
:10394800DCE700003CC2FEFF10B5436904242140B7
:1039580007248C40A3438A401343436110BD0000F1
:1039680008B504490A6802430A60096801400091E1
:1039780008BD00004010024002490A6B02430A6376
:10398800704700000010024002490A6B82430A6334
:10399800704700000010024002494A6882434A60AA
:1039A800704700008018024002490A6882430A6092
:1039B800704700008018024010B50479002326499A
:1039C8000268002C41D0002A3DD04479002C12D046
:1039D800012C18D0022C19D001238279002A32D068
:1039E8001D498039012A19D0022A20D0032A22D061
:1039F8000220034327E04C6894434C6002680C683B
:103A080014430C60E9E70C68944301E00C68144324
:103A18000C6002684C6814434C60DEE702684C682E
:103A280094434C6000680A6802430A600BE002682D
:103A38000C68944302E002680C6814430C60006848
:103A48004A6802434A60184610BD0C6894430C60EB
:103A580000684A688243F5E780180240034909690B
:103A6800884301D0002070470120704700180240A9
:103A78000349C968884301D0002070470120704776
:103A8800001802408A07130F054A10B59B181A6ED2
:103A9800090C07248C40A243884002431A6610BDD3
:103AA8000018024010B5052100240907884204D1F6
:103AB800012000F0A5F801201EE01249884204D137
:103AC800022000F09DF8022016E00F49884204D138
:103AD800042000F095F804200EE00C49884204D137
:103AE800082000F08DF8082006E00949884206D130
:103AF800202000F085F8202000F08AF800E001245A
:103B0800204610BD0004005000080050000C005072
:103B180000140050F0B500243EE001232A46A340DB
:103B28001A4038D04F680668134653435D005D1944
:103B3800AE435F433E4306604E68012E01D0022E1D
:103B480005D18F6886685F43AE433E4386600F6940
:103B5800C668AE431D467D432E43C6604D68022DA0
:103B680019D1FF2A0AD84E69056A534353431A01EB
:103B7800D21A954373431D4305620CE0130A1A4693
:103B88005A435A435A4313019E1A4D69436A6A437A
:103B9800B34313434362641C0A681546E240BCD130
:103BA8004A68012A01D0022A06D1CB6841682A4610
:103BB80091435A43114341600020F0BD10B503689A
:103BC80049434C000C19A34351430B43036010BDF8
:103BD80008B504494A6B02434A63496B01400091A6
:103BE80008BD00000010024008B504494A6B0243B2
:103BF8004A63496B0140009108BD00000010024073
:103C080002494A6A02434A627047000000100240B3
:103C180002494A6A82434A62704700000010024023
:103C280010B57D21C900FDF7DFFE0449401E48613B
:103C3800002088610520086110BD000000E000E058
:103C480010B5044600F0BEFF206000F09BFF6060E6
:103C580000F0A8FFA06010BD014610B500200329A0
:103C680013D1134A516903238907890F1B04194388
:103C7800DB43C9180AD001290BD0022911D000F062
:103C8800A1FF00F07FFF00F08DFF10BD00F09AFF4C
:103C980010BD0749403909684905C90FF8D00548DA
:103CA80010BDD1698907C90FFAD00120C00310BD22
:103CB800401002400024F40010B5029C4903240679
:103CC800240A1B0621431B0C1943D2B21143426834
:103CD800024B1A400A43426010BD0000C00000FFBA
:103CE800F8B5012614460F460546002906D1607826
:103CF800C10603D5EF2108400A306070CA20686207
:103D080053206862284600F041F801282AD0E0785C
:103D1800002F04D000906378A278217816E00A2159
:103D2800FDF762FE00010843C7B260780A21FDF77B
:103D38005BFE00010843C6B2A0780A21FDF754FED5
:103D48000001084300972178C2B233462846FFF79E
:103D5800B3FF80200849C043C860A8698006C00F27
:103D680004D00026FF2068623046F8BD284600F0DF
:103D7800BFF80646F6E70000002800400121017060
:103D8800817041700021C1707047000018B57D2115
:103D9800C9000091C16800224906C90F15D1491E02
:103DA800C160C1680B4B4906C90F0CE01969C9030A
:103DB800C90F02D00099491E0091C168009C4906AC
:103DC800C90F002C03D00029F0D0104618BD0122DD
:103DD800FBE7000000E000E070B504460126CA20B9
:103DE8000D466062532060622046FFF7CFFF01282E
:103DF80017D02968A069402290430843A061A868A9
:103E08002169C90BC90301432161A98820697F225F
:103E1800120490430904084320618020C043E060F5
:103E28000026FF206062304670BD00001206120AAC
:103E380010B50A431906090C029C0A43E1B20A4369
:103E48000168024B19401143016010BD808080FF5A
:103E5800F8B5054614460F4601260020AA694021F8
:103E68000A4200D12060CA2068625320686228464E
:103E7800FFF78CFF01282AD0A079002F04D00090EA
:103E880063792279216816E00A21FDF7ADFD00016A
:103E98000843C7B260790A21FDF7A6FD000108436F
:103EA800C6B220790A21FDF79FFD0001084300975B
:103EB8002168C2B233462846FFF7B8FF8020084978
:103EC800C043C860A8698006C00F04D00026FF2040
:103ED80068623046F8BD284600F00AF80646F6E75C
:103EE8000028004000210160017141718171704713
:103EF80038B57D24E4000094C268002180231A406C
:103F0800A13AC260C268164B9206D20F0CE01A6939
:103F1800D203D20F02D0009A521E0092C268009DAE
:103F28009206D20F002D18D0002AF0D1002912D104
:103F38000094C2689206D20F0BE01A69D203D20F1E
:103F480001D0621E0092C268009C9206D20F002C1B
:103F580003D0002AF1D0084638BD0121FBE7000054
:103F680000E000E0014908607047000014000020EC
:103F780070B516490024884201D1C5141BE01449C4
:103F8800884208D113480221C26A0A43C262C26A3F
:103F98008A43C26217E01049884201D1C5130AE07A
:103FA8000E49884202D101256D0404E00C4988427B
:103FB80008D10125AD042846FFF7DEFC2846FFF7A7
:103FC800E3FC00E00124204670BD0000002C014005
:103FD800000400400010024000200040004401405E
:103FE8000048014070B50268174B184D984201D03F
:103FF800A84203D17024A2434C682243144E154CA6
:10400800984208D0A84206D0134DA84203D0B04227
:1040180001D0A04204D103252D02AA43CD682A432A
:1040280002608A68C2620A888262984203D0B042FB
:1040380001D0A04201D1097C0163416901221143E9
:104048004161002070BD0000002C014000040040C8
:104058000044014000480140002000404168092216
:10406800D2029143416081682A229143816070475E
:10407800FEB5044600680D46012738405CD1296921
:10408800A868EA69084369691143084321682B4A0B
:10409800114008432060E9686068032212039043D6
:1040A80008436060A969A068121190430843A060A2
:1040B8002348844203D10320FFF7CEFD06E02148C0
:1040C800844232D16846FFF7BBFD029800282CD005
:1040D8006E68002E29D029680027EA690B2924D8A0
:1040E8000123DB039A4213D109068A0D1649895820
:1040F800FDF77AFC4000710840183146FDF774FC62
:1041080081B2124808400907490F0143E1600CE0F9
:1041180009068A0D0C498958FDF766FC7108401894
:104128003146FDF761FC80B2E0602888E16A80B220
:10413800090909010143E1623846FEBDF369FFEF51
:104148000038014000440040B46A0008F0FF000055
:1041580008B505490A69009203E00A69D20300D547
:10416800401E0028F9D108BD00E000E0FEB500249B
:10417800684684809A490079098840088A0740007F
:10418800D20F1043CB06FD22DB0F10405B00184313
:10419800F72318408B05DB0FDB0018438906EF2354
:1041A800C90F184009010843DF2108408D49914D86
:1041B8000978C907890E0843BF2108408A49097848
:1041C8008901084341068948490E0078C001014326
:1041D800684601718649407909784008C907400056
:1041E800C90F0843297810400907C9174900891CD5
:1041F8008907890F014368464171D11C7E48FEF743
:1042080082FD2E88C0070821000F8E4306437B4B92
:104218002E80684681881D461A4640357848803287
:10422800002903D07749118144700EE03C21695E72
:10423800754FB94209DD997B612906D2D97B0529D9
:1042480003D9310701D50121417000216C46218035
:104258002178634C490824884900E707FF0F394350
:10426800FD2739406705FF0F7F003943F72739409D
:10427800E705FF0FA446FF003943A406EF27E40F24
:10428800394024012143DF242140594C3C2724781C
:10429800E407A40E21436C4621706178FD24214077
:1042A8005A4C2478A646E407A40F21436C46617053
:1042B800EF5F574CA74202DC0424214301E0FB24B2
:1042C80021406C466170740710D4FF24176A2D349E
:1042D800A7420BDAC7884F4CA74201D27F1CC78080
:1042E800BCB2F02C04D30824214303E00024C4808A
:1042F800F72421406C466170218801273F0300297B
:104308001AD000247D210471C90051817146012908
:10431800918809D0B9436546EE073F4D918005D095
:10432800AE003143A94304E0394302E0294349047C
:10433800490C9180047030E0017900290FD03821B0
:10434800695E364CA1420CDA997B5C2909D2D97B8B
:10435800052906D9710704D50121017004E001215E
:1043680001710178002918D05488012189038C43F0
:10437800548041780125ED02002913D0AC436546ED
:10438800AD05ED0FBC432D032C4354809E780125C9
:104398006D020A2E08D82C4307E0548801218903AE
:1043A8000C43E5E72C43EAE7AC435480DA798A42C8
:1043B80003D19B790478A3420DD0012904D1012AA5
:1043C80002D0C278002A03D0007801F04BF804E04C
:1043D8000121C170FEBD0021C170FFF761F9FEBD6A
:1043E80018000020490000204C0000204F00002049
:1043F800460000206400002000040050000900204E
:10440800CA0600201A040000C40900002E0000207B
:10441800DC0500003075000000200000420E00009E
:1044280030B591B000240694079408941821684682
:104438000994FDF76DFB18210AA8FDF769FB414DAA
:104448002846FFF7A9F940480121026809050A43EF
:1044580002600068084010903B4801214038426BD8
:104468000A434263406B0E940840109020200A9043
:1044780003200B9005200AA90007FFF74BFBE8680B
:10448800012149058843E86048020690079408948A
:1044980006A909942846FFF70DFAF0200094019028
:1044A800029403940494694605942846FFF71EFA7B
:1044B80028694008400028612869E9048843286180
:1044C800072200212846FFF73FFA07221F492846FE
:1044D800FFF73AFAA8681E4908400121090708436E
:1044E800A8601C481C4940890880FDF7C3FB1C488C
:1044F8001A490068FDF778FA142148430A21FDF7A4
:1045080073FA00E0401E0028FCD116480322016817
:10451800D2040F239B0499431143016001220168CF
:10452800920507239B05994311430160A86A052159
:10453800000900010843A86268695112884368614C
:1045480011B030BD002401404010024004FFFF07B5
:10455800E8FFFF7FA075FF1F04000020400D030047
:104568001400002008270140FEB5002536480095B4
:104578000195C16949084900C16129462846FFF7E4
:1045880081FA32490120FFF77DFA01210846FFF739
:1045980079FA2F490120FFF775FA02210120FFF768
:1045A80071FA0520002201210007FFF707FB294CBB
:1045B800002210212046FFF701FB0022202120467F
:1045C800FFF7FCFAFF260136002231462046FFF7A6
:1045D800F5FA2701002239462046FFF7EFFA0124B1
:1045E80068460094457184710471FFF7E5F96846DF
:1045F8000097457184710471FFF7DEF9102000906F
:104608006846457184710471FFF7D6F9202000903F
:104618006846457184710471FFF7CEF968460096C3
:10462800457184710471FFF7C7F90021052001F075
:10463800C1FE052001F09AFE0021072001F0BAFE14
:10464800072001F093FEFEBD401002400300100059
:104658000100080000040050F0B587B01821684632
:10466800FDF756FA05200007FFF71CFA564E3046AC
:10467800FFF718FA5548FFF715FA5548FFF712FAE9
:104688005448C16949084900C1610120FFF7A0FAEF
:104698000220FFF79DFA0420FFF79AFA0820FFF797
:1046A80097FA8020012400250090052001940395A5
:1046B8006946049502940007FFF72CFA05200122A9
:1046C80080210007FEF726FB4027052069460007E2
:1046D8000097FFF71FFA052000078762E70369467E
:1046E80030460097FFF716FAB76108276946384839
:1046F8000097FFF70FFA1020009005206946000781
:10470800FFF708FA0520002210210007FEF702FB38
:1047180002200090052069460007FFF7FBF90520F5
:10472800012202210007FEF7F5FA69463046009794
:10473800FFF7F0F9694626480097FFF7EBF967039A
:10474800694630460097FFF7E5F9002239463046BA
:10475800FEF7E0FAE0020090052001940394694610
:10476800049502940007FFF7D5F927030520694649
:1047780000070097FFF7CEF9694630460097FFF724
:10478800C9F9B76205206946000701950094FFF74B
:10479800C1F92020009069463046FFF7BBF9102088
:1047A800009069463046FFF7B5F9A00300906946C6
:1047B8003046FFF7AFF92002009069463046FFF710
:1047C800A9F907B0F0BD000000040050000800502F
:1047D800000C005040100240F0B587B000252E486C
:1047E800039501688215114301602C48C169D20103
:1047F8001143C161011529484038C26B0A43C2639D
:10480800C06B0840264906900868FF273A04904381
:104818000122D205104308600126224904200860BD
:104828007F20214C049003A905972046FFF7D4FA6E
:104838001E480178012921D006706846FFF752FB0F
:1048480002A8FFF79BFA0E206946087132204871CA
:104858008D716A46002120460095FFF7F9FA02207B
:1048680069460872062048728E721520C87202AA1C
:1048780000212046FFF734FA07B0F0BDCA20606275
:1048880053206062A0698006C00F02D12046FFF75E
:104898002FFB6762F0E70000007000404010024004
:1048A80000E400E000E100E0002800400C000020E7
:1048B80000B585B014216846FDF72AF901204004A7
:1048C800FFF74EF80021152001F096FD152001F0A4
:1048D80059FD0F2069460880FF210020F53102911B
:1048E80001900390694608740248FFF77BFB05B006
:1048F80000BD000000440140F0B58FB0202106A89B
:10490800FDF706F918216846FDF702F92348012149
:10491800026889030A430260006808400E9001207B
:10492800FFF762F9012000240125400205270595BB
:1049380002263F0700900294039469460196049466
:104948003846FFF7E7F8A80205950090029403940B
:104958006946019604943846FFF7DCF8E1204002E6
:1049680007900894069409940A940C940D940C20CA
:104978000B4C0B9006A92046FFF77AFB2046FFF761
:104988006DFB206828432060E0698002C00FFBD0DF
:10499800E0694002C00FF7D00FB0F0BD40100240F0
:1049A80000380140F0B58FB0202106A8FDF7B0F817
:1049B80018216846FDF7ACF83448C26A0121490459
:1049C8000A43C262C26A8A43C262C26B0A43C263B2
:1049D800C06B08400E900120FFF706F9002401255E
:1049E80008200527059502263F07009002940394A6
:1049F8006946019604943846FFF78CF8042005951B
:104A08000090029403946946019604943846FFF78F
:104A180081F8E120800107900894069409940A948B
:104A28000C940D940C201A4C0B9006A92046FFF705
:104A38001FFBA068C000C00879000843A060A068F8
:104A4800072149068843F9100843A0602046FFF76C
:104A580005FB10480168090A090201600E49A00413
:104A6800086020682021084320602068102108433E
:104A78002060206828432060E0698002C00FFBD0D6
:104A8800E0694002C00FF7D00FB0F0BD001002403F
:104A9800004400401CE400E000E100E0704770477B
:104AA80010B501F0EDFB1D4C206201F09DFF606226
:104AB80020462030017A552907D100210172FEF7DE
:104AC80037FA17498883FDF7CBFF206AFDF746FCC4
:104AD800124980394871442817D043281CD01148FE
:104AE800114AA0811068114BD968401A00D540427C
:104AF80081B2E1801068D860A289206A00F0EEF8DF
:104B0800E188206AFDF790FC10BD208968214843A0
:104B18006421FCF769FFE3E76089E1E78009002089
:104B2800AC0900201A0400000000002054000020F6
:104B380070B501F061FBFDF706FB01F027FBFDF7FF
:104B48004DF9FFF713FB01F083F900F09DF80B4CCA
:104B58006169A069FEF7EFFA2546803DA87008490B
:104B68006069FEF7E8FAE87001F074F8FDF70AFDED
:104B780000F06CFF00F034FE70BD000080090020DA
:104B8800808EF20D054989688A093C210A400A404D
:104B98000349895CC906C90EC84070470010024025
:104BA800E46A000805498968054A4904490F8900EB
:104BB800515CC906C90EC840704700000010024089
:104BC800246B000810B50B49886838221040082863
:104BD8000AD010280AD0086801218004400F8140BB
:104BE8000548FCF701FF10BD044810BD00F008F8A7
:104BF80010BD0000001002400024F40000127A00EA
:104C080010B50D4AD0680D498007800F022802D0E0
:104C1800032800D14910D068440FD0684006430FDC
:104C2800D068641C4004400E4843591CFCF7DCFE65
:104C38002146FCF7D9FE10BD001002400024F40004
:104C480001090A2200075143000F4018C0B27047FB
:104C58000B48016DC907C90F03D0C16D012211436B
:104C6800C165016D4907C90F08D0C16D0422114300
:104C7800C165044892010188114301807047000012
:104C8800002800406400002070B51249114C497991
:104C980000208034104D432908D0442910D12846DB
:104CA8001030FEF7ADF9AA280BD00EE000202870CE
:104CB80009481030FEF742F95A2801D1298A618142
:104CC80070BD05481030FEF719FA5A28F8D1298A1C
:104CD800218170BD000900207400002070B51546C0
:104CE8000A460024C1172346FCF7CEFE2A4623466F
:104CF800FCF7CAFE7D22D2000023FCF79FFEC822E3
:104D08000023FCF79BFE0025144A2B4612882D1A17
:104D18008B4101DAD30603D4002903DA920601D5C0
:104D2800002001460E4A938994819B1CDD17C01A06
:104D38000C4AA9419369002906DA002801DB0146DB
:104D480000E041428B4202D31818906100E0946160
:104D580091695069814200D3906170BD6400002060
:104D6800740000208009002010B5094C6288211DBC
:104D780050546088C821401C80B2FCF735FE618021
:104D88002088814203D1C821FCF72EFE218010BD66
:104D9800F406002008B500206946087000F0F4F910
:104DA8000520012202210007FDF7B4FF0A20FFF7C2
:104DB800CFF900F0DBFBFA20FFF7CAF900F01CFC82
:104DC80001226946192000F065F940B2002805D192
:104DD8006846007802494006400E087008BD000089
:104DE800E007002070B50124052524032D070022C3
:104DF80021462846FDF78EFF012001F079F80122AF
:104E0800D60231462846FDF785FF022001F070F8EA
:104E1800002231462846FDF77DFF022001F068F8A0
:104E2800012221462846FDF775FF70BD70B505249F
:104E38000122240711032046FDF76CFF012001F031
:104E480057F80122D50229462046FDF763FF0220C4
:104E580001F04EF8002229462046FDF75BFF0220AC
:104E680001F046F870BDF8B500240127FF020526B9
:104E780025463607022001F03BF801223946304624
:104E8800FDF748FF012001F033F86006040E012108
:104E980009033046FDF737FF002801D0641CE4B24F
:104EA800012001F025F8002239463046FDF732FF8F
:104EB8006D1CEDB2082DDDD32046F8BDF8B50127ED
:104EC8000024FF02052605463607280601D50122DB
:104ED80000E00022012109033046FDF71BFF0120F5
:104EE80001F006F8012239463046FDF713FF68063F
:104EF800050E022000F0FCFF002239463046FDF77F
:104F080009FF012000F0F4FF072C04D1012211034E
:104F18003046FDF7FFFE641CE4B2082CD5D3F8BD7B
:104F280070B5022000F0E4FF0122052514032D07C7
:104F380021462846FDF7EEFE012000F0D9FF0122A8
:104F4800D60231462846FDF7E5FE042000F0D0FFE2
:104F5800002221462846FDF7DDFE042000F0C8FFA8
:104F6800002231462846FDF7D5FE012000F0C0FF9B
:104F780070BD70B50124052524032D0700222146A4
:104F88002846FDF7C7FE022000F0B2FF0122D10239
:104F98002846FDF7BFFE012000F0AAFF01222146A6
:104FA8002846FDF7B7FE022000F0A2FF70BD70B5DD
:104FB8000122052514032D0721462846FDF7AAFEE0
:104FC800022000F095FF0122D60231462846FDF75F
:104FD800A1FE012000F08CFF21462846FDF793FE34
:104FE800C4B2012000F084FF002231462846FDF7B4
:104FF80091FE022000F07CFF204670BDF0B58DB018
:105008000E4607461446042534216846FCF780FD01
:10501800342168460170477084703521C170FFF7EC
:105028007FFF3420FFF74AFFFFF7C1FF3846FFF73D
:1050380045FFFFF7BCFF2046FFF740FFFFF7B7FF2C
:10504800FFF76EFF3520FFF739FFFFF7B0FF6F4618
:1050580009E0FFF708FF7855FFF7C4FE785D6D1C7F
:105068003070EDB2761C2046641EE4B20028F0D100
:10507800FFF7F9FE0446FFF7D9FEFFF77AFF294646
:105088006846FDF71DF9A04202D100200DB0F0BD21
:10509800FF20FBE7F8B515460E46074600242A46CA
:1050A80031463846FFF7AAFF641CE4B2002801D055
:1050B800032CF4D3F8BD0000FEB50D4606460021CA
:1050C8006846017115A00068009068460C46467055
:1050D80085700321FDF7F4F801466846C170FFF7B3
:1050E8001FFF6F46385DFFF7E9FEFFF760FF641C9E
:1050F800E4B2042CF6D3FFF73CFF2320FFF728F88F
:10510800012201A93046FFF7C5FF684600798542AC
:1051180001D10020FEBD0020C043FEBD34000000C8
:10512800FEB50D46064600216846017115A00068C7
:10513800009068460C46467085700321FDF7C0F85C
:1051480001466846C170FFF7EBFE6F46385DFFF712
:10515800B5FEFFF72CFF641CE4B2042CF6D3FFF76E
:1051680008FF0520FEF7F4FF012201A93046FFF7EA
:1051780091FF68460079854201D10020FEBD0020DC
:10518800C043FEBD34000000F0B5002497B02546AA
:10519800FA20FEF7DDFF1A2207A90020FFF72EFFED
:1051A8006D1CEDB2002801D0032DF4D308A9487D69
:1051B80010254206520E4A75BF210B20084028438D
:1051C8002021084310A90874694608702846DF2181
:1051D80008408021084310A9087469464870088F60
:1051E8005949800A80024018032189028843000532
:1051F800000DED02401969460887060A8E70C870CE
:105208005521C900481969460887050A0D71487172
:105218007D2088718220C871AA2008727D2048727A
:105228004B208872BE20C87208A9087FF3230007A4
:10523800000FA03000090001801D08776946087337
:1052480010A908780007000FC03000090001401DB0
:1052580008706946487310A98320087169468873E5
:1052680010A91A2008726946C87310A9087BCF21B3
:105278008006800E084010301840083080088000F2
:1052880010A9087369460874900015182F48291842
:105298002F48FCF7A9FB694648742C483938291867
:1052A800A3208002FCF7A0FB6946487527481A30FE
:1052B80029182848FCF798FB694688752348633005
:1052C8002918F1208002FCF78FFB69468874224870
:1052D80029182248FCF788FB69460646C874204806
:1052E80029182048FCF780FB69460875CE750876B2
:1052F800002007AE6D46315C2A5C914200D0012443
:10530800401C1928F7DB002C1BD0052000220221A5
:105318000007FDF7FFFC0A20FEF71AFF0024305DA6
:10532800295D88420AD00027295DE0B2FFF7C4FE54
:105338007F1CFFB2002801D0032FF5D3641C192C61
:10534800EDDB17B0F0BD0000DA0200002704000012
:1053580000FE020000320300BA3C00000024740082
:10536800FD2E000000AA5800F1B586B000240622E0
:1053780001A94620FFF78EFE1748184F007801ADA7
:10538800810040185521C900461861006A5C6846CA
:105398004270481941786846017000880122014628
:1053A800D2037043511AFCF735FB81B2002001E0AB
:1053B800401CC0B24200BA5A8A4201D9A128F7D388
:1053C800002801D0A12800D9FE2006990855641CA0
:1053D800032CDADB07B0F0BDE0070020946E00086C
:1053E80030B591B005460024162201A94E20FFF7DA
:1053F80051FE01A962008B5C6846437050184378DF
:10540800684603700088641C8300C0184009A852CD
:105418000B2CEFDB11B030BD08B5022269464C20D9
:10542800FFF738FE694608784978000200B2084359
:10543800C113CA07094908D0002800DA4042084ABF
:105448005043FCF7E7FA404208BD002800DA404222
:10545800034A5043FCF7DEFA08BD00006A34000036
:1054680050C3000010B50C4A0B461178F9244908BE
:105478004900214008242143EF24C0072140C00EE1
:105488000143DF200140D807800E014311704020FE
:10549800FFF746FE10BD0000E107002038B50020E8
:1054A8000090032269464320FFF7F4FD002855D1F8
:1054B8006B461B782A49DA070888D20F4008400053
:1054C8001043022290439A07D20F5200104304223D
:1054D80090435A07DC06D20F920010434022E40F93
:1054E8009043A40120439B060824DB0FA043DB0064
:1054F8001843130198436B465B78DC07640D20431F
:105508009400A0439C07E40F240220431024A043E6
:105518005C07E40F24012043D4001B07A043DB0FE2
:105528005B0218436B469B7880241D07ED0FA04350
:10553800ED01284308809807C10F0A488171D907EF
:10554800C90FC171084908889043DA0992011043CC
:105558005A06D20FA043D2011043088038BD00007C
:105568001A000020000900206400002038B50CA0B3
:1055780000680090002403216846FCF7A1FE6946F4
:10558800C870FFF7CDFC6D46285DFFF797FCFFF765
:105598000EFD641CE4B2042CF6D3FFF7EAFC38BD18
:1055A80034EAC00010B50446010A4120FFF7B8FDEF
:1055B800E1B24220FFF7B4FD10BD000038B50DA1DF
:1055C8000968009169468870002403216846FCF741
:1055D80077FE6946C870FFF7A3FC6D46285DFFF7A4
:1055E8006DFCFFF7E4FC641CE4B2042CF6D3FFF76F
:1055F800C0FC38BD3440000010B5074908220878BF
:1056080010438B22104040084000FD2210400870D3
:10561800FFF7D4FF10BD0000E107002010B50649D0
:10562800012208781043F12210404006400E08700D
:10563800FFF7C4FF10BD0000E107002070B5174A4E
:105648009168411A00D54942154DFF24F534AB78CD
:10565800A14211DD90600120012B0FD000280AD053
:105668005079E02814D0E12814D0E0215171FF21AD
:105678005079FCF775FD70BD012BFCD1074800245B
:105688000C3084700748847300F074F9AC7070BDF6
:10569800E12000E0FE205071E9E70000E00600206C
:1056A800FC090020B4070020F8B507230027474E5F
:1056B8000124474DE12938D006DCA0290BD0A429C4
:1056C8000ED0E0297FD10EE0EA2972D0EB2948D02C
:1056D800FE2978D10DE03D4834700C38447072E0F2
:1056E800C47108236FE03470C01DFDF719FBC31D9A
:1056F80069E034707821C17100210172642343721A
:10570800652383720922C2720B2303730D2242732D
:1057180084730322C2739122027441748174C17428
:1057280001754175817517234DE03470698B090A3D
:10573800C171A97E0172A98C090A4172A98C817272
:10574800234940318A89120AC272097B0173298C64
:10575800090A4173298C81731E491023C978C173C2
:1057680031E01D493470087C632805D1487C6328E2
:1057780002D1887C632803D00720072A07D822E0B3
:1057880014485521A03001721DE014281BD22E1890
:105798000C187778647AA74205D074700F4C0127EB
:1057A80026883E432680401CC0B29042EDD30AE0D2
:1057B800FFE73470E919097AC1545B1C7F1CFFB2FA
:1057C8009BB2102FF6D3DB1F98B2F8BDEC06002071
:1057D800AC09002000090020FC090020640000201A
:1057E800FEB558480A21807B584E48435649554CC7
:1057F800401830828034208A7082206A00250A216D
:105808000290FCF707F9B082676A0A213846FCF76C
:1058180001F9F0824B484E4980787083B083A069C3
:105828000090FCF7E1F8F083606949490190FCF7C2
:10583800DBF830840298474E00280BDAFF212D311F
:105848000098FCF7D1F80246029841421046FCF74E
:10585800CBF800E030463D49002F488408DAFF21A4
:105868002D310098FCF7C0F87942FCF7BDF800E04C
:105878003046364980B288840290002F0FDDFF2120
:105888002D310198FCF7B0F80646FF212D3100981C
:10589800FCF7AAF8301A3946FCF7A6F800E03046BB
:1058A8002A49FF22C8842C4808852C484885254861
:1058B800029B8030013240880A2B01D2104300E05D
:1058C8009043204A6080507940234328608801D063
:1058D800184300E09843608088852148438BCB8536
:1058E800204B0B86204B4B860E235E1B6F007600E9
:1058F800B6187F1840376D1CB68AEDB27E840F2D1E
:10590800F3D3037A827A5B02D218407A0523DB024A
:10591800400118181018C8861148027BC37A100273
:10592800184340BA08870948A18880304185104942
:105938000E4808806420283108800F20C0022831D2
:105948000880FEBD000900201C090000960B0020FD
:1059580050460000FFFF00001027000004A60000CA
:10596800AC090020C83200008089000091030000C3
:10597800960D002008B5144A00219079052801D217
:10598800917108BD114B012018700F48807A552875
:10599800F7D10D48C07ABB28F3D10B48007B032808
:1059A800EFD10948407B009107498B7B69464B70D2
:1059B8000549CB7B69460B700099AA2389B25372BB
:1059C800FCF7CEFB08BD0000FC090020EC06002017
:1059D8007047000070B51A4ACA23536253235362B2
:1059E80093691515AB439361D36D04242343D365A1
:1059F800D3685B060AD4134C2668D3685B0705D4C2
:105A080023689B1B00D55B42642BF6DB50619069D1
:105A1800C008C00090619069084390610A4801235A
:105A28000168DB04194301609069591108439061CA
:105A3800906928439061FF205062002070BD0000EB
:105A4800002800400000002080180240F8B500221D
:105A5800684602804648006A002800DA4042454C01
:105A6800962805DD20780A2803D2401C207000E023
:105A780022703F48FB258038807B5C286846007888
:105A880002D30421084300E02840694608702178C1
:105A9800EF23002902D01021084300E0184069468E
:105AA800087035490988002902D02021084301E0FF
:105AB800DF210840694608702E48801C0678684631
:105AC800002E03D041780120014302E040784108CC
:105AD80049002940294D28884704FF0FBF00394352
:105AE8006F467970264FBF7B052F02D208273943AE
:105AF80001E0F727394019400307DB0F1B01194361
:105B08006B4659701F4B1B78012B11D0DF231940AE
:105B18006B4659701B88FF210131002B0BD04004C4
:105B2800400CA2802880002E01D188432880F8BD2F
:105B380020231943ECE7A288521C92B2A2803C2A87
:105B480001D8C20BF3D007225202904388430321A5
:105B5800090388434004400C2880FCF7D1FD2888BD
:105B6800C00502D50849B42008803220A080F8BDBD
:105B7800800900206E0000201A0000206400002028
:105B8800B4070020CA0600208000002030B587B086
:105B980018216846FBF7BCFF274C2046FEF7E8F9BA
:105BA80020684008400020602448016849084900EE
:105BB8000160234801684908490001604020052424
:105BC8002407A0621F4D4002A8624110012220460E
:105BD800FDF7A0F87D20C000FEF7BAFA01225103B4
:105BE8002846FDF797F80220FDF7F2FF0420FDF79D
:105BF800EFFF0820FDF7ECFF0120FDF7E9FF01208A
:105C08000290002003900490032001900E48009019
:105C180069462846FDF77EFF69460C48FDF77AFF7E
:105C280069460B48FDF776FF69462046FDF772FF87
:105C3800FEF79AFC07B030BD004401400044004024
:105C48000038014000040050FFFF0000000C005025
:105C580000080050FEB5634F6348BA783C46018897
:105C680020264034022A06D23C23E35E5F4DAB4235
:105C780001DD314300E0B1435A4B01804033382104
:105C88001025595E622A06D9E1221201914202DAF0
:105C980002882A4301E00288AA4302800120544A6C
:105CA8000003906153483E220078019000915248C9
:105CB800A25E0378797951A000F048FB0220FEF734
:105CC80047FA01214A480903816246487B79002244
:105CD80057498030432B12D0076A564BBC46FF18F1
:105CE8005B009F426AD88A706346C827CA71FB4224
:105CF8003BDA8B790A2B33D25B1C8B7136E08A71C5
:105D0800CA70CB790A2B02D25B1CCB7103E00A71F3
:105D18004388AB4343803823E35E474FBB4203DAF3
:105D2800344F3F78002F02D0444FBB420CDD3E2356
:105D3800E35E414C6E3CA34203DA2F4C2478002CDE
:105D48000CD03E4CA34209DC8B785B1CDBB28B7019
:105D5800032B22D98A7001234B711EE08A701CE044
:105D68004A714388B343438000E08A713C23E35E71
:105D78007D24E4001B1B324CA34203D9314B1B7812
:105D88009B0709D5CB785B1CDBB2CB70032B04D9FE
:105D9800CA7001230B7113E0CA700B79012B0FD065
:105DA8004B79012B09D1284D436984695D19AC42AF
:105DB80012D22549494261188161FEBDCA70CDE7FA
:105DC800224C8369A34202D961425918F4E78261DF
:105DD8000A714188294303E083614A71418831434C
:105DE8004180FEBD0009002064000020EA0B00008D
:105DF800000400501C0000201F000020536F635F48
:105E0800436C724F725365744374726C3A207374A6
:105E1800753D2025632061763D202564202025647A
:105E2800206D78763D202564202564200D0A000029
:105E380074000020DB370000240E000088130000E7
:105E4800E6050000180000208011C9FF40771B00FC
:105E58003EB5002469460C728C8020494878032896
:105E680002D2401C48703EBD1D4D28788007FAD4E8
:105E780001A902A800F0D4FC0028F4D06846017AF1
:105E88001848002921D0012902D0022910D101E0A7
:105E9800154901E01449A831009169468B880F49DA
:105EA800007C04221D31FDF79BF9C4B2642CDAD8BA
:105EB80028880221084328800A4D642180356869B2
:105EC800FBF792FD6043A8613EBD08490091694611
:105ED8008B8802490822007C2831E4E774000020FE
:105EE8006400002000090020160400207A05002024
:105EF800142148430004000C01D0401EFAE7704703
:105F080010B5AC210848FBF703FE084900200880BB
:105F180007497D2208800448064980300181D20063
:105F28004281818110BD0000000900201800002076
:105F3800640000201A04000010B50C480168491CD0
:105F4800016010210A48FCF7DEFEC0070949420F2C
:105F580008880423984310430880074801680129EA
:105F680002D14168491C416010BD000000000020BA
:105F780000040050640000201C0E002070B52E495B
:105F880001200A68D208D20002430A600868400764
:105F9800400F0128FAD12948026881150A43026096
:105FA80002685205D20FFBD0244C4034226A0123E8
:105FB8001A432262226A9207D20FFBD0204A136842
:105FC8000B43136081680F2212029143816081683C
:105FD800C908C9008160382281681142FCD18168F2
:105FE8000722120391438160164D2846FDF718FEDB
:105FF8002846FDF7B7FFE2690320000201210240AD
:1060080049028A420AD0E369CA011343E361E3699A
:106018009343E361E26982430A43E261E069012153
:10602800C9030843E06160698008800060616069B5
:1060380080008008606170BD0020024000100240AE
:10604800007000400024F40002490148886070474D
:106058000019000800ED00E001200249C043086172
:10606800704700000044014001200249C043086114
:10607800704700000044014070B50D4C0B4A0025E4
:10608800217A90420BD0224609328854207AC821BE
:10609800401CC0B2FBF7A8FC2172257170BD002915
:1060A800FCD00120A070A171257270BDFFFF000017
:1060B800FC09002070B50F4CE569E0698006C00F47
:1060C80003D0606AC0B2FEF74FFEE069C006C10F98
:1060D8001020002903D02062074901224A73E16990
:1060E8000907C90F03D0616A20620820206225626F
:1060F80070BD000000380140B407002070B50F4C97
:10610800E569E0698006C00F03D0606AC0B2FFF796
:10611800B3FFE0691026C006C00F002803D026622E
:106128000748FFF7A9FFE0690007C00F03D0606ABE
:10613800266208202062256270BD000000440040ED
:10614800FFFF0000F8B501260D4F36030C46054643
:10615800BE610220FDF7FCFF0A490B4B09E02878D5
:10616800886218466D1CCA695206D20F01D1401EBA
:10617800F9D22046641EA4B20028F0D1BE62F8BD50
:106188000004005000440040FFFF00007CB50020E0
:1061980000900190402005252D07A8610A20FDF7F1
:1061A800D7FFFBF7BFFD1248FBF7F8FDFBF7D0FD63
:1061B800FCF734FB0F4CA074FBF7A0FD4020A8624D
:1061C8006846FFF7D1F868460178217280786072D6
:1061D800814201D90A4600E00246A273814201D2F7
:1061E8000A4600E002460818E273400820747CBDA5
:1061F8002000001400090020F0B500278FB03E46AB
:106208003C461C4D68460D97FFF7EAF8790068464A
:10621800415A19487200101846221152174A282369
:106228009219D356C91889B28182A14203D90C4662
:10623800114960318F76808AA84200D205460D99AF
:10624800761C40187F1CFFB2F6B20D900B2FDDD3E1
:106258000949621B80310F46403F08613C87BD8772
:106268000A80002E03D03146FBF7BEFBF8870FB03B
:10627800F0BD000050C3000000090020AC09002058
:1062880010B5FFF7C9F8064A1C21515E081801D459
:10629800014600E04142322900DC002010BD000028
:1062A800AC090020FEB500259E46002919D1002022
:1062B800FEBD00244F1B7F1E0FE06600B446835BC3
:1062C800361800967688B34205D90196009E7380E9
:1062D8006346019EC652641CE4B2A742EDDC6D1C05
:1062E800EDB29542E5D3002518E000244E1BF61EBA
:1062F80010E06700BC466346C75B1B1800935B88C9
:106308009F4205D20193009B5F806746019BC35360
:10631800641CE4B2A642ECDC6D1CEDB27545E4D316
:10632800002472442346891A04E05A00825A141938
:106338005B1CDBB29942F8DC002B05D019462046DD
:10634800FBF752FB80B2FEBD0088FEBD0FB410B54E
:1063580003A9044B044A029800F0A2F810BC08BC38
:1063680004B01847A166000810000020002805DBCB
:10637800C106C90E01208840014908607047000025
:1063880000E100E0002805DBC106C90E01208840B5
:10639800014908607047000000E100E0002805DBC3
:1063A800C106C90E012088400149086070470000F5
:1063B80000E100E08307FF22DB0E9A408907090EFF
:1063C8009940002808DB830809489B001B181868B7
:1063D80090430843186070470007000F0838830887
:1063E80004489B001B18D86990430843D86170473C
:1063F80000E400E000ED00E08307FF22DB0E9A4096
:106408008907090E9940002808DB830809489B0082
:106418001B18186890430843186070470007000F5E
:106428000838830804489B001B18D8699043084320
:10643800D861704700E400E000ED00E08307FF2228
:10644800DB0E9A408907090E9940002808DB83086B
:1064580009489B001B181868904308431860704748
:106468000007000F0838830804489B001B18D869E8
:1064780090430843D861704700E400E000ED00E075
:1064880002E008C8121F08C1002AFAD170477047F5
:10649800002001E001C1121F002AFBD17047000053
:1064A800FFB58DB00F460546002606E025280AD020
:1064B800109A0F9990476D1C761C28780028F5D102
:1064C800304611B0F0BD00240121674A009400E075
:1064D80004436D1C2B780846203B98401042F7D1A6
:1064E80028782E2815D10420044368786D1C2A28A2
:1064F8000AD101CF6D1C00900BE000990A2251438C
:10650800303940186D1C0090287801463039092927
:10651800F3D92878692843D006DC0028D0D063282E
:106528000BD0642804D13BE073280FD075284CD0D9
:10653800109A0F999047761C94E03878694608724B
:106548000020487202A80190012003E038680190F9
:106558000020C0433F1D61070CD5002400E0641CE7
:1065680000998C420FDA8442F9DB0199095D002910
:10657800F5D108E0002400E0641C8442FCDB0199AA
:10658800095D0029F8D1361907E0019801990078CA
:10659800491C0191109A0F999047641EF5D261E049
:1065A8000A20019001CF002802DA40422D2102E0A2
:1065B800210504D52B216A461172012103E0E10768
:1065C80001D02021F7E70C9104E00A20019001CFC7
:1065D80000210C910BA90B9108E00199FBF704FA33
:1065E8000A460B993032491E0B910A700028F4D1E3
:1065F8000B9803A9081A20300190600701D500986C
:1066080001E0012000900199884203DD01460198CC
:10661800081A00E000200024009006E002A8109A62
:10662800005D0F999047641C761C0C988442F5DB3A
:1066380004E0109A30200F999047761C0099481E64
:1066480000900029F5DC08E00B980B990078491CAC
:106658000B91109A0F999047761C0199481E01904A
:106668000029F1DC6D1C28E70928010010B5044653
:10667800FDF7F2FFFEF740F9FEF794F9FDF7D0FEBB
:10668800FEF716F9FEF7A8F8002C01D1FEF782FBF9
:10669800FCF7AEFF10BD00000249CA691206FCD51E
:1066A8008862704700440040F0B58C46234906468E
:1066B8000C6A00206342002C01DB214600E01946E9
:1066C8001F4A0025891857421E4AB94207D2117835
:1066D800491CC9B21170557014290ED80AE0002C53
:1066E80000DA1C4618496118B9420ED25178491C83
:1066F800517015705178142909D911785A20142924
:1067080006D901213170157008E015705570F0BD7B
:106718005178142902D9022131705570074938225D
:1067280040393E238A5ECB5ED21A142A01DB0A8FD7
:1067380000E0CA8F61460A80F0BD00008009002091
:10674800D8F5FFFF82000020B0EBFFFFF0B58C46C4
:106758002D4900260C6A6342002C01DB214600E02B
:1067680019462A4A002589185742294AB94208D2A7
:106778001178491CC9B2117055709570142914D834
:106788000DE0271E00DA1F46224979181F4F7F4265
:10679800B94212D25178491C5170157095705178D0
:1067A800142902D8917814292BD911785A2614293A
:1067B80015D90321017015701EE0002C00DA1C4663
:1067C8001549164B6118994205D29178491C917068
:1067D80055701570E6E715705570957011E0517891
:1067E800142903D904210170557005E09178142902
:1067F80002D905210170957003484038818F6046A1
:1068080001803046F0BD000080090020D8F5FFFF68
:106818008E000020B0EBFFFF88E1FFFF6419000045
:1068280070B5224A3E23D35E214D00245B19214DC9
:10683800AB4238D23823D35E1F4DAB4233DA3C2308
:106848001C4DD35E6D1CAB422DDD1346403B5B797E
:106858005A24432B1BD1134640331B6A002B01DB00
:106868001D4600E05D427D26F600B5420FDD134D62
:106878005B196D00AB4201D8012300E002230370CD
:106888003C20105E0E4B984203DA908F0AE00023FA
:10689800F5E738200A4B105EBE33984201DD108FB1
:1068A80000E0D08F0880204670BD0000400900201D
:1068B8003BF6FFFFC3090000D80E00004F1400008C
:1068C8004E0C0000002786B03D46049762B60121B1
:1068D8003D4802680A4302600068084000903A4850
:1068E80009074038C26B0A43C263C06B0840009076
:1068F8000020FFF743FB3548C16903220902090A52
:1069080092071143C16132480169022211430161B2
:106918000020FFF7ABFEFBF79FFFFFF7F1FAFBF74D
:106928005DFD2C48802241882B4C114341802B4827
:1069380003902B4806682B480168012904D1416857
:106948000A2901D9002101602088C00B02D13046F4
:10695800FEF774FEF01B00D54042642802DC208854
:10696800C00BE6D00398807B642802D20399401CB0
:1069780088733746FEF794F86D1C05212846FBF707
:1069880033F8002902D02088C00B07D004980028CB
:106998000BD000200490FEF7CBF8002505212846EF
:1069A800FBF722F8042902D004E00120F2E70020D6
:1069B800FEF7F8FD2088C107BBD0400840002080C2
:1069C800FCF74EF8B5E700004010024004ED00E087
:1069D80000E000E08009002064000020B4070020E7
:1069E800000000201C0E0020F8B52E4D0746287820
:1069F800002614210446FAF7F7FF88002A49641C88
:106A08000F50E0B20F460024283728700A281CD3FC
:106A18002046AC60B2008A58761C1018F6B20A2ECE
:106A2800F8D3A86006462C7068783C210090FAF7E5
:106A3800DBFF88003E500098401C6870002E00DA8A
:106A48007642142E01DA6C7018E06A783C2A15D365
:106A580000206C6081007958401C0C19C0B23C2899
:106A6800F8D33C2110466C60FAF7BEFF3C316970E0
:106A78004B21C9002046FAF7CDFFF8BD6C60002213
:106A88002046697804E09300FB581818521CD2B2CB
:106A98008A42F8D36860002902D00A225143EAE703
:106AA8000020F8BD54000020E80700200100000085
:106AB80002000000040000000600000008000000BA
:106AC8000A0000000C000000100000002000000078
:106AD80040000000800000000001000000000000ED
:106AE800000000000000000000000000000000009E
:106AF800000000000000000000000000010000008D
:106B0800020000000300000004000000060000006E
:106B18000700000008000000090000000000000055
:106B2800000000000000000000000000010000005C
:106B3800020000000300000004000000D000DB0099
:106B4800E600F200FE000B011801260134014301A2
:106B580053016301730184019601A901BC01D001AD
:106B6800E401F9010F0225023C0254026C0286027C
:106B78009F02BA02D502F1020D032A0348036603F5
:106B88008503A403C403E503060428044A046D042A
:106B98009004B404D804FD04220547056D05920548
:106BA800B905DF0506062C0653067A06A106C806AF
:106BB800EF0617073E0765078C07B207D9070008D5
:106BC80026084C0872089708BC08E10806092A0933
:106BD8004D0971099409B609D809FA091B0A3C0A32
:106BE8005C0A7C0A9B0ABA0AD80AF60A130B300B0D
:106BF8004C0B680B830B9D0BB70BD10BEA0B020CEC
:106C08001A0C320C490C5F0C760C8B0CA00CB50CD2
:106C1800C90CDC0CF00C020D150D270D380D490DB3
:106C28005A0D6A0D7A0D890D980DA70DB60DC40D74
:106C3800D10DDE0DEB0DF80D040E100E1C0E280EF6
:106C4800330E3E0E480E530E5D0E660E700E790E14
:106C5800820E8B0E940E9C0EA40EAC0EB40EBC0EBF
:106C6800C30ECA0ED10ED80EDF0EE50EEB0EF20ED5
:106C7800F80EFD0E030F090F0E0F130F190F00006A
:106C880000002110422063308440A550C660E770A0
:106C9800088129914AA16BB18CC1ADD1CEE1EFF148
:106CA8003112100273325222B5529442F772D662F0
:106CB800399318837BB35AA3BDD39CC3FFF3DEE398
:106CC8006224433420040114E664C774A444855440
:106CD8006AA54BB528850995EEE5CFF5ACC58DD5E8
:106CE8005336722611163006D776F6669556B44690
:106CF8005BB77AA719973887DFF7FEE79DD7BCC738
:106D0800C448E5588668A7784008611802282338DF
:106D1800CCC9EDD98EE9AFF9488969990AA92BB987
:106D2800F55AD44AB77A966A711A500A333A122A2F
:106D3800FDDBDCCBBFFB9EEB799B588B3BBB1AABD7
:106D4800A66C877CE44CC55C222C033C600C411C7F
:106D5800AEED8FFDECCDCDDD2AAD0BBD688D499D27
:106D6800977EB66ED55EF44E133E322E511E700ECF
:106D78009FFFBEEFDDDFFCCF1BBF3AAF599F788F77
:106D88008891A981CAB1EBA10CD12DC14EF16FE157
:106D98008010A100C230E32004502540467067608F
:106DA800B9839893FBA3DAB33DC31CD37FE35EF3A7
:106DB800B1029012F322D2323542145277625672DF
:106DC800EAB5CBA5A89589856EF54FE52CD50DC5F7
:106DD800E234C324A014810466744764245405442F
:106DE800DBA7FAB79987B8975FE77EF71DC73CD747
:106DF800D326F2369106B01657667676154634567F
:106E08004CD96DC90EF92FE9C899E9898AB9ABA996
:106E18004458654806782768C018E1088238A328CE
:106E28007DCB5CDB3FEB1EFBF98BD89BBBAB9ABBE6
:106E3800754A545A376A167AF10AD01AB32A923A1E
:106E48002EFD0FED6CDD4DCDAABD8BADE89DC98D36
:106E5800267C076C645C454CA23C832CE01CC10C6E
:106E68001FEF3EFF5DCF7CDF9BAFBABFD98FF89F86
:106E7800176E367E554E745E932EB23ED10EF01EBE
:106E8800030100000000000000000000D24C9448FC
:106E98009A44DE405C3D123AFA3611345431C12E20
:106EA800552C0D2AE727E025F8232B227720DC1E16
:106EB800591DEB1B901A49191418EF16DA15D3143B
:106EC800DB13F01211123E117510B70F030F580E95
:106ED800B50D1B0D880CFD0B780BFA0A820A100AF7
:106EE800A4093C09DA087C082208CD077C072F078B
:106EF800E5069E065B061A06DD05A3056B05350546
:106F08000205D104A20476044B042204FB03D50332
:106F1800B1038F036D034D032F031203F602DC0246
:106F2800C202A90291027B02650250023C022802B9
:106F380016020402F301E201D201C301B401A60161
:106F480099018B017F01730167015B0151014601C2
:106F58003C0132012901200117010F010701FF003F
:106F6800F700F000E800E200DB00D500CF00C90020
:106F7800C300BD00B800B300AE00A900A400A00083
:106F88009B00970093008F008B008700840080008F
:106F98007D0079007600730070006D006A0067005C
:106FA8006500620060005D005B00590057005400F6
:106FB800520050004E004C004B004900470045006D
:106FC8004400420040003F003D003C003A00000001
:106FD800F86F000800000020E80700001A1C0008ED
:106FE800F0750008E8070020600A000098640008AF
:106FF8000212000100047724F400012008282D3231
:1070080041191E2307521408102E790CB60BB60B23
:10701800B30BAF0BA90BA20B9A0B900B850B770B3D
:10702800640B4A0B270BF90ABE0A770A250ACA0914
:107038006709FC08930C0B021012090C050CFF0BD6
:10704800F90BF30BEB0BE10BD60BC73C1004940BBD
:10705800672E1008D20A6D0AFD09832A1018F40C4D
:107068004A0C490C460C420C3B0C360C300C2A0CD2
:10707800230C1A0C113A100EF60BE00BBD0B7F0B0C
:10708800190B830ACE541012340D730C700C6C0C4F
:10709800660C610C590C530C4D36123F3410042CFD
:1070A8000C1E6E100AEB0BB10B460BA50AE32A3037
:1070B80012200D960C930C8F0C890C830C7D0C7888
:1070C8000C71361006600C580C4E68102A310C19D9
:1070D8000CEF0B890B910AFC08650D650DAA0CA82D
:1070E8000CA40C9E0C970C910C8B0C860C810C7CC0
:1070F8000C750C6D0C6466124892101C070CA80BDA
:10710800BA0A370D370DC90CC90CC60CC30CBD0C17
:10711800B50CAD0CA70CA23610069A0C940C8D6811
:107128001010770C650C4C0C330CE40BFA0B5D0B50
:107138005B021020570B500B480B3D0B2F0B1C0B01
:10714800030BE50AC00A960A670A330AFC09C20952
:10715800840942A820051C0CB50B0225501010A16B
:107168000B970B8B0B7B0B660B490B240BF72E1421
:107178000A830A3F0AF809AB09572616944C255288
:107188001404080C0452100AF80BF00BE60BDA0B87
:10719800CA3C1404960B687E1408D30A6E0AFF09C9
:1071A80086503408EC0C340C320C2F48100A1C0C96
:1071B800140C0C0C020CF52E16D020100C840B4568
:1071C8000BF10A8C0A1A0A982A1004DB0C6EE612D4
:1071D80069B810065F0C5A0C52BE140C460C3E0CD3
:1071E800350C2B0C1D0C0A221406BF0B610BC7A60D
:1071F800140AFC081F0D1F0D8C0C8A1C1006800C2D
:107208007A0C743616674E100A590C500C450C3718
:107218000C229416CED63404CA0A072616B71E3690
:10722800B12036A01E258816848812756C10065B5E
:107238000C470C2D921014660B590BFA0A0E0B20F2
:107248000B2D0B340B360B330B2C0C18100E0BF4C8
:107258000AD20AA80A760A3E0A020AC4201240A8DC
:107268001404A50B475014086C0B760B7C0B7D227D
:10727800100A740B6A0B5A0B420B212E1404BC0A19
:107288007A521806EA099F0950221625AA1008B250
:107298000BBC0BC10BC304100CBE0BB80BB00BA678
:1072A8000B980B863E1808450B090BB50A50201A97
:1072B80072A01404420CD4401004E00BE202100A3D
:1072C800DE0BD90BD30BCB0BC03C169F24180C5CE0
:1072D8000B1F0BC90A620AF3097ECA16840E122014
:1072E80002161F4E1A18981A0CD41006FD0BF40B30
:1072F800E8361406C50BAA0B7EE01004A30AE5A81D
:1073080014049B0C44101804450C4396163B18298A
:10731800CC1A226C160EB21C06EC0BD20BAB2A034D
:107328001804DB0A11761804040D816816834E1AB6
:107338007C381A72D41A67D41A5BD4164A8212306F
:107348006C20330A0CE00B9C0BC409420E410E1C46
:107358000EF10DD70DC40DB50DA90D9F0D970D8F0D
:107368000D870D810D7C0D760D6F0D610D4A0D3366
:107378000DFE0C7F0A2A1026DD0DB30D9C0D8E0D17
:10738800820D790D720D6A0D620D5A0D530D4D0D5A
:10739800490D440D340D1A0D000DD30CCD2A180AD1
:1073A800BD0D900D7E0D730D6BFE10065F0D590D12
:1073B8005246140A430D3F0D3B0D390D31EC300E8A
:1073C800060DEF0CBE0CF90A410E7F0D6420124E1B
:1073D80022301C460D3E0D350D2C0D270D230D2199
:1073E8000D1E0D170D040DEA0CD10CA60CFC7E1019
:1073F8000A390E060EE80DD30DC3AA1014AA0DA162
:107408000D980D910D8A0D850D800D7A0D6E0D5B11
:107418006200052C290DE20B2A1006EF0DC50DAEF2
:10742800F61004930D89F41004790D71D6100463D5
:107438000D5ED81414540D470D300D160DFA0C9C22
:107448000B2E0E9A0D780D690E10085B0D570D4C1A
:107458000D45F018043E0D3A8C16351E14042A0DFD
:1074680018221AE88E181C020B14004C001E005536
:107478000028005C003200610041006400F40C92B6
:107488000C8EDE14048A0C7E8E1E7012031E62108F
:10749800031E502A0418062E0C100CDD3E1806FD9B
:1074A8000A480A1D90180A6A0DBA0CB70CB40CAE3B
:1074B800DC1E9F300414088F0C880C820C7BC21CC5
:1074C80006660C540C392A041EAFE8031C0CC709C5
:1074D800C4096F0DD20CD00CCD30041C04C20CBAF8
:1074E8000E031C04AA0CA50E031E9B2C041C068C60
:1074F8000C7F0C6A58041014060C780B5C0AC60939
:10750800630DE10CE00CDE0CDB0CD630212E12B63C
:10751800621404B00CAC581C049D0C908C041A60C6
:1075280056100AE40BC509A30DE90CE9C81006E5D5
:107538000CE10CDA5C3006C30CBF0CBC3012B19005
:10754800129B8C1C046E0C5528041C12C609710D64
:10755800EE0CEF0CEE0CED0CEA0CE40CD5B60412B4
:10756800C52E16C1D41C04B90CB2B6041E9014055D
:107578001A63D22007540B7A0DF20C0212F02E1C5B
:1075880006EA0CDD0CCEE20412C72E1EC2E4041279
:10759800B4B41E940C051A67C6300C540B9C0DF835
:1075A8000CF60CF50CF42E1004E60CD32C32CB2E72
:1075B80012C45616A80E1E7E6605121E548D43066A
:1075C80003EAA10001201B64000001020304050670
:1075D8000708090A0B0C0D0E0F10111213141516BB
:0875E800171E52359F00000040
:04000005080019C115
:00000001FF
