:020000040800F2
:1000000048120020D50000083D2F0008011A000802
:1000100000000000000000000000000000000000E0
:10002000000000000000000000000000713E000819
:1000300000000000000000003F2F0008F943000806
:10004000E700000800000000F1300008E7000008A9
:10005000E7000008950C0008D10C0008F90C000816
:1000600000000000E7000008E7000008E7000008C3
:10007000E7000008E7000008E700000800000000B3
:10008000E70000080000000000000000154500081F
:100090000000000025450008E7000008E700000810
:1000A0001D1A0008E7000008E70000087145000875
:1000B000B94500080000000000000000000000003A
:1000C0000348854600F006F9004800471D4D00082A
:1000D000481200200448804704480047FEE7FEE736
:1000E000FEE7FEE7FEE7FEE705450008C100000861
:1000F00030B50B46014600202022012409E00D46C0
:10010000D5409D4205D31D469540491B2546954047
:1001100040191546521E002DF1DC30BD70B500248B
:100120002546002801DA01244042002901DA012590
:100130004942FFF7DDFFAC4200D04042002C00D026
:10014000494270BDF8B500242546002904DA0E4660
:10015000012400214042B141002B04DA1E46002355
:1001600052420125B34100F075F88C4617461E46F1
:10017000AC4203D0002540428D41AC46002C02D059
:10018000002657429E4161463A46334601B0F0BDD3
:10019000F0B51FB486B00020009001900290069840
:1001A000069980B204900798090C020400141143C8
:1001B00007900027089D099806913E463C4603900B
:1001C0000398A9B20204000C039004982D0C154367
:1001D00048430021224600F06DF8C71971411034E0
:1001E0000E46402CECDB3846029A00F063F8009A89
:1001F000019B8018009059410298019110300290A3
:100200004028CCDB00980BB0F0BDD2B201E0027008
:10021000401C491EFBD270470022F6E710B513467A
:100220000A4604461946FFF7F0FF204610BD032199
:10023000001D401E037812021A43491EF9D51046CC
:100240007047034603220870000A491C521EFAD563
:1002500018467047F0B51FB40646002082B0054628
:100260004024019100901BE0019922460F46304640
:1002700000F042F8049A059B801A994110D3104669
:100280001946224600F016F8361A8F410197224689
:1002900001200021009F00F00DF838184D4100901A
:1002A0002046641E0028DFDC019B00982946324668
:1002B00007B0F0BD10B5202A04DB0146203A91407A
:1002C000002010BD914020239C1A0346E3401943AF
:1002D000904010BD064C0125064E05E0E36807CCB2
:1002E0002B430C3C98471034B442F7D3FFF7ECFE95
:1002F000285400084854000810B5202A04DB08469A
:10030000203AD040002110BD0B46D340D0402024DD
:10031000A21A91400843194610BD70B58D18047893
:10032000401CA207920F01D10278401C231106D174
:100330000378401C03E006780E70401C491C521ED6
:10034000F9D1002B15D002780C268A1A3440401CB3
:100350000C2C03D0A401121B9B1C08E0047824027F
:10036000121B401CF8E714780C70491C521C5B1ED1
:10037000F9D5A942D3D3002070BD000010B51D48A7
:10038000002281681C4B490703D581681940103150
:1003900081601A4902E08A4203D2521C8468E40652
:1003A000F9D48268D20703D082681A40921C826016
:1003B000002202E08A4203D2521C83689B07F9D4D0
:1003C000826817239A43DB071A43826083680022FE
:1003D000002B02DB05E08A4203D28368521C002B0B
:1003E000F9DB04488030406B05494006400E4880E8
:1003F00010BD000000240140E8FFFF7FFFFF030065
:1004000004000020074800218268074B1A40921C14
:1004100082605A1302E0914203D2491C83689B0711
:10042000F9D4704700240140E8FFFF7F002008490D
:1004300001220A608A68074B1A40521C8A60DA134C
:1004400002E0904203D2401C0B68DB07F9D07047F2
:1004500000240140E8FFFF7FF0B591B00024402167
:100460006846FFF7D9FE0D4D6E4604272F60A86839
:100470000B490840001DA86000F024F8286C6100BA
:10048000641CE4B27052202CF0D308231A462021B9
:10049000684604F065F911B0F0BD00000024014089
:1004A000E8FFFF7F054A00219062054802E0814293
:1004B00003D2491C13689B04F9D5704700240140FE
:1004C000FFFF00000020054A054902E0904203D2E8
:1004D000401C0B685B07F9D570470000FFFF000068
:1004E00000240140FEB503F029FA0225A148A24EDE
:1004F0000090A249019502953820305E01239F4A61
:10050000FA3100F04DF99B483446C01C0195403447
:100510000295009001239A4A9A49206900F040F917
:100520009448994F0C300090019502953C20305E24
:1005300000233A46954900F033F98E4801950F3073
:10054000009002953C20305E00233A46791000F07E
:1005500027F988490420891D009102950190002304
:100560008B4A8C49206900F01BF982480421123023
:100570006A4623C2403EB07C01237322822100F0F0
:100580000FF97C4F04201B37009702950190F07BF8
:10059000002330222B2100F003F90421B81F6A4602
:1005A00023C2B07B012355225C2100F0F9F804211D
:1005B000F81C6A4623C2F07B00231E22152100F09E
:1005C000EFF80421F81E6A4623C2B07B01235A22A9
:1005D000612100F0E5F8B81F007801280AD03878CA
:1005E00001280CD0B07B55280ED3A08840094001CB
:1005F000083014E0A0884009400110300FE0A088C6
:1006000040094001401C0AE0F07B3228A08803D852
:1006100040094001801C02E040094001001DA0800B
:100620005449206A06260425273102960195009137
:10063000002800DA40427D220123D200564900F012
:10064000AFF84C49206A2A316A4662C2002800DAB3
:1006500040427D220123D2004F4900F0A1F8454DD0
:100660000C352E460E3E317828788907C90F08438D
:10067000287000F04BF900F041FF484908603188CC
:10068000B61E301DF21D007812781043C007C00F4F
:100690000843E91EEA1C09781278830711432A7877
:1006A000DB0F1A43114302229043C907890F01430C
:1006B000AA1D88061278C00F104320229143C0075C
:1006C000800E2A460843153201051278C90F1143DE
:1006D0000122D2029043C907090D2A46014318326C
:1006E000C8041278C00F1043012212039143C007BF
:1006F000C00C2A4608431232C1061278C90F1143B2
:100700001022C9079043C90E014348053A78C00F2B
:100710001043012292029143C007400D2A4608432C
:100720000C3281051278C90F114301225202904305
:10073000C907890D2A4601430932C8051278C00F3E
:100740001043FF22C0070132C00D91430843410608
:10075000CA0F294630801B310A704107CA0F29464B
:100760001E310A7061884904490CC003014361804D
:10077000FEBD00001C0000203C090020480D0000C8
:100780007C92000090970000B80B0000C4090000A4
:10079000D0840000F47E0000C0270900080000207B
:1007A000F0B50025069F079E059C002B02D0012B6B
:1007B00018D009E0884203DC6078401C607002E0D9
:1007C000904213DC6570A5706078B84203D90120AF
:1007D00020700A376770A078B04202D925700A36B7
:1007E000A670F0BD8842E7DA9042EBDA002AE9D041
:1007F000A078401CA0706570E6E708B50020009066
:10080000684601F0CDF9002801D0009880B203F0CD
:1008100019F908BD70B59CB00D460646642102A8C2
:10082000FFF7FAFCBF2D19D207242846093003E050
:10083000C82C19D2641CA4B28442F9D3A01E81B280
:100840002C4800F0D1F8009000200190294869461A
:1008500009380019C2794A71007A08710199009823
:10086000884204D0FF2D02D000201CB070BDAA2009
:100870006946087255204872BB2088720320C872EE
:100880000E732A46314602A803F05EF90446694613
:1008900000904878487308788873E01D81B202A8F8
:1008A00000F0A2F8009003A869460330497821546B
:1008B0006946097804A82154A12E01D0A02E03D1A5
:1008C0000D484078012806D00934A1B202A803F0EF
:1008D00097FE0120C9E70A490848086000F014FCA7
:1008E000BFF34F8F08490748C860BFF34F8F00BF61
:1008F000FDE70000010A0020DC060020CDAB00006F
:10090000A80900200400FA0500ED00E070B5174DBD
:10091000062328468030AE79026A1548012400215A
:10092000002E0CD1FF26F536B24208DB4678761C45
:10093000F6B24670042E04D94370047001E0417091
:1009400001700B48ED79C01C002D0CD1FF25F53549
:10095000EA4208DC4178491CC9B24170042901D936
:100960004370047070BD4170017070BDFC080020C0
:100970003D00002030B50346002007240EE01A7821
:10098000504000225B1C050602D54000604000E09C
:100990004000521CD2B2C0B2082AF4D30A46491E03
:1009A000C9B2002AEBD130BD10B500F0E9FA00F071
:1009B000DDFD0A490A4BCA8B9A4204D10A464032ED
:1009C000D289824201D0012010BD06480A688242C5
:1009D00002D00860022010BD002010BDA809002030
:1009E000191600003412000070B5044600200246BB
:1009F000064D08E0A65C030A73405B00EB5A000258
:100A0000584080B2521C8A42F4D370BDD8500008BE
:100A100030B59625062400221A4B1B49E8420DDA10
:100A20004A808888401C80B28880CA80012826D9E4
:100A30007D208C80C000588144201FE096280CDD6A
:100A40004888401C80B248808A80CA80012816D914
:100A50004C800E481881432010E04A808A80C88864
:100A6000401C85B2CD80186A002800DA40429628E2
:100A700000DA1A62012D02D9CC804920087008786A
:100A800030BD00007C090020620000201A04000034
:100A900070B50C4C0020A0610B480C49408B88427B
:100AA0000DD20B4D642808D932216438FFF736FB8C
:100AB00008494843281A606170BD656170BD0648E9
:100AC000F9E700007C090020A8090020AC0D000017
:100AD000808EF20DA0B42300400E6501F8B5414AA6
:100AE000414E52790025414C442A02D0432A2DD050
:100AF0003DE06582A28A3C2A01D9657201E0521C60
:100B0000A282002800DA40424843C821FFF706FBD2
:100B1000344F8037F9694018F8617969884226D3E3
:100B20003348814223D9FD61708B401C80B27083B1
:100B3000642808D932216438FFF7F0FA2D49484378
:100B40002D49081A00E02C48786110E0A582608ADF
:100B50002A49884206D3658201206072306A401CAF
:100B6000306204E0617A002901D1401C608224488F
:100B70001C4903784031AF203C2200018A5E012BE2
:100B80000DD182420BDC2583E07A002812D10120AE
:100B9000E072154840308189491C81810AE0824217
:100BA00007DD208B1E2802D2401C208302E0E57264
:100BB00000E025831348A17A0088012908D0E58246
:100BC000000704D5706A401C70620120A072F8BD55
:100BD0000007FCD4E08A1E2802D2401CE082F8BD47
:100BE000A572F8BDFC080020A809002070000020B4
:100BF000802FA604A0B42300808EF20D7017000091
:100C0000280000201800002010B500F07DFA0949E6
:100C1000102088627D20C00001F084FD05200022A4
:100C20008021000700F0C4FB7D20000101F07AFD67
:100C300010BD00000004005010B5124900221248F7
:100C40000A703C23C35E1148834201DA012000E0B0
:100C50001046087004460E48FF21038801318B437B
:100C60000849891E002C0AD04C78641CE4B24C70F0
:100C7000282C03D94A700380FFF7C6FF10BD0380FC
:100C80004A7010BD6C0000203C090020FC080000E8
:100C90006000002070B5012001F0B6F90A4E0B4C3F
:100CA000F514002804D00120F0602088284320801B
:100CB000012001F09FF9002804D001203061208834
:100CC0002843208070BD0000001802406000002012
:100CD00010B5082001F098F9064C002801D0082032
:100CE000E060082001F086F9002801D0082020618A
:100CF00010BD000000180240F8B50126B6033046CA
:100D000001F082F93711294D294C002803D0EE60FB
:100D1000208838432080304601F06CF9002803D049
:100D20002E61208838432080102001F06DF90126C3
:100D30007602002804D01020E8602088304320800C
:100D4000102001F057F9002804D0102028612088D5
:100D5000304320800126F603304601F055F9F710A4
:100D6000002803D0EE60208838432080304601F010
:100D700041F9002803D02E61208838432080FF26C7
:100D80000136304601F040F97701002803D0EE60CB
:100D9000208838432080304601F02CF9002803D009
:100DA0002E61208838432080F8BD000000180240E2
:100DB00060000020F8B502F081FEFF262D36304697
:100DC00001F0B0FC03F04EF9174C20690225A8434E
:100DD00020610421304603F04DF800F02BF800F0BC
:100DE000C3FA1248012102680A4302600068084001
:100DF00000900E4809074038C26B0A43C263C06BBB
:100E000008400090012003F017FB0948C16909025E
:100E1000090A62041143C16120692843206101204D
:100E200003F054FEF8BD000000E000E04010024076
:100E300004ED00E007480168C908C900491C0160C9
:100E40000548026904210A43026130BF02698A43EE
:100E5000026170470070004000ED00E030B5164AB6
:100E600011680B18154902E014689C421BD20C69EA
:100E7000E443E403F8D50B69114C2340641C0C6176
:100E80008C690125AD072C4003D08D6925438D6108
:100E90002343002B01D0012030BD1368181804E053
:100EA0001368834201D3032030BD0B69DB43DB03AE
:100EB000F6D5002030BD00000000002000200240D8
:100EC000FA830000012200211203101A82B210B529
:100ED00009480A4B006805E04C001C5B944203D8AB
:100EE000491CC9B28142F7DB002901D0814201DDF2
:100EF000FE2010BD084610BDD0060020944F00080B
:100F000010B5FFF751FD002805D0012801D100F0F0
:100F100003F800F0F9F810BD7FB50022154813461C
:100F200011460092019202926D4603928418267A2D
:100F3000FF2E01D0012B02D1AE5C01232672521C80
:100F4000102AF3DB002283182033521C1972202A46
:100F5000F9DB094A026041600122027603224276EF
:100F600041830162034A41624032816491810349B5
:100F7000C1837FBDA80900203412000019160000AB
:100F80003EB55F49002208684968009001916846B3
:100F9000017801724178417281788172C178C172A1
:100FA000584B029818606846017901724179417284
:100FB00081798172C179C1720298586050480830B5
:100FC000D100081804684568009401956C46C9185A
:100FD00024780C726C4664784C726C46A4788C72DF
:100FE0006C46E478CC726C4624790C736C46647958
:100FF0004C736C46A4798C736C46E479521CCC73A8
:10100000022ADDDB8168C268009101926946097895
:10101000197669464978597669468A784A72CA7853
:101020000A720989598369460A794A704A790A70AD
:101030000988998369468A794A70CA790A70098849
:10104000D983016942690091019269460A780A725E
:101050004A784A728A788A72CA78CA720299196280
:1010600069460A790A724A794A728A798A72CA7911
:10107000CA720299002218305962D1000818046817
:1010800045680094C91801956C46203124780C728B
:101090006C4664784C726C46A4788C726C46E4782A
:1010A000CC726C4624790C736C4664794C736C4634
:1010B000A4798C736C46E479521CCC73042ADCDB73
:1010C0008168C0680190009168460178017241789A
:1010D000417281788172C178C172029898646846C1
:1010E0000179417041790170064900884031888159
:1010F000684682794270C27902700088C8813EBD1C
:1011000000F80008A8090020F0B589B00025944E29
:10111000079500F02BFA014692480190C18172B602
:1011200000F05AFC02200490304600F04DFB059080
:101130000120069007A904A800F0F0FB00287DD14B
:1011400088486A46403801680091117811725178D8
:10115000517291789172D178D17240680090107874
:1011600010735078507390789073D078D073029A3F
:10117000039B17461C463146012000F00BFC00285B
:10118000DDD130687168784061400843D7D1744C34
:1011900008347448EA0040381018037A69460B7224
:1011A000437A4B72837A8B72C37ACB72037B0B7355
:1011B000437B4B73837B8B73C07BC8731419029A78
:1011C000039B17461E462146012000F0E3FB002842
:1011D000B5D120686168784071400843AFD16D1C7B
:1011E000022DD6DB25465F4C6846403C217E0172CD
:1011F000617E4172618B0180417881720178C17298
:10120000A18B01804178017301784173E18B0180EA
:10121000417881730178C173029A039B08351746A0
:101220001E462946012000F0B5FB002806D128689B
:10123000696878407140084300D100E082E0206A8C
:101240000090684602780272427842728278827216
:10125000C278C272606A0090684601780173417872
:10126000417381788173C178C173029A039B0835F9
:1012700016461C462946012000F08CFB002861D14F
:10128000286869687040614008435BD12C46083487
:1012900000253448EA00403810182030037A6946A7
:1012A0000B72437A4B72837A8B72C37ACB72037B55
:1012B0000B73437B4B73837B8B73C07BC873141995
:1012C000029A039B16461F462146012000F062FB4E
:1012D000002837D12168606871407840014331D1DE
:1012E0006D1C042DD5DB1F4825464038806C0090CE
:1012F0006846017801724178417281788172C178C3
:10130000C17201980835818968460180417801736E
:10131000017841730198C1896846018041788173E1
:101320000178C173029A039B14461E462946012088
:1013300000F030FB002805D12868696860407140E2
:10134000084305D000F018FB62B6012009B0F0BDDB
:1013500000F012FB62B6FFF713FE0020F6E7000074
:1013600000F80008E809002010B5012000F0E8FDB1
:10137000012000F0DDFD102000F0E2FD102000F063
:10138000D7FD0124E403204600F0DAFD204600F0FA
:10139000CFFDE411204600F0D3FD204600F0C8FD4B
:1013A00010BD0069814301D00020704701207047C3
:1013B000002A01D08161704781627047F8B5044608
:1013C00000204B4D014606464A005219928A00926F
:1013D0006A4652782254401C6A46C0B2127822549F
:1013E000401C491CC9B2C0B20F29EDD307E02654F6
:1013F000401CC0B22654401C491CC0B2C9B21829B6
:10140000F5D33B4A38214032515E00916946497814
:101410002154401C6946C0B2097821543C21515ED8
:101420000091401C6946C0B249782154401C69466D
:10143000C0B209782154401CC7B23E20105E0A2178
:10144000FEF76CFE0101081A694600904878E055E5
:101450007F1CF8B209782154401CC7B224480A21E5
:101460008030006AFEF75AFE224940186946009013
:101470004878E0557F1CF8B209782154401CC0B26E
:10148000A9782154EA79A97952001143401C8907AF
:10149000C0B2890F21541849401C0988009169463F
:1014A000C0B249782154401C6946C0B20978215421
:1014B000401CC0B2A97C2154401CC0B2697C21549C
:1014C000401CC0B2297A2154401CC0B2697A215410
:1014D000401CC0B22654401CC0B22654401CC0B2AE
:1014E0002654401CC0B22654401CC0B2F8BD0000B7
:1014F000FC0800203075000018000020F0B5194BE2
:10150000986818691868184908408102420445061D
:10151000890E540E6D0E084601F0E2FD0646204687
:1015200001F0DEFD0446284601F0DAFD5968054663
:10153000C020C04308400902C2048706090ED30E2A
:10154000BF0E084601F0CCFD184601F0C9FD384633
:1015500001F0C6FDE120000146433C204443301920
:101560004019F0BD002800407F7F7F0010B516486D
:1015700000210CC89A18083843181B7A491C9A187D
:1015800089B21029F8D3017E8918427E5118428B06
:1015900051181C22825E5118C28B5118026A5118D0
:1015A000426A52180021431828241C57491CA218CB
:1015B00089B22029F7D30449806C40318989801889
:1015C000081880B210BD0000A809002010B502F074
:1015D00073F9404210BD0000FEB5002469468C80BE
:1015E00005460C72264601A902A803F089FA0028D4
:1015F0004CD06846007A264F012802D002280DD12F
:1016000001E0244801E02348A830009069468B8817
:10161000387C0422204900F031F9C4B2BA78502A4B
:1016200020D9101B401D0A281CD94B275A263F01E0
:10163000642C0CD26420011B801A7D22D2005043FE
:10164000FEF756FD80B22880B84203D804E07D2022
:10165000000128802F8019E0FF21F531884215D242
:10166000298013E0111B7D20C000491C02290BD9E1
:1016700007498031A24202D24B89834204D3A2425D
:1016800004D94989814201D928805A263046FEBDB5
:10169000FC080020120400208D000020FEB500246C
:1016A00069468C8005460C72274601A902A803F002
:1016B00079FA00285DD06846007A324E032804D0BB
:1016C000042804D005280DD128E02F4800E02F4839
:1016D000009069468B882C49307C07220F3900F036
:1016E000CDF8C4B2B078411E132904D9142C3BD8CC
:1016F000317C3C2938D92449012230390A70011B38
:101700007D264A1D36010A2A0DD9002C08D0204911
:1017100048432146FEF7ECFC288002E01D48D7E74D
:101720002E805A270DE01A4A491C022906D9A042E8
:1017300007D2144880300089904202D92A805A2763
:101740001DE02888B04201D92E8018E07D21C90013
:10175000884203D20B4A127C3C2A03D8FF21F53180
:1017600088420CD229800AE00749002030390870ED
:1017700004E0054830380078002800D1AA27384610
:10178000FEBD0000FC080020A0000020C6010020D3
:101790001A040000EC02002010B50446094800219C
:1017A0008278142A0CD9007C00F026F87D225A2178
:1017B00012012080904202D89210904200D22280E2
:1017C000084610BDFC0800201F21C9064018C00AA9
:1017D000704770B50E46044664213046FEF788FC1B
:1017E0000546C8213046FEF783FC00192946FEF75E
:1017F0007FFCC0B270BD0000F8B51D4900254E88C1
:101800002C46AA008A5A82421AD9002D08D0AC0070
:1018100063181F46403F095BBA8FFC8F5B8803E06B
:101820000A8834461146234691420DD9A3420BD96A
:10183000801A1B1B5843891AFEF770FC81B204E022
:101840006D1CEDB2052DDCD300210A48002D08D017
:10185000052D0BD26118322905D9FEF749FC80B25B
:10186000F8BD3146F9E729204001F8BD0248F8BD2E
:1018700062050020289A01001A04000070B50024B7
:10188000049E04E00D5D854203D8641CE4B29442DA
:10189000F8D30025002C0BD0002D15D0601E15218B
:1018A000484340194000801940383E21415E10E015
:1018B0006900705E002D04D08A19403A3E21515EC5
:1018C0000DE00021715E0AE0601E152148434000D2
:1018D000315E601E1522504340194000305E834245
:1018E00004DC6D1CEDB2152DD4D301E0002D10D019
:1018F000142D10D881420CDD091A181A82008018A4
:10190000FEF70CFC1421491B8A008918401800B20C
:1019100002E0642000E0002080B270BDF0B5064611
:101920007D200F46C000FFF799FA00281FD1411E05
:1019300039600F4C756811E06069FF21F931884307
:10194000E90001430B48014361617D20C000FFF7BE
:1019500085FA002801D03D6005E06D1C7268B16811
:101960005118A942E8D86169022291436161F0BD32
:101970000020024002000100054901204A69C30716
:101980001A434A614969002900DA002070470000C3
:1019900000200240F0B51FB406467D2017460D46D4
:1019A000C000FFF75BFA002812D10A4C012E08D1C3
:1019B00060690121084360612F60BFF36F8F039856
:1019C00068607D20C000FFF749FA6169B143616139
:1019D00005B0F0BD00200240064900204A69002AF7
:1019E00007DA054A8A60054A8A604969002900DAEF
:1019F000012070470020024023016745AB89EFCDED
:101A0000BFF34F8F04490348C860BFF34F8F00BF37
:101A1000FDE700000400FA0500ED00E0F8B55B4CBE
:101A2000A569FE21284608405949FEF70AFC0746E9
:101A300007212846090208405549091DFEF701FC07
:101A40000090534801210C30002642C038071AD5B7
:101A5000A069C00309D5A0690843A0614C48001FD4
:101A6000FEF7E5FB2105084305E04948001FFEF7A6
:101A7000DEFB400040084649091FFEF7E2FBE06933
:101A800008210843E061434DB80712D540490020C2
:101A90000831FEF7D6FB28786A78410889180906CC
:101AA0003D4AC90D515AC207120FD140A162401CD4
:101AB0002870780711D5636A3649AA78C91C8B54F7
:101AC000521CD2B2AA702E700B786B70022A04D10D
:101AD00048780978000208436870F8060BD52C484E
:101AE000AE70001FFEF7A3FB0121490708432849F8
:101AF000091FFEF7A6FBB8061AD5E06910210843B6
:101B0000E0612348001FFEF792FB002804DA400042
:101B100040080121890701E00121090708431C4908
:101B2000091FFEF78EFBAE70E06920210843E061DB
:101B300000981A4DC0050AD5E814E0611448001F4A
:101B4000FEF775FB12492843091FFEF77AFB009840
:101B500080050BD501204002E0610D48001FFEF713
:101B600066FB0B492843091FFEF76BFB00984005F5
:101B70000BD501208002E0610548001FFEF757FBEE
:101B800003492843091FFEF75CFBF8BD00580040DD
:101B9000100E0020DE070020920B0020000000083D
:101BA000F0B5214E38233C24F35E345F8646002096
:101BB0001B1B1F4609371D4C014605460246122FC6
:101BC00001D9012703E01F1D082F01D800276770E6
:101BD000174FDB197F00BB4201D9002363703E23FE
:101BE000F35E9C46104B403B4E00F618B68A114FF0
:101BF000BE4205D9664503DD01252E468E4032439F
:101C0000491CC9B20F29EFD371460A60597943299B
:101C100008D1997B642905D2012D03D1617801296E
:101C200000D10120F0BD00003C090020D4060020B6
:101C3000E7030000480D000038B5324A32485179B8
:101C4000324C0025432940D0442954D00022082199
:101C5000FFF7AEFB69460D8008782D4940080978EA
:101C60004000C907C90F0843FD21084029490978E8
:101C7000C907890F0843FB21084027490978C9078C
:101C8000490F0843F721084024490978C907090F7B
:101C90000843EF21084022490978C907C90E0843C3
:101CA000DF21084021784A07D20F5201104349062C
:101CB000BF22C90F1040890108436946087009888E
:101CC0001848002919D0012218E0174909784B0754
:101CD000164907D52378DB0704D09278642A01D30C
:101CE0008D7004E08A78002A03D000228A708A78F6
:101CF000ADE70122FAE70122A9E700220821FFF758
:101D000057FB38BDFC080020000C005018000020D4
:101D10002200002037000020310000203A0000207F
:101D2000340000200004005060000020C60600209F
:101D300018B5002100918268D207D20F2DD0C26859
:101D400037239B019A43C26082683A4B5207D20FF5
:101D500007D08268D206D20F03D182681A401032AF
:101D600082600122D203009203E0009C641E009472
:101D700009D08468E406E40FF7D184681C40A41CF1
:101D80008460009205E00121F7E7009A521E00925C
:101D90003BD082689207D20FF7D1826817231A428C
:101DA00030D14268244B1A4042600268DB431A4338
:101DB0000260826801231B079A438260C2681F4B3E
:101DC0001A40C26002691E4B1A40026142691D4BF3
:101DD0001A404261026A130B1B4A1B03134303623E
:101DE000436A1B0B1B0313434362C36A1B0B1B0396
:101DF0001343C362826AD20CD204826203221204A9
:101E0000009208E00121084618BD0121C5E7009AAB
:101E1000521E00920CD002689204D20FF7D0012219
:101E2000520302608030426BD209D2014263EAE77A
:101E30000121F4E7E8FFFF7F60D4FFFF00023E834B
:101E400002FCFF3F880000F80000FF0F70B58368B8
:101E50000022DB07DB0F02D00122104670BD8C6828
:101E60004B68C5682343CC68054E35402C4323435B
:101E7000C360036909689B009B080B430361ECE79F
:101E8000C73FFFFF70B54D6883680022DB07DB0F9B
:101E900002D00122104670BDC46801235B051C42BC
:101EA0000E4B01D0F02D08D08D680C680E692C43C4
:101EB000CD6835432C434D6905E0CD680C684E690B
:101EC0002C430D6935432C43C5681D402C43C46029
:101ED0004968836A0B438362DCE700003CC2FEFF73
:101EE00010B543690424214007248C40A3438A4051
:101EF0001343436110BD000008B504490A6802435A
:101F00000A6009680140009108BD000040100240CD
:101F100002490A6B02430A63704700000010024046
:101F200002490A6B82430A637047000000100240B6
:101F300002494A6882434A607047000080180240A4
:101F400002490A6882430A60704700008018024014
:101F500010B50479002326490268002C41D0002ADC
:101F60003DD04479002C12D0012C18D0022C19D06D
:101F700001238279002A32D01D498039012A19D0E3
:101F8000022A20D0032A22D00220034327E04C68F3
:101F900094434C6002680C6814430C60E9E70C68D9
:101FA000944301E00C6814430C6002684C681443CD
:101FB0004C60DEE702684C6894434C6000680A6835
:101FC00002430A600BE002680C68944302E0026876
:101FD0000C6814430C6000684A6802434A60184663
:101FE00010BD0C6894430C6000684A688243F5E7B2
:101FF0008018024003490969884301D000207047D6
:1020000001207047001802400349C968884301D085
:102010000020704701207047001802408A07130F04
:10202000054A10B59B181A6E090C07248C40A24370
:10203000884002431A6610BD0018024010B5052101
:1020400000240907884204D1012000F0C3F80120D0
:102050001EE01249884204D1022000F0BBF80220A1
:1020600016E00F49884204D1042000F0B3F80420A0
:102070000EE00C49884204D1082000F0ABF808209B
:1020800006E00949884206D1202000F0A3F820206C
:1020900000F0A8F800E00124204610BD0004005024
:1020A00000080050000C005000140050F0B500244F
:1020B0003EE001232A46A3401A4038D04F68066804
:1020C000134653435D005D19AE435F433E430660D4
:1020D0004E68012E01D0022E05D18F6886685F43BD
:1020E000AE433E4386600F69C668AE431D467D43DE
:1020F0002E43C6604D68022D19D1FF2A0AD84E69B9
:10210000056A534353431A01D21A954373431D433F
:1021100005620CE0130A1A465A435A435A43130104
:102120009E1A4D69436A6A43B34313434362641C76
:102130000A681546E240BCD14A68012A01D0022A49
:1021400006D1CB6841682A4691435A431143416006
:102150000020F0BD10B5036849434C000C19A3439F
:1021600051430B43036010BD02460B4B00200B494B
:102170009A4202D10122520504E0094B9A4208D149
:1021800001229205CB6A1343CB62CB6A9343CB62A5
:1021900070470120704700000054004000100240CA
:1021A0000058004008B504494A6B02434A63496B32
:1021B0000140009108BD00000010024008B504492C
:1021C0004A6B02434A63496B0140009108BD00001D
:1021D0000010024002494A6A02434A627047000006
:1021E0000010024002494A6A82434A627047000076
:1021F0000010024010B57D21C900FDF779FF0449A8
:10220000401E4861002088610520086110BD000063
:1022100000E000E010B5044600F024FF206000F06C
:1022200001FF606000F00EFFA06010BD014610B518
:102230000020032913D1134A516903238907890F09
:102240001B041943DB43C9180AD001290BD002290A
:1022500011D000F007FF00F0E5FE00F0F3FE10BD26
:1022600000F000FF10BD0749403909684905C90F52
:10227000F8D0054810BDD1698907C90FFAD00120EF
:10228000C00310BD401002400024F40010B5029CB1
:1022900049032406240A1B0621431B0C1943D2B20E
:1022A00011434268024B1A400A43426010BD0000CD
:1022B000C00000FFF8B5012614460F460546002968
:1022C00006D16078C10603D5EF2108400A3060705E
:1022D000CA20686253206862284600F041F801284D
:1022E0002AD0E078002F04D000906378A27821787B
:1022F00016E00A21FDF7FCFE00010843C7B2607832
:102300000A21FDF7F5FE00010843C6B2A0780A21B4
:10231000FDF7EEFE0001084300972178C2B2334674
:102320002846FFF7B3FF80200849C043C860A8696A
:102330008006C00F04D00026FF2068623046F8BD3A
:10234000284600F0BFF80646F6E7000000280040E7
:1023500001210170817041700021C170704700003F
:1023600018B57D21C9000091C16800224906C90F36
:1023700015D1491EC160C1680B4B4906C90F0CE05D
:102380001969C903C90F02D00099491E0091C1689B
:10239000009C4906C90F002C03D00029F0D010463C
:1023A00018BD0122FBE7000000E000E070B5044624
:1023B0000126CA200D466062532060622046FFF766
:1023C000CFFF012817D02968A06940229043084315
:1023D000A061A8682169C90BC90301432161A988CB
:1023E00020697F2212049043090408432061802061
:1023F000C043E0600026FF206062304670BD0000F0
:102400001206120A10B50A431906090C029C0A4367
:10241000E1B20A430168024B19401143016010BD4B
:10242000808080FFF8B5054614460F46012600203F
:10243000AA6940210A4200D12060CA206862532064
:1024400068622846FFF78CFF01282AD0A079002F68
:1024500004D0009063792279216816E00A21FDF703
:1024600047FE00010843C7B260790A21FDF740FE2C
:1024700000010843C6B220790A21FDF739FE0001A8
:10248000084300972168C2B233462846FFF7B8FFD9
:1024900080200849C043C860A8698006C00F04D0E6
:1024A0000026FF2068623046F8BD284600F00AF892
:1024B0000646F6E7002800400021016001714171E5
:1024C0008171704738B57D24E4000094C268002112
:1024D00080231A40A13AC260C268164B9206D20FFE
:1024E0000CE01A69D203D20F02D0009A521E009259
:1024F000C268009D9206D20F002D18D0002AF0D19C
:10250000002912D10094C2689206D20F0BE01A691A
:10251000D203D20F01D0621E0092C268009C9206C4
:10252000D20F002C03D0002AF1D0084638BD01217B
:10253000FBE7000000E000E0014908607047000090
:102540001400002070B516490024884201D1C5143A
:102550001BE01449884208D113480221C26A0A4389
:10256000C262C26A8A43C26217E01049884201D13E
:10257000C5130AE00E49884202D101256D0404E02A
:102580000C49884208D10125AD042846FFF7C0FC5C
:102590002846FFF7C5FC00E00124204670BD00007E
:1025A000002C0140000400400010024000200040C8
:1025B000004401400048014070B50268174B184DB7
:1025C000984201D0A84203D17024A2434C68224310
:1025D000144E154C984208D0A84206D0134DA8427C
:1025E00003D0B04201D0A04204D103252D02AA435A
:1025F000CD682A4302608A68C2620A888262984271
:1026000003D0B04201D0A04201D1097C01634169ED
:10261000012211434161002070BD0000002C0140E7
:1026200000040040004401400048014000200040F8
:1026300041680922D2029143416081682A22914374
:1026400081607047FEB5044600680D46012738409A
:102650005CD12969A868EA6908436969114308439C
:1026600021682B4A114008432060E9686068032212
:102670001203904308436060A969A0681211904357
:102680000843A0602348844203D10320FFF7CEFD16
:1026900006E02148844232D16846FFF7BBFD02982C
:1026A00000282CD06E68002E29D029680027EA69FE
:1026B0000B2924D80123DB039A4213D109068A0D82
:1026C00016498958FDF714FD40007108401831463D
:1026D000FDF70EFD81B2124808400907490F01437A
:1026E000E1600CE009068A0D0C498958FDF700FDF0
:1026F000710840183146FDF7FBFC80B2E060288885
:10270000E16A80B2090909010143E1623846FEBD70
:10271000F369FFEF0038014000440040044F000817
:10272000F0FF000008B505490A69009203E00A6954
:10273000D20300D5401E0028F9D108BD00E000E01A
:10274000FEB50024684684809A49007909884008CB
:102750008A074000D20F1043CB06FD22DB0F10404A
:102760005B001843F72318408B05DB0FDB00184391
:102770008906EF23C90F184009010843DF210840EB
:102780008D49914D0978C907890E0843BF2108403A
:102790008A4909788901084341068948490E007829
:1027A000C0010143684601718649407909784008B3
:1027B000C9074000C90F0843297810400907C91705
:1027C0004900891C8907890F014368464171D11C62
:1027D0007E48FEF7E6FD2E88C0070821000F8E43D5
:1027E00006437B4B2E80684681881D461A4640353D
:1027F00078488032002903D07749118144700EE077
:102800003C21695E754FB94209DD997B612906D289
:10281000D97B052903D9310701D501214170002158
:102820006C4621802178634C490824884900E707D9
:10283000FF0F3943FD2739406705FF0F7F003943FC
:10284000F7273940E705FF0FA446FF003943A406E8
:10285000EF27E40F394024012143DF242140594C64
:102860003C272478E407A40E21436C46217061784C
:10287000FD2421405A4C2478A646E407A40F2143A6
:102880006C466170EF5F574CA74202DC0424214381
:1028900001E0FB2421406C466170740710D4FF24D2
:1028A000176A2D34A7420BDAC7884F4CA74201D2D2
:1028B0007F1CC780BCB2F02C04D30824214303E062
:1028C0000024C480F72421406C46617021880127D0
:1028D0003F0300291AD000247D210471C9005181D1
:1028E00071460129918809D0B9436546EE073F4DED
:1028F000918005D0AE003143A94304E0394302E0A2
:1029000029434904490C9180047030E00179002981
:102910000FD03821695E364CA1420CDA997B5C29D4
:1029200009D2D97B052906D9710704D50121017087
:1029300004E0012101710178002918D05488012197
:1029400089038C43548041780125ED02002913D07E
:10295000AC436546AD05ED0FBC432D032C435480BD
:102960009E7801256D020A2E08D82C4307E0548872
:10297000012189030C43E5E72C43EAE7AC4354808B
:10298000DA798A4203D19B790478A3420DD00129D8
:1029900004D1012A02D0C278002A03D0007800F0C6
:1029A000B1FF04E00121C170FEBD0021C170FFF73D
:1029B00043F9FEBD18000020460000204900002019
:1029C0004C00002043000020600000200004005064
:1029D000FC080020C60600201A040000C4090000FC
:1029E0002B000020DC0500003075000000200000F6
:1029F000420E000030B591B000240694079408946C
:102A0000182168460994FDF707FC18210AA8FDF76C
:102A100003FC414D2846FFF78BF94048012102682D
:102A200009050A4302600068084010903B480121F4
:102A30004038426B0A434263406B0E94084010904A
:102A400020200A9003200B9005200AA90007FFF719
:102A50002DFBE868012149058843E860480206909B
:102A60000794089406A909942846FFF7EFF9F02087
:102A700000940190029403940494694605942846B6
:102A8000FFF700FA28694008400028612869E90436
:102A900088432861072200212846FFF721FA0722F0
:102AA0001F492846FFF71CFAA8681E490840012163
:102AB00009070843A8601C481C4940890880FDF7A5
:102AC0005DFC1C481A490068FDF712FB14214843BD
:102AD0000A21FDF70DFB00E0401E0028FCD116483E
:102AE00003220168D2040F239B0499431143016020
:102AF00001220168920507239B0599431143016058
:102B0000A86A0521000900010843A86268695112FA
:102B10008843686111B030BD00240140401002407C
:102B200004FFFF07E8FFFF7FA075FF1F04000020E0
:102B3000400D03001400002008270140FEB50025C9
:102B40002E4800950195C16949084900C16129468F
:102B50002846FFF763FA01210020FFF75FFA022100
:102B60000120FFF75BFA26490220FFF757FA0524F8
:102B70002407002201212046FFF7ECFA0022102151
:102B80002046FFF7E7FAFF260136002231461D48AE
:102B9000FFF7E0FAF701002239461B48FFF7DAFA9F
:102BA000012468460094457184710471FFF7D0F9DF
:102BB00068460097457184710471FFF7C9F91020C8
:102BC00000906846457184710471FFF7C1F9684649
:102BD0000096457184710471FFF7BAF90021052050
:102BE00001F03AFE052001F01FFE0021072001F050
:102BF00033FE072001F018FEFEBD00004010024029
:102C0000030018000004005000080050F0B587B021
:102C100018216846FDF700FB05200007FFF70EFAB4
:102C20003D4E3046FFF70AFA3C48FFF707FA3C48AA
:102C3000C16949084900C1610120FFF7B3FA0220C8
:102C4000FFF7B0FA0420FFF7ADFA80200124002539
:102C500000900520019403956946049502940007AD
:102C6000FFF724FA0520012280210007FEF7A0FBD0
:102C700040270520694600070097FFF717FA05204F
:102C8000000787621027694630460097FFF70EFA63
:102C9000B76102200090052069460007FFF706FA99
:102CA0000520012202210007FEF782FBE0020090CE
:102CB0000520019403946946049502940007FFF7E8
:102CC000F5F920030090052069460007FFF7EEF9AB
:102CD0006002009069463046FFF7E8F96002B06292
:102CE00005206946000701950094FFF7DFF9E0032E
:102CF000009069460948FFF7D9F9052069460007A1
:102D00000097FFF7D3F92002009069463046FFF79D
:102D1000CDF907B0F0BD00000004005000080050DD
:102D200040100240F0B587B000252E480395016899
:102D30008215114301602C48C169D2011143C16160
:102D4000011529484038C26B0A43C263C06B084072
:102D5000264906900868FF273A0490430122D205CD
:102D60001043086001262249042008607F20214C7E
:102D7000049003A905972046FFF718FB1E48017829
:102D8000012921D006706846FFF796FB02A8FFF7DD
:102D9000DFFA0E2069460871322048718D716A464B
:102DA000002120460095FFF73DFB0220694608728E
:102DB000062048728E721520C87202AA0021204691
:102DC000FFF778FA07B0F0BDCA2060625320606256
:102DD000A0698006C00F02D12046FFF773FB67622F
:102DE000F0E70000007000404010024000E400E006
:102DF00000E100E0002800400C00002000B585B094
:102E000014216846FDF708FA01204004FFF774F822
:102E10000021152001F042FD152001F011FD0F20C9
:102E200069460880FF210020F5310291019003904E
:102E3000694608740248FFF7BFFB05B000BD0000FB
:102E400000440140F0B58FB0202106A8FDF7E4F959
:102E500018216846FDF7E0F93448C26A01214904A7
:102E60000A43C262C26A8A43C262C26B0A43C26335
:102E7000C06B08400E900120FFF7A0F90024012547
:102E800008200527059502263F0700900294039429
:102E90006946019604943846FFF708F90420059521
:102EA0000090029403946946019604943846FFF713
:102EB000FDF8E120800107900894069409940A9493
:102EC0000C940D940C201A4C0B9006A92046FFF789
:102ED000B9FBA068C000C00879000843A060A068E2
:102EE000072149068843F9100843A0602046FFF7F0
:102EF0009FFB10480168090A090201600E49A004FD
:102F000008602068202108432060206810210843C1
:102F10002060206828432060E0698002C00FFBD059
:102F2000E0694002C00FF7D00FB0F0BD00100240C2
:102F3000004400401CE400E000E100E070477047FE
:102F400010B501F0FBFB1D4C206201F079FF6062BF
:102F500020462030017A552907D100210172FEF761
:102F600035FB17498883FEF7CFF8206AFDF750FD3F
:102F7000124980394871442817D043281CD0114881
:102F8000114AA0811068114BD968401A00D54042FF
:102F900081B2E1801068D860A289206A00F0EEF862
:102FA000E188206AFDF79AFD10BD20896821484319
:102FB0006421FDF79DF8E3E76089E1E77C090020E3
:102FC000A80900201A040000000000205000002082
:102FD00070B501F06FFBFDF710FC01F035FBFDF75C
:102FE00081FAFFF7ADFB01F093F900F09DF80B4C6F
:102FF0006169A069FEF7EDFB2546803DA870084990
:103000006069FEF7E6FBE87001F084F8FDF714FE56
:1030100000F06CFF00F034FE70BD00007C09002061
:10302000808EF20D054989688A093C210A400A40D0
:103030000349895CC906C90EC840704700100240A8
:10304000344F000805498968054A4904490F890039
:10305000515CC906C90EC84070470000001002400C
:10306000744F000810B50B498868382210400828B2
:103070000AD010280AD0086801218004400F81403E
:103080000548FDF735F810BD044810BD00F008F8FC
:1030900010BD0000001002400024F40000127A006D
:1030A00010B50D4AD0680D498007800F022802D064
:1030B000032800D14910D068440FD0684006430F60
:1030C000D068641C4004400E4843591CFDF710F8BA
:1030D0002146FDF70DF810BD001002400024F40059
:1030E00001090A2200075143000F4018C0B270477F
:1030F0000B48016DC907C90F03D0C16D01221143EF
:10310000C165016D4907C90F08D0C16D0422114383
:10311000C165044892010188114301807047000095
:10312000002800406000002070B51249114C497918
:1031300000208034104D432908D0442910D128465E
:103140001030FEF7ABFAAA280BD00EE00020287052
:1031500009481030FEF740FA5A2801D1298A6181C6
:1031600070BD05481030FEF717FB5A28F8D1298AA0
:10317000218170BDFC0800207000002070B515464C
:103180000A460024C1172346FDF702F82A462346C3
:10319000FCF7FEFF7D22D2000023FCF7D3FFC822FC
:1031A0000023FCF7CFFF0025144A2B4612882D1A66
:1031B0008B4101DAD30603D4002903DA920601D544
:1031C000002001460E4A938994819B1CDD17C01A8A
:1031D0000C4AA9419369002906DA002801DB01465F
:1031E00000E041428B4202D31818906100E09461E4
:1031F00091695069814200D3906170BD60000020E8
:10320000700000207C09002010B5094C6288211D47
:1032100050546088C821401C80B2FCF769FF61806F
:103220002088814203D1C821FCF762FF218010BDB4
:10323000F006002008B500206946087000F0F4F997
:103240000520012202210007FEF7B2F80A20FFF74D
:1032500069FA00F0DBFBFA20FFF764FA00F01CFCCF
:1032600001226946192000F065F940B2002805D115
:103270006846007802494006400E087008BD00000C
:10328000DC07002070B50124052524032D0700224A
:1032900021462846FEF78CF8012001F089F801222A
:1032A000D60231462846FEF783F8022001F080F866
:1032B000002231462846FEF77BF8022001F078F81C
:1032C000012221462846FEF773F870BD70B505242B
:1032D0000122240711032046FEF76AF8012001F0BD
:1032E00067F80122D50229462046FEF761F8022040
:1032F00001F05EF8002229462046FEF759F8022028
:1033000001F056F870BDF8B500240127FF0205262C
:1033100025463607022001F04BF801223946304697
:10332000FEF746F8012001F043F86006040E012183
:1033300009033046FEF735F8002801D0641CE4B2DA
:10334000012001F035F8002239463046FEF730F80A
:103350006D1CEDB2082DDDD32046F8BDF8B5012770
:103360000024FF02052605463607280601D501225E
:1033700000E00022012109033046FEF719F8012080
:1033800001F016F8012239463046FEF711F86806BA
:10339000050E022001F00CF8002239463046FEF7F7
:1033A00007F8012001F004F8072C04D101221103D1
:1033B0003046FDF7FDFF641CE4B2082CD5D3F8BD00
:1033C00070B5022000F0F4FF0122052514032D073B
:1033D00021462846FDF7ECFF012000F0E9FF01221D
:1033E000D60231462846FDF7E3FF042000F0E0FF57
:1033F000002221462846FDF7DBFF042000F0D8FF1D
:10340000002231462846FDF7D3FF012000F0D0FF0F
:1034100070BD70B50124052524032D070022214627
:103420002846FDF7C5FF022000F0C2FF0122D102AD
:103430002846FDF7BDFF012000F0BAFF012221461A
:103440002846FDF7B5FF022000F0B2FF70BD70B551
:103450000122052514032D0721462846FDF7A8FF64
:10346000022000F0A5FF0122D60231462846FDF7D2
:103470009FFF012000F09CFF21462846FDF791FFA9
:10348000C4B2012000F094FF002231462846FDF727
:103490008FFF022000F08CFF204670BDF0B58DB08C
:1034A0000E4607461446042534216846FCF7B4FE50
:1034B000342168460170477084703521C170FFF770
:1034C0007FFF3420FFF74AFFFFF7C1FF3846FFF7C1
:1034D00045FFFFF7BCFF2046FFF740FFFFF7B7FFB0
:1034E000FFF76EFF3520FFF739FFFFF7B0FF6F469C
:1034F00009E0FFF708FF7855FFF7C4FE785D6D1C03
:103500003070EDB2761C2046641EE4B20028F0D183
:10351000FFF7F9FE0446FFF7D9FEFFF77AFF2946C9
:103520006846FDF727FAA04202D100200DB0F0BD99
:10353000FF20FBE7F8B515460E46074600242A464D
:1035400031463846FFF7AAFF641CE4B2002801D0D8
:10355000032CF4D3F8BD0000FEB50D46064600214D
:103560006846017115A00068009068460C464670D8
:1035700085700321FDF7FEF901466846C170FFF72B
:103580001FFF6F46385DFFF7E9FEFFF760FF641C21
:10359000E4B2042CF6D3FFF73CFF2320FFF7C2F878
:1035A000012201A93046FFF7C5FF68460079854230
:1035B00001D10020FEBD0020C043FEBD340000004C
:1035C000FEB50D46064600216846017115A000684B
:1035D000009068460C46467085700321FDF7CAF9D5
:1035E00001466846C170FFF7EBFE6F46385DFFF796
:1035F000B5FEFFF72CFF641CE4B2042CF6D3FFF7F2
:1036000008FF0520FFF78EF8012201A93046FFF7D9
:1036100091FF68460079854201D10020FEBD00205F
:10362000C043FEBD34000000F0B5002497B025462D
:10363000FA20FFF777F81A2207A90020FFF72EFFDC
:103640006D1CEDB2002801D0032DF4D308A9487DEC
:1036500010254206520E4A750F210846BF21084028
:1036600028432021084310A9087469460870284699
:10367000DF2108408021084310A90874694648707A
:10368000088F5949800A8002401803218902884323
:103690000005000DED02401969460887060A8E7084
:1036A000C8705521C900481969460887050A0D7177
:1036B00048717D2088718220C871AA2008727D20FF
:1036C00048724B208872BE20C87208A9087FF32375
:1036D0000007000FA03000090001801D087769462F
:1036E000087310A908780007000FC0300009000116
:1036F000401D08706946487310A983200871694607
:10370000887310A91A2008726946C87310A9087B2B
:10371000CF218006800E0840103018400830800805
:10372000800010A9087369460874900015182F4886
:1037300029182F48FCF7DCFC694648742B483938B7
:103740002918A3208002FCF7D3FC69464875274856
:103750001A3029182748FCF7CBFC6946887523489E
:1037600063302918F1208002FCF7C2FC6946887496
:10377000214829182148FCF7BBFC69460646C87455
:103780001F4829181F48FCF7B3FC69460875CE7519
:103790000876002007AE6D46315C2A5C914200D06D
:1037A0000124401C1928F7DB002C1BD00520002227
:1037B00002210007FDF7FCFD0A20FEF7B3FF0024FD
:1037C000305D295D88420AD00027295DE0B2FFF70D
:1037D000C3FE7F1CFFB2002801D0032FF5D3641C69
:1037E000192CEDDB17B0F0BDDA0200002704000051
:1037F00000FE020000320300BA3C00000024740006
:10380000FD2E000000AA5800F1B586B00024062263
:1038100001A94620FFF78EFE1748184F007801AD2A
:10382000810040185521C900461861006A5C68464D
:1038300042704819417868460170008801220146AB
:10384000D2037043511AFCF769FC81B2002001E0F9
:10385000401CC0B24200BA5A8A4201D9A128F7D30B
:10386000002801D0A12800D9FE2006990855641C23
:10387000032CDADB07B0F0BDDC070020E4520008BF
:1038800030B591B0054600241E2201A94E20FFF755
:1038900051FE01A962008B5C684643705018437862
:1038A000684603700088641C8300C0184009A85251
:1038B0000F2CEFDB11B030BD08B5022269464C2059
:1038C000FFF738FE694608784978000200B20843DD
:1038D000C113CA07094908D0002800DA4042084A43
:1038E0005043FCF71BFC404208BD002800DA404270
:1038F000034A5043FCF712FC08BD00006A34000084
:1039000050C3000010B50C4A0B461178F924490841
:103910004900214008242143EF24C0072140C00E64
:103920000143DF200140D807800E01431170402081
:10393000FFF746FE10BD0000DD07002038B500206F
:103940000090032269464320FFF7F4FD002855D17B
:103950006B461B782A49DA070888D20F40084000D6
:103960001043022290439A07D20F520010430422C0
:1039700090435A07DC06D20F920010434022E40F16
:103980009043A40120439B060824DB0FA043DB00E7
:103990001843130198436B465B78DC07640D2043A2
:1039A0009400A0439C07E40F240220431024A0436A
:1039B0005C07E40F24012043D4001B07A043DB0F66
:1039C0005B0218436B469B7880241D07ED0FA043D4
:1039D000ED01284308809807C10F0A488171D90773
:1039E000C90FC171084908889043DA099201104350
:1039F0005A06D20FA043D2011043088038BD000000
:103A00001A000020FC0800206000002038B50CA03F
:103A100000680090002403216846FCF7ABFF69466C
:103A2000C870FFF7CDFC6D46285DFFF797FCFFF7E8
:103A30000EFD641CE4B2042CF6D3FFF7EAFC38BD9B
:103A400034EAC00010B50446010A4120FFF7B8FD72
:103A5000E1B24220FFF7B4FD10BD000038B50DA162
:103A60000968009169468870002403216846FCF7C4
:103A700081FF6946C870FFF7A3FC6D46285DFFF71C
:103A80006DFCFFF7E4FC641CE4B2042CF6D3FFF7F2
:103A9000C0FC38BD3440000010B507490822087842
:103AA00010438B22104040084000FD221040087057
:103AB000FFF7D4FF10BD0000DD07002010B5064958
:103AC000012208781043F12210404006400E087091
:103AD000FFF7C4FF10BD0000DD07002070B5174AD6
:103AE0009168411A00D54942154DFF24F534AB7851
:103AF000A14211DD90600120012B0FD000280AD0D7
:103B00005079E02814D0E12814D0E0215171FF2130
:103B10005079FCF77FFE70BD012BFCD107480024D3
:103B20000C3084700748847300F074F9AC7070BD79
:103B3000E12000E0FE205071E9E70000DC060020F3
:103B4000F8090020B0070020F8B507230026474FEA
:103B50000124474DE12937D006DCA0290BD0A42948
:103B60000ED0E0297ED10EE0EA2971D0EB2947D0B2
:103B7000FE2977D10DE03D483C700C38447071E06F
:103B8000C47108236EE03C70C01DFDF717FCC31D17
:103B900068E03C707821C171002101726522427297
:103BA00082720922C2720F2202730D224273847341
:103BB0000322C2739122027441748174C17401752D
:103BC0004175817517234DE03C70698B090AC171FD
:103BD000A97E0172A98C090A4172A98C81722449BB
:103BE00040318A89120AC272097B0173298C090A41
:103BF0004173298C81731F491023C978C17331E047
:103C00001D493C70087C632805D1487C632802D19B
:103C1000887C632803D00720072A07D822E01548AC
:103C20005521A03001721DE014281BD22C180E184B
:103C30006778767AB74205D06670104C01272688DF
:103C40003E432680401CC0B29042EDD30AE0FFE71D
:103C50003C70A919097AC1545B1C761CF6B29BB260
:103C6000102EF6D3DB1F98B2F8BD0000E806002046
:103C7000A8090020FC080020F809002060000020AE
:103C8000FEB558480A21807B584E48435649554C4A
:103C9000401830828034208A7082206A00250A21F0
:103CA0000290FCF73BFAB082676A0A213846FCF7BB
:103CB00035FAF0824B484E4980787083B083A06912
:103CC0000090FCF715FAF083606949490190FCF710
:103CD0000FFA30840298474E00280BDAFF212D316D
:103CE0000098FCF705FA0246029841421046FCF79C
:103CF000FFF900E030463D49002F488408DAFF21F3
:103D00002D310098FCF7F4F97942FCF7F1F900E065
:103D10003046364980B288840290002F0FDDFF21A3
:103D20002D310198FCF7E4F90646FF212D3100986A
:103D3000FCF7DEF9301A3946FCF7DAF900E03046D4
:103D40002A49FF22C8842C4808852C4848852548E4
:103D5000029B8030013240880A2B01D2104300E0E0
:103D60009043204A6080507940234328608801D0E6
:103D7000184300E09843608088852148438BCB85B9
:103D8000204B0B86204B4B860E235E1B6F0076006C
:103D9000B6187F1840376D1CB68AEDB27E840F2DA1
:103DA000F3D3037A827A5B02D218407A0523DB02CE
:103DB000400118181018C8861148027BC37A1002F7
:103DC000184340BA08870948A188803041851049C6
:103DD0000E4808806520283108800F20C002283155
:103DE0000880FEBDFC0800201C090000920B00208A
:103DF00050460000FFFF00001027000004A600004E
:103E0000A8090020C832000080890000910300004A
:103E1000920D002008B5144A00219079052801D29E
:103E2000917108BD114B012018700F48807A5528F8
:103E3000F7D10D48C07ABB28F3D10B48007B03288B
:103E4000EFD10948407B009107498B7B69464B7055
:103E50000549CB7B69460B700099AA2389B253723E
:103E6000FCF7D8FC08BD0000F8090020E806002097
:103E70007047000070B51A4ACA2353625323536235
:103E800093691515AB439361D36D04242343D36524
:103E9000D3685B060AD4134C2668D3685B0705D445
:103EA00023689B1B00D55B42642BF6DB5061906955
:103EB000C008C00090619069084390610A480123DE
:103EC0000168DB041943016090695911084390614E
:103ED000906928439061FF205062002070BD00006F
:103EE000002800400000002080180240FEB5002796
:103EF000684607805348006A002800DA4042524E64
:103F0000962805DD30780A2803D2401C307000E086
:103F100037704E480190FCF78AF9642803D2401CA0
:103F20000199FCF78EF94748FB218038807B5C289B
:103F30006846007802D30422104300E008406A4635
:103F400010703278002A02D01022104301E0EF22D4
:103F500010406A4610703E4A1288002A02D0202281
:103F6000104301E0DF2210406A4610703648801C82
:103F7000007802900028104603D0447801200443C2
:103F800002E040784408640032480C400588680428
:103F9000C00F8000044330485470807B052802D253
:103FA0000820044301E0F720044054700198FCF716
:103FB0003EF9052802D24020044301E0BF2004401E
:103FC0002907EF20C90F044009010C4369464C70D2
:103FD000224920480978012912D0DF210C40694686
:103FE0004C700A88FF210131002A0CD06A04B78086
:103FF000520C0280029B002B01D18A430280FEBD3D
:1040000020210C43EBE7B288521C92B2B2803C2ACA
:1040100001D8EA0BF3D0074607204002854303206E
:104020008D43000385436804400C3880FCF7C2FED2
:104030003888C00502D50A49B42008803220B080F3
:10404000FEBD00007C0900206A000020180E002040
:104050001A00002060000020B0070020C6060020E3
:104060007C00002030B587B018216846FCF7D4F8F2
:10407000214C2046FEF766FA2048FEF775F82068C6
:104080004008400020601E4801684908490001605E
:10409000402005242407A0621A4D1020A8627D202C
:1040A000C000FEF73FFB0220FEF77CF80420FEF77D
:1040B00079F80820FEF776F80120FEF773F8012062
:1040C0000290002003900490032001900E4800907D
:1040D00069462846FDF7EAFF69460C48FDF7E6FF0A
:1040E00069460B48FDF7E2FF69462046FDF7DEFF13
:1040F000FEF724FD07B030BD0044014000580040E9
:104100000044004000040050FFFF0000000C00507D
:1041100000080050FEB5634F6348BA783C460188FA
:1041200020264034022A06D23C23E35E5F4DAB4298
:1041300001DD314300E0B1435A4B01804033382167
:104140001025595E622A06D9E1221201914202DA53
:1041500002882A4301E00288AA4302800120544ACF
:104160004002906153483E220078019000915248ED
:10417000A25E0378797951A000F046FB0220FEF799
:10418000D1FA01214A484902816246487B790022DE
:1041900057498030432B12D0076A564BBC46FF1854
:1041A0005B009F426AD88A706346C827CA71FB4287
:1041B0003BDA8B790A2B33D25B1C8B7136E08A7128
:1041C000CA70CB790A2B02D25B1CCB7103E00A7157
:1041D0004388AB4343803823E35E474FBB4203DA57
:1041E000344F3F78002F02D0444FBB420CDD3E23BA
:1041F000E35E414C6E3CA34203DA2F4C2478002C42
:104200000CD03E4CA34209DC8B785B1CDBB28B707C
:10421000032B22D98A7001234B711EE08A701CE0A7
:104220004A714388B343438000E08A713C23E35ED4
:104230007D24E4001B1B324CA34203D9314B1B7875
:104240009B0709D5CB785B1CDBB2CB70032B04D961
:10425000CA7001230B7113E0CA700B79012B0FD0C8
:104260004B79012B09D1284D436984695D19AC4212
:1042700012D22549494261188161FEBDCA70CDE75D
:10428000224C8369A34202D961425918F4E7826142
:104290000A714188294303E083614A7141883143AF
:1042A0004180FEBDFC08002060000020EA0B0000F9
:1042B000000400501C0000201F000020536F635FAB
:1042C000436C724F725365744374726C3A2073740A
:1042D000753D2025632061763D20256420202564DE
:1042E000206D78763D202564202564200D0A00008D
:1042F00070000020DB370000240E0000881300004F
:10430000E6050000180000208011C9FF40771B005F
:104310003EB5002469460C728C80204948780328F9
:1043200002D2401C48703EBD1D4D28788007FAD44B
:1043300001A902A800F0A0FC0028F4D06846017A88
:104340001848002921D0012902D0022910D101E00A
:10435000154901E01449A831009169468B880F493D
:10436000007C04221D31FDF789FAC4B2642CDAD82E
:1043700028880221084328800A4D64218035686915
:10438000FBF7B6FE6043A8613EBD0849009169464F
:104390008B8802490822007C2831E4E77000002065
:1043A00060000020FC080020120400207605002098
:1043B000142148430004000C01D0401EFAE7704766
:1043C00010B5AC210848FBF727FF084900200880FA
:1043D00007497D2208800448064980300181D200C7
:1043E0004281818110BD0000FC08002018000020DF
:1043F000600000201A04000010B50C480168491C38
:104400000160052010210007FCF7CBFFC007084919
:10441000420F088804239843104308800548016828
:10442000012902D14168491C416010BD00000020F3
:10443000600000201C0E002070B52E4901200A6883
:10444000D208D20002430A6008684007400F0128E2
:10445000FAD12948026881150A43026002685205B0
:10446000D20FFBD0244C4034226A01231A4322622B
:10447000226A9207D20FFBD0204A13680B431360C5
:1044800081680F221202914381608168C908C900C6
:104490008160382281681142FCD1816807221203B1
:1044A00091438160164D2846FDF7A4FE2846FEF78D
:1044B00043F8E269032000020121024049028A42D6
:1044C0000AD0E369CA011343E361E3699343E361FB
:1044D000E26982430A43E261E0690121C9030843BA
:1044E000E061606980088000606160698000800828
:1044F000606170BD0020024000100240007000406A
:104500000024F40001200249C006886070470000C2
:1045100000ED00E001200249C0430861704700003F
:104520000044014001200249C04308617047000077
:104530000044014070B50D4C0B4A0025217A904291
:104540000BD0224609328854207AC821401CC0B2C0
:10455000FBF7CEFD2172257170BD0029FCD0012032
:10456000A070A171257270BDFFFF0000F809002046
:1045700070B50F4CE569E0698006C00F03D0606A32
:10458000C0B2FEF741FEE069C006C10F102000294D
:1045900003D02062074901224A73E1690907C90F64
:1045A00003D0616A206208202062256270BD00008D
:1045B00000380140B007002070B50F4CE569E06994
:1045C0008006C00F03D0606AC0B2FFF7B3FFE06996
:1045D0001026C006C00F002803D026620748FFF748
:1045E000A9FFE0690007C00F03D0606A26620820B7
:1045F0002062256270BD000000440040FFFF000003
:10460000F8B501260D4F76020C460546BE61022024
:10461000FEF788F80A490B4B09E0287888621846AB
:104620006D1CCA695206D20F01D1401EF9D2204634
:10463000641EA4B20028F0D1BE62F8BD0004005090
:1046400000440040FFFF00007CB500200090019076
:10465000402005252D07A8610A20FEF763F8FBF727
:10466000E5FE1248FBF71EFFFBF7F6FEFCF72AFCFF
:104670000F4CA074FBF7C6FE4020A8626846FFF707
:10468000C3F868460178217280786072814201D94E
:104690000A4600E00246A273814201D20A4600E0C7
:1046A00002460818E273400820747CBD2000001404
:1046B000FC080020F0B500278FB03E463C461C4D5C
:1046C00068460D97FFF7DCF879006846415A1948AB
:1046D0007200101846221152174A28239219D356F5
:1046E000C91889B28182A14203D90C4611496031AF
:1046F0008F76808AA84200D205460D99761C401814
:104700007F1CFFB2F6B20D900F2FDDD30949621B5B
:1047100080310F46403F08613C87BD870A80002EEC
:1047200003D03146FBF7E4FCF8870FB0F0BD000082
:1047300050C30000FC080020A809002010B5FFF7B6
:10474000BBF8064A1C21515E081801D4014600E05E
:104750004142322900DC002010BD0000A8090020E1
:10476000FEB500259E46002919D10020FEBD00247B
:104770004F1B7F1E0FE06600B446835B3618009621
:104780007688B34205D90196009E73806346019EE8
:10479000C652641CE4B2A742EDDC6D1CEDB295423A
:1047A000E5D3002518E000244E1BF61E10E067003C
:1047B000BC466346C75B1B1800935B889F4205D2CB
:1047C0000193009B5F806746019BC353641CE4B266
:1047D000A642ECDC6D1CEDB27545E4D300247244B6
:1047E0002346891A04E05A00825A14195B1CDBB272
:1047F0009942F8DC002B05D019462046FBF778FCDF
:1048000080B2FEBD0088FEBD0FB410B503A9044BF5
:10481000044A029800F074F810BC08BC04B01847B1
:10482000F14A000810000020002805DBC106C90E6F
:1048300001208840014908607047000000E100E065
:10484000002805DBC106C90E012088400149086027
:104850007047000000E100E08307FF22DB0E9A4072
:104860008907090E9940002808DB830809489B0046
:104870001B18186890430843186070470007000F22
:104880000838830804489B001B18D86990430843E4
:10489000D861704700E400E000ED00E08307FF22EC
:1048A000DB0E9A408907090E9940002808DB83082F
:1048B00009489B001B18186890430843186070470C
:1048C0000007000F0838830804489B001B18D869AC
:1048D00090430843D861704700E400E000ED00E039
:1048E00002E008C8121F08C1002AFAD170477047B9
:1048F000002001E001C1121F002AFBD17047000017
:10490000FFB58DB00F460546002606E025280AD0E3
:10491000109A0F9990476D1C761C28780028F5D1C5
:10492000304611B0F0BD00240121674A009400E038
:1049300004436D1C2B780846203B98401042F7D169
:1049400028782E2815D10420044368786D1C2A2865
:104950000AD101CF6D1C00900BE000990A2251434F
:10496000303940186D1C00902878014630390929EB
:10497000F3D92878692843D006DC0028D0D06328F2
:104980000BD0642804D13BE073280FD075284CD09D
:10499000109A0F999047761C94E03878694608720F
:1049A0000020487202A80190012003E038680190BD
:1049B0000020C0433F1D61070CD5002400E0641CAB
:1049C00000998C420FDA8442F9DB0199095D0029D4
:1049D000F5D108E0002400E0641C8442FCDB01996E
:1049E000095D0029F8D1361907E00198019900788E
:1049F000491C0191109A0F999047641EF5D261E00D
:104A00000A20019001CF002802DA40422D2102E065
:104A1000210504D52B216A461172012103E0E1072B
:104A200001D02021F7E70C9104E00A20019001CF8A
:104A300000210C910BA90B9108E00199FBF758FBA1
:104A40000A460B993032491E0B910A700028F4D1A6
:104A50000B9803A9081A20300190600701D500982F
:104A600001E0012000900199884203DD0146019890
:104A7000081A00E000200024009006E002A8109A26
:104A8000005D0F999047641C761C0C988442F5DBFE
:104A900004E0109A30200F999047761C0099481E28
:104AA00000900029F5DC08E00B980B990078491C70
:104AB0000B91109A0F999047761C0199481E01900E
:104AC0000029F1DC6D1C28E70928010010B5044617
:104AD000FEF79CF8FEF7B6F9FDF78CFFFEF78EF9AE
:104AE000FEF720F9002C01D1FEF7A4FB10BD000059
:104AF0000249CA691206FCD588627047004400402A
:104B0000F0B58C46234906460C6A00206342002C0F
:104B100001DB214600E019461F4A0025891857424B
:104B20001E4AB94207D21178491CC9B2117055709A
:104B300014290ED80AE0002C00DA1C461849611826
:104B4000B9420ED25178491C517015705178142910
:104B500009D911785A20142906D90121317015700C
:104B600008E015705570F0BD5178142902D9022162
:104B7000317055700749382240393E238A5ECB5E3A
:104B8000D21A142A01DB0A8F00E0CA8F61460A801C
:104B9000F0BD00007C090020D8F5FFFF7E0000205A
:104BA000B0EBFFFFF0B58C462D4900260C6A63423E
:104BB000002C01DB214600E019462A4A002589180D
:104BC0005742294AB94208D21178491CC9B211701A
:104BD00055709570142914D80DE0271E00DA1F4671
:104BE000224979181F4F7F42B94212D25178491C8D
:104BF0005170157095705178142902D89178142944
:104C00002BD911785A26142915D903210170157052
:104C10001EE0002C00DA1C461549164B611899421B
:104C200005D29178491C917055701570E6E71570A2
:104C30005570957011E05178142903D90421017041
:104C4000557005E09178142902D9052101709570FD
:104C500003484038818F604601803046F0BD000037
:104C60007C090020D8F5FFFF8A000020B0EBFFFF91
:104C700088E1FFFF6419000070B5224A3E23D35E2D
:104C8000214D00245B19214DAB4238D23823D35E2D
:104C90001F4DAB4233DA3C231C4DD35E6D1CAB423F
:104CA0002DDD1346403B5B795A24432B1BD1134621
:104CB00040331B6A002B01DB1D4600E05D427D2670
:104CC000F600B5420FDD134D5B196D00AB4201D804
:104CD000012300E0022303703C20105E0E4B98423B
:104CE00003DA908F0AE00023F5E738200A4B105EC4
:104CF000BE33984201DD108F00E0D08F088020463F
:104D000070BD00003C0900203BF6FFFFC309000016
:104D1000D80E00004F1400004E0C0000002786B093
:104D20003D46049762B601213D4802680A4302608D
:104D30000068084000903A4809074038C26B0A43AF
:104D4000C263C06B084000900020FFF775FB354838
:104D5000C16903220902090A92071143C16132485D
:104D600001690222114301610020FFF7AFFEFCF749
:104D7000C7F8FFF725FBFBF78BFE2C488022418804
:104D80002B4C114341802B4803902B4806682B483D
:104D90000168012904D141680A2901D90021016073
:104DA0002088C00B02D13046FEF798FEF01B00D5DC
:104DB0004042642802DC2088C00BE6D00398807B48
:104DC000642802D20399401C88733746FEF7B8F86E
:104DD0006D1C05212846FBF78BF9002902D020889D
:104DE000C00B07D0049800280BD000200490FEF7D9
:104DF000EFF8002505212846FBF77AF9042902D0AF
:104E000004E00120F2E70020FEF71CFE2088C10725
:104E1000BBD0400840002080FCF776F9B5E70000E1
:104E20004010024004ED00E000E000E07C090020BA
:104E300060000020B0070020000000201C0E0020B1
:104E4000F8B52E4D07462878002614210446FBF7B6
:104E50004FF988002A49641C0F50E0B20F46002425
:104E6000283728700A281CD32046AC60B2008A5824
:104E7000761C1018F6B20A2EF8D3A86006462C70DD
:104E800068783C210090FBF733F988003E50009889
:104E9000401C6870002E00DA7642142E01DA6C7025
:104EA00018E06A783C2A15D300206C60810079589C
:104EB000401C0C19C0B23C28F8D33C2110466C6051
:104EC000FBF716F93C3169704B21C9002046FBF70E
:104ED00025F9F8BD6C6000222046697804E0930053
:104EE000FB581818521CD2B28A42F8D368600029C5
:104EF00002D00A225143EAE70020F8BD500000200A
:104F0000E40700200100000002000000040000008F
:104F100006000000080000000A0000000C0000006D
:104F20001000000020000000400000008000000091
:104F30000001000000000000000000000000000070
:104F40000000000000000000000000000000000061
:104F5000000000000100000002000000030000004B
:104F60000400000006000000070000000800000028
:104F70000900000000000000000000000000000028
:104F8000000000000100000002000000030000001B
:104F900004000000D000DB00E600F200FE000B0180
:104FA0001801260134014301530163017301840197
:104FB0009601A901BC01D001E401F9010F0225020B
:104FC0003C0254026C0286029F02BA02D502F10230
:104FD0000D032A03480366038503A403C403E50302
:104FE000060428044A046D049004B404D804FD04A3
:104FF000220547056D059205B905DF0506062C0655
:1050000053067A06A106C806EF0617073E0765078E
:105010008C07B207D907000826084C0872089708C1
:10502000BC08E10806092A094D0971099409B60965
:10503000D809FA091B0A3C0A5C0A7C0A9B0ABA0ACC
:10504000D80AF60A130B300B4C0B680B830B9D0B25
:10505000B70BD10BEA0B020C1A0C320C490C5F0C8B
:10506000760C8B0CA00CB50CC90CDC0CF00C020DF2
:10507000150D270D380D490D5A0D6A0D7A0D890D44
:10508000980DA70DB60DC40DD10DDE0DEB0DF80D6D
:10509000040E100E1C0E280E330E3E0E480E530E3C
:1050A0005D0E660E700E790E820E8B0E940E9C0EA7
:1050B000A40EAC0EB40EBC0EC30ECA0ED10ED80E8A
:1050C000DF0EE50EEB0EF20EF80EFD0E030F090FCC
:1050D0000E0F130F190F0000000021104220633043
:1050E0008440A550C660E770088129914AA16BB140
:1050F0008CC1ADD1CEE1EFF13112100273325222E8
:10510000B5529442F772D662399318837BB35AA38F
:10511000BDD39CC3FFF3DEE36224433420040114B7
:10512000E664C774A44485546AA54BB528850995DF
:10513000EEE5CFF5ACC58DD5533672261116300687
:10514000D776F6669556B4465BB77AA7199738872F
:10515000DFF7FEE79DD7BCC7C448E5588668A77847
:105160004008611802282338CCC9EDD98EE9AFF97F
:10517000488969990AA92BB9F55AD44AB77A966A27
:10518000711A500A333A122AFDDBDCCBBFFB9EEBCF
:10519000799B588B3BBB1AABA66C877CE44CC55CF7
:1051A000222C033C600C411CAEED8FFDECCDCDDD1F
:1051B0002AAD0BBD688D499D977EB66ED55EF44EC7
:1051C000133E322E511E700E9FFFBEEFDDDFFCCF6F
:1051D0001BBF3AAF599F788F8891A981CAB1EBA1C3
:1051E0000CD12DC14EF16FE18010A100C230E3203F
:1051F0000450254046706760B9839893FBA3DAB3E7
:105200003DC31CD37FE35EF3B1029012F322D2328E
:105210003542145277625672EAB5CBA5A8958985B6
:105220006EF54FE52CD50DC5E234C324A0148104DE
:105230006674476424540544DBA7FAB79987B89786
:105240005FE77EF71DC73CD7D326F2369106B0162E
:1052500057667676154634564CD96DC90EF92FE946
:10526000C899E9898AB9ABA944586548067827687E
:10527000C018E1088238A3287DCB5CDB3FEB1EFB26
:10528000F98BD89BBBAB9ABB754A545A376A167ACE
:10529000F10AD01AB32A923A2EFD0FED6CDD4DCDF6
:1052A000AABD8BADE89DC98D267C076C645C454C1E
:1052B000A23C832CE01CC10C1FEF3EFF5DCF7CDFC6
:1052C0009BAFBABFD98FF89F176E367E554E745E6E
:1052D000932EB23ED10EF01E03010000000000002C
:1052E00000000000D24C94489A44DE405C3D123AE3
:1052F000FA3611345431C12E552C0D2AE727E025FA
:10530000F8232B227720DC1E591DEB1B901A49191C
:105310001418EF16DA15D314DB13F01211123E1124
:105320007510B70F030F580EB50D1B0D880CFD0B34
:10533000780BFA0A820A100AA4093C09DA087C08E8
:105340002208CD077C072F07E5069E065B061A0696
:10535000DD05A3056B0535050205D104A20476041D
:105360004B042204FB03D503B1038F036D034D03EC
:105370002F031203F602DC02C202A90291027B0291
:10538000650250023C02280216020402F301E20107
:10539000D201C301B401A60199018B017F01730100
:1053A00067015B01510146013C01320129012001E5
:1053B00017010F010701FF00F700F000E800E2000D
:1053C000DB00D500CF00C900C300BD00B800B300AA
:1053D000AE00A900A400A0009B00970093008F00DE
:1053E0008B008700840080007D00790076007300C8
:1053F00070006D006A0067006500620060005D007B
:105400005B00590057005400520050004E004C0001
:105410004B004900470045004400420040003F0067
:105420003D003C003A000000485400080000002005
:10543000E40700001A030008405A0008E4070020AF
:10544000640A0000F04800080212000100047324FE
:10545000F400012008282D3241191E230752140898
:10546000102E790CB60BB60BB30BAF0BA90BA20B1E
:105470009A0B900B850B770B640B4A0B270BF90AE1
:10548000BE0A770A250ACA096709FC08930C0B02B1
:105490001012090C050CFF0BF90BF30BEB0BE10BD6
:1054A000D60BC73C1004940B672E1008D20A6D0A65
:1054B000FD09832A1018F40C4A0C490C460C420CC6
:1054C0003B0C360C300C2A0C230C1A0C113A100E23
:1054D000F60BE00BBD0B7F0B190B830ACE54101299
:1054E000340D730C700C6C0C660C610C590C530C65
:1054F0004D36123F3410042C0C1E6E100AEB0BB10B
:105500000B460BA50AE32A3012200D960C930C8F44
:105510000C890C830C7D0C780C71361006600C58CD
:105520000C4E68102A310C190CEF0B890B910AFCF8
:1055300008650D650DAA0CA80CA40C9E0C970C9187
:105540000C8B0C860C810C7C0C750C6D0C6466123B
:105550004892101C070CA80BBA0A370D370DC90C5E
:10556000C90CC60CC30CBD0CB50CAD0CA70CA236F7
:1055700010069A0C940C8D681010770C650C4C0C6E
:10558000330CE40BFA0B5D0B5B021020570B500B36
:10559000480B3D0B2F0B1C0B030BE50AC00A960AA8
:1055A000670A330AFC09C209840942A820051C0CB9
:1055B000B50B0225501010A10B970B8B0B7B0B66C4
:1055C0000B490B240BF72E140A830A3F0AF809AB88
:1055D00009572616944C25521404080C0452100A3C
:1055E000F80BF00BE60BDA0BCA3C1404960B687E42
:1055F0001408D30A6E0AFF0986503408EC0C340CE8
:10560000320C2F48100A1C0C140C0C0C020CF52E3A
:1056100016D020100C840B450BF10A8C0A1A0A983C
:105620002A1004DB0C6EE61269B810065F0C5A0CE7
:1056300052BE140C460C3E0C350C2B0C1D0C0A22D1
:105640001406BF0B610BC7A6140AFC081F0D1F0D23
:105650008C0C8A1C1006800C7A0C743616674E105F
:105660000A590C500C450C370C229416CED6340433
:10567000CA0A072616B71E36B12036A01E25881680
:10568000848812756C10065B0C470C2D9210146602
:105690000B590BFA0A0E0B200B2D0B340B360B3368
:1056A0000B2C0C18100E0BF40AD20AA80A760A3E2C
:1056B0000A020AC4201240A81404A50B475014087B
:1056C0006C0B760B7C0B7D22100A740B6A0B5A0B49
:1056D000420B212E1404BC0A7A521806EA099F09CB
:1056E00050221625AA1008B20BBC0BC10BC3041024
:1056F0000CBE0BB80BB00BA60B980B863E180845DA
:105700000B090BB50A50201A72A01404420CD440A5
:105710001004E00BE202100ADE0BD90BD30BCB0B0B
:10572000C03C169F24180C5C0B1F0BC90A620AF3BD
:10573000097ECA16840E122002161F4E1A18981AD5
:105740000CD41006FD0BF40BE8361406C50BAA0B9F
:105750007EE01004A30AE5A814049B0C441018046E
:10576000450C4396163B1829CC1A226C160EB21C17
:1057700006EC0BD20BAB2A031804DB0A11761804D3
:10578000040D816816834E1A7C381A72D41A67D4B5
:105790001A5BD4164A8212306C20330A0CE00B9C40
:1057A0000BC409420E410E1C0EF10DD70DC40DB5F0
:1057B0000DA90D9F0D970D8F0D870D810D7C0D7619
:1057C0000D6F0D610D4A0D330DFE0C7F0A2A102658
:1057D000DD0DB30D9C0D8E0D820D790D720D6A0DD0
:1057E000620D5A0D530D4D0D490D440D340D1A0D1A
:1057F000000DD30CCD2A180ABD0D900D7E0D730D32
:105800006BFE10065F0D590D5246140A430D3F0DF5
:105810003B0D390D31EC300E060DEF0CBE0CF90AC4
:10582000410E7F0D6420124E22301C460D3E0D3578
:105830000D2C0D270D230D210D1E0D170D040DEA46
:105840000CD10CA60CFC7E100A390E060EE80DD306
:105850000DC3AA1014AA0DA10D980D910D8A0D85E6
:105860000D800D7A0D6E0D5B6200052C290DE20B8B
:105870002A1006EF0DC50DAEF61004930D89F41035
:1058800004790D71D61004630D5ED81414540D47BD
:105890000D300D160DFA0C9C0B2E0E9A0D780D691D
:1058A0000E10085B0D570D4C0D45F018043E0D3AD7
:1058B0008C16351E14042A0D18221AE88E181C02A4
:1058C0000B14004C001E00550028005C00320061E3
:1058D0000041006400F40C920C8EDE14048A0C7EED
:1058E0008E1E7012031E6210031E502A0418062E0C
:1058F0000C100CDD3E1806FD0A480A1D90180A6AB5
:105900000DBA0CB70CB40CAEDC1E9F300414088F1B
:105910000C880C820C7BC21C06660C540C392A04C1
:105920001EAFE8031C0CC709C4096F0DD20CD00CC4
:10593000CD30041C04C20CBA0E031C04AA0CA50E24
:10594000031E9B2C041C068C0C7F0C6A580410143C
:10595000060C780B5C0AC609630DE10CE00CDE0C4A
:10596000DB0CD630212E12B6621404B00CAC581CDD
:10597000049D0C908C041A6056100AE40BC509A310
:105980000DE90CE9C81006E50CE10CDA5C3006C341
:105990000CBF0CBC3012B190129B8C1C046E0C55C9
:1059A00028041C12C609710DEE0CEF0CEE0CED0C68
:1059B000EA0CE40CD5B60412C52E16C1D41C04B9E9
:1059C0000CB2B6041E9014051A63D22007540B7A49
:1059D0000DF20C0212F02E1C06EA0CDD0CCEE204D5
:1059E00012C72E1EC2E40412B4B41E940C051A672A
:1059F000C6300C540B9C0DF80CF60CF50CF42E1064
:105A000004E60CD32C32CB2E12C45616A80E1E7EE2
:105A10006605121E548D430603EAA10001201B6493
:105A200000000102030405060708090A0B0C0D0E0D
:105A30000F10111213141516171E52359F00000077
:04000005080000C12E
:00000001FF
