Component: ARM Compiler 5.06 update 6 (build 750) Tool: armlink [4d35ed]

==============================================================================

Section Cross References

    startup_stm32g030xx.o(RESET) refers to startup_stm32g030xx.o(STACK) for __initial_sp
    startup_stm32g030xx.o(RESET) refers to startup_stm32g030xx.o(.text) for Reset_Handler
    startup_stm32g030xx.o(RESET) refers to stm32g0xx_it.o(i.NMI_Handler) for NMI_Handler
    startup_stm32g030xx.o(RESET) refers to stm32g0xx_it.o(i.HardFault_Handler) for HardFault_Handler
    startup_stm32g030xx.o(RESET) refers to stm32g0xx_it.o(i.SVC_Handler) for SVC_Handler
    startup_stm32g030xx.o(RESET) refers to stm32g0xx_it.o(i.PendSV_Handler) for PendSV_Handler
    startup_stm32g030xx.o(RESET) refers to stm32g0xx_it.o(i.SysTick_Handler) for SysTick_Handler
    startup_stm32g030xx.o(RESET) refers to stm32g0xx_it.o(i.RTC_TAMP_IRQHandler) for RTC_TAMP_IRQHandler
    startup_stm32g030xx.o(RESET) refers to stm32g0xx_it.o(i.EXTI0_1_IRQHandler) for EXTI0_1_IRQHandler
    startup_stm32g030xx.o(RESET) refers to stm32g0xx_it.o(i.EXTI2_3_IRQHandler) for EXTI2_3_IRQHandler
    startup_stm32g030xx.o(RESET) refers to stm32g0xx_it.o(i.EXTI4_15_IRQHandler) for EXTI4_15_IRQHandler
    startup_stm32g030xx.o(RESET) refers to stm32g0xx_it.o(i.TIM14_IRQHandler) for TIM14_IRQHandler
    startup_stm32g030xx.o(RESET) refers to stm32g0xx_it.o(i.TIM16_IRQHandler) for TIM16_IRQHandler
    startup_stm32g030xx.o(RESET) refers to stm32g0xx_it.o(i.USART1_IRQHandler) for USART1_IRQHandler
    startup_stm32g030xx.o(RESET) refers to stm32g0xx_it.o(i.USART2_IRQHandler) for USART2_IRQHandler
    startup_stm32g030xx.o(.text) refers to system_stm32g0xx.o(i.SystemInit) for SystemInit
    startup_stm32g030xx.o(.text) refers to entry.o(.ARM.Collect$$$$00000000) for __main
    main.o(i.Delay_Fum) refers to main.o(.data) for .data
==============================================================================

Removing Unused input sections from the image.

    Removing startup_stm32g030xx.o(HEAP), (512 bytes).
    Removing main.o(.rev16_text), (4 bytes).
    Removing main.o(.revsh_text), (4 bytes).
    Removing main.o(i.Delay_Fum), (16 bytes).
    Removing main.o(i.Error_Handler), (2 bytes).
    Removing main.o(i.Process_500ms_CYC2), (10 bytes).
    Removing gpio.o(.rev16_text), (4 bytes).
    Removing gpio.o(.revsh_text), (4 bytes).
    Removing gpio.o(i.GPIO_OpenWEAK_EXTI), (74 bytes).
    Removing gpio.o(i.LL_EXTI_EnableIT_0_31), (16 bytes).
    Removing adc.o(.rev16_text), (4 bytes).
    Removing adc.o(.revsh_text), (4 bytes).
    Removing adc.o(.data), (2 bytes).
    Removing rtc.o(.rev16_text), (4 bytes).
    Removing rtc.o(.revsh_text), (4 bytes).
    Removing rtc.o(i.RTC_ByteToBcd2), (24 bytes).
    Removing tim.o(.rev16_text), (4 bytes).
    Removing tim.o(.revsh_text), (4 bytes).
==============================================================================

Image Symbol Table

    Local Symbols

    Symbol Name                              Value     Ov Type        Size  Object(Section)

    ../Core/Src/adc.c                        0x00000000   Number         0  adc.o ABSOLUTE
    ../Core/Src/gpio.c                       0x00000000   Number         0  gpio.o ABSOLUTE
    ../Core/Src/main.c                       0x00000000   Number         0  main.o ABSOLUTE
    ../Core/Src/rtc.c                        0x00000000   Number         0  rtc.o ABSOLUTE
    ../Core/Src/stm32g0xx_it.c               0x00000000   Number         0  stm32g0xx_it.o ABSOLUTE
    ../Core/Src/system_stm32g0xx.c           0x00000000   Number         0  system_stm32g0xx.o ABSOLUTE
    ../Core/Src/tim.c                        0x00000000   Number         0  tim.o ABSOLUTE
    ../Core/Src/usart.c                      0x00000000   Number         0  usart.o ABSOLUTE
    ../Drivers/STM32G0xx_HAL_Driver/Src/stm32g0xx_ll_adc.c 0x00000000   Number         0  stm32g0xx_ll_adc.o ABSOLUTE
    ../Drivers/STM32G0xx_HAL_Driver/Src/stm32g0xx_ll_dma.c 0x00000000   Number         0  stm32g0xx_ll_dma.o ABSOLUTE
    ../Drivers/STM32G0xx_HAL_Driver/Src/stm32g0xx_ll_exti.c 0x00000000   Number         0  stm32g0xx_ll_exti.o ABSOLUTE
    ../Drivers/STM32G0xx_HAL_Driver/Src/stm32g0xx_ll_gpio.c 0x00000000   Number         0  stm32g0xx_ll_gpio.o ABSOLUTE
    ../Drivers/STM32G0xx_HAL_Driver/Src/stm32g0xx_ll_pwr.c 0x00000000   Number         0  stm32g0xx_ll_pwr.o ABSOLUTE
    ../Drivers/STM32G0xx_HAL_Driver/Src/stm32g0xx_ll_rcc.c 0x00000000   Number         0  stm32g0xx_ll_rcc.o ABSOLUTE
    ../Drivers/STM32G0xx_HAL_Driver/Src/stm32g0xx_ll_rtc.c 0x00000000   Number         0  stm32g0xx_ll_rtc.o ABSOLUTE
    ../Drivers/STM32G0xx_HAL_Driver/Src/stm32g0xx_ll_tim.c 0x00000000   Number         0  stm32g0xx_ll_tim.o ABSOLUTE
    ../Drivers/STM32G0xx_HAL_Driver/Src/stm32g0xx_ll_usart.c 0x00000000   Number         0  stm32g0xx_ll_usart.o ABSOLUTE
    ../Drivers/STM32G0xx_HAL_Driver/Src/stm32g0xx_ll_utils.c 0x00000000   Number         0  stm32g0xx_ll_utils.o ABSOLUTE
    ../clib/../cmprslib/lz77c.c              0x00000000   Number         0  __dclz77c.o ABSOLUTE
    ../clib/microlib/division.c              0x00000000   Number         0  uldiv.o ABSOLUTE
    ../clib/microlib/division.c              0x00000000   Number         0  uidiv.o ABSOLUTE
    ../clib/microlib/division.c              0x00000000   Number         0  idiv.o ABSOLUTE
    ../clib/microlib/division.c              0x00000000   Number         0  ldiv.o ABSOLUTE
    ../clib/microlib/init/entry.s            0x00000000   Number         0  entry11a.o ABSOLUTE
    ../clib/microlib/init/entry.s            0x00000000   Number         0  entry7a.o ABSOLUTE
    ../clib/microlib/init/entry.s            0x00000000   Number         0  entry5.o ABSOLUTE
    ../clib/microlib/init/entry.s            0x00000000   Number         0  entry10b.o ABSOLUTE
    ../clib/microlib/init/entry.s            0x00000000   Number         0  entry2.o ABSOLUTE
    ../clib/microlib/init/entry.s            0x00000000   Number         0  entry8a.o ABSOLUTE
    ../clib/microlib/init/entry.s            0x00000000   Number         0  entry10a.o ABSOLUTE
    ../clib/microlib/init/entry.s            0x00000000   Number         0  entry9b.o ABSOLUTE
    ../clib/microlib/init/entry.s            0x00000000   Number         0  entry11b.o ABSOLUTE
    ../clib/microlib/init/entry.s            0x00000000   Number         0  entry7b.o ABSOLUTE
    ../clib/microlib/init/entry.s            0x00000000   Number         0  entry9a.o ABSOLUTE
    ../clib/microlib/init/entry.s            0x00000000   Number         0  entry.o ABSOLUTE
    ../clib/microlib/init/entry.s            0x00000000   Number         0  entry8b.o ABSOLUTE
    ../clib/microlib/longlong.c              0x00000000   Number         0  llushr.o ABSOLUTE
    ../clib/microlib/longlong.c              0x00000000   Number         0  llsshr.o ABSOLUTE
    ../clib/microlib/longlong.c              0x00000000   Number         0  llshl.o ABSOLUTE
    ../clib/microlib/longlong.c              0x00000000   Number         0  llmul.o ABSOLUTE
    ../clib/microlib/printf/printf.c         0x00000000   Number         0  printfa.o ABSOLUTE
    ../clib/microlib/printf/printf.c         0x00000000   Number         0  printf3.o ABSOLUTE
    ../clib/microlib/printf/printf.c         0x00000000   Number         0  printf7.o ABSOLUTE
    ../clib/microlib/printf/printf.c         0x00000000   Number         0  printf6.o ABSOLUTE
    ../clib/microlib/printf/printf.c         0x00000000   Number         0  printf5.o ABSOLUTE
    ../clib/microlib/printf/printf.c         0x00000000   Number         0  printf4.o ABSOLUTE
    ../clib/microlib/printf/printf.c         0x00000000   Number         0  printf2.o ABSOLUTE
    ../clib/microlib/printf/printf.c         0x00000000   Number         0  printf1.o ABSOLUTE
    ../clib/microlib/printf/printf.c         0x00000000   Number         0  printf0.o ABSOLUTE
    ../clib/microlib/printf/printf.c         0x00000000   Number         0  printfb.o ABSOLUTE
    ../clib/microlib/printf/printf.c         0x00000000   Number         0  printf8.o ABSOLUTE
    ../clib/microlib/printf/stubs.s          0x00000000   Number         0  stubs.o ABSOLUTE
    ../clib/microlib/string/memset.c         0x00000000   Number         0  memseta.o ABSOLUTE
    ../clib/microlib/string/strstr.c         0x00000000   Number         0  strstr.o ABSOLUTE
    ../clib/microlib/stubs.s                 0x00000000   Number         0  iusefp.o ABSOLUTE
    ../clib/microlib/stubs.s                 0x00000000   Number         0  useno.o ABSOLUTE
    ../fplib/microlib/fpadd.c                0x00000000   Number         0  dadd.o ABSOLUTE
    ../fplib/microlib/fpdiv.c                0x00000000   Number         0  ddiv.o ABSOLUTE
    ../fplib/microlib/fpepilogue.c           0x00000000   Number         0  depilogue.o ABSOLUTE
    ../fplib/microlib/fpfix.c                0x00000000   Number         0  dfixul.o ABSOLUTE
    ../fplib/microlib/fpmul.c                0x00000000   Number         0  dmul.o ABSOLUTE
    ..\Core\Src\Flash.c                      0x00000000   Number         0  flash.o ABSOLUTE
    ..\Core\Src\adc.c                        0x00000000   Number         0  adc.o ABSOLUTE
    ..\Core\Src\gpio.c                       0x00000000   Number         0  gpio.o ABSOLUTE
    ..\Core\Src\main.c                       0x00000000   Number         0  main.o ABSOLUTE
    ..\Core\Src\rtc.c                        0x00000000   Number         0  rtc.o ABSOLUTE
    ..\Core\Src\stm32g0xx_it.c               0x00000000   Number         0  stm32g0xx_it.o ABSOLUTE
    ..\Core\Src\system_stm32g0xx.c           0x00000000   Number         0  system_stm32g0xx.o ABSOLUTE
    ..\Core\Src\tim.c                        0x00000000   Number         0  tim.o ABSOLUTE
    ..\Core\Src\usart.c                      0x00000000   Number         0  usart.o ABSOLUTE
    ..\Drivers\STM32G0xx_HAL_Driver\Src\stm32g0xx_ll_adc.c 0x00000000   Number         0  stm32g0xx_ll_adc.o ABSOLUTE
    ..\Drivers\STM32G0xx_HAL_Driver\Src\stm32g0xx_ll_dma.c 0x00000000   Number         0  stm32g0xx_ll_dma.o ABSOLUTE
    ..\Drivers\STM32G0xx_HAL_Driver\Src\stm32g0xx_ll_exti.c 0x00000000   Number         0  stm32g0xx_ll_exti.o ABSOLUTE
    ..\Drivers\STM32G0xx_HAL_Driver\Src\stm32g0xx_ll_gpio.c 0x00000000   Number         0  stm32g0xx_ll_gpio.o ABSOLUTE
    ..\Drivers\STM32G0xx_HAL_Driver\Src\stm32g0xx_ll_pwr.c 0x00000000   Number         0  stm32g0xx_ll_pwr.o ABSOLUTE
    ..\Drivers\STM32G0xx_HAL_Driver\Src\stm32g0xx_ll_rcc.c 0x00000000   Number         0  stm32g0xx_ll_rcc.o ABSOLUTE
    ..\Drivers\STM32G0xx_HAL_Driver\Src\stm32g0xx_ll_rtc.c 0x00000000   Number         0  stm32g0xx_ll_rtc.o ABSOLUTE
    ..\Drivers\STM32G0xx_HAL_Driver\Src\stm32g0xx_ll_tim.c 0x00000000   Number         0  stm32g0xx_ll_tim.o ABSOLUTE
    ..\Drivers\STM32G0xx_HAL_Driver\Src\stm32g0xx_ll_usart.c 0x00000000   Number         0  stm32g0xx_ll_usart.o ABSOLUTE
    ..\Drivers\STM32G0xx_HAL_Driver\Src\stm32g0xx_ll_utils.c 0x00000000   Number         0  stm32g0xx_ll_utils.o ABSOLUTE
    ..\\Core\\Src\\Flash.c                   0x00000000   Number         0  flash.o ABSOLUTE
    ..\\bms\\App_alarm.c                     0x00000000   Number         0  app_alarm.o ABSOLUTE
    ..\\bms\\App_bms.c                       0x00000000   Number         0  app_bms.o ABSOLUTE
    ..\\bms\\App_config.c                    0x00000000   Number         0  app_config.o ABSOLUTE
    ..\\bms\\App_current.c                   0x00000000   Number         0  app_current.o ABSOLUTE
    ..\\bms\\App_flash.c                     0x00000000   Number         0  app_flash.o ABSOLUTE
    ..\\bms\\App_lowpower.c                  0x00000000   Number         0  app_lowpower.o ABSOLUTE
    ..\\bms\\App_mos.c                       0x00000000   Number         0  app_mos.o ABSOLUTE
    ..\\bms\\App_soc.c                       0x00000000   Number         0  app_soc.o ABSOLUTE
    ..\\bms\\App_temprature.c                0x00000000   Number         0  app_temprature.o ABSOLUTE
    ..\\bms\\App_volt.c                      0x00000000   Number         0  app_volt.o ABSOLUTE
    ..\\bms\\PCMonitor_protocol.c            0x00000000   Number         0  pcmonitor_protocol.o ABSOLUTE
    ..\\bms\\bsp_SimIIC.c                    0x00000000   Number         0  bsp_simiic.o ABSOLUTE
    ..\\bms\\bsp_SimUart.c                   0x00000000   Number         0  bsp_simuart.o ABSOLUTE
    ..\\bms\\bsp_sh367309.c                  0x00000000   Number         0  bsp_sh367309.o ABSOLUTE
    ..\\bms\\bsp_sifbus.c                    0x00000000   Number         0  bsp_sifbus.o ABSOLUTE
    ..\bms\App_alarm.c                       0x00000000   Number         0  app_alarm.o ABSOLUTE
    ..\bms\App_bms.c                         0x00000000   Number         0  app_bms.o ABSOLUTE
    ..\bms\App_config.c                      0x00000000   Number         0  app_config.o ABSOLUTE
    ..\bms\App_current.c                     0x00000000   Number         0  app_current.o ABSOLUTE
    ..\bms\App_flash.c                       0x00000000   Number         0  app_flash.o ABSOLUTE
    ..\bms\App_lowpower.c                    0x00000000   Number         0  app_lowpower.o ABSOLUTE
    ..\bms\App_mos.c                         0x00000000   Number         0  app_mos.o ABSOLUTE
    ..\bms\App_soc.c                         0x00000000   Number         0  app_soc.o ABSOLUTE
    ..\bms\App_temprature.c                  0x00000000   Number         0  app_temprature.o ABSOLUTE
    ..\bms\App_volt.c                        0x00000000   Number         0  app_volt.o ABSOLUTE
    ..\bms\PCMonitor_protocol.c              0x00000000   Number         0  pcmonitor_protocol.o ABSOLUTE
    ..\bms\bsp_SimIIC.c                      0x00000000   Number         0  bsp_simiic.o ABSOLUTE
    ..\bms\bsp_SimUart.c                     0x00000000   Number         0  bsp_simuart.o ABSOLUTE
    ..\bms\bsp_sh367309.c                    0x00000000   Number         0  bsp_sh367309.o ABSOLUTE
    ..\bms\bsp_sifbus.c                      0x00000000   Number         0  bsp_sifbus.o ABSOLUTE
    cdrcmple.s                               0x00000000   Number         0  cdrcmple.o ABSOLUTE
    dc.s                                     0x00000000   Number         0  dc.o ABSOLUTE
    handlers.s                               0x00000000   Number         0  handlers.o ABSOLUTE
    init.s                                   0x00000000   Number         0  init.o ABSOLUTE
    startup_stm32g030xx.s                    0x00000000   Number         0  startup_stm32g030xx.o ABSOLUTE
    .ARM.__AT_0x080018F8                     0x080018f8   Section        8  main.o(.ARM.__AT_0x080018F8)
    VERINFO                                  0x080018f8   Data           8  main.o(.ARM.__AT_0x080018F8)
    RESET                                    0x08001900   Section      192  startup_stm32g030xx.o(RESET)
    .ARM.Collect$$$$00000000                 0x080019c0   Section        0  entry.o(.ARM.Collect$$$$00000000)
    .ARM.Collect$$$$00000001                 0x080019c0   Section        4  entry2.o(.ARM.Collect$$$$00000001)
    .ARM.Collect$$$$00000004                 0x080019c4   Section        4  entry5.o(.ARM.Collect$$$$00000004)
    .ARM.Collect$$$$00000008                 0x080019c8   Section        0  entry7b.o(.ARM.Collect$$$$00000008)
    .ARM.Collect$$$$0000000A                 0x080019c8   Section        0  entry8b.o(.ARM.Collect$$$$0000000A)
    .ARM.Collect$$$$0000000B                 0x080019c8   Section        8  entry9a.o(.ARM.Collect$$$$0000000B)
    .ARM.Collect$$$$0000000D                 0x080019d0   Section        0  entry10a.o(.ARM.Collect$$$$0000000D)
    .ARM.Collect$$$$0000000F                 0x080019d0   Section        0  entry11a.o(.ARM.Collect$$$$0000000F)
    .ARM.Collect$$$$00002712                 0x080019d0   Section        4  entry2.o(.ARM.Collect$$$$00002712)
    __lit__00000000                          0x080019d0   Data           4  entry2.o(.ARM.Collect$$$$00002712)
    .text                                    0x080019d4   Section       28  startup_stm32g030xx.o(.text)
    .text                                    0x080019f0   Section        0  uidiv.o(.text)
    .text                                    0x08001a1c   Section        0  idiv.o(.text)
    .text                                    0x08001a44   Section        0  ldiv.o(.text)
    .text                                    0x08001a90   Section        0  llmul.o(.text)
    .text                                    0x08001b0a   Section        0  memseta.o(.text)
    .text                                    0x08001b2e   Section        0  uldiv.o(.text)
    .text                                    0x08001b8e   Section        0  llshl.o(.text)
    .text                                    0x08001bb0   Section       36  init.o(.text)
    .text                                    0x08001bd4   Section        0  llushr.o(.text)
    .text                                    0x08001bf6   Section        0  __dclz77c.o(.text)
    i.ADC_Calibration                        0x08001c58   Section        0  adc.o(i.ADC_Calibration)
    i.ADC_Disable                            0x08001ce0   Section        0  adc.o(i.ADC_Disable)
    i.ADC_Enable                             0x08001d08   Section        0  adc.o(i.ADC_Enable)
    i.ADC_GetValue                           0x08001d34   Section        0  adc.o(i.ADC_GetValue)
    i.ADC_SelecteChannel                     0x08001d80   Section        0  adc.o(i.ADC_SelecteChannel)
    i.ADC_WaitSampleOver                     0x08001da0   Section        0  adc.o(i.ADC_WaitSampleOver)
    i.AlarmCheck                             0x08001dc0   Section        0  app_alarm.o(i.AlarmCheck)
    i.AlarmFilter                            0x08001fcc   Section        0  app_alarm.o(i.AlarmFilter)
    i.BalanceCtrl                            0x08002026   Section        0  app_volt.o(i.BalanceCtrl)
    i.BootCmd_Process                        0x08002040   Section        0  bsp_sifbus.o(i.BootCmd_Process)
    i.CHGDSG_MOS_CheckOK                     0x08002138   Section        0  app_alarm.o(i.CHGDSG_MOS_CheckOK)
    i.CRC8                                   0x080021a0   Section        0  app_bms.o(i.CRC8)
    i.CheckFlash                             0x080021d4   Section        0  app_flash.o(i.CheckFlash)
    i.Crc16_Calculate                        0x08002214   Section        0  bsp_sifbus.o(i.Crc16_Calculate)
    i.CurrentStateDetect                     0x0800223c   Section        0  app_current.o(i.CurrentStateDetect)
    i.CycleCount_Init                        0x080022bc   Section        0  app_soc.o(i.CycleCount_Init)
    i.Cycle_Integral                         0x08002308   Section        0  app_soc.o(i.Cycle_Integral)
    i.DeepSleep                              0x08002434   Section        0  app_lowpower.o(i.DeepSleep)
    i.DeepSleepCheck                         0x08002458   Section        0  app_lowpower.o(i.DeepSleepCheck)
    i.EXTI0_1_IRQHandler                     0x080024b4   Section        0  stm32g0xx_it.o(i.EXTI0_1_IRQHandler)
    i.EXTI2_3_IRQHandler                     0x080024f0   Section        0  stm32g0xx_it.o(i.EXTI2_3_IRQHandler)
    i.EXTI4_15_IRQHandler                    0x08002518   Section        0  stm32g0xx_it.o(i.EXTI4_15_IRQHandler)
    i.Enter_StopMode                         0x080025ac   Section        0  app_lowpower.o(i.Enter_StopMode)
    i.Enter_Stop_ENable                      0x08002620   Section        0  app_lowpower.o(i.Enter_Stop_ENable)
    i.FLASH_WaitForLastOperation             0x08002648   Section        0  flash.o(i.FLASH_WaitForLastOperation)
    i.Find_Adc_Temp                          0x080026b0   Section        0  app_temprature.o(i.Find_Adc_Temp)
    i.FlashInit                              0x080026ec   Section        0  app_flash.o(i.FlashInit)
    i.FlashParaSetDefault                    0x08002728   Section        0  app_flash.o(i.FlashParaSetDefault)
    i.Flash_ReadPara                         0x08002790   Section        0  app_flash.o(i.Flash_ReadPara)
    i.Flash_WritePara                        0x08002918   Section        0  app_flash.o(i.Flash_WritePara)
    i.GPIO_CloseWEAK_EXTI                    0x08002b78   Section        0  gpio.o(i.GPIO_CloseWEAK_EXTI)
    i.GPIO_ReadPin                           0x08002bc2   Section        0  gpio.o(i.GPIO_ReadPin)
    i.GPIO_WritePin                          0x08002bd0   Section        0  gpio.o(i.GPIO_WritePin)
    i.GTDS_SIF_process                       0x08002bdc   Section        0  bsp_sifbus.o(i.GTDS_SIF_process)
    i.GT_GET_RTC                             0x08002d1c   Section        0  rtc.o(i.GT_GET_RTC)
    i.GetCheck                               0x08002d8c   Section        0  app_flash.o(i.GetCheck)
    i.GetClibrationDiff_Current              0x08002dec   Section        0  app_current.o(i.GetClibrationDiff_Current)
    i.GetFactor_Cali_CHG                     0x08002df4   Section        0  app_soc.o(i.GetFactor_Cali_CHG)
    i.GetFactor_Cali_DSG                     0x08002eb8   Section        0  app_soc.o(i.GetFactor_Cali_DSG)
    i.GetFactor_Cali_DSGTempCoeff            0x08002fb4   Section        0  app_soc.o(i.GetFactor_Cali_DSGTempCoeff)
    i.GetPage                                0x08002fe4   Section        0  flash.o(i.GetPage)
    i.Get_Percent                            0x08002fee   Section        0  app_soc.o(i.Get_Percent)
    i.Get_TableT_Coefficient                 0x08003014   Section        0  app_soc.o(i.Get_TableT_Coefficient)
    i.Get_TableV_SOC                         0x08003098   Section        0  app_soc.o(i.Get_TableV_SOC)
    i.HAL_FLASHEx_Erase                      0x08003138   Section        0  flash.o(i.HAL_FLASHEx_Erase)
    i.HAL_FLASH_Lock                         0x08003194   Section        0  flash.o(i.HAL_FLASH_Lock)
    i.HAL_FLASH_Program                      0x080031b0   Section        0  flash.o(i.HAL_FLASH_Program)
    i.HAL_FLASH_Unlock                       0x080031f4   Section        0  flash.o(i.HAL_FLASH_Unlock)
    i.HardFault_Handler                      0x0800321c   Section        0  stm32g0xx_it.o(i.HardFault_Handler)
    i.JudgeBalance                           0x08003238   Section        0  app_volt.o(i.JudgeBalance)
    i.LL_ADC_DeInit                          0x08003300   Section        0  stm32g0xx_ll_adc.o(i.LL_ADC_DeInit)
    i.LL_ADC_Init                            0x0800341c   Section        0  stm32g0xx_ll_adc.o(i.LL_ADC_Init)
    i.LL_ADC_REG_Init                        0x08003454   Section        0  stm32g0xx_ll_adc.o(i.LL_ADC_REG_Init)
    i.LL_ADC_SetSamplingTimeCommonChannels   0x080034b0   Section        0  adc.o(i.LL_ADC_SetSamplingTimeCommonChannels)
    LL_ADC_SetSamplingTimeCommonChannels     0x080034b1   Thumb Code    22  adc.o(i.LL_ADC_SetSamplingTimeCommonChannels)
    i.LL_APB2_GRP1_EnableClock               0x080034c8   Section        0  tim.o(i.LL_APB2_GRP1_EnableClock)
    LL_APB2_GRP1_EnableClock                 0x080034c9   Thumb Code    18  tim.o(i.LL_APB2_GRP1_EnableClock)
    i.LL_APB2_GRP1_ForceReset                0x080034e0   Section        0  stm32g0xx_ll_tim.o(i.LL_APB2_GRP1_ForceReset)
    LL_APB2_GRP1_ForceReset                  0x080034e1   Thumb Code    10  stm32g0xx_ll_tim.o(i.LL_APB2_GRP1_ForceReset)
    i.LL_APB2_GRP1_ReleaseReset              0x080034f0   Section        0  stm32g0xx_ll_tim.o(i.LL_APB2_GRP1_ReleaseReset)
    LL_APB2_GRP1_ReleaseReset                0x080034f1   Thumb Code    10  stm32g0xx_ll_tim.o(i.LL_APB2_GRP1_ReleaseReset)
    i.LL_EXTI_DisableEvent_0_31              0x08003500   Section        0  gpio.o(i.LL_EXTI_DisableEvent_0_31)
    LL_EXTI_DisableEvent_0_31                0x08003501   Thumb Code    10  gpio.o(i.LL_EXTI_DisableEvent_0_31)
    i.LL_EXTI_DisableIT_0_31                 0x08003510   Section        0  gpio.o(i.LL_EXTI_DisableIT_0_31)
    LL_EXTI_DisableIT_0_31                   0x08003511   Thumb Code    10  gpio.o(i.LL_EXTI_DisableIT_0_31)
    i.LL_EXTI_Init                           0x08003520   Section        0  stm32g0xx_ll_exti.o(i.LL_EXTI_Init)
    i.LL_EXTI_IsActiveFallingFlag_0_31       0x080035c4   Section        0  stm32g0xx_it.o(i.LL_EXTI_IsActiveFallingFlag_0_31)
    LL_EXTI_IsActiveFallingFlag_0_31         0x080035c5   Thumb Code    16  stm32g0xx_it.o(i.LL_EXTI_IsActiveFallingFlag_0_31)
    i.LL_EXTI_IsActiveRisingFlag_0_31        0x080035d8   Section        0  stm32g0xx_it.o(i.LL_EXTI_IsActiveRisingFlag_0_31)
    LL_EXTI_IsActiveRisingFlag_0_31          0x080035d9   Thumb Code    16  stm32g0xx_it.o(i.LL_EXTI_IsActiveRisingFlag_0_31)
    i.LL_EXTI_SetEXTISource                  0x080035ec   Section        0  gpio.o(i.LL_EXTI_SetEXTISource)
    LL_EXTI_SetEXTISource                    0x080035ed   Thumb Code    28  gpio.o(i.LL_EXTI_SetEXTISource)
    i.LL_GPIO_DeInit                         0x0800360c   Section        0  stm32g0xx_ll_gpio.o(i.LL_GPIO_DeInit)
    i.LL_GPIO_Init                           0x0800367c   Section        0  stm32g0xx_ll_gpio.o(i.LL_GPIO_Init)
    i.LL_IOP_GRP1_EnableClock                0x08003724   Section        0  gpio.o(i.LL_IOP_GRP1_EnableClock)
    LL_IOP_GRP1_EnableClock                  0x08003725   Thumb Code    18  gpio.o(i.LL_IOP_GRP1_EnableClock)
    i.LL_IOP_GRP1_EnableClock                0x0800373c   Section        0  usart.o(i.LL_IOP_GRP1_EnableClock)
    LL_IOP_GRP1_EnableClock                  0x0800373d   Thumb Code    18  usart.o(i.LL_IOP_GRP1_EnableClock)
    i.LL_IOP_GRP1_ForceReset                 0x08003754   Section        0  stm32g0xx_ll_gpio.o(i.LL_IOP_GRP1_ForceReset)
    LL_IOP_GRP1_ForceReset                   0x08003755   Thumb Code    10  stm32g0xx_ll_gpio.o(i.LL_IOP_GRP1_ForceReset)
    i.LL_IOP_GRP1_ReleaseReset               0x08003764   Section        0  stm32g0xx_ll_gpio.o(i.LL_IOP_GRP1_ReleaseReset)
    LL_IOP_GRP1_ReleaseReset                 0x08003765   Thumb Code    10  stm32g0xx_ll_gpio.o(i.LL_IOP_GRP1_ReleaseReset)
    i.LL_Init1msTick                         0x08003774   Section        0  stm32g0xx_ll_utils.o(i.LL_Init1msTick)
    i.LL_RCC_GetSystemClocksFreq             0x08003794   Section        0  stm32g0xx_ll_rcc.o(i.LL_RCC_GetSystemClocksFreq)
    i.LL_RCC_GetUSARTClockFreq               0x080037ac   Section        0  stm32g0xx_ll_rcc.o(i.LL_RCC_GetUSARTClockFreq)
    i.LL_RTC_DATE_Config                     0x0800380c   Section        0  stm32g0xx_ll_rtc.o(i.LL_RTC_DATE_Config)
    LL_RTC_DATE_Config                       0x0800380d   Thumb Code    34  stm32g0xx_ll_rtc.o(i.LL_RTC_DATE_Config)
    i.LL_RTC_DATE_Init                       0x08003834   Section        0  stm32g0xx_ll_rtc.o(i.LL_RTC_DATE_Init)
    i.LL_RTC_DATE_StructInit                 0x080038d0   Section        0  stm32g0xx_ll_rtc.o(i.LL_RTC_DATE_StructInit)
    i.LL_RTC_EnterInitMode                   0x080038e0   Section        0  stm32g0xx_ll_rtc.o(i.LL_RTC_EnterInitMode)
    i.LL_RTC_Init                            0x0800392c   Section        0  stm32g0xx_ll_rtc.o(i.LL_RTC_Init)
    i.LL_RTC_TIME_Config                     0x08003980   Section        0  stm32g0xx_ll_rtc.o(i.LL_RTC_TIME_Config)
    LL_RTC_TIME_Config                       0x08003981   Thumb Code    32  stm32g0xx_ll_rtc.o(i.LL_RTC_TIME_Config)
    i.LL_RTC_TIME_Init                       0x080039a4   Section        0  stm32g0xx_ll_rtc.o(i.LL_RTC_TIME_Init)
    i.LL_RTC_TIME_StructInit                 0x08003a38   Section        0  stm32g0xx_ll_rtc.o(i.LL_RTC_TIME_StructInit)
    i.LL_RTC_WaitForSynchro                  0x08003a44   Section        0  stm32g0xx_ll_rtc.o(i.LL_RTC_WaitForSynchro)
    i.LL_SetSystemCoreClock                  0x08003ab8   Section        0  stm32g0xx_ll_utils.o(i.LL_SetSystemCoreClock)
    i.LL_TIM_DeInit                          0x08003ac4   Section        0  stm32g0xx_ll_tim.o(i.LL_TIM_DeInit)
    i.LL_TIM_Init                            0x08003b38   Section        0  stm32g0xx_ll_tim.o(i.LL_TIM_Init)
    i.LL_USART_ConfigAsyncMode               0x08003bb0   Section        0  usart.o(i.LL_USART_ConfigAsyncMode)
    LL_USART_ConfigAsyncMode                 0x08003bb1   Thumb Code    20  usart.o(i.LL_USART_ConfigAsyncMode)
    i.LL_USART_Init                          0x08003bc4   Section        0  stm32g0xx_ll_usart.o(i.LL_USART_Init)
    i.LL_mDelay                              0x08003ca4   Section        0  stm32g0xx_ll_utils.o(i.LL_mDelay)
    i.MX_ADC1_Init                           0x08003cc0   Section        0  adc.o(i.MX_ADC1_Init)
    i.MX_EXTI_Init                           0x08003e08   Section        0  gpio.o(i.MX_EXTI_Init)
    i.MX_GPIO_Init                           0x08003ea4   Section        0  gpio.o(i.MX_GPIO_Init)
    i.MX_RTC_Init                            0x08003fdc   Section        0  rtc.o(i.MX_RTC_Init)
    i.MX_TIM16_Init                          0x080040b4   Section        0  tim.o(i.MX_TIM16_Init)
    i.MX_USART1_UART_Init                    0x080040fc   Section        0  usart.o(i.MX_USART1_UART_Init)
    i.MX_USART2_UART_Init                    0x080041a8   Section        0  usart.o(i.MX_USART2_UART_Init)
    i.NMI_Handler                            0x080042a0   Section        0  stm32g0xx_it.o(i.NMI_Handler)
    i.PendSV_Handler                         0x080042a2   Section        0  stm32g0xx_it.o(i.PendSV_Handler)
    i.Process_100ms_CYC                      0x080042a4   Section        0  app_bms.o(i.Process_100ms_CYC)
    i.Process_500ms_CYC1                     0x08004330   Section        0  app_bms.o(i.Process_500ms_CYC1)
    i.RCC_GetHCLKClockFreq                   0x0800437c   Section        0  stm32g0xx_ll_rcc.o(i.RCC_GetHCLKClockFreq)
    i.RCC_GetPCLK1ClockFreq                  0x0800439c   Section        0  stm32g0xx_ll_rcc.o(i.RCC_GetPCLK1ClockFreq)
    i.RCC_GetSystemClockFreq                 0x080043bc   Section        0  stm32g0xx_ll_rcc.o(i.RCC_GetSystemClockFreq)
    i.RCC_PLL_GetFreqDomain_SYS              0x080043f8   Section        0  stm32g0xx_ll_rcc.o(i.RCC_PLL_GetFreqDomain_SYS)
    i.RTC_Bcd2ToByte                         0x08004438   Section        0  rtc.o(i.RTC_Bcd2ToByte)
    i.RTC_TAMP_IRQHandler                    0x08004448   Section        0  stm32g0xx_it.o(i.RTC_TAMP_IRQHandler)
    i.RealRemainCap_Calibration              0x08004480   Section        0  app_soc.o(i.RealRemainCap_Calibration)
    i.RemainCap_Integral                     0x080044d4   Section        0  app_soc.o(i.RemainCap_Integral)
    i.RingBuf_Write                          0x08004560   Section        0  pcmonitor_protocol.o(i.RingBuf_Write)
    i.SH367309_Config                        0x0800458c   Section        0  bsp_sh367309.o(i.SH367309_Config)
    i.SH367309_I2C_Ack                       0x080045dc   Section        0  bsp_sh367309.o(i.SH367309_I2C_Ack)
    i.SH367309_I2C_NAck                      0x08004624   Section        0  bsp_sh367309.o(i.SH367309_I2C_NAck)
    i.SH367309_I2C_ReadByte                  0x0800465e   Section        0  bsp_sh367309.o(i.SH367309_I2C_ReadByte)
    i.SH367309_I2C_SendByte                  0x080046b4   Section        0  bsp_sh367309.o(i.SH367309_I2C_SendByte)
    i.SH367309_I2C_Start                     0x08004718   Section        0  bsp_sh367309.o(i.SH367309_I2C_Start)
    i.SH367309_I2C_Stop                      0x0800476a   Section        0  bsp_sh367309.o(i.SH367309_I2C_Stop)
    i.SH367309_I2C_WaitAck                   0x080047a6   Section        0  bsp_sh367309.o(i.SH367309_I2C_WaitAck)
    i.SH367309_ReadData                      0x080047f4   Section        0  bsp_sh367309.o(i.SH367309_ReadData)
    i.SH367309_ReadRegVal                    0x0800488c   Section        0  bsp_sh367309.o(i.SH367309_ReadRegVal)
    i.SH367309_WriteEEpromData               0x080048b0   Section        0  bsp_sh367309.o(i.SH367309_WriteEEpromData)
    i.SH367309_WriteRamData                  0x08004918   Section        0  bsp_sh367309.o(i.SH367309_WriteRamData)
    i.SHA_EEPROM_Set                         0x08004980   Section        0  bsp_sh367309.o(i.SHA_EEPROM_Set)
    i.SH_Get_CellTemps                       0x08004b64   Section        0  bsp_sh367309.o(i.SH_Get_CellTemps)
    i.SH_Get_CellVolts                       0x08004bdc   Section        0  bsp_sh367309.o(i.SH_Get_CellVolts)
    i.SH_Get_Current                         0x08004c14   Section        0  bsp_sh367309.o(i.SH_Get_Current)
    i.SH_Read_Alarm                          0x08004c60   Section        0  bsp_sh367309.o(i.SH_Read_Alarm)
    i.SH_Reset                               0x08004d18   Section        0  bsp_sh367309.o(i.SH_Reset)
    i.SH_Set_Balance                         0x08004d50   Section        0  bsp_sh367309.o(i.SH_Set_Balance)
    i.SH_Set_CONF                            0x08004d6c   Section        0  bsp_sh367309.o(i.SH_Set_CONF)
    i.SH_Set_Default                         0x08004da8   Section        0  bsp_sh367309.o(i.SH_Set_Default)
    i.SIFProcess                             0x08004dcc   Section        0  bsp_sifbus.o(i.SIFProcess)
    i.SIF_QueryDataPack                      0x08004e38   Section        0  bsp_sifbus.o(i.SIF_QueryDataPack)
    SIF_QueryDataPack                        0x08004e39   Thumb Code   248  bsp_sifbus.o(i.SIF_QueryDataPack)
    i.SUART_Protocol                         0x08004f44   Section        0  bsp_simuart.o(i.SUART_Protocol)
    i.SVC_Handler                            0x08004fa0   Section        0  stm32g0xx_it.o(i.SVC_Handler)
    i.SetWakeUpTimer_IT                      0x08004fa4   Section        0  rtc.o(i.SetWakeUpTimer_IT)
    i.SleepCheck                             0x0800501c   Section        0  app_lowpower.o(i.SleepCheck)
    i.Sleep_PinInit                          0x080051dc   Section        0  gpio.o(i.Sleep_PinInit)
    i.Soc_ClrOrSetCtrl                       0x08005294   Section        0  app_soc.o(i.Soc_ClrOrSetCtrl)
    i.Soc_Init                               0x08005400   Section        0  app_soc.o(i.Soc_Init)
    i.Soft_Delay                             0x080054a0   Section        0  app_bms.o(i.Soft_Delay)
    i.SysParaInit                            0x080054b0   Section        0  app_config.o(i.SysParaInit)
    i.SysTick_Handler                        0x080054e8   Section        0  stm32g0xx_it.o(i.SysTick_Handler)
    i.SystemClock_Config                     0x08005508   Section        0  main.o(i.SystemClock_Config)
    i.SystemInit                             0x080055b4   Section        0  system_stm32g0xx.o(i.SystemInit)
    i.TIM14_IRQHandler                       0x080055c4   Section        0  stm32g0xx_it.o(i.TIM14_IRQHandler)
    i.TIM16_IRQHandler                       0x080055d4   Section        0  stm32g0xx_it.o(i.TIM16_IRQHandler)
    i.UART2RxDataPro                         0x080055e4   Section        0  bsp_simuart.o(i.UART2RxDataPro)
    i.USART1_IRQHandler                      0x08005620   Section        0  stm32g0xx_it.o(i.USART1_IRQHandler)
    i.USART2_IRQHandler                      0x08005668   Section        0  stm32g0xx_it.o(i.USART2_IRQHandler)
    i.USART2_SendByte                        0x080056b0   Section        0  usart.o(i.USART2_SendByte)
    i.Update_CellTemps                       0x080056f8   Section        0  app_temprature.o(i.Update_CellTemps)
    i.Update_CellVolt                        0x08005774   Section        0  app_volt.o(i.Update_CellVolt)
    i.Update_Current                         0x08005804   Section        0  app_current.o(i.Update_Current)
    i.VolFilter                              0x08005828   Section        0  adc.o(i.VolFilter)
    i.__0printf$1                            0x080058d0   Section        0  printf1.o(i.__0printf$1)
    i.__NVIC_DisableIRQ                      0x080058f0   Section        0  gpio.o(i.__NVIC_DisableIRQ)
    __NVIC_DisableIRQ                        0x080058f1   Thumb Code    26  gpio.o(i.__NVIC_DisableIRQ)
    i.__NVIC_EnableIRQ                       0x08005910   Section        0  gpio.o(i.__NVIC_EnableIRQ)
    __NVIC_EnableIRQ                         0x08005911   Thumb Code    18  gpio.o(i.__NVIC_EnableIRQ)
    i.__NVIC_EnableIRQ                       0x08005928   Section        0  tim.o(i.__NVIC_EnableIRQ)
    __NVIC_EnableIRQ                         0x08005929   Thumb Code    18  tim.o(i.__NVIC_EnableIRQ)
    i.__NVIC_SetPriority                     0x08005940   Section        0  gpio.o(i.__NVIC_SetPriority)
    __NVIC_SetPriority                       0x08005941   Thumb Code    60  gpio.o(i.__NVIC_SetPriority)
    i.__NVIC_SetPriority                     0x08005984   Section        0  tim.o(i.__NVIC_SetPriority)
    __NVIC_SetPriority                       0x08005985   Thumb Code    60  tim.o(i.__NVIC_SetPriority)
    i.__scatterload_copy                     0x080059c8   Section       14  handlers.o(i.__scatterload_copy)
    i.__scatterload_null                     0x080059d6   Section        2  handlers.o(i.__scatterload_null)
    i.__scatterload_zeroinit                 0x080059d8   Section       14  handlers.o(i.__scatterload_zeroinit)
    i._printf_core                           0x080059e8   Section        0  printf1.o(i._printf_core)
    _printf_core                             0x080059e9   Thumb Code   332  printf1.o(i._printf_core)
    i.bsp_init                               0x08005b38   Section        0  main.o(i.bsp_init)
    i.fputc                                  0x08005b58   Section        0  usart.o(i.fputc)
    i.isCali_CHG_Enable                      0x08005b68   Section        0  app_soc.o(i.isCali_CHG_Enable)
    i.isCali_DSG_Enable                      0x08005c0c   Section        0  app_soc.o(i.isCali_DSG_Enable)
    i.isSocInitEnable                        0x08005ce0   Section        0  app_soc.o(i.isSocInitEnable)
    i.main                                   0x08005d84   Section        0  main.o(i.main)
    .constdata                               0x08005ea8   Section       48  stm32g0xx_ll_usart.o(.constdata)
    USART_PRESCALER_TAB                      0x08005ea8   Data          48  stm32g0xx_ll_usart.o(.constdata)
    .constdata                               0x08005ed8   Section       64  system_stm32g0xx.o(.constdata)
    .constdata                               0x08005f18   Section       32  system_stm32g0xx.o(.constdata)
    .constdata                               0x08005f38   Section      322  app_temprature.o(.constdata)
    .constdata                               0x0800607c   Section      524  bsp_sifbus.o(.constdata)
    CrcCcittTable                            0x0800607c   Data         512  bsp_sifbus.o(.constdata)
    .constdata                               0x08006288   Section      322  bsp_sh367309.o(.constdata)
    .data                                    0x20000000   Section        8  main.o(.data)
    .data                                    0x20000008   Section        4  adc.o(.data)
    .data                                    0x2000000c   Section        4  rtc.o(.data)
    .data                                    0x20000010   Section        1  rtc.o(.data)
    initFalg                                 0x20000010   Data           1  rtc.o(.data)
    .data                                    0x20000014   Section        4  usart.o(.data)
    .data                                    0x20000018   Section        4  system_stm32g0xx.o(.data)
    .data                                    0x2000001c   Section       49  app_alarm.o(.data)
    .data                                    0x20000050   Section        4  app_bms.o(.data)
    currperiodtime                           0x20000050   Data           4  app_bms.o(.data)
    .data                                    0x20000054   Section        4  app_bms.o(.data)
    .data                                    0x20000058   Section        8  app_current.o(.data)
    sta                                      0x20000058   Data           1  app_current.o(.data)
    chgTime                                  0x2000005a   Data           2  app_current.o(.data)
    dsgTime                                  0x2000005c   Data           2  app_current.o(.data)
    SticTime                                 0x2000005e   Data           2  app_current.o(.data)
    .data                                    0x20000060   Section        6  app_lowpower.o(.data)
    SmallCurrTime                            0x20000060   Data           1  app_lowpower.o(.data)
    timeout                                  0x20000061   Data           1  app_lowpower.o(.data)
    timeout                                  0x20000064   Data           2  app_lowpower.o(.data)
    .data                                    0x20000066   Section     1622  app_soc.o(.data)
    DSGCaliFlaG                              0x20000066   Data           1  app_soc.o(.data)
    count_Cyc                                0x20000067   Data           1  app_soc.o(.data)
    SetTimer                                 0x20000068   Data           1  app_soc.o(.data)
    ClearTimer                               0x20000069   Data           1  app_soc.o(.data)
    SOCClrFlag                               0x2000006a   Data           1  app_soc.o(.data)
    SOCSetFlag                               0x2000006b   Data           1  app_soc.o(.data)
    SetFlagCLrTime                           0x2000006c   Data           1  app_soc.o(.data)
    ClrFlagCLrTime                           0x2000006d   Data           1  app_soc.o(.data)
    timeout                                  0x2000006e   Data           1  app_soc.o(.data)
    chgstat                                  0x2000006f   Data           1  app_soc.o(.data)
    Shotstat                                 0x20000070   Data           1  app_soc.o(.data)
    UVFalg                                   0x20000071   Data           1  app_soc.o(.data)
    timeout                                  0x20000074   Data           2  app_soc.o(.data)
    caliFactor                               0x20000076   Data           2  app_soc.o(.data)
    chgTime                                  0x20000078   Data           2  app_soc.o(.data)
    DSGTime                                  0x2000007a   Data           2  app_soc.o(.data)
    noShortime                               0x2000007c   Data           2  app_soc.o(.data)
    noUVtime                                 0x2000007e   Data           2  app_soc.o(.data)
    timeout                                  0x20000080   Data           3  app_soc.o(.data)
    C_TempArr                                0x20000083   Data           4  app_soc.o(.data)
    D_TempArr                                0x20000087   Data           7  app_soc.o(.data)
    K_TempArr                                0x2000008e   Data           8  app_soc.o(.data)
    D_33Region                               0x20000096   Data         294  app_soc.o(.data)
    D_50Region                               0x200001bc   Data         294  app_soc.o(.data)
    D_100Region                              0x200002e2   Data         294  app_soc.o(.data)
    C_33Region                               0x20000408   Data         168  app_soc.o(.data)
    C_50Region                               0x200004b0   Data         168  app_soc.o(.data)
    TempTable                                0x20000558   Data          20  app_soc.o(.data)
    K_Region                                 0x2000056c   Data         336  app_soc.o(.data)
    .data                                    0x200006bc   Section        4  app_temprature.o(.data)
    .data                                    0x200006c0   Section        6  app_volt.o(.data)
    VoltChargeBigTime                        0x200006c0   Data           1  app_volt.o(.data)
    BalanceAllow                             0x200006c1   Data           1  app_volt.o(.data)
    maxVol_value                             0x200006c2   Data           2  app_volt.o(.data)
    minVol_value                             0x200006c4   Data           2  app_volt.o(.data)
    .data                                    0x200006c8   Section       18  bsp_sifbus.o(.data)
    CutCOUNT                                 0x200006ca   Data           1  bsp_sifbus.o(.data)
    AddCOUNT                                 0x200006cb   Data           1  bsp_sifbus.o(.data)
    Show0Flag                                0x200006cc   Data           1  bsp_sifbus.o(.data)
    CMD                                      0x200006cd   Data           1  bsp_sifbus.o(.data)
    Timed                                    0x200006d0   Data           4  bsp_sifbus.o(.data)
    .data                                    0x200006da   Section      238  pcmonitor_protocol.o(.data)
    TempNum                                  0x200006da   Data           1  pcmonitor_protocol.o(.data)
    .data                                    0x200007c8   Section        2  bsp_sh367309.o(.data)
    .bss                                     0x200007cc   Section      164  app_bms.o(.bss)
    .bss                                     0x20000870   Section       80  app_flash.o(.bss)
    .bss                                     0x200008c0   Section      409  bsp_simuart.o(.bss)
    STACK                                    0x20000a60   Section     1024  startup_stm32g030xx.o(STACK)

    Global Symbols

    Symbol Name                              Value     Ov Type        Size  Object(Section)

    BuildAttributes$$THM_ISAv3M$S$PE$A:L22$X:L11$S22$IEEE1$IW$USESV6$~STKCKD$USESV7$~SHL$OSPACE$ROPI$EBA8$MICROLIB$REQ8$PRES8$EABIv2 0x00000000   Number         0  anon$$obj.o ABSOLUTE
    __ARM_use_no_argv                        0x00000000   Number         0  main.o ABSOLUTE
    __use_no_errno                           0x00000000   Number         0  useno.o ABSOLUTE
    __use_no_exception_handling              0x00000000   Number         0  useno.o ABSOLUTE
    __use_no_fp                              0x00000000   Number         0  useno.o ABSOLUTE
    __use_no_heap                            0x00000000   Number         0  useno.o ABSOLUTE
    __use_no_heap_region                     0x00000000   Number         0  useno.o ABSOLUTE
    __use_no_semihosting                     0x00000000   Number         0  useno.o ABSOLUTE
    __use_no_semihosting_swi                 0x00000000   Number         0  useno.o ABSOLUTE
    __use_no_signal_handling                 0x00000000   Number         0  useno.o ABSOLUTE
    _printf_a                                0x00000000   Number         0  stubs.o ABSOLUTE
    _printf_c                                0x00000000   Number         0  stubs.o ABSOLUTE
    _printf_charcount                        0x00000000   Number         0  stubs.o ABSOLUTE
    _printf_d                                0x00000000   Number         0  stubs.o ABSOLUTE
    _printf_e                                0x00000000   Number         0  stubs.o ABSOLUTE
    _printf_f                                0x00000000   Number         0  stubs.o ABSOLUTE
    _printf_flags                            0x00000000   Number         0  stubs.o ABSOLUTE
    _printf_fp_dec                           0x00000000   Number         0  stubs.o ABSOLUTE
    _printf_fp_hex                           0x00000000   Number         0  stubs.o ABSOLUTE
    _printf_g                                0x00000000   Number         0  stubs.o ABSOLUTE
    _printf_i                                0x00000000   Number         0  stubs.o ABSOLUTE
    _printf_int_dec                          0x00000000   Number         0  stubs.o ABSOLUTE
    _printf_l                                0x00000000   Number         0  stubs.o ABSOLUTE
    _printf_lc                               0x00000000   Number         0  stubs.o ABSOLUTE
    _printf_ll                               0x00000000   Number         0  stubs.o ABSOLUTE
    _printf_lld                              0x00000000   Number         0  stubs.o ABSOLUTE
    _printf_lli                              0x00000000   Number         0  stubs.o ABSOLUTE
    _printf_llo                              0x00000000   Number         0  stubs.o ABSOLUTE
    _printf_llu                              0x00000000   Number         0  stubs.o ABSOLUTE
    _printf_llx                              0x00000000   Number         0  stubs.o ABSOLUTE
    _printf_longlong_dec                     0x00000000   Number         0  stubs.o ABSOLUTE
    _printf_longlong_hex                     0x00000000   Number         0  stubs.o ABSOLUTE
    _printf_longlong_oct                     0x00000000   Number         0  stubs.o ABSOLUTE
    _printf_ls                               0x00000000   Number         0  stubs.o ABSOLUTE
    _printf_mbtowc                           0x00000000   Number         0  stubs.o ABSOLUTE
    _printf_n                                0x00000000   Number         0  stubs.o ABSOLUTE
    _printf_o                                0x00000000   Number         0  stubs.o ABSOLUTE
    _printf_p                                0x00000000   Number         0  stubs.o ABSOLUTE
    _printf_percent                          0x00000000   Number         0  stubs.o ABSOLUTE
    _printf_pre_padding                      0x00000000   Number         0  stubs.o ABSOLUTE
    _printf_return_value                     0x00000000   Number         0  stubs.o ABSOLUTE
    _printf_s                                0x00000000   Number         0  stubs.o ABSOLUTE
    _printf_sizespec                         0x00000000   Number         0  stubs.o ABSOLUTE
    _printf_str                              0x00000000   Number         0  stubs.o ABSOLUTE
    _printf_truncate_signed                  0x00000000   Number         0  stubs.o ABSOLUTE
    _printf_truncate_unsigned                0x00000000   Number         0  stubs.o ABSOLUTE
    _printf_u                                0x00000000   Number         0  stubs.o ABSOLUTE
    _printf_wc                               0x00000000   Number         0  stubs.o ABSOLUTE
    _printf_wctomb                           0x00000000   Number         0  stubs.o ABSOLUTE
    _printf_widthprec                        0x00000000   Number         0  stubs.o ABSOLUTE
    _printf_x                                0x00000000   Number         0  stubs.o ABSOLUTE
    __cpp_initialize__aeabi_                  - Undefined Weak Reference
    __cxa_finalize                            - Undefined Weak Reference
    _clock_init                               - Undefined Weak Reference
    _microlib_exit                            - Undefined Weak Reference
    __Vectors_Size                           0x000000c0   Number         0  startup_stm32g030xx.o ABSOLUTE
    __Vectors                                0x08001900   Data           4  startup_stm32g030xx.o(RESET)
    __Vectors_End                            0x080019c0   Data           0  startup_stm32g030xx.o(RESET)
    __main                                   0x080019c1   Thumb Code     0  entry.o(.ARM.Collect$$$$00000000)
    _main_stk                                0x080019c1   Thumb Code     0  entry2.o(.ARM.Collect$$$$00000001)
    _main_scatterload                        0x080019c5   Thumb Code     0  entry5.o(.ARM.Collect$$$$00000004)
    __main_after_scatterload                 0x080019c9   Thumb Code     0  entry5.o(.ARM.Collect$$$$00000004)
    _main_clock                              0x080019c9   Thumb Code     0  entry7b.o(.ARM.Collect$$$$00000008)
    _main_cpp_init                           0x080019c9   Thumb Code     0  entry8b.o(.ARM.Collect$$$$0000000A)
    _main_init                               0x080019c9   Thumb Code     0  entry9a.o(.ARM.Collect$$$$0000000B)
    __rt_final_cpp                           0x080019d1   Thumb Code     0  entry10a.o(.ARM.Collect$$$$0000000D)
    __rt_final_exit                          0x080019d1   Thumb Code     0  entry11a.o(.ARM.Collect$$$$0000000F)
    Reset_Handler                            0x080019d5   Thumb Code     8  startup_stm32g030xx.o(.text)
    ADC1_IRQHandler                          0x080019e7   Thumb Code     0  startup_stm32g030xx.o(.text)
    DMA1_Ch4_5_DMAMUX1_OVR_IRQHandler        0x080019e7   Thumb Code     0  startup_stm32g030xx.o(.text)
    DMA1_Channel1_IRQHandler                 0x080019e7   Thumb Code     0  startup_stm32g030xx.o(.text)
    DMA1_Channel2_3_IRQHandler               0x080019e7   Thumb Code     0  startup_stm32g030xx.o(.text)
    FLASH_IRQHandler                         0x080019e7   Thumb Code     0  startup_stm32g030xx.o(.text)
    I2C1_IRQHandler                          0x080019e7   Thumb Code     0  startup_stm32g030xx.o(.text)
    I2C2_IRQHandler                          0x080019e7   Thumb Code     0  startup_stm32g030xx.o(.text)
    RCC_IRQHandler                           0x080019e7   Thumb Code     0  startup_stm32g030xx.o(.text)
    SPI1_IRQHandler                          0x080019e7   Thumb Code     0  startup_stm32g030xx.o(.text)
    SPI2_IRQHandler                          0x080019e7   Thumb Code     0  startup_stm32g030xx.o(.text)
    TIM17_IRQHandler                         0x080019e7   Thumb Code     0  startup_stm32g030xx.o(.text)
    TIM1_BRK_UP_TRG_COM_IRQHandler           0x080019e7   Thumb Code     0  startup_stm32g030xx.o(.text)
    TIM1_CC_IRQHandler                       0x080019e7   Thumb Code     0  startup_stm32g030xx.o(.text)
    TIM3_IRQHandler                          0x080019e7   Thumb Code     0  startup_stm32g030xx.o(.text)
    WWDG_IRQHandler                          0x080019e7   Thumb Code     0  startup_stm32g030xx.o(.text)
    __aeabi_uidiv                            0x080019f1   Thumb Code     0  uidiv.o(.text)
    __aeabi_uidivmod                         0x080019f1   Thumb Code    44  uidiv.o(.text)
    __aeabi_idiv                             0x08001a1d   Thumb Code     0  idiv.o(.text)
    __aeabi_idivmod                          0x08001a1d   Thumb Code    40  idiv.o(.text)
    __aeabi_ldivmod                          0x08001a45   Thumb Code    76  ldiv.o(.text)
    __aeabi_lmul                             0x08001a91   Thumb Code   122  llmul.o(.text)
    _ll_mul                                  0x08001a91   Thumb Code     0  llmul.o(.text)
    __aeabi_memset                           0x08001b0b   Thumb Code    14  memseta.o(.text)
    __aeabi_memset4                          0x08001b0b   Thumb Code     0  memseta.o(.text)
    __aeabi_memset8                          0x08001b0b   Thumb Code     0  memseta.o(.text)
    __aeabi_memclr                           0x08001b19   Thumb Code     4  memseta.o(.text)
    __aeabi_memclr4                          0x08001b19   Thumb Code     0  memseta.o(.text)
    __aeabi_memclr8                          0x08001b19   Thumb Code     0  memseta.o(.text)
    _memset$wrapper                          0x08001b1d   Thumb Code    18  memseta.o(.text)
    __aeabi_uldivmod                         0x08001b2f   Thumb Code    96  uldiv.o(.text)
    __aeabi_llsl                             0x08001b8f   Thumb Code    32  llshl.o(.text)
    _ll_shift_l                              0x08001b8f   Thumb Code     0  llshl.o(.text)
    __scatterload                            0x08001bb1   Thumb Code    28  init.o(.text)
    __scatterload_rt2                        0x08001bb1   Thumb Code     0  init.o(.text)
    __aeabi_llsr                             0x08001bd5   Thumb Code    34  llushr.o(.text)
    _ll_ushift_r                             0x08001bd5   Thumb Code     0  llushr.o(.text)
    __decompress                             0x08001bf7   Thumb Code     0  __dclz77c.o(.text)
    __decompress2                            0x08001bf7   Thumb Code    96  __dclz77c.o(.text)
    ADC_Calibration                          0x08001c59   Thumb Code   118  adc.o(i.ADC_Calibration)
    ADC_Disable                              0x08001ce1   Thumb Code    32  adc.o(i.ADC_Disable)
    ADC_Enable                               0x08001d09   Thumb Code    36  adc.o(i.ADC_Enable)
    ADC_GetValue                             0x08001d35   Thumb Code    66  adc.o(i.ADC_GetValue)
    ADC_SelecteChannel                       0x08001d81   Thumb Code    24  adc.o(i.ADC_SelecteChannel)
    ADC_WaitSampleOver                       0x08001da1   Thumb Code    22  adc.o(i.ADC_WaitSampleOver)
    AlarmCheck                               0x08001dc1   Thumb Code   498  app_alarm.o(i.AlarmCheck)
    AlarmFilter                              0x08001fcd   Thumb Code    90  app_alarm.o(i.AlarmFilter)
    BalanceCtrl                              0x08002027   Thumb Code    26  app_volt.o(i.BalanceCtrl)
    BootCmd_Process                          0x08002041   Thumb Code   222  bsp_sifbus.o(i.BootCmd_Process)
    CHGDSG_MOS_CheckOK                       0x08002139   Thumb Code    96  app_alarm.o(i.CHGDSG_MOS_CheckOK)
    CRC8                                     0x080021a1   Thumb Code    52  app_bms.o(i.CRC8)
    CheckFlash                               0x080021d5   Thumb Code    52  app_flash.o(i.CheckFlash)
    Crc16_Calculate                          0x08002215   Thumb Code    36  bsp_sifbus.o(i.Crc16_Calculate)
    CurrentStateDetect                       0x0800223d   Thumb Code   114  app_current.o(i.CurrentStateDetect)
    CycleCount_Init                          0x080022bd   Thumb Code    50  app_soc.o(i.CycleCount_Init)
    Cycle_Integral                           0x08002309   Thumb Code   262  app_soc.o(i.Cycle_Integral)
    DeepSleep                                0x08002435   Thumb Code    36  app_lowpower.o(i.DeepSleep)
    DeepSleepCheck                           0x08002459   Thumb Code    76  app_lowpower.o(i.DeepSleepCheck)
    EXTI0_1_IRQHandler                       0x080024b5   Thumb Code    50  stm32g0xx_it.o(i.EXTI0_1_IRQHandler)
    EXTI2_3_IRQHandler                       0x080024f1   Thumb Code    34  stm32g0xx_it.o(i.EXTI2_3_IRQHandler)
    EXTI4_15_IRQHandler                      0x08002519   Thumb Code   138  stm32g0xx_it.o(i.EXTI4_15_IRQHandler)
    Enter_StopMode                           0x080025ad   Thumb Code   102  app_lowpower.o(i.Enter_StopMode)
    Enter_Stop_ENable                        0x08002621   Thumb Code    32  app_lowpower.o(i.Enter_Stop_ENable)
    FLASH_WaitForLastOperation               0x08002649   Thumb Code    90  flash.o(i.FLASH_WaitForLastOperation)
    Find_Adc_Temp                            0x080026b1   Thumb Code    52  app_temprature.o(i.Find_Adc_Temp)
    FlashInit                                0x080026ed   Thumb Code    30  app_flash.o(i.FlashInit)
    FlashParaSetDefault                      0x08002729   Thumb Code    92  app_flash.o(i.FlashParaSetDefault)
    Flash_ReadPara                           0x08002791   Thumb Code   384  app_flash.o(i.Flash_ReadPara)
    Flash_WritePara                          0x08002919   Thumb Code   598  app_flash.o(i.Flash_WritePara)
    GPIO_CloseWEAK_EXTI                      0x08002b79   Thumb Code    74  gpio.o(i.GPIO_CloseWEAK_EXTI)
    GPIO_ReadPin                             0x08002bc3   Thumb Code    14  gpio.o(i.GPIO_ReadPin)
    GPIO_WritePin                            0x08002bd1   Thumb Code    12  gpio.o(i.GPIO_WritePin)
    GTDS_SIF_process                         0x08002bdd   Thumb Code   306  bsp_sifbus.o(i.GTDS_SIF_process)
    GT_GET_RTC                               0x08002d1d   Thumb Code   104  rtc.o(i.GT_GET_RTC)
    GetCheck                                 0x08002d8d   Thumb Code    90  app_flash.o(i.GetCheck)
    GetClibrationDiff_Current                0x08002ded   Thumb Code     8  app_current.o(i.GetClibrationDiff_Current)
    GetFactor_Cali_CHG                       0x08002df5   Thumb Code   184  app_soc.o(i.GetFactor_Cali_CHG)
    GetFactor_Cali_DSG                       0x08002eb9   Thumb Code   230  app_soc.o(i.GetFactor_Cali_DSG)
    GetFactor_Cali_DSGTempCoeff              0x08002fb5   Thumb Code    44  app_soc.o(i.GetFactor_Cali_DSGTempCoeff)
    GetPage                                  0x08002fe5   Thumb Code    10  flash.o(i.GetPage)
    Get_Percent                              0x08002fef   Thumb Code    36  app_soc.o(i.Get_Percent)
    Get_TableT_Coefficient                   0x08003015   Thumb Code   120  app_soc.o(i.Get_TableT_Coefficient)
    Get_TableV_SOC                           0x08003099   Thumb Code   160  app_soc.o(i.Get_TableV_SOC)
    HAL_FLASHEx_Erase                        0x08003139   Thumb Code    84  flash.o(i.HAL_FLASHEx_Erase)
    HAL_FLASH_Lock                           0x08003195   Thumb Code    22  flash.o(i.HAL_FLASH_Lock)
    HAL_FLASH_Program                        0x080031b1   Thumb Code    64  flash.o(i.HAL_FLASH_Program)
    HAL_FLASH_Unlock                         0x080031f5   Thumb Code    28  flash.o(i.HAL_FLASH_Unlock)
    HardFault_Handler                        0x0800321d   Thumb Code    18  stm32g0xx_it.o(i.HardFault_Handler)
    JudgeBalance                             0x08003239   Thumb Code   184  app_volt.o(i.JudgeBalance)
    LL_ADC_DeInit                            0x08003301   Thumb Code   260  stm32g0xx_ll_adc.o(i.LL_ADC_DeInit)
    LL_ADC_Init                              0x0800341d   Thumb Code    52  stm32g0xx_ll_adc.o(i.LL_ADC_Init)
    LL_ADC_REG_Init                          0x08003455   Thumb Code    86  stm32g0xx_ll_adc.o(i.LL_ADC_REG_Init)
    LL_EXTI_Init                             0x08003521   Thumb Code   160  stm32g0xx_ll_exti.o(i.LL_EXTI_Init)
    LL_GPIO_DeInit                           0x0800360d   Thumb Code    96  stm32g0xx_ll_gpio.o(i.LL_GPIO_DeInit)
    LL_GPIO_Init                             0x0800367d   Thumb Code   168  stm32g0xx_ll_gpio.o(i.LL_GPIO_Init)
    LL_Init1msTick                           0x08003775   Thumb Code    26  stm32g0xx_ll_utils.o(i.LL_Init1msTick)
    LL_RCC_GetSystemClocksFreq               0x08003795   Thumb Code    24  stm32g0xx_ll_rcc.o(i.LL_RCC_GetSystemClocksFreq)
    LL_RCC_GetUSARTClockFreq                 0x080037ad   Thumb Code    88  stm32g0xx_ll_rcc.o(i.LL_RCC_GetUSARTClockFreq)
    LL_RTC_DATE_Init                         0x08003835   Thumb Code   150  stm32g0xx_ll_rtc.o(i.LL_RTC_DATE_Init)
    LL_RTC_DATE_StructInit                   0x080038d1   Thumb Code    14  stm32g0xx_ll_rtc.o(i.LL_RTC_DATE_StructInit)
    LL_RTC_EnterInitMode                     0x080038e1   Thumb Code    70  stm32g0xx_ll_rtc.o(i.LL_RTC_EnterInitMode)
    LL_RTC_Init                              0x0800392d   Thumb Code    82  stm32g0xx_ll_rtc.o(i.LL_RTC_Init)
    LL_RTC_TIME_Init                         0x080039a5   Thumb Code   144  stm32g0xx_ll_rtc.o(i.LL_RTC_TIME_Init)
    LL_RTC_TIME_StructInit                   0x08003a39   Thumb Code    12  stm32g0xx_ll_rtc.o(i.LL_RTC_TIME_StructInit)
    LL_RTC_WaitForSynchro                    0x08003a45   Thumb Code   110  stm32g0xx_ll_rtc.o(i.LL_RTC_WaitForSynchro)
    LL_SetSystemCoreClock                    0x08003ab9   Thumb Code     6  stm32g0xx_ll_utils.o(i.LL_SetSystemCoreClock)
    LL_TIM_DeInit                            0x08003ac5   Thumb Code    90  stm32g0xx_ll_tim.o(i.LL_TIM_DeInit)
    LL_TIM_Init                              0x08003b39   Thumb Code    98  stm32g0xx_ll_tim.o(i.LL_TIM_Init)
    LL_USART_Init                            0x08003bc5   Thumb Code   204  stm32g0xx_ll_usart.o(i.LL_USART_Init)
    LL_mDelay                                0x08003ca5   Thumb Code    24  stm32g0xx_ll_utils.o(i.LL_mDelay)
    MX_ADC1_Init                             0x08003cc1   Thumb Code   292  adc.o(i.MX_ADC1_Init)
    MX_EXTI_Init                             0x08003e09   Thumb Code   144  gpio.o(i.MX_EXTI_Init)
    MX_GPIO_Init                             0x08003ea5   Thumb Code   294  gpio.o(i.MX_GPIO_Init)
    MX_RTC_Init                              0x08003fdd   Thumb Code   190  rtc.o(i.MX_RTC_Init)
    MX_TIM16_Init                            0x080040b5   Thumb Code    66  tim.o(i.MX_TIM16_Init)
    MX_USART1_UART_Init                      0x080040fd   Thumb Code   164  usart.o(i.MX_USART1_UART_Init)
    MX_USART2_UART_Init                      0x080041a9   Thumb Code   232  usart.o(i.MX_USART2_UART_Init)
    NMI_Handler                              0x080042a1   Thumb Code     2  stm32g0xx_it.o(i.NMI_Handler)
    PendSV_Handler                           0x080042a3   Thumb Code     2  stm32g0xx_it.o(i.PendSV_Handler)
    Process_100ms_CYC                        0x080042a5   Thumb Code   118  app_bms.o(i.Process_100ms_CYC)
    Process_500ms_CYC1                       0x08004331   Thumb Code    66  app_bms.o(i.Process_500ms_CYC1)
    RCC_GetHCLKClockFreq                     0x0800437d   Thumb Code    24  stm32g0xx_ll_rcc.o(i.RCC_GetHCLKClockFreq)
    RCC_GetPCLK1ClockFreq                    0x0800439d   Thumb Code    22  stm32g0xx_ll_rcc.o(i.RCC_GetPCLK1ClockFreq)
    RCC_GetSystemClockFreq                   0x080043bd   Thumb Code    46  stm32g0xx_ll_rcc.o(i.RCC_GetSystemClockFreq)
    RCC_PLL_GetFreqDomain_SYS                0x080043f9   Thumb Code    56  stm32g0xx_ll_rcc.o(i.RCC_PLL_GetFreqDomain_SYS)
    RTC_Bcd2ToByte                           0x08004439   Thumb Code    16  rtc.o(i.RTC_Bcd2ToByte)
    RTC_TAMP_IRQHandler                      0x08004449   Thumb Code    46  stm32g0xx_it.o(i.RTC_TAMP_IRQHandler)
    RealRemainCap_Calibration                0x08004481   Thumb Code    76  app_soc.o(i.RealRemainCap_Calibration)
    RemainCap_Integral                       0x080044d5   Thumb Code   128  app_soc.o(i.RemainCap_Integral)
    RingBuf_Write                            0x08004561   Thumb Code    40  pcmonitor_protocol.o(i.RingBuf_Write)
    SH367309_Config                          0x0800458d   Thumb Code    74  bsp_sh367309.o(i.SH367309_Config)
    SH367309_I2C_Ack                         0x080045dd   Thumb Code    72  bsp_sh367309.o(i.SH367309_I2C_Ack)
    SH367309_I2C_NAck                        0x08004625   Thumb Code    58  bsp_sh367309.o(i.SH367309_I2C_NAck)
    SH367309_I2C_ReadByte                    0x0800465f   Thumb Code    86  bsp_sh367309.o(i.SH367309_I2C_ReadByte)
    SH367309_I2C_SendByte                    0x080046b5   Thumb Code   100  bsp_sh367309.o(i.SH367309_I2C_SendByte)
    SH367309_I2C_Start                       0x08004719   Thumb Code    82  bsp_sh367309.o(i.SH367309_I2C_Start)
    SH367309_I2C_Stop                        0x0800476b   Thumb Code    60  bsp_sh367309.o(i.SH367309_I2C_Stop)
    SH367309_I2C_WaitAck                     0x080047a7   Thumb Code    78  bsp_sh367309.o(i.SH367309_I2C_WaitAck)
    SH367309_ReadData                        0x080047f5   Thumb Code   152  bsp_sh367309.o(i.SH367309_ReadData)
    SH367309_ReadRegVal                      0x0800488d   Thumb Code    34  bsp_sh367309.o(i.SH367309_ReadRegVal)
    SH367309_WriteEEpromData                 0x080048b1   Thumb Code   100  bsp_sh367309.o(i.SH367309_WriteEEpromData)
    SH367309_WriteRamData                    0x08004919   Thumb Code   100  bsp_sh367309.o(i.SH367309_WriteRamData)
    SHA_EEPROM_Set                           0x08004981   Thumb Code   452  bsp_sh367309.o(i.SHA_EEPROM_Set)
    SH_Get_CellTemps                         0x08004b65   Thumb Code   112  bsp_sh367309.o(i.SH_Get_CellTemps)
    SH_Get_CellVolts                         0x08004bdd   Thumb Code    56  bsp_sh367309.o(i.SH_Get_CellVolts)
    SH_Get_Current                           0x08004c15   Thumb Code    66  bsp_sh367309.o(i.SH_Get_Current)
    SH_Read_Alarm                            0x08004c61   Thumb Code   174  bsp_sh367309.o(i.SH_Read_Alarm)
    SH_Reset                                 0x08004d19   Thumb Code    52  bsp_sh367309.o(i.SH_Reset)
    SH_Set_Balance                           0x08004d51   Thumb Code    26  bsp_sh367309.o(i.SH_Set_Balance)
    SH_Set_CONF                              0x08004d6d   Thumb Code    56  bsp_sh367309.o(i.SH_Set_CONF)
    SH_Set_Default                           0x08004da9   Thumb Code    30  bsp_sh367309.o(i.SH_Set_Default)
    SIFProcess                               0x08004dcd   Thumb Code    94  bsp_sifbus.o(i.SIFProcess)
    SUART_Protocol                           0x08004f45   Thumb Code    82  bsp_simuart.o(i.SUART_Protocol)
    SVC_Handler                              0x08004fa1   Thumb Code     2  stm32g0xx_it.o(i.SVC_Handler)
    SetWakeUpTimer_IT                        0x08004fa5   Thumb Code   106  rtc.o(i.SetWakeUpTimer_IT)
    SleepCheck                               0x0800501d   Thumb Code   406  app_lowpower.o(i.SleepCheck)
    Sleep_PinInit                            0x080051dd   Thumb Code   156  gpio.o(i.Sleep_PinInit)
    Soc_ClrOrSetCtrl                         0x08005295   Thumb Code   318  app_soc.o(i.Soc_ClrOrSetCtrl)
    Soc_Init                                 0x08005401   Thumb Code   140  app_soc.o(i.Soc_Init)
    Soft_Delay                               0x080054a1   Thumb Code    16  app_bms.o(i.Soft_Delay)
    SysParaInit                              0x080054b1   Thumb Code    38  app_config.o(i.SysParaInit)
    SysTick_Handler                          0x080054e9   Thumb Code    24  stm32g0xx_it.o(i.SysTick_Handler)
    SystemClock_Config                       0x08005509   Thumb Code   160  main.o(i.SystemClock_Config)
    SystemInit                               0x080055b5   Thumb Code     8  system_stm32g0xx.o(i.SystemInit)
    TIM14_IRQHandler                         0x080055c5   Thumb Code    10  stm32g0xx_it.o(i.TIM14_IRQHandler)
    TIM16_IRQHandler                         0x080055d5   Thumb Code    10  stm32g0xx_it.o(i.TIM16_IRQHandler)
    UART2RxDataPro                           0x080055e5   Thumb Code    52  bsp_simuart.o(i.UART2RxDataPro)
    USART1_IRQHandler                        0x08005621   Thumb Code    62  stm32g0xx_it.o(i.USART1_IRQHandler)
    USART2_IRQHandler                        0x08005669   Thumb Code    62  stm32g0xx_it.o(i.USART2_IRQHandler)
    USART2_SendByte                          0x080056b1   Thumb Code    60  usart.o(i.USART2_SendByte)
    Update_CellTemps                         0x080056f9   Thumb Code   114  app_temprature.o(i.Update_CellTemps)
    Update_CellVolt                          0x08005775   Thumb Code   132  app_volt.o(i.Update_CellVolt)
    Update_Current                           0x08005805   Thumb Code    32  app_current.o(i.Update_Current)
    VolFilter                                0x08005829   Thumb Code   168  adc.o(i.VolFilter)
    __0printf$1                              0x080058d1   Thumb Code    24  printf1.o(i.__0printf$1)
    __1printf$1                              0x080058d1   Thumb Code     0  printf1.o(i.__0printf$1)
    __2printf                                0x080058d1   Thumb Code     0  printf1.o(i.__0printf$1)
    __scatterload_copy                       0x080059c9   Thumb Code    14  handlers.o(i.__scatterload_copy)
    __scatterload_null                       0x080059d7   Thumb Code     2  handlers.o(i.__scatterload_null)
    __scatterload_zeroinit                   0x080059d9   Thumb Code    14  handlers.o(i.__scatterload_zeroinit)
    bsp_init                                 0x08005b39   Thumb Code    32  main.o(i.bsp_init)
    fputc                                    0x08005b59   Thumb Code    12  usart.o(i.fputc)
    isCali_CHG_Enable                        0x08005b69   Thumb Code   146  app_soc.o(i.isCali_CHG_Enable)
    isCali_DSG_Enable                        0x08005c0d   Thumb Code   186  app_soc.o(i.isCali_DSG_Enable)
    isSocInitEnable                          0x08005ce1   Thumb Code   138  app_soc.o(i.isSocInitEnable)
    main                                     0x08005d85   Thumb Code   240  main.o(i.main)
    AHBPrescTable                            0x08005ed8   Data          64  system_stm32g0xx.o(.constdata)
    APBPrescTable                            0x08005f18   Data          32  system_stm32g0xx.o(.constdata)
    Pos5vNTC3380AdTempTABLE                  0x08005f38   Data         322  app_temprature.o(.constdata)
    SH_TEMP_TABLE                            0x08006288   Data         322  bsp_sh367309.o(.constdata)
    Region$$Table$$Base                      0x080063cc   Number         0  anon$$obj.o(Region$$Table)
    Region$$Table$$Limit                     0x080063ec   Number         0  anon$$obj.o(Region$$Table)
    systickCount                             0x20000000   Data           4  main.o(.data)
    sysDelayms                               0x20000004   Data           4  main.o(.data)
    ADC_VREFINT_CAL                          0x20000008   Data           2  adc.o(.data)
    ADC_VREFINT_DATA                         0x2000000a   Data           2  adc.o(.data)
    NowTime                                  0x2000000c   Data           4  rtc.o(.data)
    __stdout                                 0x20000014   Data           4  usart.o(.data)
    SystemCoreClock                          0x20000018   Data           4  system_stm32g0xx.o(.data)
    userAlarm                                0x2000001c   Data           2  app_alarm.o(.data)
    shAlarm                                  0x2000001e   Data           2  app_alarm.o(.data)
    O_V                                      0x20000020   Data           3  app_alarm.o(.data)
    U_V_2700                                 0x20000023   Data           3  app_alarm.o(.data)
    U_V_2300                                 0x20000026   Data           3  app_alarm.o(.data)
    U_V_1500                                 0x20000029   Data           3  app_alarm.o(.data)
    O_T_M                                    0x2000002c   Data           3  app_alarm.o(.data)
    O_T_C                                    0x2000002f   Data           3  app_alarm.o(.data)
    O_T_D                                    0x20000032   Data           3  app_alarm.o(.data)
    U_T_C                                    0x20000035   Data           3  app_alarm.o(.data)
    U_T_D                                    0x20000038   Data           3  app_alarm.o(.data)
    C_M_E                                    0x2000003b   Data           3  app_alarm.o(.data)
    D_M_E                                    0x2000003e   Data           3  app_alarm.o(.data)
    C_O_C                                    0x20000041   Data           3  app_alarm.o(.data)
    D_O_C                                    0x20000044   Data           3  app_alarm.o(.data)
    D_O_C2                                   0x20000047   Data           3  app_alarm.o(.data)
    S_C_D                                    0x2000004a   Data           3  app_alarm.o(.data)
    sysflag                                  0x20000054   Data           4  app_bms.o(.data)
    deepSleepFlag                            0x20000062   Data           1  app_lowpower.o(.data)
    CutCapValue                              0x20000072   Data           2  app_soc.o(.data)
    tbTempCnt                                0x200006bc   Data           4  app_temprature.o(.data)
    SHOWSOC                                  0x200006c8   Data           1  bsp_sifbus.o(.data)
    BootFlag                                 0x200006c9   Data           1  bsp_sifbus.o(.data)
    SIFBUSData                               0x200006d4   Data           6  bsp_sifbus.o(.data)
    RS485Buf                                 0x200006dc   Data         208  pcmonitor_protocol.o(.data)
    VolNum_Ture                              0x200007ac   Data          28  pcmonitor_protocol.o(.data)
    SHTempCoeff                              0x200007c8   Data           1  bsp_sh367309.o(.data)
    CONF_Reg                                 0x200007c9   Data           1  bsp_sh367309.o(.data)
    syspara                                  0x200007cc   Data         164  app_bms.o(.bss)
    flashpara                                0x20000870   Data          80  app_flash.o(.bss)
    SUartInfo                                0x200008c0   Data         409  bsp_simuart.o(.bss)
    __initial_sp                             0x20000e60   Data           0  startup_stm32g030xx.o(STACK)



==============================================================================

Memory Map of the image

  Image Entry point : 0x080019c1

  Load Region LR_IROM1 (Base: 0x080018f8, Size: 0x000052c0, Max: 0x00010000, ABSOLUTE, COMPRESSED[0x00005084])

    Execution Region ER_IROM1 (Exec base: 0x080018f8, Load base: 0x080018f8, Size: 0x00004af4, Max: 0x00010000, ABSOLUTE)

    Exec Addr    Load Addr    Size         Type   Attr      Idx    E Section Name        Object

    0x080018f8   0x080018f8   0x00000008   Data   RO           18    .ARM.__AT_0x080018F8  main.o
    0x08001900   0x08001900   0x000000c0   Data   RO            3    RESET               startup_stm32g030xx.o
    0x080019c0   0x080019c0   0x00000000   Code   RO         2443  * .ARM.Collect$$$$00000000  mc_p.l(entry.o)
    0x080019c0   0x080019c0   0x00000004   Code   RO         2719    .ARM.Collect$$$$00000001  mc_p.l(entry2.o)
    0x080019c4   0x080019c4   0x00000004   Code   RO         2722    .ARM.Collect$$$$00000004  mc_p.l(entry5.o)
    0x080019c8   0x080019c8   0x00000000   Code   RO         2724    .ARM.Collect$$$$00000008  mc_p.l(entry7b.o)
    0x080019c8   0x080019c8   0x00000000   Code   RO         2726    .ARM.Collect$$$$0000000A  mc_p.l(entry8b.o)
    0x080019c8   0x080019c8   0x00000008   Code   RO         2727    .ARM.Collect$$$$0000000B  mc_p.l(entry9a.o)
    0x080019d0   0x080019d0   0x00000000   Code   RO         2729    .ARM.Collect$$$$0000000D  mc_p.l(entry10a.o)
    0x080019d0   0x080019d0   0x00000000   Code   RO         2731    .ARM.Collect$$$$0000000F  mc_p.l(entry11a.o)
    0x080019d0   0x080019d0   0x00000004   Code   RO         2720    .ARM.Collect$$$$00002712  mc_p.l(entry2.o)
    0x080019d4   0x080019d4   0x0000001c   Code   RO            4    .text               startup_stm32g030xx.o
    0x080019f0   0x080019f0   0x0000002c   Code   RO         2446    .text               mc_p.l(uidiv.o)
    0x08001a1c   0x08001a1c   0x00000028   Code   RO         2448    .text               mc_p.l(idiv.o)
    0x08001a44   0x08001a44   0x0000004c   Code   RO         2450    .text               mc_p.l(ldiv.o)
    0x08001a90   0x08001a90   0x0000007a   Code   RO         2452    .text               mc_p.l(llmul.o)
    0x08001b0a   0x08001b0a   0x00000024   Code   RO         2454    .text               mc_p.l(memseta.o)
    0x08001b2e   0x08001b2e   0x00000060   Code   RO         2733    .text               mc_p.l(uldiv.o)
    0x08001b8e   0x08001b8e   0x00000020   Code   RO         2735    .text               mc_p.l(llshl.o)
    0x08001bae   0x08001bae   0x00000002   PAD
    0x08001bb0   0x08001bb0   0x00000024   Code   RO         2748    .text               mc_p.l(init.o)
    0x08001bd4   0x08001bd4   0x00000022   Code   RO         2750    .text               mc_p.l(llushr.o)
    0x08001bf6   0x08001bf6   0x00000060   Code   RO         2766    .text               mc_p.l(__dclz77c.o)
    0x08001c56   0x08001c56   0x00000002   PAD
    0x08001c58   0x08001c58   0x00000088   Code   RO          360    i.ADC_Calibration   adc.o
    0x08001ce0   0x08001ce0   0x00000028   Code   RO          361    i.ADC_Disable       adc.o
    0x08001d08   0x08001d08   0x0000002c   Code   RO          362    i.ADC_Enable        adc.o
    0x08001d34   0x08001d34   0x0000004c   Code   RO          363    i.ADC_GetValue      adc.o
    0x08001d80   0x08001d80   0x00000020   Code   RO          364    i.ADC_SelecteChannel  adc.o
    0x08001da0   0x08001da0   0x00000020   Code   RO          365    i.ADC_WaitSampleOver  adc.o
    0x08001dc0   0x08001dc0   0x0000020c   Code   RO         1548    i.AlarmCheck        app_alarm.o
    0x08001fcc   0x08001fcc   0x0000005a   Code   RO         1549    i.AlarmFilter       app_alarm.o
    0x08002026   0x08002026   0x0000001a   Code   RO         1987    i.BalanceCtrl       app_volt.o
    0x08002040   0x08002040   0x000000f8   Code   RO         2029    i.BootCmd_Process   bsp_sifbus.o
    0x08002138   0x08002138   0x00000068   Code   RO         1550    i.CHGDSG_MOS_CheckOK  app_alarm.o
    0x080021a0   0x080021a0   0x00000034   Code   RO         1586    i.CRC8              app_bms.o
    0x080021d4   0x080021d4   0x00000040   Code   RO         1747    i.CheckFlash        app_flash.o
    0x08002214   0x08002214   0x00000028   Code   RO         2031    i.Crc16_Calculate   bsp_sifbus.o
    0x0800223c   0x0800223c   0x00000080   Code   RO         1658    i.CurrentStateDetect  app_current.o
    0x080022bc   0x080022bc   0x0000004c   Code   RO         1803    i.CycleCount_Init   app_soc.o
    0x08002308   0x08002308   0x0000012c   Code   RO         1804    i.Cycle_Integral    app_soc.o
    0x08002434   0x08002434   0x00000024   Code   RO         1691    i.DeepSleep         app_lowpower.o
    0x08002458   0x08002458   0x0000005c   Code   RO         1692    i.DeepSleepCheck    app_lowpower.o
    0x080024b4   0x080024b4   0x0000003c   Code   RO          659    i.EXTI0_1_IRQHandler  stm32g0xx_it.o
    0x080024f0   0x080024f0   0x00000028   Code   RO          660    i.EXTI2_3_IRQHandler  stm32g0xx_it.o
    0x08002518   0x08002518   0x00000094   Code   RO          661    i.EXTI4_15_IRQHandler  stm32g0xx_it.o
    0x080025ac   0x080025ac   0x00000074   Code   RO         1693    i.Enter_StopMode    app_lowpower.o
    0x08002620   0x08002620   0x00000028   Code   RO         1694    i.Enter_Stop_ENable  app_lowpower.o
    0x08002648   0x08002648   0x00000068   Code   RO          782    i.FLASH_WaitForLastOperation  flash.o
    0x080026b0   0x080026b0   0x0000003c   Code   RO         1948    i.Find_Adc_Temp     app_temprature.o
    0x080026ec   0x080026ec   0x0000003c   Code   RO         1748    i.FlashInit         app_flash.o
    0x08002728   0x08002728   0x00000068   Code   RO         1749    i.FlashParaSetDefault  app_flash.o
    0x08002790   0x08002790   0x00000188   Code   RO         1750    i.Flash_ReadPara    app_flash.o
    0x08002918   0x08002918   0x00000260   Code   RO         1751    i.Flash_WritePara   app_flash.o
    0x08002b78   0x08002b78   0x0000004a   Code   RO          233    i.GPIO_CloseWEAK_EXTI  gpio.o
    0x08002bc2   0x08002bc2   0x0000000e   Code   RO          235    i.GPIO_ReadPin      gpio.o
    0x08002bd0   0x08002bd0   0x0000000c   Code   RO          236    i.GPIO_WritePin     gpio.o
    0x08002bdc   0x08002bdc   0x00000140   Code   RO         2033    i.GTDS_SIF_process  bsp_sifbus.o
    0x08002d1c   0x08002d1c   0x00000070   Code   RO          446    i.GT_GET_RTC        rtc.o
    0x08002d8c   0x08002d8c   0x00000060   Code   RO         1752    i.GetCheck          app_flash.o
    0x08002dec   0x08002dec   0x00000008   Code   RO         1659    i.GetClibrationDiff_Current  app_current.o
    0x08002df4   0x08002df4   0x000000c4   Code   RO         1805    i.GetFactor_Cali_CHG  app_soc.o
    0x08002eb8   0x08002eb8   0x000000fc   Code   RO         1806    i.GetFactor_Cali_DSG  app_soc.o
    0x08002fb4   0x08002fb4   0x00000030   Code   RO         1807    i.GetFactor_Cali_DSGTempCoeff  app_soc.o
    0x08002fe4   0x08002fe4   0x0000000a   Code   RO          783    i.GetPage           flash.o
    0x08002fee   0x08002fee   0x00000024   Code   RO         1809    i.Get_Percent       app_soc.o
    0x08003012   0x08003012   0x00000002   PAD
    0x08003014   0x08003014   0x00000084   Code   RO         1810    i.Get_TableT_Coefficient  app_soc.o
    0x08003098   0x08003098   0x000000a0   Code   RO         1811    i.Get_TableV_SOC    app_soc.o
    0x08003138   0x08003138   0x0000005c   Code   RO          784    i.HAL_FLASHEx_Erase  flash.o
    0x08003194   0x08003194   0x0000001c   Code   RO          785    i.HAL_FLASH_Lock    flash.o
    0x080031b0   0x080031b0   0x00000044   Code   RO          786    i.HAL_FLASH_Program  flash.o
    0x080031f4   0x080031f4   0x00000028   Code   RO          787    i.HAL_FLASH_Unlock  flash.o
    0x0800321c   0x0800321c   0x0000001c   Code   RO          662    i.HardFault_Handler  stm32g0xx_it.o
    0x08003238   0x08003238   0x000000c8   Code   RO         1988    i.JudgeBalance      app_volt.o
    0x08003300   0x08003300   0x0000011c   Code   RO          996    i.LL_ADC_DeInit     stm32g0xx_ll_adc.o
    0x0800341c   0x0800341c   0x00000038   Code   RO          997    i.LL_ADC_Init       stm32g0xx_ll_adc.o
    0x08003454   0x08003454   0x0000005c   Code   RO          998    i.LL_ADC_REG_Init   stm32g0xx_ll_adc.o
    0x080034b0   0x080034b0   0x00000016   Code   RO          366    i.LL_ADC_SetSamplingTimeCommonChannels  adc.o
    0x080034c6   0x080034c6   0x00000002   PAD
    0x080034c8   0x080034c8   0x00000018   Code   RO          515    i.LL_APB2_GRP1_EnableClock  tim.o
    0x080034e0   0x080034e0   0x00000010   Code   RO         1342    i.LL_APB2_GRP1_ForceReset  stm32g0xx_ll_tim.o
    0x080034f0   0x080034f0   0x00000010   Code   RO         1343    i.LL_APB2_GRP1_ReleaseReset  stm32g0xx_ll_tim.o
    0x08003500   0x08003500   0x00000010   Code   RO          237    i.LL_EXTI_DisableEvent_0_31  gpio.o
    0x08003510   0x08003510   0x00000010   Code   RO          238    i.LL_EXTI_DisableIT_0_31  gpio.o
    0x08003520   0x08003520   0x000000a4   Code   RO          911    i.LL_EXTI_Init      stm32g0xx_ll_exti.o
    0x080035c4   0x080035c4   0x00000014   Code   RO          663    i.LL_EXTI_IsActiveFallingFlag_0_31  stm32g0xx_it.o
    0x080035d8   0x080035d8   0x00000014   Code   RO          664    i.LL_EXTI_IsActiveRisingFlag_0_31  stm32g0xx_it.o
    0x080035ec   0x080035ec   0x00000020   Code   RO          240    i.LL_EXTI_SetEXTISource  gpio.o
    0x0800360c   0x0800360c   0x00000070   Code   RO          945    i.LL_GPIO_DeInit    stm32g0xx_ll_gpio.o
    0x0800367c   0x0800367c   0x000000a8   Code   RO          946    i.LL_GPIO_Init      stm32g0xx_ll_gpio.o
    0x08003724   0x08003724   0x00000018   Code   RO          241    i.LL_IOP_GRP1_EnableClock  gpio.o
    0x0800373c   0x0800373c   0x00000018   Code   RO          581    i.LL_IOP_GRP1_EnableClock  usart.o
    0x08003754   0x08003754   0x00000010   Code   RO          948    i.LL_IOP_GRP1_ForceReset  stm32g0xx_ll_gpio.o
    0x08003764   0x08003764   0x00000010   Code   RO          949    i.LL_IOP_GRP1_ReleaseReset  stm32g0xx_ll_gpio.o
    0x08003774   0x08003774   0x00000020   Code   RO          832    i.LL_Init1msTick    stm32g0xx_ll_utils.o
    0x08003794   0x08003794   0x00000018   Code   RO         1106    i.LL_RCC_GetSystemClocksFreq  stm32g0xx_ll_rcc.o
    0x080037ac   0x080037ac   0x00000060   Code   RO         1107    i.LL_RCC_GetUSARTClockFreq  stm32g0xx_ll_rcc.o
    0x0800380c   0x0800380c   0x00000028   Code   RO         1201    i.LL_RTC_DATE_Config  stm32g0xx_ll_rtc.o
    0x08003834   0x08003834   0x0000009c   Code   RO         1202    i.LL_RTC_DATE_Init  stm32g0xx_ll_rtc.o
    0x080038d0   0x080038d0   0x0000000e   Code   RO         1203    i.LL_RTC_DATE_StructInit  stm32g0xx_ll_rtc.o
    0x080038de   0x080038de   0x00000002   PAD
    0x080038e0   0x080038e0   0x0000004c   Code   RO         1205    i.LL_RTC_EnterInitMode  stm32g0xx_ll_rtc.o
    0x0800392c   0x0800392c   0x00000052   Code   RO         1207    i.LL_RTC_Init       stm32g0xx_ll_rtc.o
    0x0800397e   0x0800397e   0x00000002   PAD
    0x08003980   0x08003980   0x00000024   Code   RO         1209    i.LL_RTC_TIME_Config  stm32g0xx_ll_rtc.o
    0x080039a4   0x080039a4   0x00000094   Code   RO         1210    i.LL_RTC_TIME_Init  stm32g0xx_ll_rtc.o
    0x08003a38   0x08003a38   0x0000000c   Code   RO         1211    i.LL_RTC_TIME_StructInit  stm32g0xx_ll_rtc.o
    0x08003a44   0x08003a44   0x00000074   Code   RO         1212    i.LL_RTC_WaitForSynchro  stm32g0xx_ll_rtc.o
    0x08003ab8   0x08003ab8   0x0000000c   Code   RO          836    i.LL_SetSystemCoreClock  stm32g0xx_ll_utils.o
    0x08003ac4   0x08003ac4   0x00000074   Code   RO         1346    i.LL_TIM_DeInit     stm32g0xx_ll_tim.o
    0x08003b38   0x08003b38   0x00000078   Code   RO         1353    i.LL_TIM_Init       stm32g0xx_ll_tim.o
    0x08003bb0   0x08003bb0   0x00000014   Code   RO          582    i.LL_USART_ConfigAsyncMode  usart.o
    0x08003bc4   0x08003bc4   0x000000e0   Code   RO         1468    i.LL_USART_Init     stm32g0xx_ll_usart.o
    0x08003ca4   0x08003ca4   0x0000001c   Code   RO          837    i.LL_mDelay         stm32g0xx_ll_utils.o
    0x08003cc0   0x08003cc0   0x00000148   Code   RO          367    i.MX_ADC1_Init      adc.o
    0x08003e08   0x08003e08   0x0000009c   Code   RO          242    i.MX_EXTI_Init      gpio.o
    0x08003ea4   0x08003ea4   0x00000138   Code   RO          243    i.MX_GPIO_Init      gpio.o
    0x08003fdc   0x08003fdc   0x000000d8   Code   RO          447    i.MX_RTC_Init       rtc.o
    0x080040b4   0x080040b4   0x00000048   Code   RO          517    i.MX_TIM16_Init     tim.o
    0x080040fc   0x080040fc   0x000000ac   Code   RO          583    i.MX_USART1_UART_Init  usart.o
    0x080041a8   0x080041a8   0x000000f8   Code   RO          584    i.MX_USART2_UART_Init  usart.o
    0x080042a0   0x080042a0   0x00000002   Code   RO          665    i.NMI_Handler       stm32g0xx_it.o
    0x080042a2   0x080042a2   0x00000002   Code   RO          666    i.PendSV_Handler    stm32g0xx_it.o
    0x080042a4   0x080042a4   0x0000008c   Code   RO         1587    i.Process_100ms_CYC  app_bms.o
    0x08004330   0x08004330   0x0000004c   Code   RO         1588    i.Process_500ms_CYC1  app_bms.o
    0x0800437c   0x0800437c   0x00000020   Code   RO         1108    i.RCC_GetHCLKClockFreq  stm32g0xx_ll_rcc.o
    0x0800439c   0x0800439c   0x00000020   Code   RO         1109    i.RCC_GetPCLK1ClockFreq  stm32g0xx_ll_rcc.o
    0x080043bc   0x080043bc   0x0000003c   Code   RO         1110    i.RCC_GetSystemClockFreq  stm32g0xx_ll_rcc.o
    0x080043f8   0x080043f8   0x00000040   Code   RO         1113    i.RCC_PLL_GetFreqDomain_SYS  stm32g0xx_ll_rcc.o
    0x08004438   0x08004438   0x00000010   Code   RO          448    i.RTC_Bcd2ToByte    rtc.o
    0x08004448   0x08004448   0x00000038   Code   RO          667    i.RTC_TAMP_IRQHandler  stm32g0xx_it.o
    0x08004480   0x08004480   0x00000054   Code   RO         1812    i.RealRemainCap_Calibration  app_soc.o
    0x080044d4   0x080044d4   0x0000008c   Code   RO         1813    i.RemainCap_Integral  app_soc.o
    0x08004560   0x08004560   0x0000002c   Code   RO         2208    i.RingBuf_Write     pcmonitor_protocol.o
    0x0800458c   0x0800458c   0x00000050   Code   RO         2273    i.SH367309_Config   bsp_sh367309.o
    0x080045dc   0x080045dc   0x00000048   Code   RO         2274    i.SH367309_I2C_Ack  bsp_sh367309.o
    0x08004624   0x08004624   0x0000003a   Code   RO         2275    i.SH367309_I2C_NAck  bsp_sh367309.o
    0x0800465e   0x0800465e   0x00000056   Code   RO         2276    i.SH367309_I2C_ReadByte  bsp_sh367309.o
    0x080046b4   0x080046b4   0x00000064   Code   RO         2277    i.SH367309_I2C_SendByte  bsp_sh367309.o
    0x08004718   0x08004718   0x00000052   Code   RO         2278    i.SH367309_I2C_Start  bsp_sh367309.o
    0x0800476a   0x0800476a   0x0000003c   Code   RO         2279    i.SH367309_I2C_Stop  bsp_sh367309.o
    0x080047a6   0x080047a6   0x0000004e   Code   RO         2280    i.SH367309_I2C_WaitAck  bsp_sh367309.o
    0x080047f4   0x080047f4   0x00000098   Code   RO         2282    i.SH367309_ReadData  bsp_sh367309.o
    0x0800488c   0x0800488c   0x00000022   Code   RO         2283    i.SH367309_ReadRegVal  bsp_sh367309.o
    0x080048ae   0x080048ae   0x00000002   PAD
    0x080048b0   0x080048b0   0x00000068   Code   RO         2284    i.SH367309_WriteEEpromData  bsp_sh367309.o
    0x08004918   0x08004918   0x00000068   Code   RO         2285    i.SH367309_WriteRamData  bsp_sh367309.o
    0x08004980   0x08004980   0x000001e4   Code   RO         2286    i.SHA_EEPROM_Set    bsp_sh367309.o
    0x08004b64   0x08004b64   0x00000078   Code   RO         2287    i.SH_Get_CellTemps  bsp_sh367309.o
    0x08004bdc   0x08004bdc   0x00000038   Code   RO         2288    i.SH_Get_CellVolts  bsp_sh367309.o
    0x08004c14   0x08004c14   0x0000004c   Code   RO         2289    i.SH_Get_Current    bsp_sh367309.o
    0x08004c60   0x08004c60   0x000000b8   Code   RO         2291    i.SH_Read_Alarm     bsp_sh367309.o
    0x08004d18   0x08004d18   0x00000038   Code   RO         2292    i.SH_Reset          bsp_sh367309.o
    0x08004d50   0x08004d50   0x0000001a   Code   RO         2294    i.SH_Set_Balance    bsp_sh367309.o
    0x08004d6a   0x08004d6a   0x00000002   PAD
    0x08004d6c   0x08004d6c   0x0000003c   Code   RO         2295    i.SH_Set_CONF       bsp_sh367309.o
    0x08004da8   0x08004da8   0x00000024   Code   RO         2296    i.SH_Set_Default    bsp_sh367309.o
    0x08004dcc   0x08004dcc   0x0000006c   Code   RO         2034    i.SIFProcess        bsp_sifbus.o
    0x08004e38   0x08004e38   0x0000010c   Code   RO         2035    i.SIF_QueryDataPack  bsp_sifbus.o
    0x08004f44   0x08004f44   0x0000005c   Code   RO         2097    i.SUART_Protocol    bsp_simuart.o
    0x08004fa0   0x08004fa0   0x00000002   Code   RO          668    i.SVC_Handler       stm32g0xx_it.o
    0x08004fa2   0x08004fa2   0x00000002   PAD
    0x08004fa4   0x08004fa4   0x00000078   Code   RO          450    i.SetWakeUpTimer_IT  rtc.o
    0x0800501c   0x0800501c   0x000001c0   Code   RO         1695    i.SleepCheck        app_lowpower.o
    0x080051dc   0x080051dc   0x000000b8   Code   RO          244    i.Sleep_PinInit     gpio.o
    0x08005294   0x08005294   0x0000016c   Code   RO         1814    i.Soc_ClrOrSetCtrl  app_soc.o
    0x08005400   0x08005400   0x000000a0   Code   RO         1815    i.Soc_Init          app_soc.o
    0x080054a0   0x080054a0   0x00000010   Code   RO         1589    i.Soft_Delay        app_bms.o
    0x080054b0   0x080054b0   0x00000038   Code   RO         1633    i.SysParaInit       app_config.o
    0x080054e8   0x080054e8   0x00000020   Code   RO          669    i.SysTick_Handler   stm32g0xx_it.o
    0x08005508   0x08005508   0x000000ac   Code   RO           15    i.SystemClock_Config  main.o
    0x080055b4   0x080055b4   0x00000010   Code   RO         1515    i.SystemInit        system_stm32g0xx.o
    0x080055c4   0x080055c4   0x00000010   Code   RO          670    i.TIM14_IRQHandler  stm32g0xx_it.o
    0x080055d4   0x080055d4   0x00000010   Code   RO          671    i.TIM16_IRQHandler  stm32g0xx_it.o
    0x080055e4   0x080055e4   0x0000003c   Code   RO         2098    i.UART2RxDataPro    bsp_simuart.o
    0x08005620   0x08005620   0x00000048   Code   RO          672    i.USART1_IRQHandler  stm32g0xx_it.o
    0x08005668   0x08005668   0x00000048   Code   RO          673    i.USART2_IRQHandler  stm32g0xx_it.o
    0x080056b0   0x080056b0   0x00000048   Code   RO          586    i.USART2_SendByte   usart.o
    0x080056f8   0x080056f8   0x0000007c   Code   RO         1950    i.Update_CellTemps  app_temprature.o
    0x08005774   0x08005774   0x00000090   Code   RO         1989    i.Update_CellVolt   app_volt.o
    0x08005804   0x08005804   0x00000024   Code   RO         1660    i.Update_Current    app_current.o
    0x08005828   0x08005828   0x000000a8   Code   RO          368    i.VolFilter         adc.o
    0x080058d0   0x080058d0   0x00000020   Code   RO         2503    i.__0printf$1       mc_p.l(printf1.o)
    0x080058f0   0x080058f0   0x00000020   Code   RO          245    i.__NVIC_DisableIRQ  gpio.o
    0x08005910   0x08005910   0x00000018   Code   RO          246    i.__NVIC_EnableIRQ  gpio.o
    0x08005928   0x08005928   0x00000018   Code   RO          518    i.__NVIC_EnableIRQ  tim.o
    0x08005940   0x08005940   0x00000044   Code   RO          247    i.__NVIC_SetPriority  gpio.o
    0x08005984   0x08005984   0x00000044   Code   RO          519    i.__NVIC_SetPriority  tim.o
    0x080059c8   0x080059c8   0x0000000e   Code   RO         2760    i.__scatterload_copy  mc_p.l(handlers.o)
    0x080059d6   0x080059d6   0x00000002   Code   RO         2761    i.__scatterload_null  mc_p.l(handlers.o)
    0x080059d8   0x080059d8   0x0000000e   Code   RO         2762    i.__scatterload_zeroinit  mc_p.l(handlers.o)
    0x080059e6   0x080059e6   0x00000002   PAD
    0x080059e8   0x080059e8   0x00000150   Code   RO         2510    i._printf_core      mc_p.l(printf1.o)
    0x08005b38   0x08005b38   0x00000020   Code   RO           16    i.bsp_init          main.o
    0x08005b58   0x08005b58   0x00000010   Code   RO          588    i.fputc             usart.o
    0x08005b68   0x08005b68   0x000000a4   Code   RO         1816    i.isCali_CHG_Enable  app_soc.o
    0x08005c0c   0x08005c0c   0x000000d4   Code   RO         1817    i.isCali_DSG_Enable  app_soc.o
    0x08005ce0   0x08005ce0   0x000000a4   Code   RO         1819    i.isSocInitEnable   app_soc.o
    0x08005d84   0x08005d84   0x00000124   Code   RO           17    i.main              main.o
    0x08005ea8   0x08005ea8   0x00000030   Data   RO         1470    .constdata          stm32g0xx_ll_usart.o
    0x08005ed8   0x08005ed8   0x00000040   Data   RO         1516    .constdata          system_stm32g0xx.o
    0x08005f18   0x08005f18   0x00000020   Data   RO         1517    .constdata          system_stm32g0xx.o
    0x08005f38   0x08005f38   0x00000142   Data   RO         1951    .constdata          app_temprature.o
    0x0800607a   0x0800607a   0x00000002   PAD
    0x0800607c   0x0800607c   0x0000020c   Data   RO         2037    .constdata          bsp_sifbus.o
    0x08006288   0x08006288   0x00000142   Data   RO         2298    .constdata          bsp_sh367309.o
    0x080063ca   0x080063ca   0x00000002   PAD
    0x080063cc   0x080063cc   0x00000020   Data   RO         2758    Region$$Table       anon$$obj.o


    Execution Region RW_IRAM1 (Exec base: 0x20000000, Load base: 0x080063ec, Size: 0x00000e60, Max: 0x00002000, ABSOLUTE, COMPRESSED[0x00000590])

    Exec Addr    Load Addr    Size         Type   Attr      Idx    E Section Name        Object

    0x20000000   COMPRESSED   0x00000008   Data   RW           19    .data               main.o
    0x20000008   COMPRESSED   0x00000004   Data   RW          369    .data               adc.o
    0x2000000c   COMPRESSED   0x00000004   Data   RW          451    .data               rtc.o
    0x20000010   COMPRESSED   0x00000001   Data   RW          452    .data               rtc.o
    0x20000011   COMPRESSED   0x00000003   PAD
    0x20000014   COMPRESSED   0x00000004   Data   RW          589    .data               usart.o
    0x20000018   COMPRESSED   0x00000004   Data   RW         1518    .data               system_stm32g0xx.o
    0x2000001c   COMPRESSED   0x00000031   Data   RW         1551    .data               app_alarm.o
    0x2000004d   COMPRESSED   0x00000003   PAD
    0x20000050   COMPRESSED   0x00000004   Data   RW         1591    .data               app_bms.o
    0x20000054   COMPRESSED   0x00000004   Data   RW         1592    .data               app_bms.o
    0x20000058   COMPRESSED   0x00000008   Data   RW         1661    .data               app_current.o
    0x20000060   COMPRESSED   0x00000006   Data   RW         1697    .data               app_lowpower.o
    0x20000066   COMPRESSED   0x00000656   Data   RW         1820    .data               app_soc.o
    0x200006bc   COMPRESSED   0x00000004   Data   RW         1952    .data               app_temprature.o
    0x200006c0   COMPRESSED   0x00000006   Data   RW         1992    .data               app_volt.o
    0x200006c6   COMPRESSED   0x00000002   PAD
    0x200006c8   COMPRESSED   0x00000012   Data   RW         2038    .data               bsp_sifbus.o
    0x200006da   COMPRESSED   0x000000ee   Data   RW         2213    .data               pcmonitor_protocol.o
    0x200007c8   COMPRESSED   0x00000002   Data   RW         2299    .data               bsp_sh367309.o
    0x200007ca   COMPRESSED   0x00000002   PAD
    0x200007cc        -       0x000000a4   Zero   RW         1590    .bss                app_bms.o
    0x20000870        -       0x00000050   Zero   RW         1753    .bss                app_flash.o
    0x200008c0        -       0x00000199   Zero   RW         2099    .bss                bsp_simuart.o
    0x20000a59   COMPRESSED   0x00000007   PAD
    0x20000a60        -       0x00000400   Zero   RW            1    STACK               startup_stm32g030xx.o


==============================================================================

Image component sizes


      Code (inc. data)   RO Data    RW Data    ZI Data      Debug   Object Name

       878         98          0          4          0      57305   adc.o
       718         34          0         49          0       3850   app_alarm.o
       284         32          0          8        164       5843   app_bms.o
        56         18          0          0          0        438   app_config.o
       172         18          0          8          0       1678   app_current.o
      1324         78          0          0         80       5001   app_flash.o
       732         80          0          6          0       7723   app_lowpower.o
      2488        270          0       1622          0      12977   app_soc.o
       184         18        322          4          0       1995   app_temprature.o
       370         28          0          6          0       3127   app_volt.o
      2108         88        322          2          0      23909   bsp_sh367309.o
       984         78        524         18          0       6024   bsp_sifbus.o
       152         18          0          0        409       2484   bsp_simuart.o
       342         44          0          0          0       3959   flash.o
       964        100          0          0          0      98251   gpio.o
       496         64          8          8          0     313046   main.o
        44          4          0        238          0       2870   pcmonitor_protocol.o
       464         48          0          5          0      58438   rtc.o
        28          8        192          0       1024        616   startup_stm32g030xx.o
       586         94          0          0          0      97975   stm32g0xx_it.o
       432         34          0          0          0      38848   stm32g0xx_ll_adc.o
       164          4          0          0          0       6871   stm32g0xx_ll_exti.o
       312         28          0          0          0      11832   stm32g0xx_ll_gpio.o
       308         48          0          0          0      20394   stm32g0xx_ll_rcc.o
       680         32          0          0          0      35949   stm32g0xx_ll_rtc.o
       268         60          0          0          0      45598   stm32g0xx_ll_tim.o
       224         20         48          0          0      26556   stm32g0xx_ll_usart.o
        72         16          0          0          0       6441   stm32g0xx_ll_utils.o
        16          8         96          4          0       1119   system_stm32g0xx.o
       188         26          0          0          0      46756   tim.o
       552         46          0          4          0      31568   usart.o

    ----------------------------------------------------------------------
     16604       1542       1548       1996       1684     979441   Object Totals
         0          0         32          0          0          0   (incl. Generated)
        14          0          4         10          7          0   (incl. Padding)

    ----------------------------------------------------------------------

      Code (inc. data)   RO Data    RW Data    ZI Data      Debug   Library Member Name

        96          0          0          0          0          0   __dclz77c.o
         0          0          0          0          0          0   entry.o
         0          0          0          0          0          0   entry10a.o
         0          0          0          0          0          0   entry11a.o
         8          4          0          0          0          0   entry2.o
         4          0          0          0          0          0   entry5.o
         0          0          0          0          0          0   entry7b.o
         0          0          0          0          0          0   entry8b.o
         8          4          0          0          0          0   entry9a.o
        30          0          0          0          0          0   handlers.o
        40          0          0          0          0         72   idiv.o
        36          8          0          0          0         68   init.o
        76          0          0          0          0         76   ldiv.o
       122          0          0          0          0         84   llmul.o
        32          0          0          0          0         68   llshl.o
        34          0          0          0          0         68   llushr.o
        36          0          0          0          0        100   memseta.o
       368         12          0          0          0        168   printf1.o
        44          0          0          0          0         72   uidiv.o
        96          0          0          0          0         84   uldiv.o

    ----------------------------------------------------------------------
      1036         28          0          0          0        860   Library Totals
         6          0          0          0          0          0   (incl. Padding)

    ----------------------------------------------------------------------

      Code (inc. data)   RO Data    RW Data    ZI Data      Debug   Library Name

      1030         28          0          0          0        860   mc_p.l

    ----------------------------------------------------------------------
      1036         28          0          0          0        860   Library Totals

    ----------------------------------------------------------------------

==============================================================================


      Code (inc. data)   RO Data    RW Data    ZI Data      Debug   

     17640       1570       1548       1996       1684     973133   Grand Totals
     17640       1570       1548       1424       1684     973133   ELF Image Totals (compressed)
     17640       1570       1548       1424          0          0   ROM Totals

==============================================================================

    Total RO  Size (Code + RO Data)                19188 (  18.74kB)
    Total RW  Size (RW Data + ZI Data)              3680 (   3.59kB)
    Total ROM Size (Code + RO Data + RW Data)      20612 (  20.13kB)

==============================================================================

