Component: ARM Compiler 5.06 update 6 (build 750) Tool: armlink [4d35ed]

==============================================================================

Section Cross References

    startup_stm32g030xx.o(RESET) refers to startup_stm32g030xx.o(STACK) for __initial_sp
    startup_stm32g030xx.o(RESET) refers to startup_stm32g030xx.o(.text) for Reset_Handler
    startup_stm32g030xx.o(RESET) refers to stm32g0xx_it.o(i.NMI_Handler) for NMI_Handler
    startup_stm32g030xx.o(RESET) refers to stm32g0xx_it.o(i.HardFault_Handler) for HardFault_Handler
    startup_stm32g030xx.o(RESET) refers to stm32g0xx_it.o(i.SVC_Handler) for SVC_Handler
    startup_stm32g030xx.o(RESET) refers to stm32g0xx_it.o(i.PendSV_Handler) for PendSV_Handler
    startup_stm32g030xx.o(RESET) refers to stm32g0xx_it.o(i.SysTick_Handler) for SysTick_Handler
    startup_stm32g030xx.o(RESET) refers to stm32g0xx_it.o(i.RTC_TAMP_IRQHandler) for RTC_TAMP_IRQHandler
    startup_stm32g030xx.o(RESET) refers to stm32g0xx_it.o(i.EXTI0_1_IRQHandler) for EXTI0_1_IRQHandler
    startup_stm32g030xx.o(RESET) refers to stm32g0xx_it.o(i.EXTI2_3_IRQHandler) for EXTI2_3_IRQHandler
    startup_stm32g030xx.o(RESET) refers to stm32g0xx_it.o(i.EXTI4_15_IRQHandler) for EXTI4_15_IRQHandler
    startup_stm32g030xx.o(RESET) refers to stm32g0xx_it.o(i.TIM14_IRQHandler) for TIM14_IRQHandler
    startup_stm32g030xx.o(RESET) refers to stm32g0xx_it.o(i.TIM16_IRQHandler) for TIM16_IRQHandler
    startup_stm32g030xx.o(RESET) refers to bsp_hardiic_reg.o(i.I2C2_IRQHandler) for I2C2_IRQHandler
    startup_stm32g030xx.o(RESET) refers to stm32g0xx_it.o(i.USART1_IRQHandler) for USART1_IRQHandler
    startup_stm32g030xx.o(RESET) refers to stm32g0xx_it.o(i.USART2_IRQHandler) for USART2_IRQHandler
    startup_stm32g030xx.o(.text) refers to system_stm32g0xx.o(i.SystemInit) for SystemInit
    startup_stm32g030xx.o(.text) refers to entry.o(.ARM.Collect$$$$00000000) for __main
==============================================================================

Removing Unused input sections from the image.

    Removing startup_stm32g030xx.o(HEAP), (512 bytes).
    Removing main.o(.rev16_text), (4 bytes).
    Removing main.o(.revsh_text), (4 bytes).
    Removing main.o(i.Error_Handler), (2 bytes).
    Removing main.o(i.Process_500ms_CYC2), (10 bytes).
    Removing gpio.o(.rev16_text), (4 bytes).
    Removing gpio.o(.revsh_text), (4 bytes).
    Removing gpio.o(i.GPIO_OpenWEAK_EXTI), (70 bytes).
    Removing gpio.o(i.LL_EXTI_EnableIT_0_31), (16 bytes).
    Removing adc.o(.rev16_text), (4 bytes).
    Removing adc.o(.revsh_text), (4 bytes).
    Removing adc.o(.data), (2 bytes).
    Removing rtc.o(.rev16_text), (4 bytes).
    Removing rtc.o(.revsh_text), (4 bytes).
    Removing rtc.o(i.RTC_ByteToBcd2), (24 bytes).
    Removing tim.o(.rev16_text), (4 bytes).
    Removing tim.o(.revsh_text), (4 bytes).
    Removing tim.o(i.GT_TIM16_CMD), (44 bytes).
==============================================================================

Image Symbol Table

    Local Symbols

    Symbol Name                              Value     Ov Type        Size  Object(Section)

    ../Core/Src/adc.c                        0x00000000   Number         0  adc.o ABSOLUTE
    ../Core/Src/gpio.c                       0x00000000   Number         0  gpio.o ABSOLUTE
    ../Core/Src/main.c                       0x00000000   Number         0  main.o ABSOLUTE
    ../Core/Src/rtc.c                        0x00000000   Number         0  rtc.o ABSOLUTE
    ../Core/Src/stm32g0xx_it.c               0x00000000   Number         0  stm32g0xx_it.o ABSOLUTE
    ../Core/Src/system_stm32g0xx.c           0x00000000   Number         0  system_stm32g0xx.o ABSOLUTE
    ../Core/Src/tim.c                        0x00000000   Number         0  tim.o ABSOLUTE
    ../Core/Src/usart.c                      0x00000000   Number         0  usart.o ABSOLUTE
    ../Drivers/STM32G0xx_HAL_Driver/Src/stm32g0xx_ll_adc.c 0x00000000   Number         0  stm32g0xx_ll_adc.o ABSOLUTE
    ../Drivers/STM32G0xx_HAL_Driver/Src/stm32g0xx_ll_dma.c 0x00000000   Number         0  stm32g0xx_ll_dma.o ABSOLUTE
    ../Drivers/STM32G0xx_HAL_Driver/Src/stm32g0xx_ll_exti.c 0x00000000   Number         0  stm32g0xx_ll_exti.o ABSOLUTE
    ../Drivers/STM32G0xx_HAL_Driver/Src/stm32g0xx_ll_gpio.c 0x00000000   Number         0  stm32g0xx_ll_gpio.o ABSOLUTE
    ../Drivers/STM32G0xx_HAL_Driver/Src/stm32g0xx_ll_pwr.c 0x00000000   Number         0  stm32g0xx_ll_pwr.o ABSOLUTE
    ../Drivers/STM32G0xx_HAL_Driver/Src/stm32g0xx_ll_rcc.c 0x00000000   Number         0  stm32g0xx_ll_rcc.o ABSOLUTE
    ../Drivers/STM32G0xx_HAL_Driver/Src/stm32g0xx_ll_rtc.c 0x00000000   Number         0  stm32g0xx_ll_rtc.o ABSOLUTE
    ../Drivers/STM32G0xx_HAL_Driver/Src/stm32g0xx_ll_tim.c 0x00000000   Number         0  stm32g0xx_ll_tim.o ABSOLUTE
    ../Drivers/STM32G0xx_HAL_Driver/Src/stm32g0xx_ll_usart.c 0x00000000   Number         0  stm32g0xx_ll_usart.o ABSOLUTE
    ../Drivers/STM32G0xx_HAL_Driver/Src/stm32g0xx_ll_utils.c 0x00000000   Number         0  stm32g0xx_ll_utils.o ABSOLUTE
    ../clib/../cmprslib/lz77c.c              0x00000000   Number         0  __dclz77c.o ABSOLUTE
    ../clib/microlib/division.c              0x00000000   Number         0  uldiv.o ABSOLUTE
    ../clib/microlib/division.c              0x00000000   Number         0  idiv.o ABSOLUTE
    ../clib/microlib/division.c              0x00000000   Number         0  ldiv.o ABSOLUTE
    ../clib/microlib/division.c              0x00000000   Number         0  uidiv.o ABSOLUTE
    ../clib/microlib/init/entry.s            0x00000000   Number         0  entry.o ABSOLUTE
    ../clib/microlib/init/entry.s            0x00000000   Number         0  entry8b.o ABSOLUTE
    ../clib/microlib/init/entry.s            0x00000000   Number         0  entry5.o ABSOLUTE
    ../clib/microlib/init/entry.s            0x00000000   Number         0  entry9a.o ABSOLUTE
    ../clib/microlib/init/entry.s            0x00000000   Number         0  entry7b.o ABSOLUTE
    ../clib/microlib/init/entry.s            0x00000000   Number         0  entry9b.o ABSOLUTE
    ../clib/microlib/init/entry.s            0x00000000   Number         0  entry2.o ABSOLUTE
    ../clib/microlib/init/entry.s            0x00000000   Number         0  entry10a.o ABSOLUTE
    ../clib/microlib/init/entry.s            0x00000000   Number         0  entry11b.o ABSOLUTE
    ../clib/microlib/init/entry.s            0x00000000   Number         0  entry7a.o ABSOLUTE
    ../clib/microlib/init/entry.s            0x00000000   Number         0  entry10b.o ABSOLUTE
    ../clib/microlib/init/entry.s            0x00000000   Number         0  entry11a.o ABSOLUTE
    ../clib/microlib/init/entry.s            0x00000000   Number         0  entry8a.o ABSOLUTE
    ../clib/microlib/longlong.c              0x00000000   Number         0  llshl.o ABSOLUTE
    ../clib/microlib/longlong.c              0x00000000   Number         0  llushr.o ABSOLUTE
    ../clib/microlib/longlong.c              0x00000000   Number         0  llsshr.o ABSOLUTE
    ../clib/microlib/longlong.c              0x00000000   Number         0  llmul.o ABSOLUTE
    ../clib/microlib/printf/printf.c         0x00000000   Number         0  printf7.o ABSOLUTE
    ../clib/microlib/printf/printf.c         0x00000000   Number         0  printf6.o ABSOLUTE
    ../clib/microlib/printf/printf.c         0x00000000   Number         0  printfa.o ABSOLUTE
    ../clib/microlib/printf/printf.c         0x00000000   Number         0  printf8.o ABSOLUTE
    ../clib/microlib/printf/printf.c         0x00000000   Number         0  printf4.o ABSOLUTE
    ../clib/microlib/printf/printf.c         0x00000000   Number         0  printfb.o ABSOLUTE
    ../clib/microlib/printf/printf.c         0x00000000   Number         0  printf0.o ABSOLUTE
    ../clib/microlib/printf/printf.c         0x00000000   Number         0  printf3.o ABSOLUTE
    ../clib/microlib/printf/printf.c         0x00000000   Number         0  printf1.o ABSOLUTE
    ../clib/microlib/printf/printf.c         0x00000000   Number         0  printf2.o ABSOLUTE
    ../clib/microlib/printf/printf.c         0x00000000   Number         0  printf5.o ABSOLUTE
    ../clib/microlib/printf/stubs.s          0x00000000   Number         0  stubs.o ABSOLUTE
    ../clib/microlib/string/memset.c         0x00000000   Number         0  memseta.o ABSOLUTE
    ../clib/microlib/string/strstr.c         0x00000000   Number         0  strstr.o ABSOLUTE
    ../clib/microlib/stubs.s                 0x00000000   Number         0  iusefp.o ABSOLUTE
    ../clib/microlib/stubs.s                 0x00000000   Number         0  useno.o ABSOLUTE
    ../clib/microlib/unhosted.c              0x00000000   Number         0  uread4.o ABSOLUTE
    ../clib/microlib/unhosted.c              0x00000000   Number         0  uwrite4.o ABSOLUTE
    ../fplib/microlib/fpadd.c                0x00000000   Number         0  dadd.o ABSOLUTE
    ../fplib/microlib/fpdiv.c                0x00000000   Number         0  ddiv.o ABSOLUTE
    ../fplib/microlib/fpepilogue.c           0x00000000   Number         0  depilogue.o ABSOLUTE
    ../fplib/microlib/fpfix.c                0x00000000   Number         0  dfixul.o ABSOLUTE
    ../fplib/microlib/fpmul.c                0x00000000   Number         0  dmul.o ABSOLUTE
    ..\Core\Src\Flash.c                      0x00000000   Number         0  flash.o ABSOLUTE
    ..\Core\Src\adc.c                        0x00000000   Number         0  adc.o ABSOLUTE
    ..\Core\Src\gpio.c                       0x00000000   Number         0  gpio.o ABSOLUTE
    ..\Core\Src\i2c.c                        0x00000000   Number         0  i2c.o ABSOLUTE
    ..\Core\Src\main.c                       0x00000000   Number         0  main.o ABSOLUTE
    ..\Core\Src\rtc.c                        0x00000000   Number         0  rtc.o ABSOLUTE
    ..\Core\Src\stm32g0xx_it.c               0x00000000   Number         0  stm32g0xx_it.o ABSOLUTE
    ..\Core\Src\system_stm32g0xx.c           0x00000000   Number         0  system_stm32g0xx.o ABSOLUTE
    ..\Core\Src\tim.c                        0x00000000   Number         0  tim.o ABSOLUTE
    ..\Core\Src\usart.c                      0x00000000   Number         0  usart.o ABSOLUTE
    ..\Drivers\STM32G0xx_HAL_Driver\Src\stm32g0xx_ll_adc.c 0x00000000   Number         0  stm32g0xx_ll_adc.o ABSOLUTE
    ..\Drivers\STM32G0xx_HAL_Driver\Src\stm32g0xx_ll_dma.c 0x00000000   Number         0  stm32g0xx_ll_dma.o ABSOLUTE
    ..\Drivers\STM32G0xx_HAL_Driver\Src\stm32g0xx_ll_exti.c 0x00000000   Number         0  stm32g0xx_ll_exti.o ABSOLUTE
    ..\Drivers\STM32G0xx_HAL_Driver\Src\stm32g0xx_ll_gpio.c 0x00000000   Number         0  stm32g0xx_ll_gpio.o ABSOLUTE
    ..\Drivers\STM32G0xx_HAL_Driver\Src\stm32g0xx_ll_i2c.c 0x00000000   Number         0  stm32g0xx_ll_i2c.o ABSOLUTE
    ..\Drivers\STM32G0xx_HAL_Driver\Src\stm32g0xx_ll_pwr.c 0x00000000   Number         0  stm32g0xx_ll_pwr.o ABSOLUTE
    ..\Drivers\STM32G0xx_HAL_Driver\Src\stm32g0xx_ll_rcc.c 0x00000000   Number         0  stm32g0xx_ll_rcc.o ABSOLUTE
    ..\Drivers\STM32G0xx_HAL_Driver\Src\stm32g0xx_ll_rtc.c 0x00000000   Number         0  stm32g0xx_ll_rtc.o ABSOLUTE
    ..\Drivers\STM32G0xx_HAL_Driver\Src\stm32g0xx_ll_tim.c 0x00000000   Number         0  stm32g0xx_ll_tim.o ABSOLUTE
    ..\Drivers\STM32G0xx_HAL_Driver\Src\stm32g0xx_ll_usart.c 0x00000000   Number         0  stm32g0xx_ll_usart.o ABSOLUTE
    ..\Drivers\STM32G0xx_HAL_Driver\Src\stm32g0xx_ll_utils.c 0x00000000   Number         0  stm32g0xx_ll_utils.o ABSOLUTE
    ..\\Core\\Src\\Flash.c                   0x00000000   Number         0  flash.o ABSOLUTE
    ..\\Core\\Src\\i2c.c                     0x00000000   Number         0  i2c.o ABSOLUTE
    ..\\Drivers\\STM32G0xx_HAL_Driver\\Src\\stm32g0xx_ll_i2c.c 0x00000000   Number         0  stm32g0xx_ll_i2c.o ABSOLUTE
    ..\\bms\\App_alarm.c                     0x00000000   Number         0  app_alarm.o ABSOLUTE
    ..\\bms\\App_bms.c                       0x00000000   Number         0  app_bms.o ABSOLUTE
    ..\\bms\\App_config.c                    0x00000000   Number         0  app_config.o ABSOLUTE
    ..\\bms\\App_current.c                   0x00000000   Number         0  app_current.o ABSOLUTE
    ..\\bms\\App_flash.c                     0x00000000   Number         0  app_flash.o ABSOLUTE
    ..\\bms\\App_lowpower.c                  0x00000000   Number         0  app_lowpower.o ABSOLUTE
    ..\\bms\\App_mos.c                       0x00000000   Number         0  app_mos.o ABSOLUTE
    ..\\bms\\App_soc.c                       0x00000000   Number         0  app_soc.o ABSOLUTE
    ..\\bms\\App_temprature.c                0x00000000   Number         0  app_temprature.o ABSOLUTE
    ..\\bms\\App_volt.c                      0x00000000   Number         0  app_volt.o ABSOLUTE
    ..\\bms\\PCMonitor_protocol.c            0x00000000   Number         0  pcmonitor_protocol.o ABSOLUTE
    ..\\bms\\bsp_SimIIC.c                    0x00000000   Number         0  bsp_simiic.o ABSOLUTE
    ..\\bms\\bsp_SimUart.c                   0x00000000   Number         0  bsp_simuart.o ABSOLUTE
    ..\\bms\\bsp_hardiic.c                   0x00000000   Number         0  bsp_hardiic.o ABSOLUTE
    ..\\bms\\bsp_hardiic_reg.c               0x00000000   Number         0  bsp_hardiic_reg.o ABSOLUTE
    ..\\bms\\bsp_sh367309.c                  0x00000000   Number         0  bsp_sh367309.o ABSOLUTE
    ..\\bms\\bsp_sifbus.c                    0x00000000   Number         0  bsp_sifbus.o ABSOLUTE
    ..\bms\App_alarm.c                       0x00000000   Number         0  app_alarm.o ABSOLUTE
    ..\bms\App_bms.c                         0x00000000   Number         0  app_bms.o ABSOLUTE
    ..\bms\App_config.c                      0x00000000   Number         0  app_config.o ABSOLUTE
    ..\bms\App_current.c                     0x00000000   Number         0  app_current.o ABSOLUTE
    ..\bms\App_flash.c                       0x00000000   Number         0  app_flash.o ABSOLUTE
    ..\bms\App_lowpower.c                    0x00000000   Number         0  app_lowpower.o ABSOLUTE
    ..\bms\App_mos.c                         0x00000000   Number         0  app_mos.o ABSOLUTE
    ..\bms\App_soc.c                         0x00000000   Number         0  app_soc.o ABSOLUTE
    ..\bms\App_temprature.c                  0x00000000   Number         0  app_temprature.o ABSOLUTE
    ..\bms\App_volt.c                        0x00000000   Number         0  app_volt.o ABSOLUTE
    ..\bms\PCMonitor_protocol.c              0x00000000   Number         0  pcmonitor_protocol.o ABSOLUTE
    ..\bms\bsp_SimIIC.c                      0x00000000   Number         0  bsp_simiic.o ABSOLUTE
    ..\bms\bsp_SimUart.c                     0x00000000   Number         0  bsp_simuart.o ABSOLUTE
    ..\bms\bsp_hardiic.c                     0x00000000   Number         0  bsp_hardiic.o ABSOLUTE
    ..\bms\bsp_hardiic_reg.c                 0x00000000   Number         0  bsp_hardiic_reg.o ABSOLUTE
    ..\bms\bsp_sh367309.c                    0x00000000   Number         0  bsp_sh367309.o ABSOLUTE
    ..\bms\bsp_sifbus.c                      0x00000000   Number         0  bsp_sifbus.o ABSOLUTE
    cdrcmple.s                               0x00000000   Number         0  cdrcmple.o ABSOLUTE
    dc.s                                     0x00000000   Number         0  dc.o ABSOLUTE
    handlers.s                               0x00000000   Number         0  handlers.o ABSOLUTE
    init.s                                   0x00000000   Number         0  init.o ABSOLUTE
    startup_stm32g030xx.s                    0x00000000   Number         0  startup_stm32g030xx.o ABSOLUTE
    .ARM.__AT_0x080018F8                     0x080018f8   Section        8  main.o(.ARM.__AT_0x080018F8)
    VERINFO                                  0x080018f8   Data           8  main.o(.ARM.__AT_0x080018F8)
    RESET                                    0x08001900   Section      192  startup_stm32g030xx.o(RESET)
    .ARM.Collect$$$$00000000                 0x080019c0   Section        0  entry.o(.ARM.Collect$$$$00000000)
    .ARM.Collect$$$$00000001                 0x080019c0   Section        4  entry2.o(.ARM.Collect$$$$00000001)
    .ARM.Collect$$$$00000004                 0x080019c4   Section        4  entry5.o(.ARM.Collect$$$$00000004)
    .ARM.Collect$$$$00000008                 0x080019c8   Section        0  entry7b.o(.ARM.Collect$$$$00000008)
    .ARM.Collect$$$$0000000A                 0x080019c8   Section        0  entry8b.o(.ARM.Collect$$$$0000000A)
    .ARM.Collect$$$$0000000B                 0x080019c8   Section        8  entry9a.o(.ARM.Collect$$$$0000000B)
    .ARM.Collect$$$$0000000D                 0x080019d0   Section        0  entry10a.o(.ARM.Collect$$$$0000000D)
    .ARM.Collect$$$$0000000F                 0x080019d0   Section        0  entry11a.o(.ARM.Collect$$$$0000000F)
    .ARM.Collect$$$$00002712                 0x080019d0   Section        4  entry2.o(.ARM.Collect$$$$00002712)
    __lit__00000000                          0x080019d0   Data           4  entry2.o(.ARM.Collect$$$$00002712)
    .text                                    0x080019d4   Section       28  startup_stm32g030xx.o(.text)
    .text                                    0x080019f0   Section        0  uidiv.o(.text)
    .text                                    0x08001a1c   Section        0  idiv.o(.text)
    .text                                    0x08001a44   Section        0  ldiv.o(.text)
    .text                                    0x08001a90   Section        0  llmul.o(.text)
    .text                                    0x08001b0a   Section        0  memseta.o(.text)
    .text                                    0x08001b2e   Section        0  uread4.o(.text)
    .text                                    0x08001b42   Section        0  uwrite4.o(.text)
    .text                                    0x08001b54   Section        0  uldiv.o(.text)
    .text                                    0x08001bb4   Section        0  llshl.o(.text)
    .text                                    0x08001bd4   Section       36  init.o(.text)
    .text                                    0x08001bf8   Section        0  llushr.o(.text)
    .text                                    0x08001c1a   Section        0  __dclz77c.o(.text)
    i.ADC_Calibration                        0x08001c7c   Section        0  adc.o(i.ADC_Calibration)
    i.ADC_Disable                            0x08001d04   Section        0  adc.o(i.ADC_Disable)
    i.ADC_Enable                             0x08001d2c   Section        0  adc.o(i.ADC_Enable)
    i.ADC_GetValue                           0x08001d58   Section        0  adc.o(i.ADC_GetValue)
    i.ADC_SelecteChannel                     0x08001da4   Section        0  adc.o(i.ADC_SelecteChannel)
    i.ADC_WaitSampleOver                     0x08001dc4   Section        0  adc.o(i.ADC_WaitSampleOver)
    i.AlarmCheck                             0x08001de4   Section        0  app_alarm.o(i.AlarmCheck)
    i.AlarmFilter                            0x080020f4   Section        0  app_alarm.o(i.AlarmFilter)
    i.BalanceCtrl                            0x0800214e   Section        0  app_volt.o(i.BalanceCtrl)
    i.BootCmd_Process                        0x08002168   Section        0  bsp_sifbus.o(i.BootCmd_Process)
    i.CHGDSG_MOS_CheckOK                     0x08002260   Section        0  app_alarm.o(i.CHGDSG_MOS_CheckOK)
    i.CRC8                                   0x080022c8   Section        0  app_bms.o(i.CRC8)
    i.CheckFlash                             0x080022fc   Section        0  app_flash.o(i.CheckFlash)
    i.Crc16_Calculate                        0x0800233c   Section        0  bsp_sifbus.o(i.Crc16_Calculate)
    i.CurrentStateDetect                     0x08002364   Section        0  app_current.o(i.CurrentStateDetect)
    i.CycleCount_Init                        0x080023e4   Section        0  app_soc.o(i.CycleCount_Init)
    i.Cycle_Integral                         0x08002430   Section        0  app_soc.o(i.Cycle_Integral)
    i.DeepSleep                              0x0800255c   Section        0  app_lowpower.o(i.DeepSleep)
    i.DeepSleepCheck                         0x0800258c   Section        0  app_lowpower.o(i.DeepSleepCheck)
    i.EXTI0_1_IRQHandler                     0x080025e8   Section        0  stm32g0xx_it.o(i.EXTI0_1_IRQHandler)
    i.EXTI2_3_IRQHandler                     0x08002624   Section        0  stm32g0xx_it.o(i.EXTI2_3_IRQHandler)
    i.EXTI4_15_IRQHandler                    0x0800264c   Section        0  stm32g0xx_it.o(i.EXTI4_15_IRQHandler)
    i.Enter_StopMode                         0x08002708   Section        0  app_lowpower.o(i.Enter_StopMode)
    i.Enter_Stop_ENable                      0x08002794   Section        0  app_lowpower.o(i.Enter_Stop_ENable)
    i.FLASH_WaitForLastOperation             0x080027bc   Section        0  flash.o(i.FLASH_WaitForLastOperation)
    i.Find_Adc_Temp                          0x08002824   Section        0  app_temprature.o(i.Find_Adc_Temp)
    i.FlashInit                              0x08002860   Section        0  app_flash.o(i.FlashInit)
    i.FlashParaSetDefault                    0x08002878   Section        0  app_flash.o(i.FlashParaSetDefault)
    i.Flash_ReadPara                         0x080028e0   Section        0  app_flash.o(i.Flash_ReadPara)
    i.Flash_WritePara                        0x08002a68   Section        0  app_flash.o(i.Flash_WritePara)
    i.GPIO_CloseWEAK_EXTI                    0x08002cc8   Section        0  gpio.o(i.GPIO_CloseWEAK_EXTI)
    i.GPIO_ReadPin                           0x08002d0e   Section        0  gpio.o(i.GPIO_ReadPin)
    i.GPIO_WritePin                          0x08002d1c   Section        0  gpio.o(i.GPIO_WritePin)
    i.GTDS_SIF_process                       0x08002d28   Section        0  bsp_sifbus.o(i.GTDS_SIF_process)
    i.GT_GET_RTC                             0x08002e68   Section        0  rtc.o(i.GT_GET_RTC)
    i.GetCheck                               0x08002ed8   Section        0  app_flash.o(i.GetCheck)
    i.GetClibrationDiff_Current              0x08002f38   Section        0  app_current.o(i.GetClibrationDiff_Current)
    i.GetFactor_Cali_CHG                     0x08002f44   Section        0  app_soc.o(i.GetFactor_Cali_CHG)
    i.GetFactor_Cali_DSG                     0x08003008   Section        0  app_soc.o(i.GetFactor_Cali_DSG)
    i.GetFactor_Cali_DSGTempCoeff            0x08003104   Section        0  app_soc.o(i.GetFactor_Cali_DSGTempCoeff)
    i.GetPage                                0x08003134   Section        0  flash.o(i.GetPage)
    i.Get_Percent                            0x0800313e   Section        0  app_soc.o(i.Get_Percent)
    i.Get_TableT_Coefficient                 0x08003164   Section        0  app_soc.o(i.Get_TableT_Coefficient)
    i.Get_TableV_SOC                         0x080031e8   Section        0  app_soc.o(i.Get_TableV_SOC)
    i.HAL_FLASHEx_Erase                      0x08003288   Section        0  flash.o(i.HAL_FLASHEx_Erase)
    i.HAL_FLASH_Lock                         0x080032e4   Section        0  flash.o(i.HAL_FLASH_Lock)
    i.HAL_FLASH_Program                      0x08003300   Section        0  flash.o(i.HAL_FLASH_Program)
    i.HAL_FLASH_Unlock                       0x08003344   Section        0  flash.o(i.HAL_FLASH_Unlock)
    i.HardFault_Handler                      0x0800336c   Section        0  stm32g0xx_it.o(i.HardFault_Handler)
    i.Hard_I2C_Init                          0x08003388   Section        0  bsp_hardiic.o(i.Hard_I2C_Init)
    i.I2C2_IRQHandler                        0x0800347c   Section        0  bsp_hardiic_reg.o(i.I2C2_IRQHandler)
    i.I2C_DeviceInit                         0x08003600   Section        0  bsp_hardiic_reg.o(i.I2C_DeviceInit)
    i.JudgeBalance                           0x08003618   Section        0  app_volt.o(i.JudgeBalance)
    i.LED_Ctrl                               0x080036b0   Section        0  app_mos.o(i.LED_Ctrl)
    i.LL_ADC_DeInit                          0x080037a8   Section        0  stm32g0xx_ll_adc.o(i.LL_ADC_DeInit)
    i.LL_ADC_Init                            0x080038c4   Section        0  stm32g0xx_ll_adc.o(i.LL_ADC_Init)
    i.LL_ADC_REG_Init                        0x080038fc   Section        0  stm32g0xx_ll_adc.o(i.LL_ADC_REG_Init)
    i.LL_ADC_SetSamplingTimeCommonChannels   0x08003958   Section        0  adc.o(i.LL_ADC_SetSamplingTimeCommonChannels)
    LL_ADC_SetSamplingTimeCommonChannels     0x08003959   Thumb Code    22  adc.o(i.LL_ADC_SetSamplingTimeCommonChannels)
    i.LL_APB2_GRP1_EnableClock               0x08003970   Section        0  tim.o(i.LL_APB2_GRP1_EnableClock)
    LL_APB2_GRP1_EnableClock                 0x08003971   Thumb Code    18  tim.o(i.LL_APB2_GRP1_EnableClock)
    i.LL_APB2_GRP1_ForceReset                0x08003988   Section        0  stm32g0xx_ll_tim.o(i.LL_APB2_GRP1_ForceReset)
    LL_APB2_GRP1_ForceReset                  0x08003989   Thumb Code    10  stm32g0xx_ll_tim.o(i.LL_APB2_GRP1_ForceReset)
    i.LL_APB2_GRP1_ReleaseReset              0x08003998   Section        0  stm32g0xx_ll_tim.o(i.LL_APB2_GRP1_ReleaseReset)
    LL_APB2_GRP1_ReleaseReset                0x08003999   Thumb Code    10  stm32g0xx_ll_tim.o(i.LL_APB2_GRP1_ReleaseReset)
    i.LL_EXTI_DisableEvent_0_31              0x080039a8   Section        0  gpio.o(i.LL_EXTI_DisableEvent_0_31)
    LL_EXTI_DisableEvent_0_31                0x080039a9   Thumb Code    10  gpio.o(i.LL_EXTI_DisableEvent_0_31)
    i.LL_EXTI_DisableIT_0_31                 0x080039b8   Section        0  gpio.o(i.LL_EXTI_DisableIT_0_31)
    LL_EXTI_DisableIT_0_31                   0x080039b9   Thumb Code    10  gpio.o(i.LL_EXTI_DisableIT_0_31)
    i.LL_EXTI_Init                           0x080039c8   Section        0  stm32g0xx_ll_exti.o(i.LL_EXTI_Init)
    i.LL_EXTI_IsActiveFallingFlag_0_31       0x08003a6c   Section        0  stm32g0xx_it.o(i.LL_EXTI_IsActiveFallingFlag_0_31)
    LL_EXTI_IsActiveFallingFlag_0_31         0x08003a6d   Thumb Code    16  stm32g0xx_it.o(i.LL_EXTI_IsActiveFallingFlag_0_31)
    i.LL_EXTI_IsActiveRisingFlag_0_31        0x08003a80   Section        0  stm32g0xx_it.o(i.LL_EXTI_IsActiveRisingFlag_0_31)
    LL_EXTI_IsActiveRisingFlag_0_31          0x08003a81   Thumb Code    16  stm32g0xx_it.o(i.LL_EXTI_IsActiveRisingFlag_0_31)
    i.LL_EXTI_SetEXTISource                  0x08003a94   Section        0  gpio.o(i.LL_EXTI_SetEXTISource)
    LL_EXTI_SetEXTISource                    0x08003a95   Thumb Code    28  gpio.o(i.LL_EXTI_SetEXTISource)
    i.LL_GPIO_DeInit                         0x08003ab4   Section        0  stm32g0xx_ll_gpio.o(i.LL_GPIO_DeInit)
    i.LL_GPIO_Init                           0x08003b24   Section        0  stm32g0xx_ll_gpio.o(i.LL_GPIO_Init)
    i.LL_GPIO_SetPinMode                     0x08003bcc   Section        0  gpio.o(i.LL_GPIO_SetPinMode)
    LL_GPIO_SetPinMode                       0x08003bcd   Thumb Code    20  gpio.o(i.LL_GPIO_SetPinMode)
    i.LL_I2C_DeInit                          0x08003be0   Section        0  stm32g0xx_ll_i2c.o(i.LL_I2C_DeInit)
    i.LL_IOP_GRP1_EnableClock                0x08003c1c   Section        0  gpio.o(i.LL_IOP_GRP1_EnableClock)
    LL_IOP_GRP1_EnableClock                  0x08003c1d   Thumb Code    18  gpio.o(i.LL_IOP_GRP1_EnableClock)
    i.LL_IOP_GRP1_EnableClock                0x08003c34   Section        0  usart.o(i.LL_IOP_GRP1_EnableClock)
    LL_IOP_GRP1_EnableClock                  0x08003c35   Thumb Code    18  usart.o(i.LL_IOP_GRP1_EnableClock)
    i.LL_IOP_GRP1_ForceReset                 0x08003c4c   Section        0  stm32g0xx_ll_gpio.o(i.LL_IOP_GRP1_ForceReset)
    LL_IOP_GRP1_ForceReset                   0x08003c4d   Thumb Code    10  stm32g0xx_ll_gpio.o(i.LL_IOP_GRP1_ForceReset)
    i.LL_IOP_GRP1_ReleaseReset               0x08003c5c   Section        0  stm32g0xx_ll_gpio.o(i.LL_IOP_GRP1_ReleaseReset)
    LL_IOP_GRP1_ReleaseReset                 0x08003c5d   Thumb Code    10  stm32g0xx_ll_gpio.o(i.LL_IOP_GRP1_ReleaseReset)
    i.LL_Init1msTick                         0x08003c6c   Section        0  stm32g0xx_ll_utils.o(i.LL_Init1msTick)
    i.LL_RCC_GetSystemClocksFreq             0x08003c8c   Section        0  stm32g0xx_ll_rcc.o(i.LL_RCC_GetSystemClocksFreq)
    i.LL_RCC_GetUSARTClockFreq               0x08003ca4   Section        0  stm32g0xx_ll_rcc.o(i.LL_RCC_GetUSARTClockFreq)
    i.LL_RTC_DATE_Config                     0x08003d04   Section        0  stm32g0xx_ll_rtc.o(i.LL_RTC_DATE_Config)
    LL_RTC_DATE_Config                       0x08003d05   Thumb Code    34  stm32g0xx_ll_rtc.o(i.LL_RTC_DATE_Config)
    i.LL_RTC_DATE_Init                       0x08003d2c   Section        0  stm32g0xx_ll_rtc.o(i.LL_RTC_DATE_Init)
    i.LL_RTC_DATE_StructInit                 0x08003dc8   Section        0  stm32g0xx_ll_rtc.o(i.LL_RTC_DATE_StructInit)
    i.LL_RTC_EnterInitMode                   0x08003dd8   Section        0  stm32g0xx_ll_rtc.o(i.LL_RTC_EnterInitMode)
    i.LL_RTC_Init                            0x08003e24   Section        0  stm32g0xx_ll_rtc.o(i.LL_RTC_Init)
    i.LL_RTC_TIME_Config                     0x08003e78   Section        0  stm32g0xx_ll_rtc.o(i.LL_RTC_TIME_Config)
    LL_RTC_TIME_Config                       0x08003e79   Thumb Code    32  stm32g0xx_ll_rtc.o(i.LL_RTC_TIME_Config)
    i.LL_RTC_TIME_Init                       0x08003e9c   Section        0  stm32g0xx_ll_rtc.o(i.LL_RTC_TIME_Init)
    i.LL_RTC_TIME_StructInit                 0x08003f30   Section        0  stm32g0xx_ll_rtc.o(i.LL_RTC_TIME_StructInit)
    i.LL_RTC_WaitForSynchro                  0x08003f3c   Section        0  stm32g0xx_ll_rtc.o(i.LL_RTC_WaitForSynchro)
    i.LL_SetSystemCoreClock                  0x08003fb0   Section        0  stm32g0xx_ll_utils.o(i.LL_SetSystemCoreClock)
    i.LL_TIM_DeInit                          0x08003fbc   Section        0  stm32g0xx_ll_tim.o(i.LL_TIM_DeInit)
    i.LL_TIM_Init                            0x08004030   Section        0  stm32g0xx_ll_tim.o(i.LL_TIM_Init)
    i.LL_USART_ConfigAsyncMode               0x080040a8   Section        0  usart.o(i.LL_USART_ConfigAsyncMode)
    LL_USART_ConfigAsyncMode                 0x080040a9   Thumb Code    20  usart.o(i.LL_USART_ConfigAsyncMode)
    i.LL_USART_Init                          0x080040bc   Section        0  stm32g0xx_ll_usart.o(i.LL_USART_Init)
    i.LL_mDelay                              0x0800419c   Section        0  stm32g0xx_ll_utils.o(i.LL_mDelay)
    i.MOS_Ctrl                               0x080041b8   Section        0  app_mos.o(i.MOS_Ctrl)
    i.MX_ADC1_Init                           0x0800446c   Section        0  adc.o(i.MX_ADC1_Init)
    i.MX_EXTI_Init                           0x080045b4   Section        0  gpio.o(i.MX_EXTI_Init)
    i.MX_GPIO_Init                           0x080046a4   Section        0  gpio.o(i.MX_GPIO_Init)
    i.MX_RTC_Init                            0x08004824   Section        0  rtc.o(i.MX_RTC_Init)
    i.MX_TIM16_Init                          0x080048fc   Section        0  tim.o(i.MX_TIM16_Init)
    i.MX_USART1_UART_Init                    0x08004944   Section        0  usart.o(i.MX_USART1_UART_Init)
    i.MX_USART2_UART_Init                    0x080049f0   Section        0  usart.o(i.MX_USART2_UART_Init)
    i.NMI_Handler                            0x08004ae8   Section        0  stm32g0xx_it.o(i.NMI_Handler)
    i.PendSV_Handler                         0x08004aea   Section        0  stm32g0xx_it.o(i.PendSV_Handler)
    i.Process_100ms_CYC                      0x08004aec   Section        0  app_bms.o(i.Process_100ms_CYC)
    i.Process_500ms_CYC1                     0x08004b7c   Section        0  app_bms.o(i.Process_500ms_CYC1)
    i.RCC_GetHCLKClockFreq                   0x08004bd0   Section        0  stm32g0xx_ll_rcc.o(i.RCC_GetHCLKClockFreq)
    i.RCC_GetPCLK1ClockFreq                  0x08004bf0   Section        0  stm32g0xx_ll_rcc.o(i.RCC_GetPCLK1ClockFreq)
    i.RCC_GetSystemClockFreq                 0x08004c10   Section        0  stm32g0xx_ll_rcc.o(i.RCC_GetSystemClockFreq)
    i.RCC_PLL_GetFreqDomain_SYS              0x08004c4c   Section        0  stm32g0xx_ll_rcc.o(i.RCC_PLL_GetFreqDomain_SYS)
    i.RTC_Bcd2ToByte                         0x08004c8c   Section        0  rtc.o(i.RTC_Bcd2ToByte)
    i.RTC_TAMP_IRQHandler                    0x08004c9c   Section        0  stm32g0xx_it.o(i.RTC_TAMP_IRQHandler)
    i.RealRemainCap_Calibration              0x08004cd4   Section        0  app_soc.o(i.RealRemainCap_Calibration)
    i.RemainCap_Integral                     0x08004d28   Section        0  app_soc.o(i.RemainCap_Integral)
    i.RingBuf_Write                          0x08004db4   Section        0  pcmonitor_protocol.o(i.RingBuf_Write)
    i.SH367309_Config                        0x08004de0   Section        0  bsp_sh367309.o(i.SH367309_Config)
    i.SH367309_I2C_Ack                       0x08004e30   Section        0  bsp_sh367309.o(i.SH367309_I2C_Ack)
    i.SH367309_I2C_NAck                      0x08004e78   Section        0  bsp_sh367309.o(i.SH367309_I2C_NAck)
    i.SH367309_I2C_ReadByte                  0x08004eb2   Section        0  bsp_sh367309.o(i.SH367309_I2C_ReadByte)
    i.SH367309_I2C_SendByte                  0x08004f08   Section        0  bsp_sh367309.o(i.SH367309_I2C_SendByte)
    i.SH367309_I2C_Start                     0x08004f6c   Section        0  bsp_sh367309.o(i.SH367309_I2C_Start)
    i.SH367309_I2C_Stop                      0x08004fbe   Section        0  bsp_sh367309.o(i.SH367309_I2C_Stop)
    i.SH367309_I2C_WaitAck                   0x08004ffa   Section        0  bsp_sh367309.o(i.SH367309_I2C_WaitAck)
    i.SH367309_ReadData                      0x08005048   Section        0  bsp_sh367309.o(i.SH367309_ReadData)
    i.SH367309_ReadRegVal                    0x080050e0   Section        0  bsp_sh367309.o(i.SH367309_ReadRegVal)
    i.SH367309_WriteEEpromData               0x08005104   Section        0  bsp_sh367309.o(i.SH367309_WriteEEpromData)
    i.SH367309_WriteRamData                  0x0800516c   Section        0  bsp_sh367309.o(i.SH367309_WriteRamData)
    i.SHA_EEPROM_Set                         0x080051d4   Section        0  bsp_sh367309.o(i.SHA_EEPROM_Set)
    i.SH_Get_CellTemps                       0x080053b4   Section        0  bsp_sh367309.o(i.SH_Get_CellTemps)
    i.SH_Get_CellVolts                       0x0800542c   Section        0  bsp_sh367309.o(i.SH_Get_CellVolts)
    i.SH_Get_Current                         0x08005464   Section        0  bsp_sh367309.o(i.SH_Get_Current)
    i.SH_MOSCtrl                             0x080054b0   Section        0  bsp_sh367309.o(i.SH_MOSCtrl)
    i.SH_Read_Alarm                          0x080054e8   Section        0  bsp_sh367309.o(i.SH_Read_Alarm)
    i.SH_Reset                               0x080055b8   Section        0  bsp_sh367309.o(i.SH_Reset)
    i.SH_Set_Balance                         0x080055f0   Section        0  bsp_sh367309.o(i.SH_Set_Balance)
    i.SH_Set_CONF                            0x08005608   Section        0  bsp_sh367309.o(i.SH_Set_CONF)
    i.SH_Set_Default                         0x08005644   Section        0  bsp_sh367309.o(i.SH_Set_Default)
    i.SH_Set_IDLE                            0x08005668   Section        0  bsp_sh367309.o(i.SH_Set_IDLE)
    i.SIFProcess                             0x08005688   Section        0  bsp_sifbus.o(i.SIFProcess)
    i.SIF_QueryDataPack                      0x080056f4   Section        0  bsp_sifbus.o(i.SIF_QueryDataPack)
    SIF_QueryDataPack                        0x080056f5   Thumb Code   292  bsp_sifbus.o(i.SIF_QueryDataPack)
    i.SMBUS_DataProcess                      0x0800582c   Section        0  bsp_simiic.o(i.SMBUS_DataProcess)
    i.SUART_Protocol                         0x080059c0   Section        0  bsp_simuart.o(i.SUART_Protocol)
    i.SVC_Handler                            0x08005a1c   Section        0  stm32g0xx_it.o(i.SVC_Handler)
    i.SetWakeUpTimer_IT                      0x08005a20   Section        0  rtc.o(i.SetWakeUpTimer_IT)
    i.SleepCheck                             0x08005a98   Section        0  app_lowpower.o(i.SleepCheck)
    i.Sleep_PinInit                          0x08005c10   Section        0  gpio.o(i.Sleep_PinInit)
    i.Soc_ClrOrSetCtrl                       0x08005ce4   Section        0  app_soc.o(i.Soc_ClrOrSetCtrl)
    i.Soc_Init                               0x08005ee0   Section        0  app_soc.o(i.Soc_Init)
    i.Soft_Delay                             0x08005f80   Section        0  app_bms.o(i.Soft_Delay)
    i.SysParaInit                            0x08005f90   Section        0  app_config.o(i.SysParaInit)
    i.SysTick_Handler                        0x08005fc8   Section        0  stm32g0xx_it.o(i.SysTick_Handler)
    i.SystemClock_Config                     0x0800600c   Section        0  main.o(i.SystemClock_Config)
    i.SystemInit                             0x080060d8   Section        0  system_stm32g0xx.o(i.SystemInit)
    i.TIM14_IRQHandler                       0x080060e8   Section        0  stm32g0xx_it.o(i.TIM14_IRQHandler)
    i.TIM16_IRQHandler                       0x080060f8   Section        0  stm32g0xx_it.o(i.TIM16_IRQHandler)
    i.UART2RxDataPro                         0x08006108   Section        0  bsp_simuart.o(i.UART2RxDataPro)
    i.USART1_IRQHandler                      0x08006144   Section        0  stm32g0xx_it.o(i.USART1_IRQHandler)
    i.USART2_IRQHandler                      0x0800618c   Section        0  stm32g0xx_it.o(i.USART2_IRQHandler)
    i.USART2_SendByte                        0x080061d4   Section        0  usart.o(i.USART2_SendByte)
    i.Update_CellTemps                       0x0800621c   Section        0  app_temprature.o(i.Update_CellTemps)
    i.Update_CellVolt                        0x08006288   Section        0  app_volt.o(i.Update_CellVolt)
    i.Update_Current                         0x08006310   Section        0  app_current.o(i.Update_Current)
    i.VolFilter                              0x08006334   Section        0  adc.o(i.VolFilter)
    i.__0printf$3                            0x080063dc   Section        0  printf3.o(i.__0printf$3)
    i.__NVIC_EnableIRQ                       0x080063fc   Section        0  gpio.o(i.__NVIC_EnableIRQ)
    __NVIC_EnableIRQ                         0x080063fd   Thumb Code    18  gpio.o(i.__NVIC_EnableIRQ)
    i.__NVIC_EnableIRQ                       0x08006414   Section        0  tim.o(i.__NVIC_EnableIRQ)
    __NVIC_EnableIRQ                         0x08006415   Thumb Code    18  tim.o(i.__NVIC_EnableIRQ)
    i.__NVIC_EnableIRQ                       0x0800642c   Section        0  bsp_hardiic.o(i.__NVIC_EnableIRQ)
    __NVIC_EnableIRQ                         0x0800642d   Thumb Code    18  bsp_hardiic.o(i.__NVIC_EnableIRQ)
    i.__NVIC_SetPriority                     0x08006444   Section        0  gpio.o(i.__NVIC_SetPriority)
    __NVIC_SetPriority                       0x08006445   Thumb Code    60  gpio.o(i.__NVIC_SetPriority)
    i.__NVIC_SetPriority                     0x08006488   Section        0  tim.o(i.__NVIC_SetPriority)
    __NVIC_SetPriority                       0x08006489   Thumb Code    60  tim.o(i.__NVIC_SetPriority)
    i.__NVIC_SetPriority                     0x080064cc   Section        0  bsp_hardiic.o(i.__NVIC_SetPriority)
    __NVIC_SetPriority                       0x080064cd   Thumb Code    60  bsp_hardiic.o(i.__NVIC_SetPriority)
    i.__scatterload_copy                     0x08006510   Section       14  handlers.o(i.__scatterload_copy)
    i.__scatterload_null                     0x0800651e   Section        2  handlers.o(i.__scatterload_null)
    i.__scatterload_zeroinit                 0x08006520   Section       14  handlers.o(i.__scatterload_zeroinit)
    i._printf_core                           0x08006530   Section        0  printf3.o(i._printf_core)
    _printf_core                             0x08006531   Thumb Code   456  printf3.o(i._printf_core)
    i.bsp_init                               0x080066fc   Section        0  main.o(i.bsp_init)
    i.fputc                                  0x08006728   Section        0  usart.o(i.fputc)
    i.isCali_CHG_Enable                      0x08006738   Section        0  app_soc.o(i.isCali_CHG_Enable)
    i.isCali_DSG_Enable                      0x080067dc   Section        0  app_soc.o(i.isCali_DSG_Enable)
    i.isSocInitEnable                        0x080068b0   Section        0  app_soc.o(i.isSocInitEnable)
    i.main                                   0x08006954   Section        0  main.o(i.main)
    i.processavgCurr                         0x08006a78   Section        0  app_bms.o(i.processavgCurr)
    .constdata                               0x08006b3c   Section       48  stm32g0xx_ll_usart.o(.constdata)
    USART_PRESCALER_TAB                      0x08006b3c   Data          48  stm32g0xx_ll_usart.o(.constdata)
    .constdata                               0x08006b6c   Section       64  system_stm32g0xx.o(.constdata)
    .constdata                               0x08006bac   Section       32  system_stm32g0xx.o(.constdata)
    .constdata                               0x08006bcc   Section      322  app_temprature.o(.constdata)
    .constdata                               0x08006d10   Section      524  bsp_sifbus.o(.constdata)
    CrcCcittTable                            0x08006d10   Data         512  bsp_sifbus.o(.constdata)
    .constdata                               0x08006f1c   Section      322  bsp_sh367309.o(.constdata)
    .data                                    0x20000000   Section        4  main.o(.data)
    .data                                    0x20000004   Section        4  adc.o(.data)
    .data                                    0x20000008   Section        4  rtc.o(.data)
    .data                                    0x2000000c   Section        1  rtc.o(.data)
    initFalg                                 0x2000000c   Data           1  rtc.o(.data)
    .data                                    0x20000010   Section        4  usart.o(.data)
    .data                                    0x20000014   Section        4  system_stm32g0xx.o(.data)
    .data                                    0x20000018   Section       52  app_alarm.o(.data)
    .data                                    0x2000004c   Section        3  app_alarm.o(.data)
    .data                                    0x2000004f   Section        3  app_alarm.o(.data)
    .data                                    0x20000054   Section       16  app_bms.o(.data)
    currperiodtime                           0x20000060   Data           4  app_bms.o(.data)
    .data                                    0x20000064   Section        2  app_bms.o(.data)
    .data                                    0x20000066   Section        8  app_current.o(.data)
    sta                                      0x20000066   Data           1  app_current.o(.data)
    chgTime                                  0x20000068   Data           2  app_current.o(.data)
    dsgTime                                  0x2000006a   Data           2  app_current.o(.data)
    SticTime                                 0x2000006c   Data           2  app_current.o(.data)
    .data                                    0x2000006e   Section        6  app_lowpower.o(.data)
    SmallCurrTime                            0x2000006e   Data           1  app_lowpower.o(.data)
    timeout                                  0x2000006f   Data           1  app_lowpower.o(.data)
    timeout                                  0x20000072   Data           2  app_lowpower.o(.data)
    .data                                    0x20000074   Section     1622  app_soc.o(.data)
    DSGCaliFlaG                              0x20000074   Data           1  app_soc.o(.data)
    count_Cyc                                0x20000075   Data           1  app_soc.o(.data)
    SetTimer                                 0x20000076   Data           1  app_soc.o(.data)
    ClearTimer                               0x20000077   Data           1  app_soc.o(.data)
    SOCClrFlag                               0x20000078   Data           1  app_soc.o(.data)
    SOCSetFlag                               0x20000079   Data           1  app_soc.o(.data)
    SetFlagCLrTime                           0x2000007a   Data           1  app_soc.o(.data)
    ClrFlagCLrTime                           0x2000007b   Data           1  app_soc.o(.data)
    timeout                                  0x2000007c   Data           1  app_soc.o(.data)
    chgstat                                  0x2000007d   Data           1  app_soc.o(.data)
    Shotstat                                 0x2000007e   Data           1  app_soc.o(.data)
    UVFalg                                   0x2000007f   Data           1  app_soc.o(.data)
    timeout                                  0x20000082   Data           2  app_soc.o(.data)
    caliFactor                               0x20000084   Data           2  app_soc.o(.data)
    chgTime                                  0x20000086   Data           2  app_soc.o(.data)
    DSGTime                                  0x20000088   Data           2  app_soc.o(.data)
    noShortime                               0x2000008a   Data           2  app_soc.o(.data)
    noUVtime                                 0x2000008c   Data           2  app_soc.o(.data)
    timeout                                  0x2000008e   Data           3  app_soc.o(.data)
    C_TempArr                                0x20000091   Data           4  app_soc.o(.data)
    D_TempArr                                0x20000095   Data           7  app_soc.o(.data)
    K_TempArr                                0x2000009c   Data           8  app_soc.o(.data)
    D_33Region                               0x200000a4   Data         294  app_soc.o(.data)
    D_50Region                               0x200001ca   Data         294  app_soc.o(.data)
    D_100Region                              0x200002f0   Data         294  app_soc.o(.data)
    C_33Region                               0x20000416   Data         168  app_soc.o(.data)
    C_50Region                               0x200004be   Data         168  app_soc.o(.data)
    TempTable                                0x20000566   Data          20  app_soc.o(.data)
    K_Region                                 0x2000057a   Data         336  app_soc.o(.data)
    .data                                    0x200006ca   Section        8  app_mos.o(.data)
    ledVlaue                                 0x200006cc   Data           1  app_mos.o(.data)
    DSG_OpenDelay                            0x200006cd   Data           1  app_mos.o(.data)
    CHG_OpenDelay                            0x200006ce   Data           1  app_mos.o(.data)
    CHG_SmallCurr_time                       0x200006d0   Data           2  app_mos.o(.data)
    .data                                    0x200006d4   Section        4  app_temprature.o(.data)
    .data                                    0x200006d8   Section        6  app_volt.o(.data)
    VoltChargeBigTime                        0x200006d8   Data           1  app_volt.o(.data)
    BalanceAllow                             0x200006d9   Data           1  app_volt.o(.data)
    maxVol_value                             0x200006da   Data           2  app_volt.o(.data)
    minVol_value                             0x200006dc   Data           2  app_volt.o(.data)
    .data                                    0x200006e0   Section       18  bsp_sifbus.o(.data)
    CutCOUNT                                 0x200006e2   Data           1  bsp_sifbus.o(.data)
    AddCOUNT                                 0x200006e3   Data           1  bsp_sifbus.o(.data)
    Show0Flag                                0x200006e4   Data           1  bsp_sifbus.o(.data)
    CMD                                      0x200006e5   Data           1  bsp_sifbus.o(.data)
    Timed                                    0x200006e8   Data           4  bsp_sifbus.o(.data)
    .data                                    0x200006f2   Section      238  pcmonitor_protocol.o(.data)
    TempNum                                  0x200006f2   Data           1  pcmonitor_protocol.o(.data)
    .data                                    0x200007e0   Section        2  bsp_sh367309.o(.data)
    .data                                    0x200007e2   Section        6  bsp_hardiic_reg.o(.data)
    .bss                                     0x200007e8   Section      452  app_bms.o(.bss)
    .bss                                     0x200009ac   Section       80  app_flash.o(.bss)
    .bss                                     0x200009fc   Section      409  bsp_simuart.o(.bss)
    .bss                                     0x20000b96   Section      632  bsp_simiic.o(.bss)
    .bss                                     0x20000e10   Section       56  bsp_hardiic_reg.o(.bss)
    STACK                                    0x20000e48   Section     1024  startup_stm32g030xx.o(STACK)

    Global Symbols

    Symbol Name                              Value     Ov Type        Size  Object(Section)

    BuildAttributes$$THM_ISAv3M$S$PE$A:L22$X:L11$S22$IEEE1$IW$USESV6$~STKCKD$USESV7$~SHL$OSPACE$ROPI$EBA8$MICROLIB$REQ8$PRES8$EABIv2 0x00000000   Number         0  anon$$obj.o ABSOLUTE
    __ARM_use_no_argv                        0x00000000   Number         0  main.o ABSOLUTE
    __use_no_errno                           0x00000000   Number         0  useno.o ABSOLUTE
    __use_no_exception_handling              0x00000000   Number         0  useno.o ABSOLUTE
    __use_no_fp                              0x00000000   Number         0  useno.o ABSOLUTE
    __use_no_heap                            0x00000000   Number         0  useno.o ABSOLUTE
    __use_no_heap_region                     0x00000000   Number         0  useno.o ABSOLUTE
    __use_no_semihosting                     0x00000000   Number         0  useno.o ABSOLUTE
    __use_no_semihosting_swi                 0x00000000   Number         0  useno.o ABSOLUTE
    __use_no_signal_handling                 0x00000000   Number         0  useno.o ABSOLUTE
    _printf_a                                0x00000000   Number         0  stubs.o ABSOLUTE
    _printf_c                                0x00000000   Number         0  stubs.o ABSOLUTE
    _printf_charcount                        0x00000000   Number         0  stubs.o ABSOLUTE
    _printf_d                                0x00000000   Number         0  stubs.o ABSOLUTE
    _printf_e                                0x00000000   Number         0  stubs.o ABSOLUTE
    _printf_f                                0x00000000   Number         0  stubs.o ABSOLUTE
    _printf_flags                            0x00000000   Number         0  stubs.o ABSOLUTE
    _printf_fp_dec                           0x00000000   Number         0  stubs.o ABSOLUTE
    _printf_fp_hex                           0x00000000   Number         0  stubs.o ABSOLUTE
    _printf_g                                0x00000000   Number         0  stubs.o ABSOLUTE
    _printf_i                                0x00000000   Number         0  stubs.o ABSOLUTE
    _printf_int_dec                          0x00000000   Number         0  stubs.o ABSOLUTE
    _printf_l                                0x00000000   Number         0  stubs.o ABSOLUTE
    _printf_lc                               0x00000000   Number         0  stubs.o ABSOLUTE
    _printf_ll                               0x00000000   Number         0  stubs.o ABSOLUTE
    _printf_lld                              0x00000000   Number         0  stubs.o ABSOLUTE
    _printf_lli                              0x00000000   Number         0  stubs.o ABSOLUTE
    _printf_llo                              0x00000000   Number         0  stubs.o ABSOLUTE
    _printf_llu                              0x00000000   Number         0  stubs.o ABSOLUTE
    _printf_llx                              0x00000000   Number         0  stubs.o ABSOLUTE
    _printf_longlong_dec                     0x00000000   Number         0  stubs.o ABSOLUTE
    _printf_longlong_hex                     0x00000000   Number         0  stubs.o ABSOLUTE
    _printf_longlong_oct                     0x00000000   Number         0  stubs.o ABSOLUTE
    _printf_ls                               0x00000000   Number         0  stubs.o ABSOLUTE
    _printf_mbtowc                           0x00000000   Number         0  stubs.o ABSOLUTE
    _printf_n                                0x00000000   Number         0  stubs.o ABSOLUTE
    _printf_o                                0x00000000   Number         0  stubs.o ABSOLUTE
    _printf_p                                0x00000000   Number         0  stubs.o ABSOLUTE
    _printf_percent                          0x00000000   Number         0  stubs.o ABSOLUTE
    _printf_pre_padding                      0x00000000   Number         0  stubs.o ABSOLUTE
    _printf_return_value                     0x00000000   Number         0  stubs.o ABSOLUTE
    _printf_s                                0x00000000   Number         0  stubs.o ABSOLUTE
    _printf_sizespec                         0x00000000   Number         0  stubs.o ABSOLUTE
    _printf_str                              0x00000000   Number         0  stubs.o ABSOLUTE
    _printf_truncate_signed                  0x00000000   Number         0  stubs.o ABSOLUTE
    _printf_truncate_unsigned                0x00000000   Number         0  stubs.o ABSOLUTE
    _printf_u                                0x00000000   Number         0  stubs.o ABSOLUTE
    _printf_wc                               0x00000000   Number         0  stubs.o ABSOLUTE
    _printf_wctomb                           0x00000000   Number         0  stubs.o ABSOLUTE
    _printf_widthprec                        0x00000000   Number         0  stubs.o ABSOLUTE
    _printf_x                                0x00000000   Number         0  stubs.o ABSOLUTE
    __cpp_initialize__aeabi_                  - Undefined Weak Reference
    __cxa_finalize                            - Undefined Weak Reference
    _clock_init                               - Undefined Weak Reference
    _microlib_exit                            - Undefined Weak Reference
    __Vectors_Size                           0x000000c0   Number         0  startup_stm32g030xx.o ABSOLUTE
    __Vectors                                0x08001900   Data           4  startup_stm32g030xx.o(RESET)
    __Vectors_End                            0x080019c0   Data           0  startup_stm32g030xx.o(RESET)
    __main                                   0x080019c1   Thumb Code     0  entry.o(.ARM.Collect$$$$00000000)
    _main_stk                                0x080019c1   Thumb Code     0  entry2.o(.ARM.Collect$$$$00000001)
    _main_scatterload                        0x080019c5   Thumb Code     0  entry5.o(.ARM.Collect$$$$00000004)
    __main_after_scatterload                 0x080019c9   Thumb Code     0  entry5.o(.ARM.Collect$$$$00000004)
    _main_clock                              0x080019c9   Thumb Code     0  entry7b.o(.ARM.Collect$$$$00000008)
    _main_cpp_init                           0x080019c9   Thumb Code     0  entry8b.o(.ARM.Collect$$$$0000000A)
    _main_init                               0x080019c9   Thumb Code     0  entry9a.o(.ARM.Collect$$$$0000000B)
    __rt_final_cpp                           0x080019d1   Thumb Code     0  entry10a.o(.ARM.Collect$$$$0000000D)
    __rt_final_exit                          0x080019d1   Thumb Code     0  entry11a.o(.ARM.Collect$$$$0000000F)
    Reset_Handler                            0x080019d5   Thumb Code     8  startup_stm32g030xx.o(.text)
    ADC1_IRQHandler                          0x080019e7   Thumb Code     0  startup_stm32g030xx.o(.text)
    DMA1_Ch4_5_DMAMUX1_OVR_IRQHandler        0x080019e7   Thumb Code     0  startup_stm32g030xx.o(.text)
    DMA1_Channel1_IRQHandler                 0x080019e7   Thumb Code     0  startup_stm32g030xx.o(.text)
    DMA1_Channel2_3_IRQHandler               0x080019e7   Thumb Code     0  startup_stm32g030xx.o(.text)
    FLASH_IRQHandler                         0x080019e7   Thumb Code     0  startup_stm32g030xx.o(.text)
    I2C1_IRQHandler                          0x080019e7   Thumb Code     0  startup_stm32g030xx.o(.text)
    RCC_IRQHandler                           0x080019e7   Thumb Code     0  startup_stm32g030xx.o(.text)
    SPI1_IRQHandler                          0x080019e7   Thumb Code     0  startup_stm32g030xx.o(.text)
    SPI2_IRQHandler                          0x080019e7   Thumb Code     0  startup_stm32g030xx.o(.text)
    TIM17_IRQHandler                         0x080019e7   Thumb Code     0  startup_stm32g030xx.o(.text)
    TIM1_BRK_UP_TRG_COM_IRQHandler           0x080019e7   Thumb Code     0  startup_stm32g030xx.o(.text)
    TIM1_CC_IRQHandler                       0x080019e7   Thumb Code     0  startup_stm32g030xx.o(.text)
    TIM3_IRQHandler                          0x080019e7   Thumb Code     0  startup_stm32g030xx.o(.text)
    WWDG_IRQHandler                          0x080019e7   Thumb Code     0  startup_stm32g030xx.o(.text)
    __aeabi_uidiv                            0x080019f1   Thumb Code     0  uidiv.o(.text)
    __aeabi_uidivmod                         0x080019f1   Thumb Code    44  uidiv.o(.text)
    __aeabi_idiv                             0x08001a1d   Thumb Code     0  idiv.o(.text)
    __aeabi_idivmod                          0x08001a1d   Thumb Code    40  idiv.o(.text)
    __aeabi_ldivmod                          0x08001a45   Thumb Code    76  ldiv.o(.text)
    __aeabi_lmul                             0x08001a91   Thumb Code   122  llmul.o(.text)
    _ll_mul                                  0x08001a91   Thumb Code     0  llmul.o(.text)
    __aeabi_memset                           0x08001b0b   Thumb Code    14  memseta.o(.text)
    __aeabi_memset4                          0x08001b0b   Thumb Code     0  memseta.o(.text)
    __aeabi_memset8                          0x08001b0b   Thumb Code     0  memseta.o(.text)
    __aeabi_memclr                           0x08001b19   Thumb Code     4  memseta.o(.text)
    __aeabi_memclr4                          0x08001b19   Thumb Code     0  memseta.o(.text)
    __aeabi_memclr8                          0x08001b19   Thumb Code     0  memseta.o(.text)
    _memset$wrapper                          0x08001b1d   Thumb Code    18  memseta.o(.text)
    __aeabi_uread4                           0x08001b2f   Thumb Code    20  uread4.o(.text)
    __rt_uread4                              0x08001b2f   Thumb Code     0  uread4.o(.text)
    _uread4                                  0x08001b2f   Thumb Code     0  uread4.o(.text)
    __aeabi_uwrite4                          0x08001b43   Thumb Code    18  uwrite4.o(.text)
    __rt_uwrite4                             0x08001b43   Thumb Code     0  uwrite4.o(.text)
    _uwrite4                                 0x08001b43   Thumb Code     0  uwrite4.o(.text)
    __aeabi_uldivmod                         0x08001b55   Thumb Code    96  uldiv.o(.text)
    __aeabi_llsl                             0x08001bb5   Thumb Code    32  llshl.o(.text)
    _ll_shift_l                              0x08001bb5   Thumb Code     0  llshl.o(.text)
    __scatterload                            0x08001bd5   Thumb Code    28  init.o(.text)
    __scatterload_rt2                        0x08001bd5   Thumb Code     0  init.o(.text)
    __aeabi_llsr                             0x08001bf9   Thumb Code    34  llushr.o(.text)
    _ll_ushift_r                             0x08001bf9   Thumb Code     0  llushr.o(.text)
    __decompress                             0x08001c1b   Thumb Code     0  __dclz77c.o(.text)
    __decompress2                            0x08001c1b   Thumb Code    96  __dclz77c.o(.text)
    ADC_Calibration                          0x08001c7d   Thumb Code   118  adc.o(i.ADC_Calibration)
    ADC_Disable                              0x08001d05   Thumb Code    32  adc.o(i.ADC_Disable)
    ADC_Enable                               0x08001d2d   Thumb Code    36  adc.o(i.ADC_Enable)
    ADC_GetValue                             0x08001d59   Thumb Code    66  adc.o(i.ADC_GetValue)
    ADC_SelecteChannel                       0x08001da5   Thumb Code    24  adc.o(i.ADC_SelecteChannel)
    ADC_WaitSampleOver                       0x08001dc5   Thumb Code    22  adc.o(i.ADC_WaitSampleOver)
    AlarmCheck                               0x08001de5   Thumb Code   732  app_alarm.o(i.AlarmCheck)
    AlarmFilter                              0x080020f5   Thumb Code    90  app_alarm.o(i.AlarmFilter)
    BalanceCtrl                              0x0800214f   Thumb Code    26  app_volt.o(i.BalanceCtrl)
    BootCmd_Process                          0x08002169   Thumb Code   222  bsp_sifbus.o(i.BootCmd_Process)
    CHGDSG_MOS_CheckOK                       0x08002261   Thumb Code    96  app_alarm.o(i.CHGDSG_MOS_CheckOK)
    CRC8                                     0x080022c9   Thumb Code    52  app_bms.o(i.CRC8)
    CheckFlash                               0x080022fd   Thumb Code    52  app_flash.o(i.CheckFlash)
    Crc16_Calculate                          0x0800233d   Thumb Code    36  bsp_sifbus.o(i.Crc16_Calculate)
    CurrentStateDetect                       0x08002365   Thumb Code   114  app_current.o(i.CurrentStateDetect)
    CycleCount_Init                          0x080023e5   Thumb Code    50  app_soc.o(i.CycleCount_Init)
    Cycle_Integral                           0x08002431   Thumb Code   264  app_soc.o(i.Cycle_Integral)
    DeepSleep                                0x0800255d   Thumb Code    44  app_lowpower.o(i.DeepSleep)
    DeepSleepCheck                           0x0800258d   Thumb Code    76  app_lowpower.o(i.DeepSleepCheck)
    EXTI0_1_IRQHandler                       0x080025e9   Thumb Code    50  stm32g0xx_it.o(i.EXTI0_1_IRQHandler)
    EXTI2_3_IRQHandler                       0x08002625   Thumb Code    34  stm32g0xx_it.o(i.EXTI2_3_IRQHandler)
    EXTI4_15_IRQHandler                      0x0800264d   Thumb Code   180  stm32g0xx_it.o(i.EXTI4_15_IRQHandler)
    Enter_StopMode                           0x08002709   Thumb Code   124  app_lowpower.o(i.Enter_StopMode)
    Enter_Stop_ENable                        0x08002795   Thumb Code    32  app_lowpower.o(i.Enter_Stop_ENable)
    FLASH_WaitForLastOperation               0x080027bd   Thumb Code    90  flash.o(i.FLASH_WaitForLastOperation)
    Find_Adc_Temp                            0x08002825   Thumb Code    52  app_temprature.o(i.Find_Adc_Temp)
    FlashInit                                0x08002861   Thumb Code    24  app_flash.o(i.FlashInit)
    FlashParaSetDefault                      0x08002879   Thumb Code    92  app_flash.o(i.FlashParaSetDefault)
    Flash_ReadPara                           0x080028e1   Thumb Code   384  app_flash.o(i.Flash_ReadPara)
    Flash_WritePara                          0x08002a69   Thumb Code   598  app_flash.o(i.Flash_WritePara)
    GPIO_CloseWEAK_EXTI                      0x08002cc9   Thumb Code    70  gpio.o(i.GPIO_CloseWEAK_EXTI)
    GPIO_ReadPin                             0x08002d0f   Thumb Code    14  gpio.o(i.GPIO_ReadPin)
    GPIO_WritePin                            0x08002d1d   Thumb Code    12  gpio.o(i.GPIO_WritePin)
    GTDS_SIF_process                         0x08002d29   Thumb Code   306  bsp_sifbus.o(i.GTDS_SIF_process)
    GT_GET_RTC                               0x08002e69   Thumb Code   104  rtc.o(i.GT_GET_RTC)
    GetCheck                                 0x08002ed9   Thumb Code    90  app_flash.o(i.GetCheck)
    GetClibrationDiff_Current                0x08002f39   Thumb Code    10  app_current.o(i.GetClibrationDiff_Current)
    GetFactor_Cali_CHG                       0x08002f45   Thumb Code   184  app_soc.o(i.GetFactor_Cali_CHG)
    GetFactor_Cali_DSG                       0x08003009   Thumb Code   230  app_soc.o(i.GetFactor_Cali_DSG)
    GetFactor_Cali_DSGTempCoeff              0x08003105   Thumb Code    44  app_soc.o(i.GetFactor_Cali_DSGTempCoeff)
    GetPage                                  0x08003135   Thumb Code    10  flash.o(i.GetPage)
    Get_Percent                              0x0800313f   Thumb Code    36  app_soc.o(i.Get_Percent)
    Get_TableT_Coefficient                   0x08003165   Thumb Code   120  app_soc.o(i.Get_TableT_Coefficient)
    Get_TableV_SOC                           0x080031e9   Thumb Code   160  app_soc.o(i.Get_TableV_SOC)
    HAL_FLASHEx_Erase                        0x08003289   Thumb Code    84  flash.o(i.HAL_FLASHEx_Erase)
    HAL_FLASH_Lock                           0x080032e5   Thumb Code    22  flash.o(i.HAL_FLASH_Lock)
    HAL_FLASH_Program                        0x08003301   Thumb Code    64  flash.o(i.HAL_FLASH_Program)
    HAL_FLASH_Unlock                         0x08003345   Thumb Code    28  flash.o(i.HAL_FLASH_Unlock)
    HardFault_Handler                        0x0800336d   Thumb Code    18  stm32g0xx_it.o(i.HardFault_Handler)
    Hard_I2C_Init                            0x08003389   Thumb Code   222  bsp_hardiic.o(i.Hard_I2C_Init)
    I2C2_IRQHandler                          0x0800347d   Thumb Code   368  bsp_hardiic_reg.o(i.I2C2_IRQHandler)
    I2C_DeviceInit                           0x08003601   Thumb Code    14  bsp_hardiic_reg.o(i.I2C_DeviceInit)
    JudgeBalance                             0x08003619   Thumb Code   134  app_volt.o(i.JudgeBalance)
    LED_Ctrl                                 0x080036b1   Thumb Code   204  app_mos.o(i.LED_Ctrl)
    LL_ADC_DeInit                            0x080037a9   Thumb Code   260  stm32g0xx_ll_adc.o(i.LL_ADC_DeInit)
    LL_ADC_Init                              0x080038c5   Thumb Code    52  stm32g0xx_ll_adc.o(i.LL_ADC_Init)
    LL_ADC_REG_Init                          0x080038fd   Thumb Code    86  stm32g0xx_ll_adc.o(i.LL_ADC_REG_Init)
    LL_EXTI_Init                             0x080039c9   Thumb Code   160  stm32g0xx_ll_exti.o(i.LL_EXTI_Init)
    LL_GPIO_DeInit                           0x08003ab5   Thumb Code    96  stm32g0xx_ll_gpio.o(i.LL_GPIO_DeInit)
    LL_GPIO_Init                             0x08003b25   Thumb Code   168  stm32g0xx_ll_gpio.o(i.LL_GPIO_Init)
    LL_I2C_DeInit                            0x08003be1   Thumb Code    46  stm32g0xx_ll_i2c.o(i.LL_I2C_DeInit)
    LL_Init1msTick                           0x08003c6d   Thumb Code    26  stm32g0xx_ll_utils.o(i.LL_Init1msTick)
    LL_RCC_GetSystemClocksFreq               0x08003c8d   Thumb Code    24  stm32g0xx_ll_rcc.o(i.LL_RCC_GetSystemClocksFreq)
    LL_RCC_GetUSARTClockFreq                 0x08003ca5   Thumb Code    88  stm32g0xx_ll_rcc.o(i.LL_RCC_GetUSARTClockFreq)
    LL_RTC_DATE_Init                         0x08003d2d   Thumb Code   150  stm32g0xx_ll_rtc.o(i.LL_RTC_DATE_Init)
    LL_RTC_DATE_StructInit                   0x08003dc9   Thumb Code    14  stm32g0xx_ll_rtc.o(i.LL_RTC_DATE_StructInit)
    LL_RTC_EnterInitMode                     0x08003dd9   Thumb Code    70  stm32g0xx_ll_rtc.o(i.LL_RTC_EnterInitMode)
    LL_RTC_Init                              0x08003e25   Thumb Code    82  stm32g0xx_ll_rtc.o(i.LL_RTC_Init)
    LL_RTC_TIME_Init                         0x08003e9d   Thumb Code   144  stm32g0xx_ll_rtc.o(i.LL_RTC_TIME_Init)
    LL_RTC_TIME_StructInit                   0x08003f31   Thumb Code    12  stm32g0xx_ll_rtc.o(i.LL_RTC_TIME_StructInit)
    LL_RTC_WaitForSynchro                    0x08003f3d   Thumb Code   110  stm32g0xx_ll_rtc.o(i.LL_RTC_WaitForSynchro)
    LL_SetSystemCoreClock                    0x08003fb1   Thumb Code     6  stm32g0xx_ll_utils.o(i.LL_SetSystemCoreClock)
    LL_TIM_DeInit                            0x08003fbd   Thumb Code    90  stm32g0xx_ll_tim.o(i.LL_TIM_DeInit)
    LL_TIM_Init                              0x08004031   Thumb Code    98  stm32g0xx_ll_tim.o(i.LL_TIM_Init)
    LL_USART_Init                            0x080040bd   Thumb Code   204  stm32g0xx_ll_usart.o(i.LL_USART_Init)
    LL_mDelay                                0x0800419d   Thumb Code    24  stm32g0xx_ll_utils.o(i.LL_mDelay)
    MOS_Ctrl                                 0x080041b9   Thumb Code   628  app_mos.o(i.MOS_Ctrl)
    MX_ADC1_Init                             0x0800446d   Thumb Code   292  adc.o(i.MX_ADC1_Init)
    MX_EXTI_Init                             0x080045b5   Thumb Code   224  gpio.o(i.MX_EXTI_Init)
    MX_GPIO_Init                             0x080046a5   Thumb Code   366  gpio.o(i.MX_GPIO_Init)
    MX_RTC_Init                              0x08004825   Thumb Code   190  rtc.o(i.MX_RTC_Init)
    MX_TIM16_Init                            0x080048fd   Thumb Code    66  tim.o(i.MX_TIM16_Init)
    MX_USART1_UART_Init                      0x08004945   Thumb Code   164  usart.o(i.MX_USART1_UART_Init)
    MX_USART2_UART_Init                      0x080049f1   Thumb Code   232  usart.o(i.MX_USART2_UART_Init)
    NMI_Handler                              0x08004ae9   Thumb Code     2  stm32g0xx_it.o(i.NMI_Handler)
    PendSV_Handler                           0x08004aeb   Thumb Code     2  stm32g0xx_it.o(i.PendSV_Handler)
    Process_100ms_CYC                        0x08004aed   Thumb Code   124  app_bms.o(i.Process_100ms_CYC)
    Process_500ms_CYC1                       0x08004b7d   Thumb Code    74  app_bms.o(i.Process_500ms_CYC1)
    RCC_GetHCLKClockFreq                     0x08004bd1   Thumb Code    24  stm32g0xx_ll_rcc.o(i.RCC_GetHCLKClockFreq)
    RCC_GetPCLK1ClockFreq                    0x08004bf1   Thumb Code    22  stm32g0xx_ll_rcc.o(i.RCC_GetPCLK1ClockFreq)
    RCC_GetSystemClockFreq                   0x08004c11   Thumb Code    46  stm32g0xx_ll_rcc.o(i.RCC_GetSystemClockFreq)
    RCC_PLL_GetFreqDomain_SYS                0x08004c4d   Thumb Code    56  stm32g0xx_ll_rcc.o(i.RCC_PLL_GetFreqDomain_SYS)
    RTC_Bcd2ToByte                           0x08004c8d   Thumb Code    16  rtc.o(i.RTC_Bcd2ToByte)
    RTC_TAMP_IRQHandler                      0x08004c9d   Thumb Code    46  stm32g0xx_it.o(i.RTC_TAMP_IRQHandler)
    RealRemainCap_Calibration                0x08004cd5   Thumb Code    76  app_soc.o(i.RealRemainCap_Calibration)
    RemainCap_Integral                       0x08004d29   Thumb Code   128  app_soc.o(i.RemainCap_Integral)
    RingBuf_Write                            0x08004db5   Thumb Code    40  pcmonitor_protocol.o(i.RingBuf_Write)
    SH367309_Config                          0x08004de1   Thumb Code    74  bsp_sh367309.o(i.SH367309_Config)
    SH367309_I2C_Ack                         0x08004e31   Thumb Code    72  bsp_sh367309.o(i.SH367309_I2C_Ack)
    SH367309_I2C_NAck                        0x08004e79   Thumb Code    58  bsp_sh367309.o(i.SH367309_I2C_NAck)
    SH367309_I2C_ReadByte                    0x08004eb3   Thumb Code    86  bsp_sh367309.o(i.SH367309_I2C_ReadByte)
    SH367309_I2C_SendByte                    0x08004f09   Thumb Code   100  bsp_sh367309.o(i.SH367309_I2C_SendByte)
    SH367309_I2C_Start                       0x08004f6d   Thumb Code    82  bsp_sh367309.o(i.SH367309_I2C_Start)
    SH367309_I2C_Stop                        0x08004fbf   Thumb Code    60  bsp_sh367309.o(i.SH367309_I2C_Stop)
    SH367309_I2C_WaitAck                     0x08004ffb   Thumb Code    78  bsp_sh367309.o(i.SH367309_I2C_WaitAck)
    SH367309_ReadData                        0x08005049   Thumb Code   152  bsp_sh367309.o(i.SH367309_ReadData)
    SH367309_ReadRegVal                      0x080050e1   Thumb Code    34  bsp_sh367309.o(i.SH367309_ReadRegVal)
    SH367309_WriteEEpromData                 0x08005105   Thumb Code   100  bsp_sh367309.o(i.SH367309_WriteEEpromData)
    SH367309_WriteRamData                    0x0800516d   Thumb Code   100  bsp_sh367309.o(i.SH367309_WriteRamData)
    SHA_EEPROM_Set                           0x080051d5   Thumb Code   446  bsp_sh367309.o(i.SHA_EEPROM_Set)
    SH_Get_CellTemps                         0x080053b5   Thumb Code   112  bsp_sh367309.o(i.SH_Get_CellTemps)
    SH_Get_CellVolts                         0x0800542d   Thumb Code    56  bsp_sh367309.o(i.SH_Get_CellVolts)
    SH_Get_Current                           0x08005465   Thumb Code    66  bsp_sh367309.o(i.SH_Get_Current)
    SH_MOSCtrl                               0x080054b1   Thumb Code    50  bsp_sh367309.o(i.SH_MOSCtrl)
    SH_Read_Alarm                            0x080054e9   Thumb Code   194  bsp_sh367309.o(i.SH_Read_Alarm)
    SH_Reset                                 0x080055b9   Thumb Code    52  bsp_sh367309.o(i.SH_Reset)
    SH_Set_Balance                           0x080055f1   Thumb Code    22  bsp_sh367309.o(i.SH_Set_Balance)
    SH_Set_CONF                              0x08005609   Thumb Code    56  bsp_sh367309.o(i.SH_Set_CONF)
    SH_Set_Default                           0x08005645   Thumb Code    30  bsp_sh367309.o(i.SH_Set_Default)
    SH_Set_IDLE                              0x08005669   Thumb Code    26  bsp_sh367309.o(i.SH_Set_IDLE)
    SIFProcess                               0x08005689   Thumb Code    94  bsp_sifbus.o(i.SIFProcess)
    SMBUS_DataProcess                        0x0800582d   Thumb Code   356  bsp_simiic.o(i.SMBUS_DataProcess)
    SUART_Protocol                           0x080059c1   Thumb Code    82  bsp_simuart.o(i.SUART_Protocol)
    SVC_Handler                              0x08005a1d   Thumb Code     2  stm32g0xx_it.o(i.SVC_Handler)
    SetWakeUpTimer_IT                        0x08005a21   Thumb Code   106  rtc.o(i.SetWakeUpTimer_IT)
    SleepCheck                               0x08005a99   Thumb Code   342  app_lowpower.o(i.SleepCheck)
    Sleep_PinInit                            0x08005c11   Thumb Code   178  gpio.o(i.Sleep_PinInit)
    Soc_ClrOrSetCtrl                         0x08005ce5   Thumb Code   400  app_soc.o(i.Soc_ClrOrSetCtrl)
    Soc_Init                                 0x08005ee1   Thumb Code   140  app_soc.o(i.Soc_Init)
    Soft_Delay                               0x08005f81   Thumb Code    16  app_bms.o(i.Soft_Delay)
    SysParaInit                              0x08005f91   Thumb Code    38  app_config.o(i.SysParaInit)
    SysTick_Handler                          0x08005fc9   Thumb Code    50  stm32g0xx_it.o(i.SysTick_Handler)
    SystemClock_Config                       0x0800600d   Thumb Code   188  main.o(i.SystemClock_Config)
    SystemInit                               0x080060d9   Thumb Code     8  system_stm32g0xx.o(i.SystemInit)
    TIM14_IRQHandler                         0x080060e9   Thumb Code    10  stm32g0xx_it.o(i.TIM14_IRQHandler)
    TIM16_IRQHandler                         0x080060f9   Thumb Code    10  stm32g0xx_it.o(i.TIM16_IRQHandler)
    UART2RxDataPro                           0x08006109   Thumb Code    52  bsp_simuart.o(i.UART2RxDataPro)
    USART1_IRQHandler                        0x08006145   Thumb Code    62  stm32g0xx_it.o(i.USART1_IRQHandler)
    USART2_IRQHandler                        0x0800618d   Thumb Code    62  stm32g0xx_it.o(i.USART2_IRQHandler)
    USART2_SendByte                          0x080061d5   Thumb Code    60  usart.o(i.USART2_SendByte)
    Update_CellTemps                         0x0800621d   Thumb Code   100  app_temprature.o(i.Update_CellTemps)
    Update_CellVolt                          0x08006289   Thumb Code   122  app_volt.o(i.Update_CellVolt)
    Update_Current                           0x08006311   Thumb Code    30  app_current.o(i.Update_Current)
    VolFilter                                0x08006335   Thumb Code   168  adc.o(i.VolFilter)
    __0printf$3                              0x080063dd   Thumb Code    24  printf3.o(i.__0printf$3)
    __1printf$3                              0x080063dd   Thumb Code     0  printf3.o(i.__0printf$3)
    __2printf                                0x080063dd   Thumb Code     0  printf3.o(i.__0printf$3)
    __scatterload_copy                       0x08006511   Thumb Code    14  handlers.o(i.__scatterload_copy)
    __scatterload_null                       0x0800651f   Thumb Code     2  handlers.o(i.__scatterload_null)
    __scatterload_zeroinit                   0x08006521   Thumb Code    14  handlers.o(i.__scatterload_zeroinit)
    bsp_init                                 0x080066fd   Thumb Code    42  main.o(i.bsp_init)
    fputc                                    0x08006729   Thumb Code    12  usart.o(i.fputc)
    isCali_CHG_Enable                        0x08006739   Thumb Code   146  app_soc.o(i.isCali_CHG_Enable)
    isCali_DSG_Enable                        0x080067dd   Thumb Code   186  app_soc.o(i.isCali_DSG_Enable)
    isSocInitEnable                          0x080068b1   Thumb Code   138  app_soc.o(i.isSocInitEnable)
    main                                     0x08006955   Thumb Code   258  main.o(i.main)
    processavgCurr                           0x08006a79   Thumb Code   188  app_bms.o(i.processavgCurr)
    AHBPrescTable                            0x08006b6c   Data          64  system_stm32g0xx.o(.constdata)
    APBPrescTable                            0x08006bac   Data          32  system_stm32g0xx.o(.constdata)
    Pos5vNTC3380AdTempTABLE                  0x08006bcc   Data         322  app_temprature.o(.constdata)
    SH_TEMP_TABLE                            0x08006f1c   Data         322  bsp_sh367309.o(.constdata)
    Region$$Table$$Base                      0x08007060   Number         0  anon$$obj.o(Region$$Table)
    Region$$Table$$Limit                     0x08007080   Number         0  anon$$obj.o(Region$$Table)
    systickCount                             0x20000000   Data           4  main.o(.data)
    ADC_VREFINT_CAL                          0x20000004   Data           2  adc.o(.data)
    ADC_VREFINT_DATA                         0x20000006   Data           2  adc.o(.data)
    NowTime                                  0x20000008   Data           4  rtc.o(.data)
    __stdout                                 0x20000010   Data           4  usart.o(.data)
    SystemCoreClock                          0x20000014   Data           4  system_stm32g0xx.o(.data)
    userAlarm                                0x20000018   Data           2  app_alarm.o(.data)
    shAlarm                                  0x2000001a   Data           2  app_alarm.o(.data)
    O_V                                      0x2000001c   Data           3  app_alarm.o(.data)
    O_TV                                     0x2000001f   Data           3  app_alarm.o(.data)
    U_TV                                     0x20000022   Data           3  app_alarm.o(.data)
    O_V_3750                                 0x20000025   Data           3  app_alarm.o(.data)
    U_V_2700                                 0x20000028   Data           3  app_alarm.o(.data)
    U_V_2300                                 0x2000002b   Data           3  app_alarm.o(.data)
    U_V_1500                                 0x2000002e   Data           3  app_alarm.o(.data)
    O_T_M                                    0x20000031   Data           3  app_alarm.o(.data)
    O_T_C                                    0x20000034   Data           3  app_alarm.o(.data)
    O_T_D                                    0x20000037   Data           3  app_alarm.o(.data)
    U_T_C                                    0x2000003a   Data           3  app_alarm.o(.data)
    U_T_D                                    0x2000003d   Data           3  app_alarm.o(.data)
    C_M_E                                    0x20000040   Data           3  app_alarm.o(.data)
    D_M_E                                    0x20000043   Data           3  app_alarm.o(.data)
    C_O_C                                    0x20000046   Data           3  app_alarm.o(.data)
    D_O_C                                    0x20000049   Data           3  app_alarm.o(.data)
    D_O_C2                                   0x2000004c   Data           3  app_alarm.o(.data)
    S_C_D                                    0x2000004f   Data           3  app_alarm.o(.data)
    avg20currcount                           0x20000054   Data           1  app_bms.o(.data)
    avg30currcount                           0x20000055   Data           1  app_bms.o(.data)
    avgcurr30add                             0x20000058   Data           4  app_bms.o(.data)
    avgcurr20add                             0x2000005c   Data           4  app_bms.o(.data)
    sysflag                                  0x20000064   Data           2  app_bms.o(.data)
    deepSleepFlag                            0x20000070   Data           1  app_lowpower.o(.data)
    CutCapValue                              0x20000080   Data           2  app_soc.o(.data)
    Ctrl_CH_FET                              0x200006ca   Data           1  app_mos.o(.data)
    Ctrl_DS_FET                              0x200006cb   Data           1  app_mos.o(.data)
    tbTempCnt                                0x200006d4   Data           4  app_temprature.o(.data)
    SHOWSOC                                  0x200006e0   Data           1  bsp_sifbus.o(.data)
    BootFlag                                 0x200006e1   Data           1  bsp_sifbus.o(.data)
    SIFBUSData                               0x200006ec   Data           6  bsp_sifbus.o(.data)
    RS485Buf                                 0x200006f4   Data         208  pcmonitor_protocol.o(.data)
    VolNum_Ture                              0x200007c4   Data          28  pcmonitor_protocol.o(.data)
    SHTempCoeff                              0x200007e0   Data           1  bsp_sh367309.o(.data)
    CONF_Reg                                 0x200007e1   Data           1  bsp_sh367309.o(.data)
    i2c_sendcount                            0x200007e2   Data           1  bsp_hardiic_reg.o(.data)
    I2C_DEVICE_REGADDRESS                    0x200007e3   Data           1  bsp_hardiic_reg.o(.data)
    g_Receivecount                           0x200007e4   Data           1  bsp_hardiic_reg.o(.data)
    g_ReceiveBuff_pui                        0x200007e5   Data           3  bsp_hardiic_reg.o(.data)
    Temp20curr                               0x200007e8   Data          40  app_bms.o(.bss)
    Temp30curr                               0x20000810   Data         240  app_bms.o(.bss)
    syspara                                  0x20000900   Data         172  app_bms.o(.bss)
    flashpara                                0x200009ac   Data          80  app_flash.o(.bss)
    SUartInfo                                0x200009fc   Data         409  bsp_simuart.o(.bss)
    SysRegData                               0x20000b96   Data         512  bsp_simiic.o(.bss)
    SysReg_Type                              0x20000d96   Data          40  bsp_simiic.o(.bss)
    SysReg_VF                                0x20000dbe   Data          40  bsp_simiic.o(.bss)
    SysReg_VH                                0x20000de6   Data          40  bsp_simiic.o(.bss)
    i2c_dev                                  0x20000e10   Data          16  bsp_hardiic_reg.o(.bss)
    IIC_TEST_ISRcount                        0x20000e20   Data          40  bsp_hardiic_reg.o(.bss)
    __initial_sp                             0x20001248   Data           0  startup_stm32g030xx.o(STACK)



==============================================================================

Memory Map of the image

  Image Entry point : 0x080019c1

  Load Region LR_IROM1 (Base: 0x080018f8, Size: 0x00005f70, Max: 0x00010000, ABSOLUTE, COMPRESSED[0x00005d80])

    Execution Region ER_IROM1 (Exec base: 0x080018f8, Load base: 0x080018f8, Size: 0x00005788, Max: 0x00010000, ABSOLUTE)

    Exec Addr    Load Addr    Size         Type   Attr      Idx    E Section Name        Object

    0x080018f8   0x080018f8   0x00000008   Data   RO           17    .ARM.__AT_0x080018F8  main.o
    0x08001900   0x08001900   0x000000c0   Data   RO            3    RESET               startup_stm32g030xx.o
    0x080019c0   0x080019c0   0x00000000   Code   RO         2630  * .ARM.Collect$$$$00000000  mc_p.l(entry.o)
    0x080019c0   0x080019c0   0x00000004   Code   RO         2910    .ARM.Collect$$$$00000001  mc_p.l(entry2.o)
    0x080019c4   0x080019c4   0x00000004   Code   RO         2913    .ARM.Collect$$$$00000004  mc_p.l(entry5.o)
    0x080019c8   0x080019c8   0x00000000   Code   RO         2915    .ARM.Collect$$$$00000008  mc_p.l(entry7b.o)
    0x080019c8   0x080019c8   0x00000000   Code   RO         2917    .ARM.Collect$$$$0000000A  mc_p.l(entry8b.o)
    0x080019c8   0x080019c8   0x00000008   Code   RO         2918    .ARM.Collect$$$$0000000B  mc_p.l(entry9a.o)
    0x080019d0   0x080019d0   0x00000000   Code   RO         2920    .ARM.Collect$$$$0000000D  mc_p.l(entry10a.o)
    0x080019d0   0x080019d0   0x00000000   Code   RO         2922    .ARM.Collect$$$$0000000F  mc_p.l(entry11a.o)
    0x080019d0   0x080019d0   0x00000004   Code   RO         2911    .ARM.Collect$$$$00002712  mc_p.l(entry2.o)
    0x080019d4   0x080019d4   0x0000001c   Code   RO            4    .text               startup_stm32g030xx.o
    0x080019f0   0x080019f0   0x0000002c   Code   RO         2633    .text               mc_p.l(uidiv.o)
    0x08001a1c   0x08001a1c   0x00000028   Code   RO         2635    .text               mc_p.l(idiv.o)
    0x08001a44   0x08001a44   0x0000004c   Code   RO         2637    .text               mc_p.l(ldiv.o)
    0x08001a90   0x08001a90   0x0000007a   Code   RO         2639    .text               mc_p.l(llmul.o)
    0x08001b0a   0x08001b0a   0x00000024   Code   RO         2641    .text               mc_p.l(memseta.o)
    0x08001b2e   0x08001b2e   0x00000014   Code   RO         2906    .text               mc_p.l(uread4.o)
    0x08001b42   0x08001b42   0x00000012   Code   RO         2908    .text               mc_p.l(uwrite4.o)
    0x08001b54   0x08001b54   0x00000060   Code   RO         2924    .text               mc_p.l(uldiv.o)
    0x08001bb4   0x08001bb4   0x00000020   Code   RO         2926    .text               mc_p.l(llshl.o)
    0x08001bd4   0x08001bd4   0x00000024   Code   RO         2939    .text               mc_p.l(init.o)
    0x08001bf8   0x08001bf8   0x00000022   Code   RO         2941    .text               mc_p.l(llushr.o)
    0x08001c1a   0x08001c1a   0x00000060   Code   RO         2957    .text               mc_p.l(__dclz77c.o)
    0x08001c7a   0x08001c7a   0x00000002   PAD
    0x08001c7c   0x08001c7c   0x00000088   Code   RO          368    i.ADC_Calibration   adc.o
    0x08001d04   0x08001d04   0x00000028   Code   RO          369    i.ADC_Disable       adc.o
    0x08001d2c   0x08001d2c   0x0000002c   Code   RO          370    i.ADC_Enable        adc.o
    0x08001d58   0x08001d58   0x0000004c   Code   RO          371    i.ADC_GetValue      adc.o
    0x08001da4   0x08001da4   0x00000020   Code   RO          372    i.ADC_SelecteChannel  adc.o
    0x08001dc4   0x08001dc4   0x00000020   Code   RO          373    i.ADC_WaitSampleOver  adc.o
    0x08001de4   0x08001de4   0x00000310   Code   RO         1617    i.AlarmCheck        app_alarm.o
    0x080020f4   0x080020f4   0x0000005a   Code   RO         1618    i.AlarmFilter       app_alarm.o
    0x0800214e   0x0800214e   0x0000001a   Code   RO         2073    i.BalanceCtrl       app_volt.o
    0x08002168   0x08002168   0x000000f8   Code   RO         2115    i.BootCmd_Process   bsp_sifbus.o
    0x08002260   0x08002260   0x00000068   Code   RO         1619    i.CHGDSG_MOS_CheckOK  app_alarm.o
    0x080022c8   0x080022c8   0x00000034   Code   RO         1657    i.CRC8              app_bms.o
    0x080022fc   0x080022fc   0x00000040   Code   RO         1827    i.CheckFlash        app_flash.o
    0x0800233c   0x0800233c   0x00000028   Code   RO         2117    i.Crc16_Calculate   bsp_sifbus.o
    0x08002364   0x08002364   0x00000080   Code   RO         1735    i.CurrentStateDetect  app_current.o
    0x080023e4   0x080023e4   0x0000004c   Code   RO         1883    i.CycleCount_Init   app_soc.o
    0x08002430   0x08002430   0x0000012c   Code   RO         1884    i.Cycle_Integral    app_soc.o
    0x0800255c   0x0800255c   0x00000030   Code   RO         1768    i.DeepSleep         app_lowpower.o
    0x0800258c   0x0800258c   0x0000005c   Code   RO         1769    i.DeepSleepCheck    app_lowpower.o
    0x080025e8   0x080025e8   0x0000003c   Code   RO          667    i.EXTI0_1_IRQHandler  stm32g0xx_it.o
    0x08002624   0x08002624   0x00000028   Code   RO          668    i.EXTI2_3_IRQHandler  stm32g0xx_it.o
    0x0800264c   0x0800264c   0x000000bc   Code   RO          669    i.EXTI4_15_IRQHandler  stm32g0xx_it.o
    0x08002708   0x08002708   0x0000008c   Code   RO         1770    i.Enter_StopMode    app_lowpower.o
    0x08002794   0x08002794   0x00000028   Code   RO         1771    i.Enter_Stop_ENable  app_lowpower.o
    0x080027bc   0x080027bc   0x00000068   Code   RO          790    i.FLASH_WaitForLastOperation  flash.o
    0x08002824   0x08002824   0x0000003c   Code   RO         2034    i.Find_Adc_Temp     app_temprature.o
    0x08002860   0x08002860   0x00000018   Code   RO         1828    i.FlashInit         app_flash.o
    0x08002878   0x08002878   0x00000068   Code   RO         1829    i.FlashParaSetDefault  app_flash.o
    0x080028e0   0x080028e0   0x00000188   Code   RO         1830    i.Flash_ReadPara    app_flash.o
    0x08002a68   0x08002a68   0x00000260   Code   RO         1831    i.Flash_WritePara   app_flash.o
    0x08002cc8   0x08002cc8   0x00000046   Code   RO          238    i.GPIO_CloseWEAK_EXTI  gpio.o
    0x08002d0e   0x08002d0e   0x0000000e   Code   RO          240    i.GPIO_ReadPin      gpio.o
    0x08002d1c   0x08002d1c   0x0000000c   Code   RO          241    i.GPIO_WritePin     gpio.o
    0x08002d28   0x08002d28   0x00000140   Code   RO         2119    i.GTDS_SIF_process  bsp_sifbus.o
    0x08002e68   0x08002e68   0x00000070   Code   RO          454    i.GT_GET_RTC        rtc.o
    0x08002ed8   0x08002ed8   0x00000060   Code   RO         1832    i.GetCheck          app_flash.o
    0x08002f38   0x08002f38   0x0000000a   Code   RO         1736    i.GetClibrationDiff_Current  app_current.o
    0x08002f42   0x08002f42   0x00000002   PAD
    0x08002f44   0x08002f44   0x000000c4   Code   RO         1885    i.GetFactor_Cali_CHG  app_soc.o
    0x08003008   0x08003008   0x000000fc   Code   RO         1886    i.GetFactor_Cali_DSG  app_soc.o
    0x08003104   0x08003104   0x00000030   Code   RO         1887    i.GetFactor_Cali_DSGTempCoeff  app_soc.o
    0x08003134   0x08003134   0x0000000a   Code   RO          791    i.GetPage           flash.o
    0x0800313e   0x0800313e   0x00000024   Code   RO         1889    i.Get_Percent       app_soc.o
    0x08003162   0x08003162   0x00000002   PAD
    0x08003164   0x08003164   0x00000084   Code   RO         1890    i.Get_TableT_Coefficient  app_soc.o
    0x080031e8   0x080031e8   0x000000a0   Code   RO         1891    i.Get_TableV_SOC    app_soc.o
    0x08003288   0x08003288   0x0000005c   Code   RO          792    i.HAL_FLASHEx_Erase  flash.o
    0x080032e4   0x080032e4   0x0000001c   Code   RO          793    i.HAL_FLASH_Lock    flash.o
    0x08003300   0x08003300   0x00000044   Code   RO          794    i.HAL_FLASH_Program  flash.o
    0x08003344   0x08003344   0x00000028   Code   RO          795    i.HAL_FLASH_Unlock  flash.o
    0x0800336c   0x0800336c   0x0000001c   Code   RO          670    i.HardFault_Handler  stm32g0xx_it.o
    0x08003388   0x08003388   0x000000f4   Code   RO         2541    i.Hard_I2C_Init     bsp_hardiic.o
    0x0800347c   0x0800347c   0x00000184   Code   RO         2582    i.I2C2_IRQHandler   bsp_hardiic_reg.o
    0x08003600   0x08003600   0x00000018   Code   RO         2583    i.I2C_DeviceInit    bsp_hardiic_reg.o
    0x08003618   0x08003618   0x00000098   Code   RO         2074    i.JudgeBalance      app_volt.o
    0x080036b0   0x080036b0   0x000000f8   Code   RO         2005    i.LED_Ctrl          app_mos.o
    0x080037a8   0x080037a8   0x0000011c   Code   RO         1030    i.LL_ADC_DeInit     stm32g0xx_ll_adc.o
    0x080038c4   0x080038c4   0x00000038   Code   RO         1031    i.LL_ADC_Init       stm32g0xx_ll_adc.o
    0x080038fc   0x080038fc   0x0000005c   Code   RO         1032    i.LL_ADC_REG_Init   stm32g0xx_ll_adc.o
    0x08003958   0x08003958   0x00000016   Code   RO          374    i.LL_ADC_SetSamplingTimeCommonChannels  adc.o
    0x0800396e   0x0800396e   0x00000002   PAD
    0x08003970   0x08003970   0x00000018   Code   RO          523    i.LL_APB2_GRP1_EnableClock  tim.o
    0x08003988   0x08003988   0x00000010   Code   RO         1376    i.LL_APB2_GRP1_ForceReset  stm32g0xx_ll_tim.o
    0x08003998   0x08003998   0x00000010   Code   RO         1377    i.LL_APB2_GRP1_ReleaseReset  stm32g0xx_ll_tim.o
    0x080039a8   0x080039a8   0x00000010   Code   RO          242    i.LL_EXTI_DisableEvent_0_31  gpio.o
    0x080039b8   0x080039b8   0x00000010   Code   RO          243    i.LL_EXTI_DisableIT_0_31  gpio.o
    0x080039c8   0x080039c8   0x000000a4   Code   RO          945    i.LL_EXTI_Init      stm32g0xx_ll_exti.o
    0x08003a6c   0x08003a6c   0x00000014   Code   RO          671    i.LL_EXTI_IsActiveFallingFlag_0_31  stm32g0xx_it.o
    0x08003a80   0x08003a80   0x00000014   Code   RO          672    i.LL_EXTI_IsActiveRisingFlag_0_31  stm32g0xx_it.o
    0x08003a94   0x08003a94   0x00000020   Code   RO          245    i.LL_EXTI_SetEXTISource  gpio.o
    0x08003ab4   0x08003ab4   0x00000070   Code   RO          979    i.LL_GPIO_DeInit    stm32g0xx_ll_gpio.o
    0x08003b24   0x08003b24   0x000000a8   Code   RO          980    i.LL_GPIO_Init      stm32g0xx_ll_gpio.o
    0x08003bcc   0x08003bcc   0x00000014   Code   RO          246    i.LL_GPIO_SetPinMode  gpio.o
    0x08003be0   0x08003be0   0x0000003c   Code   RO         1548    i.LL_I2C_DeInit     stm32g0xx_ll_i2c.o
    0x08003c1c   0x08003c1c   0x00000018   Code   RO          247    i.LL_IOP_GRP1_EnableClock  gpio.o
    0x08003c34   0x08003c34   0x00000018   Code   RO          586    i.LL_IOP_GRP1_EnableClock  usart.o
    0x08003c4c   0x08003c4c   0x00000010   Code   RO          982    i.LL_IOP_GRP1_ForceReset  stm32g0xx_ll_gpio.o
    0x08003c5c   0x08003c5c   0x00000010   Code   RO          983    i.LL_IOP_GRP1_ReleaseReset  stm32g0xx_ll_gpio.o
    0x08003c6c   0x08003c6c   0x00000020   Code   RO          869    i.LL_Init1msTick    stm32g0xx_ll_utils.o
    0x08003c8c   0x08003c8c   0x00000018   Code   RO         1140    i.LL_RCC_GetSystemClocksFreq  stm32g0xx_ll_rcc.o
    0x08003ca4   0x08003ca4   0x00000060   Code   RO         1141    i.LL_RCC_GetUSARTClockFreq  stm32g0xx_ll_rcc.o
    0x08003d04   0x08003d04   0x00000028   Code   RO         1235    i.LL_RTC_DATE_Config  stm32g0xx_ll_rtc.o
    0x08003d2c   0x08003d2c   0x0000009c   Code   RO         1236    i.LL_RTC_DATE_Init  stm32g0xx_ll_rtc.o
    0x08003dc8   0x08003dc8   0x0000000e   Code   RO         1237    i.LL_RTC_DATE_StructInit  stm32g0xx_ll_rtc.o
    0x08003dd6   0x08003dd6   0x00000002   PAD
    0x08003dd8   0x08003dd8   0x0000004c   Code   RO         1239    i.LL_RTC_EnterInitMode  stm32g0xx_ll_rtc.o
    0x08003e24   0x08003e24   0x00000052   Code   RO         1241    i.LL_RTC_Init       stm32g0xx_ll_rtc.o
    0x08003e76   0x08003e76   0x00000002   PAD
    0x08003e78   0x08003e78   0x00000024   Code   RO         1243    i.LL_RTC_TIME_Config  stm32g0xx_ll_rtc.o
    0x08003e9c   0x08003e9c   0x00000094   Code   RO         1244    i.LL_RTC_TIME_Init  stm32g0xx_ll_rtc.o
    0x08003f30   0x08003f30   0x0000000c   Code   RO         1245    i.LL_RTC_TIME_StructInit  stm32g0xx_ll_rtc.o
    0x08003f3c   0x08003f3c   0x00000074   Code   RO         1246    i.LL_RTC_WaitForSynchro  stm32g0xx_ll_rtc.o
    0x08003fb0   0x08003fb0   0x0000000c   Code   RO          873    i.LL_SetSystemCoreClock  stm32g0xx_ll_utils.o
    0x08003fbc   0x08003fbc   0x00000074   Code   RO         1380    i.LL_TIM_DeInit     stm32g0xx_ll_tim.o
    0x08004030   0x08004030   0x00000078   Code   RO         1387    i.LL_TIM_Init       stm32g0xx_ll_tim.o
    0x080040a8   0x080040a8   0x00000014   Code   RO          587    i.LL_USART_ConfigAsyncMode  usart.o
    0x080040bc   0x080040bc   0x000000e0   Code   RO         1502    i.LL_USART_Init     stm32g0xx_ll_usart.o
    0x0800419c   0x0800419c   0x0000001c   Code   RO          874    i.LL_mDelay         stm32g0xx_ll_utils.o
    0x080041b8   0x080041b8   0x000002b4   Code   RO         2006    i.MOS_Ctrl          app_mos.o
    0x0800446c   0x0800446c   0x00000148   Code   RO          375    i.MX_ADC1_Init      adc.o
    0x080045b4   0x080045b4   0x000000f0   Code   RO          248    i.MX_EXTI_Init      gpio.o
    0x080046a4   0x080046a4   0x00000180   Code   RO          249    i.MX_GPIO_Init      gpio.o
    0x08004824   0x08004824   0x000000d8   Code   RO          455    i.MX_RTC_Init       rtc.o
    0x080048fc   0x080048fc   0x00000048   Code   RO          525    i.MX_TIM16_Init     tim.o
    0x08004944   0x08004944   0x000000ac   Code   RO          588    i.MX_USART1_UART_Init  usart.o
    0x080049f0   0x080049f0   0x000000f8   Code   RO          589    i.MX_USART2_UART_Init  usart.o
    0x08004ae8   0x08004ae8   0x00000002   Code   RO          673    i.NMI_Handler       stm32g0xx_it.o
    0x08004aea   0x08004aea   0x00000002   Code   RO          674    i.PendSV_Handler    stm32g0xx_it.o
    0x08004aec   0x08004aec   0x00000090   Code   RO         1658    i.Process_100ms_CYC  app_bms.o
    0x08004b7c   0x08004b7c   0x00000054   Code   RO         1659    i.Process_500ms_CYC1  app_bms.o
    0x08004bd0   0x08004bd0   0x00000020   Code   RO         1142    i.RCC_GetHCLKClockFreq  stm32g0xx_ll_rcc.o
    0x08004bf0   0x08004bf0   0x00000020   Code   RO         1143    i.RCC_GetPCLK1ClockFreq  stm32g0xx_ll_rcc.o
    0x08004c10   0x08004c10   0x0000003c   Code   RO         1144    i.RCC_GetSystemClockFreq  stm32g0xx_ll_rcc.o
    0x08004c4c   0x08004c4c   0x00000040   Code   RO         1147    i.RCC_PLL_GetFreqDomain_SYS  stm32g0xx_ll_rcc.o
    0x08004c8c   0x08004c8c   0x00000010   Code   RO          456    i.RTC_Bcd2ToByte    rtc.o
    0x08004c9c   0x08004c9c   0x00000038   Code   RO          675    i.RTC_TAMP_IRQHandler  stm32g0xx_it.o
    0x08004cd4   0x08004cd4   0x00000054   Code   RO         1892    i.RealRemainCap_Calibration  app_soc.o
    0x08004d28   0x08004d28   0x0000008c   Code   RO         1893    i.RemainCap_Integral  app_soc.o
    0x08004db4   0x08004db4   0x0000002c   Code   RO         2303    i.RingBuf_Write     pcmonitor_protocol.o
    0x08004de0   0x08004de0   0x00000050   Code   RO         2368    i.SH367309_Config   bsp_sh367309.o
    0x08004e30   0x08004e30   0x00000048   Code   RO         2369    i.SH367309_I2C_Ack  bsp_sh367309.o
    0x08004e78   0x08004e78   0x0000003a   Code   RO         2370    i.SH367309_I2C_NAck  bsp_sh367309.o
    0x08004eb2   0x08004eb2   0x00000056   Code   RO         2371    i.SH367309_I2C_ReadByte  bsp_sh367309.o
    0x08004f08   0x08004f08   0x00000064   Code   RO         2372    i.SH367309_I2C_SendByte  bsp_sh367309.o
    0x08004f6c   0x08004f6c   0x00000052   Code   RO         2373    i.SH367309_I2C_Start  bsp_sh367309.o
    0x08004fbe   0x08004fbe   0x0000003c   Code   RO         2374    i.SH367309_I2C_Stop  bsp_sh367309.o
    0x08004ffa   0x08004ffa   0x0000004e   Code   RO         2375    i.SH367309_I2C_WaitAck  bsp_sh367309.o
    0x08005048   0x08005048   0x00000098   Code   RO         2377    i.SH367309_ReadData  bsp_sh367309.o
    0x080050e0   0x080050e0   0x00000022   Code   RO         2378    i.SH367309_ReadRegVal  bsp_sh367309.o
    0x08005102   0x08005102   0x00000002   PAD
    0x08005104   0x08005104   0x00000068   Code   RO         2379    i.SH367309_WriteEEpromData  bsp_sh367309.o
    0x0800516c   0x0800516c   0x00000068   Code   RO         2380    i.SH367309_WriteRamData  bsp_sh367309.o
    0x080051d4   0x080051d4   0x000001e0   Code   RO         2381    i.SHA_EEPROM_Set    bsp_sh367309.o
    0x080053b4   0x080053b4   0x00000078   Code   RO         2382    i.SH_Get_CellTemps  bsp_sh367309.o
    0x0800542c   0x0800542c   0x00000038   Code   RO         2383    i.SH_Get_CellVolts  bsp_sh367309.o
    0x08005464   0x08005464   0x0000004c   Code   RO         2384    i.SH_Get_Current    bsp_sh367309.o
    0x080054b0   0x080054b0   0x00000038   Code   RO         2385    i.SH_MOSCtrl        bsp_sh367309.o
    0x080054e8   0x080054e8   0x000000d0   Code   RO         2386    i.SH_Read_Alarm     bsp_sh367309.o
    0x080055b8   0x080055b8   0x00000038   Code   RO         2387    i.SH_Reset          bsp_sh367309.o
    0x080055f0   0x080055f0   0x00000016   Code   RO         2389    i.SH_Set_Balance    bsp_sh367309.o
    0x08005606   0x08005606   0x00000002   PAD
    0x08005608   0x08005608   0x0000003c   Code   RO         2390    i.SH_Set_CONF       bsp_sh367309.o
    0x08005644   0x08005644   0x00000024   Code   RO         2391    i.SH_Set_Default    bsp_sh367309.o
    0x08005668   0x08005668   0x00000020   Code   RO         2392    i.SH_Set_IDLE       bsp_sh367309.o
    0x08005688   0x08005688   0x0000006c   Code   RO         2120    i.SIFProcess        bsp_sifbus.o
    0x080056f4   0x080056f4   0x00000138   Code   RO         2121    i.SIF_QueryDataPack  bsp_sifbus.o
    0x0800582c   0x0800582c   0x00000194   Code   RO         2231    i.SMBUS_DataProcess  bsp_simiic.o
    0x080059c0   0x080059c0   0x0000005c   Code   RO         2183    i.SUART_Protocol    bsp_simuart.o
    0x08005a1c   0x08005a1c   0x00000002   Code   RO          676    i.SVC_Handler       stm32g0xx_it.o
    0x08005a1e   0x08005a1e   0x00000002   PAD
    0x08005a20   0x08005a20   0x00000078   Code   RO          458    i.SetWakeUpTimer_IT  rtc.o
    0x08005a98   0x08005a98   0x00000178   Code   RO         1772    i.SleepCheck        app_lowpower.o
    0x08005c10   0x08005c10   0x000000d4   Code   RO          250    i.Sleep_PinInit     gpio.o
    0x08005ce4   0x08005ce4   0x000001fc   Code   RO         1894    i.Soc_ClrOrSetCtrl  app_soc.o
    0x08005ee0   0x08005ee0   0x000000a0   Code   RO         1895    i.Soc_Init          app_soc.o
    0x08005f80   0x08005f80   0x00000010   Code   RO         1660    i.Soft_Delay        app_bms.o
    0x08005f90   0x08005f90   0x00000038   Code   RO         1710    i.SysParaInit       app_config.o
    0x08005fc8   0x08005fc8   0x00000044   Code   RO          677    i.SysTick_Handler   stm32g0xx_it.o
    0x0800600c   0x0800600c   0x000000cc   Code   RO           14    i.SystemClock_Config  main.o
    0x080060d8   0x080060d8   0x00000010   Code   RO         1584    i.SystemInit        system_stm32g0xx.o
    0x080060e8   0x080060e8   0x00000010   Code   RO          678    i.TIM14_IRQHandler  stm32g0xx_it.o
    0x080060f8   0x080060f8   0x00000010   Code   RO          679    i.TIM16_IRQHandler  stm32g0xx_it.o
    0x08006108   0x08006108   0x0000003c   Code   RO         2184    i.UART2RxDataPro    bsp_simuart.o
    0x08006144   0x08006144   0x00000048   Code   RO          680    i.USART1_IRQHandler  stm32g0xx_it.o
    0x0800618c   0x0800618c   0x00000048   Code   RO          681    i.USART2_IRQHandler  stm32g0xx_it.o
    0x080061d4   0x080061d4   0x00000048   Code   RO          591    i.USART2_SendByte   usart.o
    0x0800621c   0x0800621c   0x0000006c   Code   RO         2036    i.Update_CellTemps  app_temprature.o
    0x08006288   0x08006288   0x00000088   Code   RO         2075    i.Update_CellVolt   app_volt.o
    0x08006310   0x08006310   0x00000024   Code   RO         1737    i.Update_Current    app_current.o
    0x08006334   0x08006334   0x000000a8   Code   RO          376    i.VolFilter         adc.o
    0x080063dc   0x080063dc   0x00000020   Code   RO         2734    i.__0printf$3       mc_p.l(printf3.o)
    0x080063fc   0x080063fc   0x00000018   Code   RO          251    i.__NVIC_EnableIRQ  gpio.o
    0x08006414   0x08006414   0x00000018   Code   RO          526    i.__NVIC_EnableIRQ  tim.o
    0x0800642c   0x0800642c   0x00000018   Code   RO         2542    i.__NVIC_EnableIRQ  bsp_hardiic.o
    0x08006444   0x08006444   0x00000044   Code   RO          252    i.__NVIC_SetPriority  gpio.o
    0x08006488   0x08006488   0x00000044   Code   RO          527    i.__NVIC_SetPriority  tim.o
    0x080064cc   0x080064cc   0x00000044   Code   RO         2543    i.__NVIC_SetPriority  bsp_hardiic.o
    0x08006510   0x08006510   0x0000000e   Code   RO         2951    i.__scatterload_copy  mc_p.l(handlers.o)
    0x0800651e   0x0800651e   0x00000002   Code   RO         2952    i.__scatterload_null  mc_p.l(handlers.o)
    0x08006520   0x08006520   0x0000000e   Code   RO         2953    i.__scatterload_zeroinit  mc_p.l(handlers.o)
    0x0800652e   0x0800652e   0x00000002   PAD
    0x08006530   0x08006530   0x000001cc   Code   RO         2741    i._printf_core      mc_p.l(printf3.o)
    0x080066fc   0x080066fc   0x0000002a   Code   RO           15    i.bsp_init          main.o
    0x08006726   0x08006726   0x00000002   PAD
    0x08006728   0x08006728   0x00000010   Code   RO          593    i.fputc             usart.o
    0x08006738   0x08006738   0x000000a4   Code   RO         1896    i.isCali_CHG_Enable  app_soc.o
    0x080067dc   0x080067dc   0x000000d4   Code   RO         1897    i.isCali_DSG_Enable  app_soc.o
    0x080068b0   0x080068b0   0x000000a4   Code   RO         1899    i.isSocInitEnable   app_soc.o
    0x08006954   0x08006954   0x00000124   Code   RO           16    i.main              main.o
    0x08006a78   0x08006a78   0x000000c4   Code   RO         1661    i.processavgCurr    app_bms.o
    0x08006b3c   0x08006b3c   0x00000030   Data   RO         1504    .constdata          stm32g0xx_ll_usart.o
    0x08006b6c   0x08006b6c   0x00000040   Data   RO         1585    .constdata          system_stm32g0xx.o
    0x08006bac   0x08006bac   0x00000020   Data   RO         1586    .constdata          system_stm32g0xx.o
    0x08006bcc   0x08006bcc   0x00000142   Data   RO         2037    .constdata          app_temprature.o
    0x08006d0e   0x08006d0e   0x00000002   PAD
    0x08006d10   0x08006d10   0x0000020c   Data   RO         2123    .constdata          bsp_sifbus.o
    0x08006f1c   0x08006f1c   0x00000142   Data   RO         2393    .constdata          bsp_sh367309.o
    0x0800705e   0x0800705e   0x00000002   PAD
    0x08007060   0x08007060   0x00000020   Data   RO         2949    Region$$Table       anon$$obj.o


    Execution Region RW_IRAM1 (Exec base: 0x20000000, Load base: 0x08007080, Size: 0x00001248, Max: 0x00002000, ABSOLUTE, COMPRESSED[0x000005f8])

    Exec Addr    Load Addr    Size         Type   Attr      Idx    E Section Name        Object

    0x20000000   COMPRESSED   0x00000004   Data   RW           18    .data               main.o
    0x20000004   COMPRESSED   0x00000004   Data   RW          377    .data               adc.o
    0x20000008   COMPRESSED   0x00000004   Data   RW          459    .data               rtc.o
    0x2000000c   COMPRESSED   0x00000001   Data   RW          460    .data               rtc.o
    0x2000000d   COMPRESSED   0x00000003   PAD
    0x20000010   COMPRESSED   0x00000004   Data   RW          594    .data               usart.o
    0x20000014   COMPRESSED   0x00000004   Data   RW         1587    .data               system_stm32g0xx.o
    0x20000018   COMPRESSED   0x00000034   Data   RW         1620    .data               app_alarm.o
    0x2000004c   COMPRESSED   0x00000003   Data   RW         1621    .data               app_alarm.o
    0x2000004f   COMPRESSED   0x00000003   Data   RW         1622    .data               app_alarm.o
    0x20000052   COMPRESSED   0x00000002   PAD
    0x20000054   COMPRESSED   0x00000010   Data   RW         1663    .data               app_bms.o
    0x20000064   COMPRESSED   0x00000002   Data   RW         1664    .data               app_bms.o
    0x20000066   COMPRESSED   0x00000008   Data   RW         1738    .data               app_current.o
    0x2000006e   COMPRESSED   0x00000006   Data   RW         1774    .data               app_lowpower.o
    0x20000074   COMPRESSED   0x00000656   Data   RW         1900    .data               app_soc.o
    0x200006ca   COMPRESSED   0x00000008   Data   RW         2007    .data               app_mos.o
    0x200006d2   COMPRESSED   0x00000002   PAD
    0x200006d4   COMPRESSED   0x00000004   Data   RW         2038    .data               app_temprature.o
    0x200006d8   COMPRESSED   0x00000006   Data   RW         2078    .data               app_volt.o
    0x200006de   COMPRESSED   0x00000002   PAD
    0x200006e0   COMPRESSED   0x00000012   Data   RW         2124    .data               bsp_sifbus.o
    0x200006f2   COMPRESSED   0x000000ee   Data   RW         2308    .data               pcmonitor_protocol.o
    0x200007e0   COMPRESSED   0x00000002   Data   RW         2394    .data               bsp_sh367309.o
    0x200007e2   COMPRESSED   0x00000006   Data   RW         2589    .data               bsp_hardiic_reg.o
    0x200007e8        -       0x000001c4   Zero   RW         1662    .bss                app_bms.o
    0x200009ac        -       0x00000050   Zero   RW         1833    .bss                app_flash.o
    0x200009fc        -       0x00000199   Zero   RW         2185    .bss                bsp_simuart.o
    0x20000b95   COMPRESSED   0x00000001   PAD
    0x20000b96        -       0x00000278   Zero   RW         2232    .bss                bsp_simiic.o
    0x20000e0e   COMPRESSED   0x00000002   PAD
    0x20000e10        -       0x00000038   Zero   RW         2587    .bss                bsp_hardiic_reg.o
    0x20000e48        -       0x00000400   Zero   RW            1    STACK               startup_stm32g030xx.o


==============================================================================

Image component sizes


      Code (inc. data)   RO Data    RW Data    ZI Data      Debug   Object Name

       878         98          0          4          0      57305   adc.o
       978         60          0         58          0       4057   app_alarm.o
       492         38          0         18        452       7510   app_bms.o
        56         18          0          0          0        438   app_config.o
       174         20          0          8          0       1658   app_current.o
      1288         48          0          0         80       4997   app_flash.o
       696         78          0          6          0      11779   app_lowpower.o
       940        108          0          8          0       1856   app_mos.o
      2632        330          0       1622          0      13141   app_soc.o
       168         16        322          4          0       1995   app_temprature.o
       314         32          0          6          0       2951   app_volt.o
       336         36          0          0          0       2128   bsp_hardiic.o
       412         30          0          6         56      15530   bsp_hardiic_reg.o
      2212        106        322          2          0      24920   bsp_sh367309.o
      1028         78        524         18          0       6068   bsp_sifbus.o
       404         48          0          0        632       2687   bsp_simiic.o
       152         18          0          0        409       2484   bsp_simuart.o
       342         44          0          0          0       3959   flash.o
      1132        104          0          0          0      98471   gpio.o
         0          0          0          0          0       3380   i2c.o
       538         50          8          4          0     321259   main.o
        44          4          0        238          0       2870   pcmonitor_protocol.o
       464         48          0          5          0      58434   rtc.o
        28          8        192          0       1024        616   startup_stm32g030xx.o
       662        102          0          0          0      98107   stm32g0xx_it.o
       432         34          0          0          0      38848   stm32g0xx_ll_adc.o
       164          4          0          0          0       6871   stm32g0xx_ll_exti.o
       312         28          0          0          0      11832   stm32g0xx_ll_gpio.o
        60         14          0          0          0      14276   stm32g0xx_ll_i2c.o
         0          0          0          0          0       3380   stm32g0xx_ll_pwr.o
       308         48          0          0          0      20394   stm32g0xx_ll_rcc.o
       680         32          0          0          0      35949   stm32g0xx_ll_rtc.o
       268         60          0          0          0      45598   stm32g0xx_ll_tim.o
       224         20         48          0          0      26556   stm32g0xx_ll_usart.o
        72         16          0          0          0       6441   stm32g0xx_ll_utils.o
        16          8         96          4          0       1119   system_stm32g0xx.o
       188         26          0          0          0      37272   tim.o
       552         46          0          4          0      35536   usart.o

    ----------------------------------------------------------------------
     19664       1858       1548       2024       2656    1032672   Object Totals
         0          0         32          0          0          0   (incl. Generated)
        18          0          4          9          3          0   (incl. Padding)

    ----------------------------------------------------------------------

      Code (inc. data)   RO Data    RW Data    ZI Data      Debug   Library Member Name

        96          0          0          0          0          0   __dclz77c.o
         0          0          0          0          0          0   entry.o
         0          0          0          0          0          0   entry10a.o
         0          0          0          0          0          0   entry11a.o
         8          4          0          0          0          0   entry2.o
         4          0          0          0          0          0   entry5.o
         0          0          0          0          0          0   entry7b.o
         0          0          0          0          0          0   entry8b.o
         8          4          0          0          0          0   entry9a.o
        30          0          0          0          0          0   handlers.o
        40          0          0          0          0         72   idiv.o
        36          8          0          0          0         68   init.o
        76          0          0          0          0         76   ldiv.o
       122          0          0          0          0         84   llmul.o
        32          0          0          0          0         68   llshl.o
        34          0          0          0          0         68   llushr.o
        36          0          0          0          0        100   memseta.o
       492         12          0          0          0        168   printf3.o
        44          0          0          0          0         72   uidiv.o
        96          0          0          0          0         84   uldiv.o
        20          0          0          0          0         60   uread4.o
        18          0          0          0          0         60   uwrite4.o

    ----------------------------------------------------------------------
      1196         28          0          0          0        980   Library Totals
         4          0          0          0          0          0   (incl. Padding)

    ----------------------------------------------------------------------

      Code (inc. data)   RO Data    RW Data    ZI Data      Debug   Library Name

      1192         28          0          0          0        980   mc_p.l

    ----------------------------------------------------------------------
      1196         28          0          0          0        980   Library Totals

    ----------------------------------------------------------------------

==============================================================================


      Code (inc. data)   RO Data    RW Data    ZI Data      Debug   

     20860       1886       1548       2024       2656    1025868   Grand Totals
     20860       1886       1548       1528       2656    1025868   ELF Image Totals (compressed)
     20860       1886       1548       1528          0          0   ROM Totals

==============================================================================

    Total RO  Size (Code + RO Data)                22408 (  21.88kB)
    Total RW  Size (RW Data + ZI Data)              4680 (   4.57kB)
    Total ROM Size (Code + RO Data + RW Data)      23936 (  23.38kB)

==============================================================================

