:020000040800F2
:1018F8002B56452B4C564F47600E0020D519000833
:10190800A14200081D32000800000000000000008D
:1019180000000000000000000000000000000000BF
:1019280000000000A14F00080000000000000000B7
:10193800A3420008E9540008E71900080000000065
:1019480049440008E7190008E7190008B524000809
:10195800F12400081925000800000000E719000814
:10196800E7190008E7190008E7190008E71900084F
:10197800E719000800000000E7190008000000004F
:1019880000000000C555000800000000D5550008FB
:10199800E7190008E7190008E7190008E71900081F
:1019A800E7190008215600086956000800000000E1
:1019B80000000000000000000348854600F0F4F82D
:1019C80000480047855D0008600E002004488047F5
:1019D80004480047FEE7FEE7FEE7FEE7FEE7FEE70E
:1019E800B5550008C119000830B50B46014600205E
:1019F8002022012409E00D46D5409D4205D31D460D
:101A08009540491B2546954040191546521E002D04
:101A1800F1DC30BD70B500242546002801DA012428
:101A28004042002901DA01254942FFF7DDFFAC42B7
:101A380000D04042002C00D0494270BDF8B50024C7
:101A48002546002904DA0E46012400214042B1410E
:101A5800002B04DA1E46002352420125B34100F050
:101A680062F88C4617461E46AC4203D00025404219
:101A78008D41AC46002C02D0002657429E4161465B
:101A88003A46334601B0F0BDF0B51FB486B0002029
:101A98000090019002900698069980B204900798E9
:101AA800090C02040014114307900027089D0998A7
:101AB80006913E463C4603900398A9B20204000CE6
:101AC800039004982D0C154348430021224600F04A
:101AD8005AF8C719714110340E46402CECDB3846D1
:101AE800029A00F050F8009A019B80180090594122
:101AF80002980191103002904028CCDB00980BB07E
:101B0800F0BDD2B201E00270401C491EFBD2704702
:101B18000022F6E710B513460A4604461946FFF7B1
:101B2800F0FF204610BDF0B51FB40646002082B075
:101B380005464024019100901BE0019922460F467A
:101B4800304600F043F8049A059B801A994110D357
:101B580010461946224600F016F8361A8F410197AA
:101B6800224601200021009F00F00DF838184D4151
:101B780000902046641E0028DFDC019B009829465F
:101B8800324607B0F0BD10B5202A04DB0146203AE2
:101B98009140002010BD914020239C1A0346E34049
:101BA8001943904010BD0000064C0125064E05E083
:101BB800E36807CC2B430C3C98471034B442F7D366
:101BC800FFF7FEFECC630008EC63000810B5202A7E
:101BD80004DB0846203AD040002110BD0B46D34014
:101BE800D0402024A21A91400843194610BD70B570
:101BF8008D180478401CA207920F01D10278401C6E
:101C0800231106D10378401C03E006780E70401CAF
:101C1800491C521EF9D1002B15D002780C268A1ABD
:101C28003440401C0C2C03D0A401121B9B1C08E060
:101C380004782402121B401CF8E714780C70491C25
:101C4800521C5B1EF9D5A942D3D3002070BD0000F9
:101C580010B51D48002281681C4B490703D58168CF
:101C68001940103181601A4902E08A4203D2521C9D
:101C78008468E406F9D48268D20703D082681A40DF
:101C8800921C8260002202E08A4203D2521C8368BE
:101C98009B07F9D4826817239A43DB071A438260AB
:101CA80083680022002B02DB05E08A4203D28368A6
:101CB800521C002BF9DB04488030406B0549400674
:101CC800400E488010BD000000240140E8FFFF7F5F
:101CD800FFFF030008000020074800218268074B27
:101CE8001A40921C82605A1302E0914203D2491CA6
:101CF80083689B07F9D4704700240140E8FFFF7F01
:101D08000020084901220A608A68074B1A40521CC1
:101D18008A60DA1302E0904203D2401C0B68DB07AA
:101D2800F9D0704700240140E8FFFF7FF0B591B07B
:101D3800002440216846FFF7EBFE0D4D6E46042750
:101D48002F60A8680B490840001DA86000F024F81F
:101D5800286C6100641CE4B27052202CF0D3082374
:101D68001A462021684603F05BFD11B0F0BD000063
:101D780000240140E8FFFF7F054A002190620548E2
:101D880002E0814203D2491C13689B04F9D57047CD
:101D980000240140FFFF00000020054A054902E039
:101DA800904203D2401C0B685B07F9D570470000CE
:101DB800FFFF000000240140FEB502F04DFF7B4804
:101DC800022404257A4F00907A490195029438201C
:101DD800385E0123774AC83100F0F4F8734E0A20C0
:101DE800B61D0190009602943C20AF22385E002375
:101DF8001201714900F0E6F80A20F11C00910190E7
:101E080002943C20AF22385E002312016B4900F097
:101E1800D9F8B01D403F019502940090B87C012389
:101E28007322822100F0CEF830460F3001950294DB
:101E38000090F87B00232822232100F0C3F83046C5
:101E48000930019502940090B87B012355225F2147
:101E580000F0B8F830461230019502940090F87BF3
:101E6800002319220F2100F0ADF830460C300195FF
:101E780002940090B87B01236422692100F0A2F843
:101E88003746083F397830788907C90F08433070DA
:101E980000F04EF900F03EFF4949F21C0860B11FFE
:101EA80009783888C907C90F0843F11E09781278DC
:101EB800830711433278DB0F1A431143C907890F8F
:101EC800A0430143B21D88061278C00F1043202298
:101ED8009143C007800E3246084315320105127837
:101EE800C90F1143A2029043C907090D32460143A5
:101EF8001832C8041278C00F1043E2029143C00799
:101F0800C00C324608431232C1061278C90F114379
:101F180010229043C907BF1EC90E324601430F3233
:101F280048051278C00F1043C007400D6202914364
:101F3800324608430C3281051278C90F1143220238
:101F48009043C907890D324601430932C805127802
:101F5800C00F1043E2019143C007C00D3246084349
:101F6800243201071278C90F114308229043C90788
:101F7800090F324601431B3248061278C00F10433E
:101F88004022C0079143400E084331461E31324675
:101F980021320978127811434207D20F1143C90739
:101FA800490FA84301433980FEBD000020000020EE
:101FB8000C0800207A0D0000FC080000DC05000079
:101FC8000C000020F0B50025069F079E059C002BFD
:101FD80002D0012B18D009E0884203DC6078401C4D
:101FE800607002E0904213DC6570A5706078B842BA
:101FF80003D3012020700A376770A078B04202D955
:1020080025700A36A670F0BD8842E7DA9042EBDA0E
:10201800002AE9D0A078401CA0706570E6E708B5F2
:1020280000200090684601F003F9002801D00098CC
:1020380080B202F089FE08BD70B59CB00D46064618
:10204800642102A8FFF764FDBF2D19D20724284692
:10205800093003E0C82C19D2641CA4B28442F9D315
:10206800A01E81B22C4800F0D1F800900020019009
:102078002948694609380019C2794A71007A0871F5
:1020880001990098884204D0FF2D02D000201CB08E
:1020980070BDAA206946087255204872BB20887214
:1020A8000320C8720E732A46314602A802F0C0FE09
:1020B8000446694600904878487308788873E01D9C
:1020C80081B202A800F0A2F8009003A86946033084
:1020D800497821546946097804A82154A12E01D0D1
:1020E800A02E03D10D484078012806D00934A1B2AA
:1020F80002A803F0D9FA0120C9E70A49084808608C
:1021080000F006FCBFF34F8F08490748C860BFF3CB
:102118004F8F00BFFDE70000C9080020C806002057
:10212800CDAB0000700800200400FA0500ED00E0C7
:1021380070B5174D062328468030AE79C269154818
:1021480001240021002E0CD1FF26F536B24208DB0F
:102158004678761CF6B24670042E04D94370047093
:1021680001E0417001700B48ED79C01C002D0CD1C5
:10217800FF25F535EA4208DC4178491CC9B24170AF
:10218800042901D94370047070BD4170017070BD9D
:10219800CC0700203B00002030B503460020072470
:1021A8000EE01A78504000225B1C050602D540005C
:1021B800604000E04000521CD2B2C0B2082AF4D3FA
:1021C8000A46491EC9B2002AEBD130BD10B500F04D
:1021D800DBFA00F0D7FD0A490A4BCA8B9A4204D1B0
:1021E8000A464032D289824201D0012010BD0648F9
:1021F8000A68824202D00860022010BD002010BD8B
:1022080070080020191600003412000070B504464A
:1022180000200246064D08E0A65C030A73405B00F6
:10222800EB5A0002584080B2521C8A42F4D370BD67
:102238007C60000830B59625062400221A4B1B49FD
:10224800E8420DDA4A808888401C80B28880CA80BB
:10225800012826D97D208C80C000D88044201FE02A
:1022680096280CDD4888401C80B248808A80CA8045
:10227800012816D94C800E489880432010E04A80E7
:102288008A80C888401C85B2CD80D869002800DAC9
:102298004042962800DADA61012D02D9CC80492023
:1022A8000870087830BD00004C0800205800002055
:1022B8001A04000070B50C4C002060610B480C49F2
:1022C800408B88420DD20B4D642808D932216438DE
:1022D800FFF7A0FB08494843281A206170BD256113
:1022E80070BD0648F9E700004C080020700800207F
:1022F800AC0D0000808EF20DA0B42300400E6501E5
:10230800F8B5414A414E52790025414C442A02D041
:10231800432A2DD03CE06582A28A3C2A01D9657205
:1023280001E0521CA282002800DA40424843C8213A
:10233800FFF770FB344F8037B9694018B8613969C5
:10234800884225D33348814222D9BD61708B401C15
:1023580080B27083642808D932216438FFF75AFBA9
:102368002D4948432D49081A00E02C4838610FE0F0
:10237800608A2B49884206D3658201206072306AE0
:10238800401C306204E0617A002901D1401C60825F
:102398002448AF2203781C483C2140301201415E9A
:1023A800012B0DD191420BDC2583E07A002812D154
:1023B8000120E072154840308189491C81810AE07A
:1023C800914207DD208B1E2802D2401C208302E0A8
:1023D800E57200E025831448A17A0088012908D015
:1023E800E582000704D5706A401C70620120A07263
:1023F800F8BD0007FCD4E08A1E2802D2401CE08207
:10240800F8BDA572F8BD0000CC07002070080020B8
:1024180066000020802FA604A0B42300808EF20D51
:1024280070170000260000201C00002010B500F0E6
:102438006FFA7D20C00001F031FC052000228021C8
:10244800000700F0C1FB7D20000101F027FC10BD52
:1024580010B51249002212480A703C23C35E114885
:10246800834201DA012000E01046087004460E4855
:10247800FF21038801318B430849891E002C0AD0AB
:102488004C78641CE4B24C70282C03D94A70038041
:10249800FFF7CCFF10BD03804A7010BD620000201A
:1024A8000C080020FC0800005400002070B5012032
:1024B80001F08EF80A4E0B4CF514002804D00120C8
:1024C800F060208828432080012001F077F8002858
:1024D80004D00120306120882843208070BD00008E
:1024E800001802405400002010B5082001F070F8D0
:1024F800064C002801D00820E060082001F05EF8B2
:10250800002801D00820206110BD000000180240FA
:10251800F8B50126B603304601F05AF837111F4DB9
:102528001F4C002803D0EE602088384320803046B6
:1025380001F044F8002803D02E6120883843208019
:10254800102001F045F801267602002804D010205A
:10255800E860208830432080102001F02FF8002800
:1025680004D010202861208830432080202001F0EA
:102578002FF801263603002804D02020E8602088A0
:1025880030432080202001F019F8002804D02020B2
:102598002861208830432080F8BD000000180240E0
:1025A8005400002038B502F015FE184C20690225A9
:1025B800A8432061FF2004212D3002F0EFFC00F039
:1025C8002BF800F0D5FA1248012102680A4302608C
:1025D8000068084000900E4809074038C26B0A435B
:1025E800C263C06B08400090012002F089FF0948CF
:1025F800C1690902090A62041143C16120692843BB
:102608002061012003F094FA38BD000000E000E0EA
:102618004010024004ED00E007480168C908C900FD
:10262800491C01600548026904210A43026130BF60
:1026380002698A43026170470070004000ED00E0C3
:1026480030B5164A11680B18154902E014689C4207
:102658001BD20C69E443E403F8D50B69114C234001
:10266800641C0C618C690125AD072C4003D08D6971
:1026780025438D612343002B01D0012030BD136811
:10268800181804E01368834201D3032030BD0B6996
:10269800DB43DB03F6D5002030BD0000000000203E
:1026A80000200240FA830000012200211203101AC0
:1026B80082B210B509480A4B006805E04C001C5B63
:1026C800944203D8491CC9B28142F7DB002901D0E2
:1026D800814201DDFE2010BD084610BDBC06002069
:1026E800385F000810B5FFF771FD002808D00128F1
:1026F80004D104A003F0E8F800F012F800F008F99B
:1027080010BD000020466C617368496E6974202012
:10271800457272202121212121212121200D0A0029
:102728007FB5002215481346114600920192029285
:102738006D4603928418267AFF2E01D0012B02D110
:10274800AE5C01232672521C102AF3DB0022831888
:102758002033521C1972202AF9DB094A02604160B1
:10276800012202760322427641830162034A4162D2
:102778004032816491810349C1837FBD7008002084
:1027880034120000191600003EB55F49002208689F
:102798004968009001916846017801724178417258
:1027A80081788172C178C172584B02981860684666
:1027B800017901724179417281798172C179C1725D
:1027C8000298586050480830D100081804684568D5
:1027D800009401956C46C91824780C726C4664788C
:1027E8004C726C46A4788C726C46E478CC726C4659
:1027F80024790C736C4664794C736C46A4798C7399
:102808006C46E479521CCC73022ADDDB8168C2680D
:10281800009101926946097819766946497859768E
:1028280069468A784A72CA780A7209895983694658
:102838000A794A704A790A700988998369468A79B7
:102848004A70CA790A700988D98301694269009176
:10285800019269460A780A724A784A728A788A72B4
:10286800CA78CA720299196269460A790A724A795B
:102878004A728A798A72CA79CA7202990022183011
:102888005962D1000818046845680094C918019570
:102898006C46203124780C726C4664784C726C4615
:1028A800A4788C726C46E478CC726C4624790C73EC
:1028B8006C4664794C736C46A4798C736C46E479E5
:1028C800521CCC73042ADCDB8168C068019000913B
:1028D8006846017801724178417281788172C178C5
:1028E800C172029898646846017941704179017013
:1028F8000649008840318881684682794270C279E9
:1029080002700088C8813EBD00F8000870080020E9
:10291800F0B589B00025944E079500F033FA0146CA
:1029280092480190C18172B600F060FC02200490C8
:10293800304600F053FB05900120069007A904A833
:1029480000F0F6FB00287DD188486A4640380168C7
:102958000091117811725178517291789172D178F1
:10296800D172406800901078107350785073907846
:102978009073D078D073029A039B17461C46314651
:10298800012000F011FC0028DDD130687168784022
:1029980061400843D7D1744C08347448EA00403881
:1029A8001018037A69460B72437A4B72837A8B72DA
:1029B800C37ACB72037B0B73437B4B73837B8B7321
:1029C800C07BC8731419029A039B17461E462146FA
:1029D800012000F0E9FB0028B5D120686168784043
:1029E80071400843AFD16D1C022DD6DB25465F4CE4
:1029F8006846403C217E0172617E4172618B018094
:102A0800417881720178C172A18B0180417801738C
:102A180001784173E18B0180417881730178C1733A
:102A2800029A039B083517461E462946012000F0E6
:102A3800BBFB002806D128686968784071400843C4
:102A480000D100E082E0206A0090684602780272B5
:102A58004278427282788272C278C272606A00904A
:102A68006846017801734178417381788173C17830
:102A7800C173029A039B083516461C462946012055
:102A880000F092FB002861D12868696870406140B5
:102A980008435BD12C46083400253448EA00403806
:102AA80010182030037A69460B72437A4B72837A86
:102AB8008B72C37ACB72037B0B73437B4B73837B21
:102AC8008B73C07BC8731419029A039B16461F4662
:102AD8002146012000F068FB002837D12168606892
:102AE80071407840014331D16D1C042DD5DB1F485E
:102AF80025464038806C009068460178017241781C
:102B0800417281788172C178C172019808358189D2
:102B18006846018041780173017841730198C18941
:102B280068460180417881730178C173029A039BDA
:102B380014461E462946012000F036FB002805D120
:102B48002868696860407140084305D000F01EFBA2
:102B580062B6012009B0F0BD00F018FB62B6FFF7BD
:102B680013FE0020F6E7000000F80008B008002077
:102B780010B5052002F0B8FE062002F0B5FE0720C9
:102B880002F0B2FE012000F0BFFC012000F0B4FC0E
:102B9800022000F0B9FC0120800300F0ADFC012008
:102BA800C00300F0B1FC022000F0A6FC082000F0F1
:102BB800ABFC082000F0A0FC10BD0069814301D0E7
:102BC8000020704701207047002A01D081617047BA
:102BD80081627047F8B5044600204B4D0146064611
:102BE8004A005219928A00926A4652782254401C2E
:102BF8006A46C0B212782254401C491CC9B2C0B2FD
:102C08000B29EDD307E02654401CC0B22654401CC3
:102C1800491CC0B2C9B21829F5D33B4A3821403201
:102C2800515E0091694649782154401C6946C0B2FA
:102C3800097821543C21515E0091401C6946C0B27C
:102C480049782154401C6946C0B209782154401C77
:102C5800C7B23E20105E0A21FEF7DCFE0B21484376
:102C6800694600904878E0557F1CF8B209782154ED
:102C7800401CC7B224480A218030C069FEF7CAFE4A
:102C880022494018694600904878E0557F1CF8B200
:102C980009782154401CC0B2A9782154EA79A9794D
:102CA80052001143401C8907C0B2890F21541849AA
:102CB800401C098800916946C0B249782154401CDB
:102CC8006946C0B209782154401CC0B2A97C21547D
:102CD800401CC0B2697C2154401CC0B2297A2154DE
:102CE800401CC0B2697A2154401CC0B22654401C12
:102CF800C0B22654401CC0B22654401CC0B2265450
:102D0800401CC0B2F8BD0000CC07002030750000A0
:102D18001C000020F0B5194B986818691868184904
:102D28000840810242044506890E540E6D0E08467D
:102D380001F07EFB0646204601F07AFB0446284651
:102D480001F076FB59680546C020C04308400902D7
:102D5800C2048706090ED30EBF0E084601F068FBB1
:102D6800184601F065FB384601F062FBE1200001DE
:102D780046433C20444330194019F0BD0028004028
:102D88007F7F7F0010B5164800210CC89A180838B4
:102D980043181B7A491C9A1889B21029F8D3017E66
:102DA8008918427E5118428B51181C22825E511894
:102DB800C28B5118026A5118426A521800214318EE
:102DC80028241C57491CA21889B22029F7D3044982
:102DD800806C403189898018081880B210BD0000C5
:102DE8007008002010B501F011FF10BDFEB50024D9
:102DF80069468C8005460C72264601A902A802F095
:102E0800AFFE00284CD06846007A264F012802D031
:102E180002280DD101E0244801E02348A8300090A1
:102E280069468B88387C0422204900F031F9C4B205
:102E3800BA78502A20D9101B401D0A281CD94B27C4
:102E48005A263F01642C0CD26420011B801A7D2273
:102E5800D2005043FEF7C8FD80B22880B84203D89C
:102E680004E07D20000128802F8019E0FF21F53142
:102E7800884215D2298013E0111B7D20C000491C0F
:102E880002290BD907498031A24202D2CB8883425A
:102E980004D3A24204D9C988814201D928805A267C
:102EA8003046FEBDCC070020080400208300002027
:102EB800FEB5002469468C8005460C72274601A998
:102EC80002A802F09FFE00285DD06846007A324EC4
:102ED800032804D0042804D005280DD128E02F4861
:102EE80000E02F48009069468B882C49307C0722E7
:102EF8000F3900F0CDF8C4B2B078411E132904D9B7
:102F0800142C3BD8317C3C2938D92449012230394A
:102F18000A70011B7D264A1D36010A2A0DD9002C8C
:102F280008D0204948432146FEF75EFD288002E08C
:102F38001D48D7E72E805A270DE01A4A491C022956
:102F480006D9A04207D2144880308088904202D91E
:102F58002A805A271DE02888B04201D92E8018E01F
:102F68007D21C900884203D20B4A127C3C2A03D82F
:102F7800FF21F53188420CD229800AE00749002058
:102F88003039087004E0054830380078002800D14E
:102F9800AA273846FEBD0000CC0700209600002076
:102FA800BC0100201A040000E202002010B504460B
:102FB800094800218278142A0CD9007C00F026F8F0
:102FC8007D225A2112012080904202D8921090420C
:102FD80000D22280084610BDCC0700201F21C90658
:102FE8004018C00A704770B50E4604466421304642
:102FF800FEF7FAFC0546C8213046FEF7F5FC001935
:103008002946FEF7F1FCC0B270BD0000F8B51D49B5
:1030180000254E882C46AA008A5A82421AD9002DC9
:1030280008D0AC0063181F46403F095BBA8FFC8F7D
:103038005B8803E00A8834461146234691420DD93D
:10304800A3420BD9801A1B1B5843891AFEF7E2FCCE
:1030580081B204E06D1CEDB2052DDCD300210A48D5
:10306800002D08D0052D0BD26118322905D9FEF79D
:10307800BBFC80B2F8BD3146F9E729204001F8BD14
:103088000248F8BD58050020289A01001A040000DB
:1030980070B50024049E04E00D5D854203D8641CCD
:1030A800E4B29442F8D30025002C0BD0002D15D0A3
:1030B800601E1521484340194000801940383E21C0
:1030C800415E10E06900705E002D04D08A19403A14
:1030D8003E21515E0DE00021715E0AE0601E15215F
:1030E80048434000315E601E15225043401940009D
:1030F800305E834204DC6D1CEDB2152DD4D301E0A3
:10310800002D10D0142D10D881420CDD091A181A80
:1031180082008018FEF77EFC1421491B8A0089185A
:10312800401800B202E0642000E0002080B270BDC8
:10313800F0B506467D200F46C000FFF781FA00284B
:103148001FD1411E39600F4C756811E06069FF217D
:10315800F9318843E90001430B48014361617D204F
:10316800C000FFF76DFA002801D03D6005E06D1C36
:103178007268B1685118A942E8D86169022291437E
:103188006161F0BD002002400200010005490120F4
:103198004A69C3071A434A614969002900DA0020CD
:1031A8007047000000200240F0B51FB406467D209D
:1031B80017460D46C000FFF743FA002812D10A4C03
:1031C800012E08D160690121084360612F60BFF3B7
:1031D8006F8F039868607D20C000FFF731FA61693E
:1031E800B143616105B0F0BD0020024006490020EE
:1031F8004A69002A07DA054A8A60054A8A604969E5
:10320800002900DA012070470020024023016745A9
:10321800AB89EFCDBFF34F8F04490348C860BFF3B4
:103228004F8F00BFFDE700000400FA0500ED00E045
:10323800F8B52D4E38243C258646345F755F00204E
:10324800641B27460937294D014684460346024632
:10325800122F01D9012703E0271D082F01D80027C5
:103268006F70234FE4197F00BC4201D900246C70B1
:103278003E241D4F345F403F00944C00E419A48A5B
:103288001C4EB44206D9009EB44203DD0124A44674
:103298008C402243491CC9B20B29EED379794329C2
:1032A80009D1B97B642906D26146012903D169781D
:1032B800012900D101200021744621600C46012714
:1032C8003D46A54039466E0309D09940114204D0C5
:1032D800714609682943754629605B1CDBB2641C8A
:1032E800E4B2192CECD3F8BD0C080020C00600206D
:1032F800E7030000520D000018B500210091826814
:10330800D207D20F2DD0C26837239B019A43C260DF
:1033180082683A4B5207D20F07D08268D206D20F82
:1033280003D182681A40103282600122D2030092CF
:1033380003E0009C641E009409D08468E406E40F4E
:10334800F7D184681C40A41C8460009205E0012128
:10335800F7E7009A521E00923BD082689207D20F7C
:10336800F7D1826817231A4230D14268244B1A4099
:1033780042600268DB431A430260826801231B072C
:103388009A438260C2681F4B1A40C26002691E4B92
:103398001A40026142691D4B1A404261026A130BCE
:1033A8001B4A1B0313430362436A1B0B1B03134390
:1033B8004362C36A1B0B1B031343C362826AD20CAA
:1033C800D204826203221204009208E00121084616
:1033D80018BD0121C5E7009A521E00920CD0026860
:1033E8009204D20FF7D00122520302608030426B60
:1033F800D209D2014263EAE70121F4E7E8FFFF7F3F
:1034080060D4FFFF00023E8302FCFF3F880000F803
:103418000000FF0F70B583680022DB07DB0F02D0C6
:103428000122104670BD8C684B68C5682343CC6880
:10343800054E35402C432343C360036909689B004C
:103448009B080B430361ECE7C73FFFFF70B54D686E
:1034580083680022DB07DB0F02D00122104670BD13
:10346800C46801235B051C420E4B01D0F02D08D027
:103478008D680C680E692C43CD6835432C434D6923
:1034880005E0CD680C684E692C430D6935432C4323
:10349800C5681D402C43C4604968836A0B43836236
:1034A800DCE700003CC2FEFF10B54369042421405C
:1034B80007248C40A3438A401343436110BD000096
:1034C80008B504490A6802430A6009680140009186
:1034D80008BD00004010024002490A6B02430A631B
:1034E800704700000010024002490A6B82430A63D9
:1034F800704700000010024002494A6882434A604F
:10350800704700008018024002490A6882430A6036
:10351800704700008018024010B50479002326493E
:103528000268002C41D0002A3DD04479002C12D0EA
:10353800012C18D0022C19D001238279002A32D00C
:103548001D498039012A19D0022A20D0032A22D005
:103558000220034327E04C6894434C6002680C68DF
:1035680014430C60E9E70C68944301E00C681443C9
:103578000C6002684C6814434C60DEE702684C68D3
:1035880094434C6000680A6802430A600BE00268D2
:103598000C68944302E002680C6814430C600068ED
:1035A8004A6802434A60184610BD0C6894430C6090
:1035B80000684A688243F5E78018024003490969B0
:1035C800884301D00020704701207047001802404E
:1035D8000349C968884301D000207047012070471B
:1035E800001802408A07130F054A10B59B181A6E77
:1035F800090C07248C40A243884002431A6610BD78
:103608000018024010B5052100240907884204D19A
:10361800012000F09BF801201EE01249884204D1E5
:10362800022000F093F8022016E00F49884204D1E6
:10363800042000F08BF804200EE00C49884204D1E5
:10364800082000F083F8082006E00949884206D1DE
:10365800202000F07BF8202000F080F800E0012412
:10366800204610BD0004005000080050000C005017
:1036780000140050F0B500243EE001232A46A34080
:103688001A4038D04F680668134653435D005D19E9
:10369800AE435F433E4306604E68012E01D0022EC2
:1036A80005D18F6886685F43AE433E4386600F69E5
:1036B800C668AE431D467D432E43C6604D68022D45
:1036C80019D1FF2A0AD84E69056A534353431A0190
:1036D800D21A954373431D4305620CE0130A1A4638
:1036E8005A435A435A4313019E1A4D69436A6A431F
:1036F800B34313434362641C0A681546E240BCD1D5
:103708004A68012A01D0022A06D1CB6841682A46B4
:1037180091435A43114341600020F0BD08B5044964
:103728004A6B02434A63496B0140009108BD00009F
:103738000010024008B504494A6B02434A63496BCA
:103748000140009108BD00000010024002494A6A89
:1037580002434A62704700000010024002494A6A68
:1037680082434A62704700000010024010B57D2174
:10377800C900FEF739F90449401E486100208861F4
:103788000520086110BD000000E000E010B5044607
:1037980000F010FE206000F0EDFD606000F0FAFD22
:1037A800A06010BD014610B50020032913D1134AAB
:1037B800516903238907890F1B041943DB43C9187F
:1037C8000AD001290BD0022911D000F0F3FD00F036
:1037D800D1FD00F0DFFD10BD00F0ECFD10BD074984
:1037E800403909684905C90FF8D0054810BDD169A5
:1037F8008907C90FFAD00120C00310BD401002404C
:103808000024F40010B5029C49032406240A1B0670
:1038180021431B0C1943D2B211434268024B1A4090
:103828000A43426010BD0000C00000FFF8B5012641
:1038380014460F460546002906D16078C10603D50F
:10384800EF2108400A306070CA206862532068621D
:10385800284600F041F801282AD0E078002F04D04B
:1038680000906378A278217816E00A21FEF7BCF868
:1038780000010843C7B260780A21FEF7B5F80001D5
:103888000843C6B2A0780A21FEF7AEF80001084343
:1038980000972178C2B233462846FFF7B3FF80204D
:1038A8000849C043C860A8698006C00F04D0002634
:1038B800FF2068623046F8BD284600F0BFF806468B
:1038C800F6E7000000280040012101708170417076
:1038D8000021C1707047000018B57D21C900009112
:1038E800C16800224906C90F15D1491EC160C168C7
:1038F8000B4B4906C90F0CE01969C903C90F02D05F
:103908000099491E0091C168009C4906C90F002C06
:1039180003D00029F0D0104618BD0122FBE70000B3
:1039280000E000E070B504460126CA200D4660623A
:10393800532060622046FFF7CFFF012817D029687F
:10394800A069402290430843A061A8682169C90B77
:10395800C90301432161A98820697F221204904389
:103968000904084320618020C043E0600026FF204E
:103978006062304670BD00001206120A10B50A4394
:103988001906090C029C0A43E1B20A430168024B7A
:1039980019401143016010BD808080FFF8B50546CD
:1039A80014460F4601260020AA6940210A4200D188
:1039B8002060CA206862532068622846FFF78CFF9F
:1039C80001282AD0A079002F04D0009063792279A9
:1039D800216816E00A21FEF707F800010843C7B27C
:1039E80060790A21FEF700F800010843C6B2207981
:1039F8000A21FDF7F9FF0001084300972168C2B2C8
:103A080033462846FFF7B8FF80200849C043C860FE
:103A1800A8698006C00F04D00026FF2068623046DF
:103A2800F8BD284600F00AF80646F6E700280040E8
:103A380000210160017141718171704738B57D24A1
:103A4800E4000094C268002180231A40A13AC260B1
:103A5800C268164B9206D20F0CE01A69D203D20F35
:103A680002D0009A521E0092C268009D9206D20FA0
:103A7800002D18D0002AF0D1002912D10094C26874
:103A88009206D20F0BE01A69D203D20F01D0621E40
:103A98000092C268009C9206D20F002C03D0002A24
:103AA800F1D0084638BD0121FBE7000000E000E046
:103AB80001490860704700001800002070B51649D9
:103AC8000024884201D1C5141BE01449884208D15A
:103AD80013480221C26A0A43C262C26A8A43C262A6
:103AE80017E01049884201D1C5130AE00E498842FF
:103AF80002D101256D0404E00C49884208D1012552
:103B0800AD042846FFF7E8FC2846FFF7EDFC00E087
:103B18000124204670BD0000002C01400004004034
:103B280000100240002000400044014000480140CD
:103B380070B50268174B184D984201D0A84203D1BE
:103B48007024A2434C682243144E154C984208D066
:103B5800A84206D0134DA84203D0B04201D0A042DB
:103B680004D103252D02AA43CD682A4302608A683E
:103B7800C2620A888262984203D0B04201D0A04251
:103B880001D1097C0163416901221143416100208F
:103B980070BD0000002C01400004004000440140BA
:103BA800004801400020004041680922D2029143A8
:103BB800416081682A22914381607047FEB50446BE
:103BC80000680D46012738405CD12969A868EA6970
:103BD800084369691143084321682B4A1140084387
:103BE8002060E9686068032212039043084360601C
:103BF800A969A068121190430843A0602348844231
:103C080003D10320FFF7CEFD06E02148844232D1DC
:103C18006846FFF7BBFD029800282CD06E68002E7E
:103C280029D029680027EA690B2924D80123DB0356
:103C38009A4213D109068A0D16498958FDF7D4FE10
:103C48004000710840183146FDF7CEFE81B2124897
:103C580008400907490F0143E1600CE009068A0D95
:103C68000C498958FDF7C0FE710840183146FDF728
:103C7800BBFE80B2E0602888E16A80B209090901C8
:103C88000143E1623846FEBDF369FFEF00380140A9
:103C980000440040A85E0008F0FF000008B5054990
:103CA8000A69009203E00A69D20300D5401E002881
:103CB800F9D108BD00E000E030B591B000240694C9
:103CC80007940894182168460994FDF721FF1821E4
:103CD8000AA8FDF71DFF414D2846FFF70DFB404898
:103CE8000121026809050A43026000680840109033
:103CF8003B4801214038426B0A434263406B0E94B3
:103D08000840109020200A9003200B9005200AA953
:103D18000007FFF7AFFCE868012149058843E86020
:103D2800480206900794089406A909942846FFF7C4
:103D380071FBF02000940190029403940494694666
:103D480005942846FFF782FB28694008400028614F
:103D58002869E90488432861072200212846FFF7DB
:103D6800A3FB07221F492846FFF79EFBA8681E49A8
:103D78000840012109070843A8601C481C494089DC
:103D88000880FDF765FF1C481A490068FDF72CFEFE
:103D9800142148430A21FDF727FE00E0401E0028B1
:103DA800FCD1164803220168D2040F239B049943CF
:103DB8001143016001220168920507239B0599437D
:103DC80011430160A86A0521000900010843A8629F
:103DD800686951128843686111B030BD0024014000
:103DE8004010024004FFFF07E8FFFF7FA075FF1F98
:103DF80008000020400D030018000020082701409B
:103E08007CB50025224800950195C16949084900FB
:103E1800C16129462846FFF7E5FB1E490120FFF747
:103E2800E1FB01210846FFF7DDFB1B490120FFF7F5
:103E3800D9FB012468460094457184710471FFF729
:103E48006BFBA00300906846457184710471FFF70D
:103E580063FB102000906846457184710471FFF778
:103E68005BFB202000906846457184710471FFF760
:103E780053FB0021052001F05FFD052001F044FD02
:103E88000021072001F058FD072001F03DFD7CBD11
:103E9800401002400300100001000800F0B587B090
:103EA80018216846FDF734FE05200007FFF7AAFB36
:103EB800444E3046FFF7A6FB4348FFF7A3FB4348B1
:103EC800FFF7A0FB4248C16949084900C1610120C8
:103ED800FFF724FC0220FFF721FC0420FFF71EFC5B
:103EE8000820FFF71BFC80200124002500900520F6
:103EF800019403956946049502940007FFF7BAFBFD
:103F08000520012280210007FEF75EFE40270520DC
:103F1800694600070097FFF7ADFB05200007876299
:103F2800E703694630460097FFF7A4FBB761082707
:103F3800694626480097FFF79DFB10200090052052
:103F480069460007FFF796FB694630460097FFF77A
:103F580091FB69461D480097FFF78CFBE002009033
:103F68000520019403946946049502940007FFF71D
:103F780081FB27030520694600070097FFF77AFBB6
:103F8800694630460097FFF775FBB762052069461A
:103F9800000701950094FFF76DFB2020009069460B
:103FA8003046FFF767FB1020009069463046FFF760
:103FB80061FBA003009069463046FFF75BFB07B042
:103FC800F0BD00000004005000080050000C005034
:103FD80040100240F0B587B000252E4803950168CF
:103FE8008215114301602C48C169D2011143C16196
:103FF800011529484038C26B0A43C263C06B0840A8
:10400800264906900868FF273A0490430122D20502
:104018001043086001262249042008607F20214CB3
:10402800049003A905972046FFF77CFC1E480178F9
:10403800012921D006706846FFF7FAFC02A8FFF7AD
:1040480043FC0E2069460871322048718D716A461A
:10405800002120460095FFF7A1FC0220694608725E
:10406800062048728E721520C87202AA00212046C6
:10407800FFF7DCFB07B0F0BDCA2060625320606226
:10408800A0698006C00F02D12046FFF7D7FC6762FF
:10409800F0E70000007000404010024000E400E03B
:1040A80000E100E0002800401000002000B585B0C5
:1040B80014216846FDF72CFD01204004FFF700FAA3
:1040C8000021152001F05AFC152001F029FC0F20D1
:1040D80069460880FF210020F53102910190039084
:1040E800694608740248FFF723FD05B000BD0000CB
:1040F80000440140F0B58FB0202106A8FDF708FD67
:1041080018216846FDF704FD234801210268890348
:104118000A430260006808400E900120FFF70AFB7E
:1041280001200024012540020527059502263F07A6
:104138000090029403946946019604943846FFF768
:1041480099FAA8020595009002940394694601968D
:1041580004943846FFF78EFAE1204002079008944D
:10416800069409940A940C940D940C200B4C0B9013
:1041780006A92046FFF722FD2046FFF715FD206817
:1041880028432060E0698002C00FFBD0E06940024C
:10419800C00FF7D00FB0F0BD40100240003801400A
:1041A800F0B58FB0202106A8FDF7B2FC18216846AB
:1041B800FDF7AEFC3448C26A012149040A43C262D1
:1041C800C26A8A43C262C26B0A43C263C06B0840B8
:1041D8000E900120FFF7AEFA0024012508200527DC
:1041E800059502263F0700900294039469460196BC
:1041F80004943846FFF73EFA04200595009002948F
:1042080003946946019604943846FFF733FAE1208F
:10421800800107900894069409940A940C940D94CC
:104228000C201A4C0B9006A92046FFF7C7FCA06883
:10423800C000C00879000843A060A06807214906AB
:104248008843F9100843A0602046FFF7ADFC1048EA
:104258000168090A090201600E49A0040860206883
:10426800202108432060206810210843206020682E
:1042780028432060E0698002C00FFBD0E06940025B
:10428800C00FF7D00FB0F0BD00100240004400404E
:104298001CE400E000E100E07047704710B501F051
:1042A800ADFA1C4CE061204620300178552907D131
:1042B80000210170FEF796FD17498883FEF728FB59
:1042C800E069FDF7B7FF134980394871442817D0D2
:1042D80043281CD01148124A20811068114B1968D4
:1042E800401A00D5404281B2618010681860228966
:1042F800E06900F0EBF86188E069FEF701F810BDAD
:10430800A088682148436421FDF76EFBE3E7E08855
:10431800E1E700004C080020700800201A040000A3
:10432800000000205000002070B501F01FFAFDF7D2
:1043380076FE01F0DDF9FDF73FFD01F05DF800F0D4
:104348009BF80A4C21696069FEF74DFE2546803DC1
:10435800A87007492069FEF746FEE87000F096FF4E
:10436800FEF776F800F056FE70BD00004C080020FD
:10437800808EF20D054989688A093C210A400A4065
:104388000349895CC906C90EC8407047001002403D
:10439800D85E000805498968054A4904490F89001B
:1043A800515CC906C90EC8407047000000100240A1
:1043B800185F000810B50B49886838221040082893
:1043C8000AD010280AD0086801218004400F8140D3
:1043D8000548FDF709FB10BD044810BD00F008F8BA
:1043E80010BD0000001002400024F40000127A0002
:1043F80010B50D4AD0680D498007800F022802D0F9
:10440800032800D14910D068440FD0684006430FF4
:10441800D068641C4004400E4843591CFDF7E4FA78
:104428002146FDF7E1FA10BD001002400024F40017
:1044380001090A2200075143000F4018C0B2704713
:104448000B48016DC907C90F03D0C16D0122114383
:10445800C165016D4907C90F08D0C16D0422114318
:10446800C16504489201018811430180704700002A
:10447800002800405400002070B51249114C4979B9
:1044880000208034104D432908D0442910D12846F3
:104498001030FEF70DFDAA280BD00EE00020287082
:1044A80009481030FEF7A2FC5A2801D1298AE18078
:1044B80070BD05481030FEF779FD5A28F8D1298AD1
:1044C800A18070BDCC0700206600002070B515469D
:1044D8000A460024C1172346FDF7D6FA2A46234682
:1044E800FDF7D2FA7D22D2000023FDF7A7FAC822F1
:1044F8000023FDF7A3FA0025144A2B4612882D1A2B
:104508008B4101DAD30603D4002903DA920601D5D8
:10451800002001460E4A938994819B1CDD17C01A1E
:104528000C4AA9415369002906DA002801DB014633
:1045380000E041428B4202D31818506100E05461F8
:1045480051691069814200D3506170BD5400002048
:10455800660000204C08002010B5094C6288211D17
:1045680050546088C821401C80B2FDF73DFA618034
:104578002088814203D1C821FDF736FA218010BD79
:10458800DC06002008B500206946087000F0F4F940
:104598000520012202210007FEF716FB0A20FFF77B
:1045A8007DFB00F0B5FBFA20FFF778FB00F0F8FB85
:1045B80001226946192000F065F940B2002805D1AA
:1045C8006846007802494006400E087008BD0000A1
:1045D800C807002070B50124052524032D070022F3
:1045E80021462846FEF7F0FA012000F055FF012287
:1045F800D60231462846FEF7E7FA022000F04CFFC3
:10460800002231462846FEF7DFFA022000F044FF78
:10461800012221462846FEF7D7FA70BD70B5052459
:104628000122240711032046FEF7CEFA012000F0EC
:1046380033FF0122D50229462046FEF7C5FA02209B
:1046480000F02AFF002229462046FEF7BDFA022084
:1046580000F022FF70BDF8B500240127FF020526EF
:1046680025463607022000F017FF0122394630465A
:10467800FEF7AAFA012000F00FFF6006040E0121E0
:1046880009033046FEF799FA002801D0641CE4B209
:10469800012000F001FF002239463046FEF794FA67
:1046A8006D1CEDB2082DDDD32046F8BDF8B5012705
:1046B8000024FF02052605463607280601D50122F3
:1046C80000E00022012109033046FEF77DFA0120AF
:1046D80000F0E2FE012239463046FEF775FA680618
:1046E800050E022000F0D8FE002239463046FEF7BB
:1046F8006BFA012000F0D0FE072C04D1012211032F
:104708003046FEF761FA641CE4B2082CD5D3F8BD34
:1047180070B5022000F0C0FE0122052514032D0704
:1047280021462846FEF750FA012000F0B5FE012286
:10473800D60231462846FEF747FA042000F0ACFEC0
:10474800002221462846FEF73FFA042000F0A4FE86
:10475800002231462846FEF737FA012000F09CFE79
:1047680070BD70B50124052524032D0700222146BC
:104778002846FEF729FA022000F08EFE0122D10217
:104788002846FEF721FA012000F086FE0122214684
:104798002846FEF719FA022000F07EFE70BD70B5BB
:1047A8000122052514032D0721462846FEF70CFA99
:1047B800022000F071FE0122D60231462846FEF79B
:1047C80003FA012000F068FE21462846FEF7F5F9B5
:1047D800C4B2012000F060FE002231462846FEF7F0
:1047E800F3F9022000F058FE204670BDF0B58DB0F8
:1047F8000E4607461446042534216846FDF788F915
:10480800342168460170477084703521C170FFF704
:104818007FFF3420FFF74AFFFFF7C1FF3846FFF755
:1048280045FFFFF7BCFF2046FFF740FFFFF7B7FF44
:10483800FFF76EFF3520FFF739FFFFF7B0FF6F4630
:1048480009E0FFF708FF7855FFF7C4FE785D6D1C97
:104858003070EDB2761C2046641EE4B20028F0D118
:10486800FFF7F9FE0446FFF7D9FEFFF77AFF29465E
:104878006846FDF791FCA04202D100200DB0F0BDC2
:10488800FF20FBE7F8B515460E46074600242A46E2
:1048980031463846FFF7AAFF641CE4B2002801D06D
:1048A800032CF4D3F8BD0000FEB50D4606460021E2
:1048B8006846017115A00068009068460C4646706D
:1048C80085700321FDF768FC01466846C170FFF753
:1048D8001FFF6F46385DFFF7E9FEFFF760FF641CB6
:1048E800E4B2042CF6D3FFF73CFF2320FFF7D6F9F8
:1048F800012201A93046FFF7C5FF684600798542C5
:1049080001D10020FEBD0020C043FEBD34000000E0
:10491800FEB50D46064600216846017115A00068DF
:10492800009068460C46467085700321FDF734FCFC
:1049380001466846C170FFF7EBFE6F46385DFFF72A
:10494800B5FEFFF72CFF641CE4B2042CF6D3FFF786
:1049580008FF0520FFF7A2F9012201A93046FFF759
:1049680091FF68460079854201D10020FEBD0020F4
:10497800C043FEBD34000000F0B5002797B03C46A8
:10498800FA20FFF78BF91A2207A90020FFF72EFF5C
:10499800641CE4B2002801D0032CF4D308A9487D94
:1049A80010244206520E4A7540210B20084320432A
:1049B8002021084310A90874694608702046DF21A1
:1049C80008408021084310A9087469464870088F78
:1049D8005A49800A80024018032189028843000549
:1049E800000DC900401869460887040A8C70C87011
:1049F8005249F323283908460121C903401869465A
:104A08000887040A0C714871732088717820C8716E
:104A1800AA200872732048724B208872BE20C87280
:104A280008A9087F0007000F303000090001801D29
:104A380008776946087310A908780007000F303016
:104A480000090001401D08706946487310A95320E9
:104A580008716946887310A90A2008726946C873E4
:104A680010A9087BCF218006800E0840103018401E
:104A780008308008800010A90873694608749000FF
:104A880014182F4821182F48FCF7AEFF69464874C0
:104A98002B485C382118FF204002FCF7A5FF694627
:104AA80048752748323821182748FCF79DFF694682
:104AB8008875234887302118F1208002FCF794FF7D
:104AC80069468874214821182148FCF78DFF6946FA
:104AD8000546C8741F4821181F48FCF785FF69461A
:104AE8000875CD750876002007AE6D46315C2A5CE6
:104AF800914200D00127401C1928F7DB002F1BD05A
:104B08000520002202210007FEF75EF80A20FFF7C1
:104B1800C5F80024305D295D88420AD00027295D48
:104B2800E0B2FFF7C1FE7F1CFFB2002801D0032FBF
:104B3800F5D3641C192CEDDB17B0F0BDDA020000C8
:104B48000304000000B6020000520200BA3C000054
:104B580000247400FD2E000000AA5800F1B586B0AC
:104B68000024062201A94620FFF78CFE1748184F9B
:104B7800007801AD810040185521C9004618610030
:104B88006A5C684642704819417868460170008836
:104B980001220146D2037043511AFCF73BFF81B250
:104BA800002001E0401CC0B24200BA5A8A4201D932
:104BB800A128F7D3002801D0A12800D9FE20069902
:104BC8000855641C032CDADB07B0F0BDC8070020C9
:104BD8008862000830B591B005460024162201A964
:104BE8004E20FFF74FFE01A962008B5C68464370B8
:104BF80050184378684603700088641C8300C01806
:104C08004009A8520B2CEFDB11B030BD08B50222C9
:104C180069464C20FFF736FE694608784978000255
:104C280000B20843C113CA07094908D0002800DAAE
:104C38004042084A5043FCF7EDFE404208BD0028B8
:104C480000DA4042034A5043FCF7E4FE08BD000086
:104C58006A340000A086010008B5002000900322F5
:104C680069464320FFF70EFE00284BD126496A46C5
:104C7800088812784008D3074000DB0F1843022346
:104C880098439307DB0F5B001843042398435307AB
:104C9800DB0F9B00184340239843D306DB0F9B018F
:104CA800184392060823D20F9843D2001043DA0122
:104CB80090436A465278D3075B0D1843FF230133AC
:104CC80098439307DB0F1B0218431023984353079D
:104CD800DB0F1B011843012312075B02D20F984315
:104CE80052021043802290436A4692781307DB0FE2
:104CF800DB01184308809007C10F04488171D10770
:104D0800C90FC17108BD00001E000020CC0700209B
:104D180038B50CA000680090002403216846FDF710
:104D28003BFA6946C870FFF7F3FC6D46285DFFF74C
:104D3800BDFCFFF734FD641CE4B2042CF6D3FFF786
:104D480010FD38BD34EAC00008B5694608804978C6
:104D58004120FFF7DDFD694609784220FFF7D8FDBD
:104D680008BD000038B50DA1096800916946887032
:104D7800002403216846FDF70FFA6946C870FFF75B
:104D8800C7FC6D46285DFFF791FCFFF708FD641C22
:104D9800E4B2042CF6D3FFF7E4FC38BD344000003D
:104DA80010B507490822087810438B2210404008A4
:104DB8004000FD2210400870FFF7D4FF10BD00002E
:104DC800C907002070B5174A9168411A00D54942B1
:104DD800154DFF24F534AB78A14211DD9060012018
:104DE800012B0FD000280AD05079E02814D0E128F0
:104DF80014D0E0215171FF215079FDF71DF970BDE4
:104E0800012BFCD1074800240C30847007488473B8
:104E180000F094F8AC7070BDE12000E0FE20507105
:104E2800E9E70000C8060020C00800209C07002011
:104E3800F8B507243C4E0B2701233C4DE1292ED021
:104E480006DCA02909D0A4290CD0E02969D10CE0FE
:104E5800EB2940D0FE2964D10DE0334833700C387B
:104E680043705EE0C37108245BE03370C01DFDF73A
:104E7800B1FEC41D55E033707821C1710021017263
:104E88001921417265218172C37207730D21417323
:104E980083730221C1736C210174112441E03370C2
:104EA800698B090AC171A97E0172A98C090A41722C
:104EB800A98C81721D4940318A89120AC272097B04
:104EC8000173298C090A4173298C817318491024AC
:104ED800C978C17325E017493370087C632805D168
:104EE800487C632802D1887C632803D00720072ADE
:104EF80007D816E00E485521A030017011E014289B
:104F08000FD22E180B1877785B7A9F4205D07370F2
:104F1800094B01271E883E431E80401CC0B29042A8
:104F2800EDD3E41FA0B2F8BDD4060020700800201D
:104F3800CC070020C00800205400002008B5144AFF
:104F480000219079052801D2917108BD114B0120EB
:104F580018700F48807A5528F7D10D48C07ABB28B9
:104F6800F3D10B48007B0328EFD10948407B00911F
:104F780007498B7B69464B700549CB7B69460B70AB
:104F88000099AA2389B25372FDF756F808BD0000AC
:104F9800C0080020D40600207047000070B51A4AE7
:104FA800CA2353625323536293691515AB43936124
:104FB800D36D04242343D365D3685B060AD4134C0A
:104FC8002668D3685B0705D423689B1B00D55B4222
:104FD800642BF6DB50619069C008C000906190694D
:104FE800084390610A4801230168DB041943016002
:104FF8009069591108439061906928439061FF2096
:105008005062002070BD0000002800400000002011
:1050180080180240F8B50021684601806348C069DD
:10502800002800DA4042624C962805DD20780A28DC
:1050380003D2401C207000E021705E4800790128EE
:105048006846007817D0400840006A461070574AF2
:10505800803AD57B1346DB79AC460F2D01D8012B5E
:105068000CD0FD2528406D462870927B5F2A08D316
:105078000422104307E001221043E6E702252843F3
:10508800F1E7FB2210402870484D3826403D2A465B
:10509800AE5F494F403A9279BE4201DD012A09D0FC
:1050A800F72630406E4630702678002E05D0102640
:1050B800304304E008263043F4E7EF2630406E46DC
:1050C80030703E4E3E4F36883E4202D02026304356
:1050D80001E0DF2630406E4630706646232E01D848
:1050E800012A0DD0BF2210406A4610703048801C3B
:1050F80002786846002A06D046780120064305E073
:1051080040221043F0E7407846087600684646702B
:105118003C20285E2B4DA84201DA012B12D0FD203D
:105128000640FB20284D064028888304DB0F9B009F
:105138001E436B465E70254B9B7B322B05D20823A2
:105148001E4304E002200643EBE7F7231E406B46AC
:105158005E701F88FF2301339E01002F07D0B043E4
:10516800A1802880002A01D198432880F8BDA18811
:10517800491C89B2A1803C2901D84104F6D50721F0
:10518800490288439843B0432880FDF70BFA2888E2
:10519800C10505D50E49B42008803220A080F8BD8D
:1051A8000005C10F03480171F8BD00004C0800203C
:1051B80060000020D4060020AC0D00001C00002078
:1051C8006D0300001A090000540000209C0700200D
:1051D8007200002010B586B018216846FCF798FCCC
:1051E800234C2046FEF76AFC2068400840002060F7
:1051F800204801684908490001601F4801684908BA
:1052080049000160402005242407A0620102012210
:105218002046FDF7D9FC7D20C000FEF73FFD0220A7
:10522800FEF77CFA0420FEF779FA0820FEF776FAF2
:105238000120FEF773FA01200290002003900490E9
:10524800032001900D48009069460D48FEF712FAB8
:1052580069460C48FEF70EFA69460B48FEF70AFA4B
:1052680069462046FEF706FAFEF7CAFD06B010BDED
:10527800004401400044004000380140FFFF0000A6
:1052880000040050000C005000080050F0B54F4AD0
:105298003C25104640308446455F4D48937820248D
:1052A8000188022B04D24B4EB54201DD214300E0B8
:1052B800A143464C0180403438271021E75F622B18
:1052C80006D9E1231B019F4202DA03880B4301E060
:1052D80003888B4303803D4B5679803300213E4839
:1052E8005C69DA69432E0FD03C4E3D4F9619BE4299
:1052F8005ED88170C826C171F24232DA82790A2AF0
:105308002DD2521C82712DE08171C170C5790A2D90
:1053180002D26D1CC57100E00171324D7D19324F0A
:10532800BD4210D966463E25755F2E4E4636AD19EC
:105338002D4E4636B54210D8002A00DA52427D2555
:10534800ED00AA4209DA8278521CD2B28270032A8E
:105358001ED98170012242711AE0817018E04171F2
:1053680000E081717D22D200AA1A1F4D1E3DAA427B
:1053780003D91E4A1278920709D5C278521CD2B2B4
:10538800C270032A04D9C1700122027112E0C170EF
:105398000279012A0ED04279012A08D1144D1A69DE
:1053A8005519AC420ED21248404220185861F0BD3F
:1053B800C170D2E70F4A944201D95042F5E75961CA
:1053C8000171F0BD5A614171F0BD0000CC070020A9
:1053D80054000020EA0B000066000020DB370000C4
:1053E800B66F0000DCF1FFFF640500001C00002020
:1053F8008011C9FF40771B003EB5002469460C7236
:105408008C8020494878032802D2401C48703EBD51
:105418001D4D28788007FAD401A902A800F05CFC89
:105428000028F4D06846017A1848002921D00129BB
:1054380002D0022910D101E0154901E01449A83130
:10544800009169468B880F49007C04221D31FDF7C5
:105458001FFEC4B2642CDAD82888022108432880A9
:105468000A4D642180352869FCF7BEFA60436861FB
:105478003EBD0849009169468B8802490822007C94
:105488002831E4E76600002054000020CC07002003
:10549800080400206C0500200A2148430004000C81
:1054A80001D0401EFAE7704710B5A4210848FCF760
:1054B8002FFB08490020088007497D2208800448FE
:1054C800064980308180D200C280018110BD000071
:1054D800CC0700201C000020540000201A04000003
:1054E80005480168491C016004480168002902D088
:1054F8000168491E01607047000000200400002078
:1055080070B527490B688A1513430B600B685B0558
:10551800DB0FFBD0224C4034236A01252B43236246
:10552800236A9B07DB0FFBD01E4B1D6815431D60CC
:10553800002807D1E269012000040243E261E26920
:105548008243E26188680F2212029043886088686B
:10555800C008C0008860382288681042FCD188687A
:1055680007221203904388600F4D2846FEF7FEF885
:105578002846FEF79DFA0121E0694902032212023A
:1055880090430843E061E06989010843E06160698C
:10559800800880006061606980008008606170BD7B
:1055A80000100240007000400024F4000249014845
:1055B800886070470019000800ED00E001200249EA
:1055C800C0430861704700000044014001200249BF
:1055D800C0430861704700000044014070B50D4C9D
:1055E8000B4A0025217A90420BD022460932885472
:1055F800207AC821401CC0B2FCF7F6F92172257147
:1056080070BD0029FCD00120A070A171257270BD69
:10561800FFFF0000C008002070B50F4CE569E06985
:105628008006C00F03D0606AC0B2FEF795FFE0693C
:10563800C006C10F1020002903D0206207490122AB
:105648004A73E1690907C90F03D0616A206208201B
:105658002062256270BD0000003801409C070020D0
:1056680070B50F4CE569E0698006C00F03D0606A29
:10567800C0B2FFF7B3FFE0691026C006C00F0028CC
:1056880003D026620748FFF7A9FFE0690007C00FAB
:1056980003D0606A266208202062256270BD00007F
:1056A80000440040FFFF0000F8B501260D4F360307
:1056B8000C460546BE610220FEF7F0FA0A490B4B7C
:1056C80009E02878886218466D1CCA695206D20F0C
:1056D80001D1401EF9D22046641EA4B20028F0D1A0
:1056E800BE62F8BD0004005000440040FFFF000007
:1056F8007CB5002000900190402005252D07A86169
:105708000A20FEF7CBFAFCF7FBFA1648FCF734FB45
:10571800FCF70CFBFCF7C8FF134CA074FCF7DCFA91
:105728004020A8626846FFF719FA68464078FCF7F7
:10573800BBFF207268468078FCF7B6FFC0B2607283
:10574800217A814201D90A4600E00246A2738142C9
:1057580001D20A4600E002460818E27340082074A5
:105768007CBD000020000014CC070020F0B5002507
:105778008FB02F462C461E4E68460D95FFF72AFA25
:105788000120A84040031DD069006846415A1948C5
:105798007A00101846221152174A2823D219D356D4
:1057A800C91889B28182A14203D90C4611496031D6
:1057B8008D76808AB04200D206460D9940187F1C2B
:1057C800FFB20D906D1CEDB2192DD9D309490D9872
:1057D80080310D46403DC8602C87A21BAE870A80E9
:1057E800002F03D03946FCF7FFF8E8870FB0F0BD6B
:1057F80050C30000CC0700207008002010B5FFF748
:1058080005FA002801DB014600E04142322900DCAC
:105818000020024A1C21515E081A10BD70080020A1
:10582800FEB500259E46002919D10020FEBD0024A2
:105838004F1B7F1E0FE06600B446835B3618009648
:105848007688B34205D90196009E73806346019E0F
:10585800C652641CE4B2A742EDDC6D1CEDB2954261
:10586800E5D3002518E000244E1BF61E10E0670063
:10587800BC466346C75B1B1800935B889F4205D2F2
:105888000193009B5F806746019BC353641CE4B28D
:10589800A642ECDC6D1CEDB27545E4D300247244DD
:1058A8002346891A04E05A00825A14195B1CDBB299
:1058B8009942F8DC002B05D019462046FCF794F8ED
:1058C80080B2FEBD0088FEBD0FB410B503A9044B1D
:1058D800044A029800F084F810BC08BC04B01847C9
:1058E800595B000814000020002809DBC106C90E16
:1058F8000120884003490860BFF34F8FBFF36F8FC3
:105908007047000080E100E0002805DBC106C90EF1
:1059180001208840014908607047000000E100E06C
:10592800002805DBC106C90E01208840014908602E
:105938007047000000E100E08307FF22DB0E9A4079
:105948008907090E9940002808DB830809489B004D
:105958001B18186890430843186070470007000F29
:105968000838830804489B001B18D86990430843EB
:10597800D861704700E400E000ED00E08307FF22F3
:10598800DB0E9A408907090E9940002808DB830836
:1059980009489B001B181868904308431860704713
:1059A8000007000F0838830804489B001B18D869B3
:1059B80090430843D861704700E400E000ED00E040
:1059C80002E008C8121F08C1002AFAD170477047C0
:1059D800002001E001C1121F002AFBD1704700001E
:1059E800FFB58DB00446002506E025280AD0109A98
:1059F8000F999047641C6D1C20780028F5D1284623
:105A080011B0F0BD00270121484A009700E0074384
:105A1800641C23780846203B98401042F7D1207830
:105A28002E2817D1042007436078641C2A280CD13B
:105A38000E98641C02C800910E900BE000990A228F
:105A4800514330394018641C0090207801463039A1
:105A58000929F3D920780028D1D0642808D06928EA
:105A680006D075281ED0109A0F9990476D1C5BE0E0
:105A78000A200E99019001C90E91002802DA4042CD
:105A88002D2102E0390504D52B216A461172012126
:105A980003E0F90704D02021F7E70BAE0B910DE0E6
:105AA8000021FAE70A200E99019001C90E91F7E743
:105AB8000199FBF799FF3031761E31700028F7D134
:105AC80003A8801B20300190780701D5009801E0D9
:105AD800012000900199884201DD401A00E0002071
:105AE8000027009006E002A8109AC05D0F99904721
:105AF8006D1C7F1C0B988742F5DB04E0109A302060
:105B08000F9990476D1C0099481E00900029F5DCFC
:105B180005E03078109A761C0F9990476D1C019912
:105B2800481E01900029F4DC641C65E7092801007F
:105B380010B5FEF7B3F9FEF7DDFAFEF731FBFEF715
:105B4800BBF8FEF7B3FAFEF745FAFEF71BFD10BDEA
:105B58000249CA691206FCD58862704700380140BC
:105B6800F0B58C4623490646CC6900206342002CD8
:105B780001DB214600E019461F4A002589185742D3
:105B88001E4AB94207D21178491CC9B21170557022
:105B980014290ED80AE0002C00DA1C4618496118AE
:105BA800B9420ED25178491C517015705178142998
:105BB80009D911785A20142906D901213170157094
:105BC80008E015705570F0BD5178142902D90221EA
:105BD800317055700749382240393E238A5ECB5EC2
:105BE800D21A142A01DB0A8F00E0CA8F61460A80A4
:105BF800F0BD00004C080020D8F5FFFF740000201D
:105C0800B0EBFFFFF0B58C462D490026CC69634206
:105C1800002C01DB214600E019462A4A0025891894
:105C28005742294AB94208D21178491CC9B21170A1
:105C380055709570142914D80DE0271E00DA1F46F8
:105C4800224979181F4F7F42B94212D25178491C14
:105C58005170157095705178142902D891781429CB
:105C68002BD911785A26142915D9032101701570DA
:105C78001EE0002C00DA1C461549164B61189942A3
:105C880005D29178491C917055701570E6E715702A
:105C98005570957011E05178142903D904210170C9
:105CA800557005E09178142902D905210170957085
:105CB80003484038818F604601803046F0BD0000BF
:105CC8004C080020D8F5FFFF80000020B0EBFFFF54
:105CD80088E1FFFF6419000070B5224A3E23D35EB5
:105CE800214D00245B19214DAB4238D23823D35EB5
:105CF8001F4DAB4233DA3C231C4DD35E6D1CAB42C7
:105D08002DDD1346403B5B795A24432B1BD11346A8
:105D18004033DB69002B01DB1D4600E05D427D2638
:105D2800F600B5420FDD134D5B196D00AB4201D88B
:105D3800012300E0022303703C20105E0E4B9842C2
:105D480003DA908F0AE00023F5E738200A4B105E4B
:105D5800BE33984201DD108F00E0D08F08802046C6
:105D680070BD00000C0800203BF6FFFFC3090000CF
:105D7800D80E00004F1400004E0C000086B000271B
:105D88003D46049762B60121384802680A4302601A
:105D9800006808400090354809074038C26B0A433C
:105DA800C263C06B084000900020FFF7A9FB304891
:105DB800C16903220902090A92071143C1612D48EA
:105DC80001690222114301610020FFF7B1FEFCF7CF
:105DD80089FCFFF769FBFCF76DFA274C274803900D
:105DE800274806682088400402D43046FEF7EAFFB8
:105DF800F01B00D54042642802DC20884004EFD51F
:105E08000398807B642802D20399401C88731C483D
:105E180001681CA0FFF758FD3746FEF73FFA6D1CD6
:105E280005212846FBF7E0FD002902D02088400420
:105E380007D5049800280BD000200490FEF774FAC8
:105E4800002505212846FBF7CFFD042902D004E0F0
:105E58000120F2E70020FEF777FF2088C107BFD0B6
:105E6800400840002080FCF753FDB9E7401002408D
:105E780004ED00E000E000E0540000209C07002052
:105E8800000000202A2A2A7379737469636B436FB0
:105E9800756E742A2A2A25642A2A2A0D0A00000007
:105EA80001000000020000000400000006000000DD
:105EB800080000000A0000000C00000010000000AC
:105EC80020000000400000008000000000010000E9
:105ED80000000000000000000000000000000000BA
:105EE80000000000000000000000000000000000AA
:105EF8000100000002000000030000000400000090
:105F0800060000000700000008000000090000006B
:105F18000000000000000000000000000000000079
:105F2800010000000200000003000000040000005F
:105F3800D000DB00E600F200FE000B01180126018C
:105F48003401430153016301730184019601A901DE
:105F5800BC01D001E401F9010F0225023C02540200
:105F68006C0286029F02BA02D502F1020D032A03CF
:105F7800480366038503A403C403E5030604280451
:105F88004A046D049004B404D804FD0422054705AE
:105F98006D059205B905DF0506062C0653067A0637
:105FA800A106C806EF0617073E0765078C07B20764
:105FB800D907000826084C0872089708BC08E108A9
:105FC80006092A094D0971099409B609D809FA0977
:105FD8001B0A3C0A5C0A7C0A9B0ABA0AD80AF60A17
:105FE800130B300B4C0B680B830B9D0BB70BD10BB2
:105FF800EA0B020C1A0C320C490C5F0C760C8B0C59
:10600800A00CB50CC90CDC0CF00C020D150D270DFD
:10601800380D490D5A0D6A0D7A0D890D980DA70D89
:10602800B60DC40DD10DDE0DEB0DF80D040E100EDE
:106038001C0E280E330E3E0E480E530E5D0E660ED5
:10604800700E790E820E8B0E940E9C0EA40EAC0E62
:10605800B40EBC0EC30ECA0ED10ED80EDF0EE50E5E
:10606800EB0EF20EF80EFD0E030F090F0E0F130FB5
:10607800190F000000002110422063308440A55011
:10608800C660E770088129914AA16BB18CC1ADD176
:10609800CEE1EFF13112100273325222B55294421E
:1060A800F772D662399318837BB35AA3BDD39CC3C6
:1060B800FFF3DEE36224433420040114E664C7746A
:1060C800A44485546AA54BB528850995EEE5CFF516
:1060D800ACC58DD55336722611163006D776F666BE
:1060E8009556B4465BB77AA719973887DFF7FEE766
:1060F8009DD7BCC7C448E5588668A778400861188A
:1061080002282338CCC9EDD98EE9AFF948896999B5
:106118000AA92BB9F55AD44AB77A966A711A500A5D
:10612800333A122AFDDBDCCBBFFB9EEB799B588B05
:106138003BBB1AABA66C877CE44CC55C222C033CA9
:10614800600C411CAEED8FFDECCDCDDD2AAD0BBD55
:10615800688D499D977EB66ED55EF44E133E322EFD
:10616800511E700E9FFFBEEFDDDFFCCF1BBF3AAFA5
:10617800599F788F8891A981CAB1EBA10CD12DC103
:106188004EF16FE18010A100C230E3200450254099
:1061980046706760B9839893FBA3DAB33DC31CD3F9
:1061A8007FE35EF3B1029012F322D23235421452E9
:1061B80077625672EAB5CBA5A89589856EF54FE545
:1061C8002CD50DC5E234C324A01481046674476439
:1061D80024540544DBA7FAB79987B8975FE77EF799
:1061E8001DC73CD7D326F2369106B0165766767689
:1061F800154634564CD96DC90EF92FE9C899E98965
:106208008AB9ABA94458654806782768C018E108D8
:106218008238A3287DCB5CDB3FEB1EFBF98BD89B38
:10622800BBAB9ABB754A545A376A167AF10AD01A28
:10623800B32A923A2EFD0FED6CDD4DCDAABD8BAD84
:10624800E89DC98D267C076C645C454CA23C832C78
:10625800E01CC10C1FEF3EFF5DCF7CDF9BAFBABFD8
:10626800D98FF89F176E367E554E745E932EB23EC8
:10627800D10EF01E03010000000000000000000025
:10628800D24C94489A44DE405C3D123AFA361134B6
:106298005431C12E552C0D2AE727E025F8232B224F
:1062A8007720DC1E591DEB1B901A49191418EF169C
:1062B800DA15D314DB13F01211123E117510B70F53
:1062C800030F580EB50D1B0D880CFD0B780BFA0A41
:1062D800820A100AA4093C09DA087C082208CD07BA
:1062E8007C072F07E5069E065B061A06DD05A30553
:1062F8006B0535050205D104A20476044B0422047B
:10630800FB03D503B1038F036D034D032F03120362
:10631800F602DC02C202A90291027B026502500267
:106328003C02280216020402F301E201D201C30171
:10633800B401A60199018B017F01730167015B011B
:10634800510146013C0132012901200117010F01C9
:106358000701FF00F700F000E800E200DB00D500CD
:10636800CF00C900C300BD00B800B300AE00A9004B
:10637800A400A0009B00970093008F008B0087006B
:10638800840080007D0079007600730070006D0045
:106398006A0067006500620060005D005B005900EC
:1063A80057005400520050004E004C004B0049006A
:1063B800470045004400420040003F003D003C00CB
:1063C8003A000000EC63000800000020CC07000041
:1063D800F61B00087C690008CC0700209406000022
:1063E800D85900080216000100046524F4000120B1
:1063F80008282D3241191E2307521408102E790C33
:10640800B60BB60BB30BAF0BA90BA20B9A0B900BE9
:10641800850B770B640B4A0B270BF90ABE0A770A20
:10642800250ACA096709FC08930C0B021012090C0B
:10643800050CFF0BF90BF30BEB0BE10BD60BC73C71
:106448001004940B672E1008D20A6D0AFD09832ADE
:106458001018F40C4A0C490C460C420C3B0C360C38
:10646800300C2A0C230C1A0C113A100EF60BE00B08
:10647800BD0B7F0B190B830ACE541012340D730C0D
:10648800700C6C0C660C610C590C530C4D36123F99
:106498003410042C0C1E6E100AEB0BB10B460BA526
:1064A8000AE32A3012200D960C930C8F0C890C836A
:1064B8000C7D0C780C71361006600C580C4E681068
:1064C8002A310C190CEF0B890B910AFC08650D6534
:1064D8000DAA0CA80CA40C9E0C970C910C8B0C8686
:1064E8000C810C7C0C750C6D0C6466124892101CA7
:1064F800070CA80BBA0A370D370DC90CC90CC60C06
:10650800C30CBD0CB50CAD0CA70CA23610069A0C2A
:10651800940C8D681010770C650C4C0C330CE40B44
:10652800FA0B5D0B5B021020570B500B480B3D0B11
:106538002F0B1C0B030BE50AC00A960A670A330ADD
:10654800FC09C209840942A820051C0CB50B0225C8
:10655800501010A10B970B8B0B7B0B660B490B2470
:106568000BF72E140A830A3F0AF809AB09572616B7
:10657800944C25521404080C0452100AF80BF00B22
:10658800E60BDA0BCA3C1404960B687E1408D30A8F
:106598006E0AFF0986503408EC0C340C320C2F4874
:1065A800100A1C0C140C0C0C020CF52E16D0201022
:1065B8000C840B450BF10A8C0A1A0A982A1004DB82
:1065C8000C6EE61269B810065F0C5A0C52BE140C19
:1065D800460C3E0C350C2B0C1D0C0A221406BF0B66
:1065E800610BC7A6140AFC081F0D1F0D8C0C8A1C12
:1065F8001006800C7A0C743616674E100A590C5027
:106608000C450C370C229416CED63404CA0A072639
:1066180016B71E36B12036A01E2588168488127536
:106628006C10065B0C470C2D921014660B590BFA74
:106638000A0E0B200B2D0B340B360B330B2C0C18BE
:10664800100E0BF40AD20AA80A760A3E0A020AC4F5
:10665800201240A81404A50B475014086C0B760BA5
:106668007C0B7D22100A740B6A0B5A0B420B212EED
:106678001404BC0A7A521806EA099F095022162502
:10668800AA1008B20BBC0BC10BC304100CBE0BB88C
:106698000BB00BA60B980B863E1808450B090BB5DB
:1066A8000A50201A72A01404420CD4401004E00BC3
:1066B800E202100ADE0BD90BD30BCB0BC03C169FA2
:1066C80024180C5C0B1F0BC90A620AF3097ECA1650
:1066D800840E122002161F4E1A18981A0CD410068F
:1066E800FD0BF40BE8361406C50BAA0B7EE0140468
:1066F800A30AE5501006B50CA10C9CF23A977C1839
:10670800088A0C900C8C0C888210087E0C790C6F0F
:106718000C62FA1A33AA000528F20B8F0A2A302ACB
:10672800420E410E1C0EF10DD70DC40DB50DA90D6D
:106738009F0D970D8F0D870D810D7C0D760D6F0DBB
:10674800610D4A0D330DFE0C7F2A1026DD0DB30DA9
:106758009C0D8E0D820D790D720D6A0D620D5A0D0C
:10676800530D4D0D490D440D340D1A0D000DD30C6C
:10677800CD2A180ABD0D900D7E0D730D6BFE100607
:106788005F0D590D5246140A430D3F0D3B0D390D4F
:1067980031EC300E060DEF0CBE0CF90A410E7F0DE0
:1067A8006420124E22301C460D3E0D350D2C0D274F
:1067B8000D230D210D1E0D170D040DEA0CD10CA68D
:1067C8000CFC7E100A390E060EE80DD30DC3AA1074
:1067D80014AA0DA10D980D910D8A0D850D800D7AC5
:1067E8000D6E0D5B6200052C290DE20B2A1006EFD9
:1067F8000DC50DAEF61004930D89F41004790D71D2
:10680800D61004630D5ED81414540D470D300D16C0
:106818000DFA0C9C0B2E0E9A0D780D690E10085B64
:106828000D570D4C0D45F018043E0D3A8C16351ECB
:1068380014042A0D18221AE88E141C020B14004C9A
:10684800001E00550028005C003200610041006411
:1068580000F40C920C8E86168A801E7762041669E4
:10686800AC1A5ADC1808420C2E0C100CDD3E180627
:10687800FD0A480A1D90180A6A0DBA0CB70CB40C28
:10688800AEDC1E9F3004168FB61C06820C7B0C7281
:106898005E041C04540C392A041EAFE8031C0CC700
:1068A80009C4096F0DD20CD00CCD30041C04C20CE5
:1068B800BA0E031C04AA0CA50E031E9B2C041C066E
:1068C8008C0C7F0C6A58041014060C780B5C0AC6F2
:1068D80009630DE10CE00CDE0CDB0CD630212E1226
:1068E800B6621404B00CAC581A9D1A1E7CB8041E6B
:1068F8004556041008C509A30DE90CE9C81006E5BA
:106908000CE10CDA5C3006C30CBF0CBC3012B19041
:10691800129B8C1C046E0C5528041406C6099C0D89
:1069280002EC1C18FE0CFD0CF80CF70CF50CF30C23
:10693800EE0CDF0CD80CC70CC40CB9EE041297EAA5
:106948001A6C620352540B2A03EAA10001201B644B
:1069580000000102030405060708090A0B0C0D0EC6
:106968000F10111213141516171E0005003500001C
:04697800000000001B
:04000005080019C115
:00000001FF
