Component: ARM Compiler 5.06 update 6 (build 750) Tool: armlink [4d35ed]

==============================================================================

Section Cross References

    startup_stm32g030xx.o(RESET) refers to startup_stm32g030xx.o(STACK) for __initial_sp
    startup_stm32g030xx.o(RESET) refers to startup_stm32g030xx.o(.text) for Reset_Handler
    startup_stm32g030xx.o(RESET) refers to stm32g0xx_it.o(i.NMI_Handler) for NMI_Handler
    startup_stm32g030xx.o(RESET) refers to stm32g0xx_it.o(i.HardFault_Handler) for HardFault_Handler
    startup_stm32g030xx.o(RESET) refers to stm32g0xx_it.o(i.SVC_Handler) for SVC_Handler
    startup_stm32g030xx.o(RESET) refers to stm32g0xx_it.o(i.PendSV_Handler) for PendSV_Handler
    startup_stm32g030xx.o(RESET) refers to stm32g0xx_it.o(i.SysTick_Handler) for SysTick_Handler
    startup_stm32g030xx.o(RESET) refers to stm32g0xx_it.o(i.RTC_TAMP_IRQHandler) for RTC_TAMP_IRQHandler
    startup_stm32g030xx.o(RESET) refers to stm32g0xx_it.o(i.EXTI0_1_IRQHandler) for EXTI0_1_IRQHandler
    startup_stm32g030xx.o(RESET) refers to stm32g0xx_it.o(i.EXTI2_3_IRQHandler) for EXTI2_3_IRQHandler
    startup_stm32g030xx.o(RESET) refers to stm32g0xx_it.o(i.EXTI4_15_IRQHandler) for EXTI4_15_IRQHandler
    startup_stm32g030xx.o(RESET) refers to stm32g0xx_it.o(i.TIM14_IRQHandler) for TIM14_IRQHandler
    startup_stm32g030xx.o(RESET) refers to stm32g0xx_it.o(i.TIM16_IRQHandler) for TIM16_IRQHandler
    startup_stm32g030xx.o(RESET) refers to bsp_hardiic_reg.o(i.I2C2_IRQHandler) for I2C2_IRQHandler
    startup_stm32g030xx.o(RESET) refers to stm32g0xx_it.o(i.USART1_IRQHandler) for USART1_IRQHandler
    startup_stm32g030xx.o(RESET) refers to stm32g0xx_it.o(i.USART2_IRQHandler) for USART2_IRQHandler
    startup_stm32g030xx.o(.text) refers to system_stm32g0xx.o(i.SystemInit) for SystemInit
    startup_stm32g030xx.o(.text) refers to entry.o(.ARM.Collect$$$$00000000) for __main
==============================================================================

Removing Unused input sections from the image.

    Removing startup_stm32g030xx.o(HEAP), (512 bytes).
    Removing main.o(.rev16_text), (4 bytes).
    Removing main.o(.revsh_text), (4 bytes).
    Removing main.o(i.Error_Handler), (2 bytes).
    Removing main.o(i.Process_500ms_CYC2), (10 bytes).
    Removing gpio.o(.rev16_text), (4 bytes).
    Removing gpio.o(.revsh_text), (4 bytes).
    Removing gpio.o(i.GPIO_OpenWEAK_EXTI), (58 bytes).
    Removing gpio.o(i.LL_EXTI_EnableIT_0_31), (16 bytes).
    Removing adc.o(.rev16_text), (4 bytes).
    Removing adc.o(.revsh_text), (4 bytes).
    Removing adc.o(.data), (2 bytes).
    Removing rtc.o(.rev16_text), (4 bytes).
    Removing rtc.o(.revsh_text), (4 bytes).
    Removing rtc.o(i.RTC_ByteToBcd2), (24 bytes).
    Removing tim.o(.rev16_text), (4 bytes).
    Removing tim.o(.revsh_text), (4 bytes).
    Removing tim.o(i.GT_TIM16_CMD), (44 bytes).
==============================================================================

Image Symbol Table

    Local Symbols

    Symbol Name                              Value     Ov Type        Size  Object(Section)

    ../Core/Src/adc.c                        0x00000000   Number         0  adc.o ABSOLUTE
    ../Core/Src/gpio.c                       0x00000000   Number         0  gpio.o ABSOLUTE
    ../Core/Src/main.c                       0x00000000   Number         0  main.o ABSOLUTE
    ../Core/Src/rtc.c                        0x00000000   Number         0  rtc.o ABSOLUTE
    ../Core/Src/stm32g0xx_it.c               0x00000000   Number         0  stm32g0xx_it.o ABSOLUTE
    ../Core/Src/system_stm32g0xx.c           0x00000000   Number         0  system_stm32g0xx.o ABSOLUTE
    ../Core/Src/tim.c                        0x00000000   Number         0  tim.o ABSOLUTE
    ../Core/Src/usart.c                      0x00000000   Number         0  usart.o ABSOLUTE
    ../Drivers/STM32G0xx_HAL_Driver/Src/stm32g0xx_ll_adc.c 0x00000000   Number         0  stm32g0xx_ll_adc.o ABSOLUTE
    ../Drivers/STM32G0xx_HAL_Driver/Src/stm32g0xx_ll_dma.c 0x00000000   Number         0  stm32g0xx_ll_dma.o ABSOLUTE
    ../Drivers/STM32G0xx_HAL_Driver/Src/stm32g0xx_ll_exti.c 0x00000000   Number         0  stm32g0xx_ll_exti.o ABSOLUTE
    ../Drivers/STM32G0xx_HAL_Driver/Src/stm32g0xx_ll_gpio.c 0x00000000   Number         0  stm32g0xx_ll_gpio.o ABSOLUTE
    ../Drivers/STM32G0xx_HAL_Driver/Src/stm32g0xx_ll_pwr.c 0x00000000   Number         0  stm32g0xx_ll_pwr.o ABSOLUTE
    ../Drivers/STM32G0xx_HAL_Driver/Src/stm32g0xx_ll_rcc.c 0x00000000   Number         0  stm32g0xx_ll_rcc.o ABSOLUTE
    ../Drivers/STM32G0xx_HAL_Driver/Src/stm32g0xx_ll_rtc.c 0x00000000   Number         0  stm32g0xx_ll_rtc.o ABSOLUTE
    ../Drivers/STM32G0xx_HAL_Driver/Src/stm32g0xx_ll_tim.c 0x00000000   Number         0  stm32g0xx_ll_tim.o ABSOLUTE
    ../Drivers/STM32G0xx_HAL_Driver/Src/stm32g0xx_ll_usart.c 0x00000000   Number         0  stm32g0xx_ll_usart.o ABSOLUTE
    ../Drivers/STM32G0xx_HAL_Driver/Src/stm32g0xx_ll_utils.c 0x00000000   Number         0  stm32g0xx_ll_utils.o ABSOLUTE
    ../clib/../cmprslib/lz77c.c              0x00000000   Number         0  __dclz77c.o ABSOLUTE
    ../clib/microlib/division.c              0x00000000   Number         0  idiv.o ABSOLUTE
    ../clib/microlib/division.c              0x00000000   Number         0  uidiv.o ABSOLUTE
    ../clib/microlib/division.c              0x00000000   Number         0  uldiv.o ABSOLUTE
    ../clib/microlib/division.c              0x00000000   Number         0  ldiv.o ABSOLUTE
    ../clib/microlib/init/entry.s            0x00000000   Number         0  entry8a.o ABSOLUTE
    ../clib/microlib/init/entry.s            0x00000000   Number         0  entry11b.o ABSOLUTE
    ../clib/microlib/init/entry.s            0x00000000   Number         0  entry11a.o ABSOLUTE
    ../clib/microlib/init/entry.s            0x00000000   Number         0  entry10b.o ABSOLUTE
    ../clib/microlib/init/entry.s            0x00000000   Number         0  entry10a.o ABSOLUTE
    ../clib/microlib/init/entry.s            0x00000000   Number         0  entry9b.o ABSOLUTE
    ../clib/microlib/init/entry.s            0x00000000   Number         0  entry9a.o ABSOLUTE
    ../clib/microlib/init/entry.s            0x00000000   Number         0  entry8b.o ABSOLUTE
    ../clib/microlib/init/entry.s            0x00000000   Number         0  entry7b.o ABSOLUTE
    ../clib/microlib/init/entry.s            0x00000000   Number         0  entry7a.o ABSOLUTE
    ../clib/microlib/init/entry.s            0x00000000   Number         0  entry.o ABSOLUTE
    ../clib/microlib/init/entry.s            0x00000000   Number         0  entry5.o ABSOLUTE
    ../clib/microlib/init/entry.s            0x00000000   Number         0  entry2.o ABSOLUTE
    ../clib/microlib/longlong.c              0x00000000   Number         0  llmul.o ABSOLUTE
    ../clib/microlib/longlong.c              0x00000000   Number         0  llsshr.o ABSOLUTE
    ../clib/microlib/longlong.c              0x00000000   Number         0  llshl.o ABSOLUTE
    ../clib/microlib/longlong.c              0x00000000   Number         0  llushr.o ABSOLUTE
    ../clib/microlib/printf/printf.c         0x00000000   Number         0  printf2.o ABSOLUTE
    ../clib/microlib/printf/printf.c         0x00000000   Number         0  printf3.o ABSOLUTE
    ../clib/microlib/printf/printf.c         0x00000000   Number         0  printf4.o ABSOLUTE
    ../clib/microlib/printf/printf.c         0x00000000   Number         0  printf1.o ABSOLUTE
    ../clib/microlib/printf/printf.c         0x00000000   Number         0  printf0.o ABSOLUTE
    ../clib/microlib/printf/printf.c         0x00000000   Number         0  printfa.o ABSOLUTE
    ../clib/microlib/printf/printf.c         0x00000000   Number         0  printf8.o ABSOLUTE
    ../clib/microlib/printf/printf.c         0x00000000   Number         0  printfb.o ABSOLUTE
    ../clib/microlib/printf/printf.c         0x00000000   Number         0  printf7.o ABSOLUTE
    ../clib/microlib/printf/printf.c         0x00000000   Number         0  printf6.o ABSOLUTE
    ../clib/microlib/printf/printf.c         0x00000000   Number         0  printf5.o ABSOLUTE
    ../clib/microlib/printf/stubs.s          0x00000000   Number         0  stubs.o ABSOLUTE
    ../clib/microlib/string/memset.c         0x00000000   Number         0  memseta.o ABSOLUTE
    ../clib/microlib/string/strstr.c         0x00000000   Number         0  strstr.o ABSOLUTE
    ../clib/microlib/stubs.s                 0x00000000   Number         0  iusefp.o ABSOLUTE
    ../clib/microlib/stubs.s                 0x00000000   Number         0  useno.o ABSOLUTE
    ../clib/microlib/unhosted.c              0x00000000   Number         0  uread4.o ABSOLUTE
    ../clib/microlib/unhosted.c              0x00000000   Number         0  uwrite4.o ABSOLUTE
    ../fplib/microlib/fpadd.c                0x00000000   Number         0  dadd.o ABSOLUTE
    ../fplib/microlib/fpdiv.c                0x00000000   Number         0  ddiv.o ABSOLUTE
    ../fplib/microlib/fpepilogue.c           0x00000000   Number         0  depilogue.o ABSOLUTE
    ../fplib/microlib/fpfix.c                0x00000000   Number         0  dfixul.o ABSOLUTE
    ../fplib/microlib/fpmul.c                0x00000000   Number         0  dmul.o ABSOLUTE
    ..\Core\Src\Flash.c                      0x00000000   Number         0  flash.o ABSOLUTE
    ..\Core\Src\adc.c                        0x00000000   Number         0  adc.o ABSOLUTE
    ..\Core\Src\gpio.c                       0x00000000   Number         0  gpio.o ABSOLUTE
    ..\Core\Src\i2c.c                        0x00000000   Number         0  i2c.o ABSOLUTE
    ..\Core\Src\main.c                       0x00000000   Number         0  main.o ABSOLUTE
    ..\Core\Src\rtc.c                        0x00000000   Number         0  rtc.o ABSOLUTE
    ..\Core\Src\stm32g0xx_it.c               0x00000000   Number         0  stm32g0xx_it.o ABSOLUTE
    ..\Core\Src\system_stm32g0xx.c           0x00000000   Number         0  system_stm32g0xx.o ABSOLUTE
    ..\Core\Src\tim.c                        0x00000000   Number         0  tim.o ABSOLUTE
    ..\Core\Src\usart.c                      0x00000000   Number         0  usart.o ABSOLUTE
    ..\Drivers\STM32G0xx_HAL_Driver\Src\stm32g0xx_ll_adc.c 0x00000000   Number         0  stm32g0xx_ll_adc.o ABSOLUTE
    ..\Drivers\STM32G0xx_HAL_Driver\Src\stm32g0xx_ll_dma.c 0x00000000   Number         0  stm32g0xx_ll_dma.o ABSOLUTE
    ..\Drivers\STM32G0xx_HAL_Driver\Src\stm32g0xx_ll_exti.c 0x00000000   Number         0  stm32g0xx_ll_exti.o ABSOLUTE
    ..\Drivers\STM32G0xx_HAL_Driver\Src\stm32g0xx_ll_gpio.c 0x00000000   Number         0  stm32g0xx_ll_gpio.o ABSOLUTE
    ..\Drivers\STM32G0xx_HAL_Driver\Src\stm32g0xx_ll_i2c.c 0x00000000   Number         0  stm32g0xx_ll_i2c.o ABSOLUTE
    ..\Drivers\STM32G0xx_HAL_Driver\Src\stm32g0xx_ll_pwr.c 0x00000000   Number         0  stm32g0xx_ll_pwr.o ABSOLUTE
    ..\Drivers\STM32G0xx_HAL_Driver\Src\stm32g0xx_ll_rcc.c 0x00000000   Number         0  stm32g0xx_ll_rcc.o ABSOLUTE
    ..\Drivers\STM32G0xx_HAL_Driver\Src\stm32g0xx_ll_rtc.c 0x00000000   Number         0  stm32g0xx_ll_rtc.o ABSOLUTE
    ..\Drivers\STM32G0xx_HAL_Driver\Src\stm32g0xx_ll_tim.c 0x00000000   Number         0  stm32g0xx_ll_tim.o ABSOLUTE
    ..\Drivers\STM32G0xx_HAL_Driver\Src\stm32g0xx_ll_usart.c 0x00000000   Number         0  stm32g0xx_ll_usart.o ABSOLUTE
    ..\Drivers\STM32G0xx_HAL_Driver\Src\stm32g0xx_ll_utils.c 0x00000000   Number         0  stm32g0xx_ll_utils.o ABSOLUTE
    ..\\Core\\Src\\Flash.c                   0x00000000   Number         0  flash.o ABSOLUTE
    ..\\Core\\Src\\i2c.c                     0x00000000   Number         0  i2c.o ABSOLUTE
    ..\\Drivers\\STM32G0xx_HAL_Driver\\Src\\stm32g0xx_ll_i2c.c 0x00000000   Number         0  stm32g0xx_ll_i2c.o ABSOLUTE
    ..\\bms\\App_alarm.c                     0x00000000   Number         0  app_alarm.o ABSOLUTE
    ..\\bms\\App_bms.c                       0x00000000   Number         0  app_bms.o ABSOLUTE
    ..\\bms\\App_config.c                    0x00000000   Number         0  app_config.o ABSOLUTE
    ..\\bms\\App_current.c                   0x00000000   Number         0  app_current.o ABSOLUTE
    ..\\bms\\App_flash.c                     0x00000000   Number         0  app_flash.o ABSOLUTE
    ..\\bms\\App_lowpower.c                  0x00000000   Number         0  app_lowpower.o ABSOLUTE
    ..\\bms\\App_mos.c                       0x00000000   Number         0  app_mos.o ABSOLUTE
    ..\\bms\\App_soc.c                       0x00000000   Number         0  app_soc.o ABSOLUTE
    ..\\bms\\App_temprature.c                0x00000000   Number         0  app_temprature.o ABSOLUTE
    ..\\bms\\App_volt.c                      0x00000000   Number         0  app_volt.o ABSOLUTE
    ..\\bms\\PCMonitor_protocol.c            0x00000000   Number         0  pcmonitor_protocol.o ABSOLUTE
    ..\\bms\\bsp_SimIIC.c                    0x00000000   Number         0  bsp_simiic.o ABSOLUTE
    ..\\bms\\bsp_SimUart.c                   0x00000000   Number         0  bsp_simuart.o ABSOLUTE
    ..\\bms\\bsp_hardiic.c                   0x00000000   Number         0  bsp_hardiic.o ABSOLUTE
    ..\\bms\\bsp_hardiic_reg.c               0x00000000   Number         0  bsp_hardiic_reg.o ABSOLUTE
    ..\\bms\\bsp_sh367309.c                  0x00000000   Number         0  bsp_sh367309.o ABSOLUTE
    ..\\bms\\bsp_sifbus.c                    0x00000000   Number         0  bsp_sifbus.o ABSOLUTE
    ..\bms\App_alarm.c                       0x00000000   Number         0  app_alarm.o ABSOLUTE
    ..\bms\App_bms.c                         0x00000000   Number         0  app_bms.o ABSOLUTE
    ..\bms\App_config.c                      0x00000000   Number         0  app_config.o ABSOLUTE
    ..\bms\App_current.c                     0x00000000   Number         0  app_current.o ABSOLUTE
    ..\bms\App_flash.c                       0x00000000   Number         0  app_flash.o ABSOLUTE
    ..\bms\App_lowpower.c                    0x00000000   Number         0  app_lowpower.o ABSOLUTE
    ..\bms\App_mos.c                         0x00000000   Number         0  app_mos.o ABSOLUTE
    ..\bms\App_soc.c                         0x00000000   Number         0  app_soc.o ABSOLUTE
    ..\bms\App_temprature.c                  0x00000000   Number         0  app_temprature.o ABSOLUTE
    ..\bms\App_volt.c                        0x00000000   Number         0  app_volt.o ABSOLUTE
    ..\bms\PCMonitor_protocol.c              0x00000000   Number         0  pcmonitor_protocol.o ABSOLUTE
    ..\bms\bsp_SimIIC.c                      0x00000000   Number         0  bsp_simiic.o ABSOLUTE
    ..\bms\bsp_SimUart.c                     0x00000000   Number         0  bsp_simuart.o ABSOLUTE
    ..\bms\bsp_hardiic.c                     0x00000000   Number         0  bsp_hardiic.o ABSOLUTE
    ..\bms\bsp_hardiic_reg.c                 0x00000000   Number         0  bsp_hardiic_reg.o ABSOLUTE
    ..\bms\bsp_sh367309.c                    0x00000000   Number         0  bsp_sh367309.o ABSOLUTE
    ..\bms\bsp_sifbus.c                      0x00000000   Number         0  bsp_sifbus.o ABSOLUTE
    cdrcmple.s                               0x00000000   Number         0  cdrcmple.o ABSOLUTE
    dc.s                                     0x00000000   Number         0  dc.o ABSOLUTE
    handlers.s                               0x00000000   Number         0  handlers.o ABSOLUTE
    init.s                                   0x00000000   Number         0  init.o ABSOLUTE
    startup_stm32g030xx.s                    0x00000000   Number         0  startup_stm32g030xx.o ABSOLUTE
    RESET                                    0x08000000   Section      192  startup_stm32g030xx.o(RESET)
    .ARM.Collect$$$$00000000                 0x080000c0   Section        0  entry.o(.ARM.Collect$$$$00000000)
    .ARM.Collect$$$$00000001                 0x080000c0   Section        4  entry2.o(.ARM.Collect$$$$00000001)
    .ARM.Collect$$$$00000004                 0x080000c4   Section        4  entry5.o(.ARM.Collect$$$$00000004)
    .ARM.Collect$$$$00000008                 0x080000c8   Section        0  entry7b.o(.ARM.Collect$$$$00000008)
    .ARM.Collect$$$$0000000A                 0x080000c8   Section        0  entry8b.o(.ARM.Collect$$$$0000000A)
    .ARM.Collect$$$$0000000B                 0x080000c8   Section        8  entry9a.o(.ARM.Collect$$$$0000000B)
    .ARM.Collect$$$$0000000D                 0x080000d0   Section        0  entry10a.o(.ARM.Collect$$$$0000000D)
    .ARM.Collect$$$$0000000F                 0x080000d0   Section        0  entry11a.o(.ARM.Collect$$$$0000000F)
    .ARM.Collect$$$$00002712                 0x080000d0   Section        4  entry2.o(.ARM.Collect$$$$00002712)
    __lit__00000000                          0x080000d0   Data           4  entry2.o(.ARM.Collect$$$$00002712)
    .text                                    0x080000d4   Section       28  startup_stm32g030xx.o(.text)
    .text                                    0x080000f0   Section        0  uidiv.o(.text)
    .text                                    0x0800011c   Section        0  idiv.o(.text)
    .text                                    0x08000144   Section        0  ldiv.o(.text)
    .text                                    0x08000190   Section        0  llmul.o(.text)
    .text                                    0x0800020a   Section        0  memseta.o(.text)
    .text                                    0x0800022e   Section        0  uread4.o(.text)
    .text                                    0x08000242   Section        0  uwrite4.o(.text)
    .text                                    0x08000254   Section        0  uldiv.o(.text)
    .text                                    0x080002b4   Section        0  llshl.o(.text)
    .text                                    0x080002d4   Section       36  init.o(.text)
    .text                                    0x080002f8   Section        0  llushr.o(.text)
    .text                                    0x0800031a   Section        0  __dclz77c.o(.text)
    i.ADC_Calibration                        0x0800037c   Section        0  adc.o(i.ADC_Calibration)
    i.ADC_Disable                            0x08000404   Section        0  adc.o(i.ADC_Disable)
    i.ADC_Enable                             0x0800042c   Section        0  adc.o(i.ADC_Enable)
    i.ADC_GetValue                           0x08000458   Section        0  adc.o(i.ADC_GetValue)
    i.ADC_SelecteChannel                     0x080004a4   Section        0  adc.o(i.ADC_SelecteChannel)
    i.ADC_WaitSampleOver                     0x080004c4   Section        0  adc.o(i.ADC_WaitSampleOver)
    i.AlarmCheck                             0x080004e4   Section        0  app_alarm.o(i.AlarmCheck)
    i.AlarmFilter                            0x080007a0   Section        0  app_alarm.o(i.AlarmFilter)
    i.BalanceCtrl                            0x080007fa   Section        0  app_volt.o(i.BalanceCtrl)
    i.BootCmd_Process                        0x08000814   Section        0  bsp_sifbus.o(i.BootCmd_Process)
    i.CHGDSG_MOS_CheckOK                     0x0800090c   Section        0  app_alarm.o(i.CHGDSG_MOS_CheckOK)
    i.CRC8                                   0x08000974   Section        0  app_bms.o(i.CRC8)
    i.CheckFlash                             0x080009a8   Section        0  app_flash.o(i.CheckFlash)
    i.Crc16_Calculate                        0x080009e8   Section        0  bsp_sifbus.o(i.Crc16_Calculate)
    i.CurrentStateDetect                     0x08000a10   Section        0  app_current.o(i.CurrentStateDetect)
    i.CycleCount_Init                        0x08000a90   Section        0  app_soc.o(i.CycleCount_Init)
    i.Cycle_Integral                         0x08000adc   Section        0  app_soc.o(i.Cycle_Integral)
    i.DeepSleep                              0x08000c08   Section        0  app_lowpower.o(i.DeepSleep)
    i.DeepSleepCheck                         0x08000c38   Section        0  app_lowpower.o(i.DeepSleepCheck)
    i.EXTI0_1_IRQHandler                     0x08000c94   Section        0  stm32g0xx_it.o(i.EXTI0_1_IRQHandler)
    i.EXTI2_3_IRQHandler                     0x08000cd0   Section        0  stm32g0xx_it.o(i.EXTI2_3_IRQHandler)
    i.EXTI4_15_IRQHandler                    0x08000cf8   Section        0  stm32g0xx_it.o(i.EXTI4_15_IRQHandler)
    i.Enter_StopMode                         0x08000db4   Section        0  app_lowpower.o(i.Enter_StopMode)
    i.Enter_Stop_ENable                      0x08000e34   Section        0  app_lowpower.o(i.Enter_Stop_ENable)
    i.FLASH_WaitForLastOperation             0x08000e5c   Section        0  flash.o(i.FLASH_WaitForLastOperation)
    i.Find_Adc_Temp                          0x08000ec4   Section        0  app_temprature.o(i.Find_Adc_Temp)
    i.FlashInit                              0x08000f00   Section        0  app_flash.o(i.FlashInit)
    i.FlashParaSetDefault                    0x08000f18   Section        0  app_flash.o(i.FlashParaSetDefault)
    i.Flash_ReadPara                         0x08000f80   Section        0  app_flash.o(i.Flash_ReadPara)
    i.Flash_WritePara                        0x08001108   Section        0  app_flash.o(i.Flash_WritePara)
    i.GPIO_CloseWEAK_EXTI                    0x08001368   Section        0  gpio.o(i.GPIO_CloseWEAK_EXTI)
    i.GPIO_ReadPin                           0x080013a2   Section        0  gpio.o(i.GPIO_ReadPin)
    i.GPIO_WritePin                          0x080013b0   Section        0  gpio.o(i.GPIO_WritePin)
    i.GTDS_SIF_process                       0x080013bc   Section        0  bsp_sifbus.o(i.GTDS_SIF_process)
    i.GT_GET_RTC                             0x080014fc   Section        0  rtc.o(i.GT_GET_RTC)
    i.GetCheck                               0x0800156c   Section        0  app_flash.o(i.GetCheck)
    i.GetClibrationDiff_Current              0x080015cc   Section        0  app_current.o(i.GetClibrationDiff_Current)
    i.GetFactor_Cali_CHG                     0x080015d8   Section        0  app_soc.o(i.GetFactor_Cali_CHG)
    i.GetFactor_Cali_DSG                     0x0800169c   Section        0  app_soc.o(i.GetFactor_Cali_DSG)
    i.GetFactor_Cali_DSGTempCoeff            0x08001798   Section        0  app_soc.o(i.GetFactor_Cali_DSGTempCoeff)
    i.GetPage                                0x080017c8   Section        0  flash.o(i.GetPage)
    i.Get_Percent                            0x080017d2   Section        0  app_soc.o(i.Get_Percent)
    i.Get_TableT_Coefficient                 0x080017f8   Section        0  app_soc.o(i.Get_TableT_Coefficient)
    i.Get_TableV_SOC                         0x0800187c   Section        0  app_soc.o(i.Get_TableV_SOC)
    i.HAL_FLASHEx_Erase                      0x0800191c   Section        0  flash.o(i.HAL_FLASHEx_Erase)
    i.HAL_FLASH_Lock                         0x08001978   Section        0  flash.o(i.HAL_FLASH_Lock)
    i.HAL_FLASH_Program                      0x08001994   Section        0  flash.o(i.HAL_FLASH_Program)
    i.HAL_FLASH_Unlock                       0x080019d8   Section        0  flash.o(i.HAL_FLASH_Unlock)
    i.HardFault_Handler                      0x08001a00   Section        0  stm32g0xx_it.o(i.HardFault_Handler)
    i.I2C2_IRQHandler                        0x08001a1c   Section        0  bsp_hardiic_reg.o(i.I2C2_IRQHandler)
    i.JudgeBalance                           0x08001ba0   Section        0  app_volt.o(i.JudgeBalance)
    i.LED_Ctrl                               0x08001c38   Section        0  app_mos.o(i.LED_Ctrl)
    i.LL_ADC_DeInit                          0x08001d30   Section        0  stm32g0xx_ll_adc.o(i.LL_ADC_DeInit)
    i.LL_ADC_Init                            0x08001e4c   Section        0  stm32g0xx_ll_adc.o(i.LL_ADC_Init)
    i.LL_ADC_REG_Init                        0x08001e84   Section        0  stm32g0xx_ll_adc.o(i.LL_ADC_REG_Init)
    i.LL_ADC_SetSamplingTimeCommonChannels   0x08001ee0   Section        0  adc.o(i.LL_ADC_SetSamplingTimeCommonChannels)
    LL_ADC_SetSamplingTimeCommonChannels     0x08001ee1   Thumb Code    22  adc.o(i.LL_ADC_SetSamplingTimeCommonChannels)
    i.LL_APB2_GRP1_EnableClock               0x08001ef8   Section        0  tim.o(i.LL_APB2_GRP1_EnableClock)
    LL_APB2_GRP1_EnableClock                 0x08001ef9   Thumb Code    18  tim.o(i.LL_APB2_GRP1_EnableClock)
    i.LL_APB2_GRP1_ForceReset                0x08001f10   Section        0  stm32g0xx_ll_tim.o(i.LL_APB2_GRP1_ForceReset)
    LL_APB2_GRP1_ForceReset                  0x08001f11   Thumb Code    10  stm32g0xx_ll_tim.o(i.LL_APB2_GRP1_ForceReset)
    i.LL_APB2_GRP1_ReleaseReset              0x08001f20   Section        0  stm32g0xx_ll_tim.o(i.LL_APB2_GRP1_ReleaseReset)
    LL_APB2_GRP1_ReleaseReset                0x08001f21   Thumb Code    10  stm32g0xx_ll_tim.o(i.LL_APB2_GRP1_ReleaseReset)
    i.LL_EXTI_DisableEvent_0_31              0x08001f30   Section        0  gpio.o(i.LL_EXTI_DisableEvent_0_31)
    LL_EXTI_DisableEvent_0_31                0x08001f31   Thumb Code    10  gpio.o(i.LL_EXTI_DisableEvent_0_31)
    i.LL_EXTI_DisableIT_0_31                 0x08001f40   Section        0  gpio.o(i.LL_EXTI_DisableIT_0_31)
    LL_EXTI_DisableIT_0_31                   0x08001f41   Thumb Code    10  gpio.o(i.LL_EXTI_DisableIT_0_31)
    i.LL_EXTI_Init                           0x08001f50   Section        0  stm32g0xx_ll_exti.o(i.LL_EXTI_Init)
    i.LL_EXTI_IsActiveFallingFlag_0_31       0x08001ff4   Section        0  stm32g0xx_it.o(i.LL_EXTI_IsActiveFallingFlag_0_31)
    LL_EXTI_IsActiveFallingFlag_0_31         0x08001ff5   Thumb Code    16  stm32g0xx_it.o(i.LL_EXTI_IsActiveFallingFlag_0_31)
    i.LL_EXTI_IsActiveRisingFlag_0_31        0x08002008   Section        0  stm32g0xx_it.o(i.LL_EXTI_IsActiveRisingFlag_0_31)
    LL_EXTI_IsActiveRisingFlag_0_31          0x08002009   Thumb Code    16  stm32g0xx_it.o(i.LL_EXTI_IsActiveRisingFlag_0_31)
    i.LL_EXTI_SetEXTISource                  0x0800201c   Section        0  gpio.o(i.LL_EXTI_SetEXTISource)
    LL_EXTI_SetEXTISource                    0x0800201d   Thumb Code    28  gpio.o(i.LL_EXTI_SetEXTISource)
    i.LL_GPIO_DeInit                         0x0800203c   Section        0  stm32g0xx_ll_gpio.o(i.LL_GPIO_DeInit)
    i.LL_GPIO_Init                           0x080020ac   Section        0  stm32g0xx_ll_gpio.o(i.LL_GPIO_Init)
    i.LL_GPIO_SetPinMode                     0x08002154   Section        0  gpio.o(i.LL_GPIO_SetPinMode)
    LL_GPIO_SetPinMode                       0x08002155   Thumb Code    20  gpio.o(i.LL_GPIO_SetPinMode)
    i.LL_I2C_DeInit                          0x08002168   Section        0  stm32g0xx_ll_i2c.o(i.LL_I2C_DeInit)
    i.LL_IOP_GRP1_EnableClock                0x080021a4   Section        0  gpio.o(i.LL_IOP_GRP1_EnableClock)
    LL_IOP_GRP1_EnableClock                  0x080021a5   Thumb Code    18  gpio.o(i.LL_IOP_GRP1_EnableClock)
    i.LL_IOP_GRP1_EnableClock                0x080021bc   Section        0  usart.o(i.LL_IOP_GRP1_EnableClock)
    LL_IOP_GRP1_EnableClock                  0x080021bd   Thumb Code    18  usart.o(i.LL_IOP_GRP1_EnableClock)
    i.LL_IOP_GRP1_ForceReset                 0x080021d4   Section        0  stm32g0xx_ll_gpio.o(i.LL_IOP_GRP1_ForceReset)
    LL_IOP_GRP1_ForceReset                   0x080021d5   Thumb Code    10  stm32g0xx_ll_gpio.o(i.LL_IOP_GRP1_ForceReset)
    i.LL_IOP_GRP1_ReleaseReset               0x080021e4   Section        0  stm32g0xx_ll_gpio.o(i.LL_IOP_GRP1_ReleaseReset)
    LL_IOP_GRP1_ReleaseReset                 0x080021e5   Thumb Code    10  stm32g0xx_ll_gpio.o(i.LL_IOP_GRP1_ReleaseReset)
    i.LL_Init1msTick                         0x080021f4   Section        0  stm32g0xx_ll_utils.o(i.LL_Init1msTick)
    i.LL_RCC_GetSystemClocksFreq             0x08002214   Section        0  stm32g0xx_ll_rcc.o(i.LL_RCC_GetSystemClocksFreq)
    i.LL_RCC_GetUSARTClockFreq               0x0800222c   Section        0  stm32g0xx_ll_rcc.o(i.LL_RCC_GetUSARTClockFreq)
    i.LL_RTC_DATE_Config                     0x0800228c   Section        0  stm32g0xx_ll_rtc.o(i.LL_RTC_DATE_Config)
    LL_RTC_DATE_Config                       0x0800228d   Thumb Code    34  stm32g0xx_ll_rtc.o(i.LL_RTC_DATE_Config)
    i.LL_RTC_DATE_Init                       0x080022b4   Section        0  stm32g0xx_ll_rtc.o(i.LL_RTC_DATE_Init)
    i.LL_RTC_DATE_StructInit                 0x08002350   Section        0  stm32g0xx_ll_rtc.o(i.LL_RTC_DATE_StructInit)
    i.LL_RTC_EnterInitMode                   0x08002360   Section        0  stm32g0xx_ll_rtc.o(i.LL_RTC_EnterInitMode)
    i.LL_RTC_Init                            0x080023ac   Section        0  stm32g0xx_ll_rtc.o(i.LL_RTC_Init)
    i.LL_RTC_TIME_Config                     0x08002400   Section        0  stm32g0xx_ll_rtc.o(i.LL_RTC_TIME_Config)
    LL_RTC_TIME_Config                       0x08002401   Thumb Code    32  stm32g0xx_ll_rtc.o(i.LL_RTC_TIME_Config)
    i.LL_RTC_TIME_Init                       0x08002424   Section        0  stm32g0xx_ll_rtc.o(i.LL_RTC_TIME_Init)
    i.LL_RTC_TIME_StructInit                 0x080024b8   Section        0  stm32g0xx_ll_rtc.o(i.LL_RTC_TIME_StructInit)
    i.LL_RTC_WaitForSynchro                  0x080024c4   Section        0  stm32g0xx_ll_rtc.o(i.LL_RTC_WaitForSynchro)
    i.LL_SetSystemCoreClock                  0x08002538   Section        0  stm32g0xx_ll_utils.o(i.LL_SetSystemCoreClock)
    i.LL_TIM_DeInit                          0x08002544   Section        0  stm32g0xx_ll_tim.o(i.LL_TIM_DeInit)
    i.LL_TIM_Init                            0x080025b8   Section        0  stm32g0xx_ll_tim.o(i.LL_TIM_Init)
    i.LL_USART_ConfigAsyncMode               0x08002630   Section        0  usart.o(i.LL_USART_ConfigAsyncMode)
    LL_USART_ConfigAsyncMode                 0x08002631   Thumb Code    20  usart.o(i.LL_USART_ConfigAsyncMode)
    i.LL_USART_Init                          0x08002644   Section        0  stm32g0xx_ll_usart.o(i.LL_USART_Init)
    i.LL_mDelay                              0x08002724   Section        0  stm32g0xx_ll_utils.o(i.LL_mDelay)
    i.MOS_Ctrl                               0x08002740   Section        0  app_mos.o(i.MOS_Ctrl)
    i.MX_ADC1_Init                           0x080029f4   Section        0  adc.o(i.MX_ADC1_Init)
    i.MX_EXTI_Init                           0x08002b3c   Section        0  gpio.o(i.MX_EXTI_Init)
    i.MX_GPIO_Init                           0x08002c0c   Section        0  gpio.o(i.MX_GPIO_Init)
    i.MX_RTC_Init                            0x08002d24   Section        0  rtc.o(i.MX_RTC_Init)
    i.MX_TIM16_Init                          0x08002dfc   Section        0  tim.o(i.MX_TIM16_Init)
    i.MX_USART2_UART_Init                    0x08002e44   Section        0  usart.o(i.MX_USART2_UART_Init)
    i.NMI_Handler                            0x08002f3c   Section        0  stm32g0xx_it.o(i.NMI_Handler)
    i.PendSV_Handler                         0x08002f3e   Section        0  stm32g0xx_it.o(i.PendSV_Handler)
    i.Process_100ms_CYC                      0x08002f40   Section        0  app_bms.o(i.Process_100ms_CYC)
    i.Process_500ms_CYC1                     0x08002fd0   Section        0  app_bms.o(i.Process_500ms_CYC1)
    i.RCC_GetHCLKClockFreq                   0x08003024   Section        0  stm32g0xx_ll_rcc.o(i.RCC_GetHCLKClockFreq)
    i.RCC_GetPCLK1ClockFreq                  0x08003044   Section        0  stm32g0xx_ll_rcc.o(i.RCC_GetPCLK1ClockFreq)
    i.RCC_GetSystemClockFreq                 0x08003064   Section        0  stm32g0xx_ll_rcc.o(i.RCC_GetSystemClockFreq)
    i.RCC_PLL_GetFreqDomain_SYS              0x080030a0   Section        0  stm32g0xx_ll_rcc.o(i.RCC_PLL_GetFreqDomain_SYS)
    i.RTC_Bcd2ToByte                         0x080030e0   Section        0  rtc.o(i.RTC_Bcd2ToByte)
    i.RTC_TAMP_IRQHandler                    0x080030f0   Section        0  stm32g0xx_it.o(i.RTC_TAMP_IRQHandler)
    i.RealRemainCap_Calibration              0x08003128   Section        0  app_soc.o(i.RealRemainCap_Calibration)
    i.RemainCap_Integral                     0x0800317c   Section        0  app_soc.o(i.RemainCap_Integral)
    i.RingBuf_Write                          0x08003208   Section        0  pcmonitor_protocol.o(i.RingBuf_Write)
    i.SH367309_Config                        0x08003234   Section        0  bsp_sh367309.o(i.SH367309_Config)
    i.SH367309_I2C_Ack                       0x08003284   Section        0  bsp_sh367309.o(i.SH367309_I2C_Ack)
    i.SH367309_I2C_NAck                      0x080032cc   Section        0  bsp_sh367309.o(i.SH367309_I2C_NAck)
    i.SH367309_I2C_ReadByte                  0x08003306   Section        0  bsp_sh367309.o(i.SH367309_I2C_ReadByte)
    i.SH367309_I2C_SendByte                  0x0800335c   Section        0  bsp_sh367309.o(i.SH367309_I2C_SendByte)
    i.SH367309_I2C_Start                     0x080033c0   Section        0  bsp_sh367309.o(i.SH367309_I2C_Start)
    i.SH367309_I2C_Stop                      0x08003412   Section        0  bsp_sh367309.o(i.SH367309_I2C_Stop)
    i.SH367309_I2C_WaitAck                   0x0800344e   Section        0  bsp_sh367309.o(i.SH367309_I2C_WaitAck)
    i.SH367309_ReadData                      0x0800349c   Section        0  bsp_sh367309.o(i.SH367309_ReadData)
    i.SH367309_ReadRegVal                    0x08003534   Section        0  bsp_sh367309.o(i.SH367309_ReadRegVal)
    i.SH367309_WriteEEpromData               0x08003558   Section        0  bsp_sh367309.o(i.SH367309_WriteEEpromData)
    i.SH367309_WriteRamData                  0x080035c0   Section        0  bsp_sh367309.o(i.SH367309_WriteRamData)
    i.SHA_EEPROM_Set                         0x08003628   Section        0  bsp_sh367309.o(i.SHA_EEPROM_Set)
    i.SH_Get_CellTemps                       0x08003808   Section        0  bsp_sh367309.o(i.SH_Get_CellTemps)
    i.SH_Get_CellVolts                       0x08003880   Section        0  bsp_sh367309.o(i.SH_Get_CellVolts)
    i.SH_Get_Current                         0x080038b8   Section        0  bsp_sh367309.o(i.SH_Get_Current)
    i.SH_MOSCtrl                             0x08003904   Section        0  bsp_sh367309.o(i.SH_MOSCtrl)
    i.SH_Read_Alarm                          0x0800393c   Section        0  bsp_sh367309.o(i.SH_Read_Alarm)
    i.SH_Reset                               0x08003a0c   Section        0  bsp_sh367309.o(i.SH_Reset)
    i.SH_Set_Balance                         0x08003a44   Section        0  bsp_sh367309.o(i.SH_Set_Balance)
    i.SH_Set_CONF                            0x08003a5c   Section        0  bsp_sh367309.o(i.SH_Set_CONF)
    i.SH_Set_Default                         0x08003a98   Section        0  bsp_sh367309.o(i.SH_Set_Default)
    i.SH_Set_IDLE                            0x08003abc   Section        0  bsp_sh367309.o(i.SH_Set_IDLE)
    i.SIFProcess                             0x08003adc   Section        0  bsp_sifbus.o(i.SIFProcess)
    i.SIF_QueryDataPack                      0x08003b48   Section        0  bsp_sifbus.o(i.SIF_QueryDataPack)
    SIF_QueryDataPack                        0x08003b49   Thumb Code   290  bsp_sifbus.o(i.SIF_QueryDataPack)
    i.SMBUS_DataProcess                      0x08003c80   Section        0  bsp_simiic.o(i.SMBUS_DataProcess)
    i.SUART_Protocol                         0x08003e14   Section        0  bsp_simuart.o(i.SUART_Protocol)
    i.SVC_Handler                            0x08003e70   Section        0  stm32g0xx_it.o(i.SVC_Handler)
    i.SetWakeUpTimer_IT                      0x08003e74   Section        0  rtc.o(i.SetWakeUpTimer_IT)
    i.SleepCheck                             0x08003eec   Section        0  app_lowpower.o(i.SleepCheck)
    i.Sleep_PinInit                          0x08004064   Section        0  gpio.o(i.Sleep_PinInit)
    i.Soc_ClrOrSetCtrl                       0x08004114   Section        0  app_soc.o(i.Soc_ClrOrSetCtrl)
    i.Soc_Init                               0x08004310   Section        0  app_soc.o(i.Soc_Init)
    i.Soft_Delay                             0x080043b0   Section        0  app_bms.o(i.Soft_Delay)
    i.SysParaInit                            0x080043c0   Section        0  app_config.o(i.SysParaInit)
    i.SysTick_Handler                        0x080043f8   Section        0  stm32g0xx_it.o(i.SysTick_Handler)
    i.SystemClock_Config                     0x08004438   Section        0  main.o(i.SystemClock_Config)
    i.SystemInit                             0x08004504   Section        0  system_stm32g0xx.o(i.SystemInit)
    i.TIM14_IRQHandler                       0x08004514   Section        0  stm32g0xx_it.o(i.TIM14_IRQHandler)
    i.TIM16_IRQHandler                       0x08004524   Section        0  stm32g0xx_it.o(i.TIM16_IRQHandler)
    i.UART2RxDataPro                         0x08004534   Section        0  bsp_simuart.o(i.UART2RxDataPro)
    i.USART1_IRQHandler                      0x08004570   Section        0  stm32g0xx_it.o(i.USART1_IRQHandler)
    i.USART2_IRQHandler                      0x080045b8   Section        0  stm32g0xx_it.o(i.USART2_IRQHandler)
    i.USART2_SendByte                        0x08004600   Section        0  usart.o(i.USART2_SendByte)
    i.Update_CellTemps                       0x08004648   Section        0  app_temprature.o(i.Update_CellTemps)
    i.Update_CellVolt                        0x080046b4   Section        0  app_volt.o(i.Update_CellVolt)
    i.Update_Current                         0x0800473c   Section        0  app_current.o(i.Update_Current)
    i.VolFilter                              0x08004760   Section        0  adc.o(i.VolFilter)
    i.__0printf$3                            0x08004808   Section        0  printf3.o(i.__0printf$3)
    i.__NVIC_EnableIRQ                       0x08004828   Section        0  gpio.o(i.__NVIC_EnableIRQ)
    __NVIC_EnableIRQ                         0x08004829   Thumb Code    18  gpio.o(i.__NVIC_EnableIRQ)
    i.__NVIC_EnableIRQ                       0x08004840   Section        0  tim.o(i.__NVIC_EnableIRQ)
    __NVIC_EnableIRQ                         0x08004841   Thumb Code    18  tim.o(i.__NVIC_EnableIRQ)
    i.__NVIC_SetPriority                     0x08004858   Section        0  gpio.o(i.__NVIC_SetPriority)
    __NVIC_SetPriority                       0x08004859   Thumb Code    60  gpio.o(i.__NVIC_SetPriority)
    i.__NVIC_SetPriority                     0x0800489c   Section        0  tim.o(i.__NVIC_SetPriority)
    __NVIC_SetPriority                       0x0800489d   Thumb Code    60  tim.o(i.__NVIC_SetPriority)
    i.__scatterload_copy                     0x080048e0   Section       14  handlers.o(i.__scatterload_copy)
    i.__scatterload_null                     0x080048ee   Section        2  handlers.o(i.__scatterload_null)
    i.__scatterload_zeroinit                 0x080048f0   Section       14  handlers.o(i.__scatterload_zeroinit)
    i._printf_core                           0x08004900   Section        0  printf3.o(i._printf_core)
    _printf_core                             0x08004901   Thumb Code   456  printf3.o(i._printf_core)
    i.bsp_init                               0x08004acc   Section        0  main.o(i.bsp_init)
    i.fputc                                  0x08004af0   Section        0  usart.o(i.fputc)
    i.isCali_CHG_Enable                      0x08004b00   Section        0  app_soc.o(i.isCali_CHG_Enable)
    i.isCali_DSG_Enable                      0x08004ba4   Section        0  app_soc.o(i.isCali_DSG_Enable)
    i.isSocInitEnable                        0x08004c78   Section        0  app_soc.o(i.isSocInitEnable)
    i.main                                   0x08004d1c   Section        0  main.o(i.main)
    i.processavgCurr                         0x08004e40   Section        0  app_bms.o(i.processavgCurr)
    .constdata                               0x08004f04   Section       48  stm32g0xx_ll_usart.o(.constdata)
    USART_PRESCALER_TAB                      0x08004f04   Data          48  stm32g0xx_ll_usart.o(.constdata)
    .constdata                               0x08004f34   Section       64  system_stm32g0xx.o(.constdata)
    .constdata                               0x08004f74   Section       32  system_stm32g0xx.o(.constdata)
    .constdata                               0x08004f94   Section      322  app_temprature.o(.constdata)
    .constdata                               0x080050d8   Section      524  bsp_sifbus.o(.constdata)
    CrcCcittTable                            0x080050d8   Data         512  bsp_sifbus.o(.constdata)
    .constdata                               0x080052e4   Section      322  bsp_sh367309.o(.constdata)
    .data                                    0x20000000   Section        4  main.o(.data)
    .data                                    0x20000004   Section        4  adc.o(.data)
    .data                                    0x20000008   Section        4  rtc.o(.data)
    .data                                    0x2000000c   Section        1  rtc.o(.data)
    initFalg                                 0x2000000c   Data           1  rtc.o(.data)
    .data                                    0x20000010   Section        4  usart.o(.data)
    .data                                    0x20000014   Section        4  system_stm32g0xx.o(.data)
    .data                                    0x20000018   Section       49  app_alarm.o(.data)
    .data                                    0x20000049   Section        3  app_alarm.o(.data)
    .data                                    0x2000004c   Section        3  app_alarm.o(.data)
    .data                                    0x20000050   Section       16  app_bms.o(.data)
    currperiodtime                           0x2000005c   Data           4  app_bms.o(.data)
    .data                                    0x20000060   Section        2  app_bms.o(.data)
    .data                                    0x20000062   Section        8  app_current.o(.data)
    sta                                      0x20000062   Data           1  app_current.o(.data)
    chgTime                                  0x20000064   Data           2  app_current.o(.data)
    dsgTime                                  0x20000066   Data           2  app_current.o(.data)
    SticTime                                 0x20000068   Data           2  app_current.o(.data)
    .data                                    0x2000006a   Section        6  app_lowpower.o(.data)
    SmallCurrTime                            0x2000006a   Data           1  app_lowpower.o(.data)
    timeout                                  0x2000006b   Data           1  app_lowpower.o(.data)
    timeout                                  0x2000006e   Data           2  app_lowpower.o(.data)
    .data                                    0x20000070   Section     1622  app_soc.o(.data)
    DSGCaliFlaG                              0x20000070   Data           1  app_soc.o(.data)
    count_Cyc                                0x20000071   Data           1  app_soc.o(.data)
    SetTimer                                 0x20000072   Data           1  app_soc.o(.data)
    ClearTimer                               0x20000073   Data           1  app_soc.o(.data)
    SOCClrFlag                               0x20000074   Data           1  app_soc.o(.data)
    SOCSetFlag                               0x20000075   Data           1  app_soc.o(.data)
    SetFlagCLrTime                           0x20000076   Data           1  app_soc.o(.data)
    ClrFlagCLrTime                           0x20000077   Data           1  app_soc.o(.data)
    timeout                                  0x20000078   Data           1  app_soc.o(.data)
    chgstat                                  0x20000079   Data           1  app_soc.o(.data)
    Shotstat                                 0x2000007a   Data           1  app_soc.o(.data)
    UVFalg                                   0x2000007b   Data           1  app_soc.o(.data)
    timeout                                  0x2000007e   Data           2  app_soc.o(.data)
    caliFactor                               0x20000080   Data           2  app_soc.o(.data)
    chgTime                                  0x20000082   Data           2  app_soc.o(.data)
    DSGTime                                  0x20000084   Data           2  app_soc.o(.data)
    noShortime                               0x20000086   Data           2  app_soc.o(.data)
    noUVtime                                 0x20000088   Data           2  app_soc.o(.data)
    timeout                                  0x2000008a   Data           3  app_soc.o(.data)
    C_TempArr                                0x2000008d   Data           4  app_soc.o(.data)
    D_TempArr                                0x20000091   Data           7  app_soc.o(.data)
    K_TempArr                                0x20000098   Data           8  app_soc.o(.data)
    D_33Region                               0x200000a0   Data         294  app_soc.o(.data)
    D_50Region                               0x200001c6   Data         294  app_soc.o(.data)
    D_100Region                              0x200002ec   Data         294  app_soc.o(.data)
    C_33Region                               0x20000412   Data         168  app_soc.o(.data)
    C_50Region                               0x200004ba   Data         168  app_soc.o(.data)
    TempTable                                0x20000562   Data          20  app_soc.o(.data)
    K_Region                                 0x20000576   Data         336  app_soc.o(.data)
    .data                                    0x200006c6   Section        8  app_mos.o(.data)
    ledVlaue                                 0x200006c8   Data           1  app_mos.o(.data)
    DSG_OpenDelay                            0x200006c9   Data           1  app_mos.o(.data)
    CHG_OpenDelay                            0x200006ca   Data           1  app_mos.o(.data)
    CHG_SmallCurr_time                       0x200006cc   Data           2  app_mos.o(.data)
    .data                                    0x200006d0   Section        4  app_temprature.o(.data)
    .data                                    0x200006d4   Section        6  app_volt.o(.data)
    VoltChargeBigTime                        0x200006d4   Data           1  app_volt.o(.data)
    BalanceAllow                             0x200006d5   Data           1  app_volt.o(.data)
    maxVol_value                             0x200006d6   Data           2  app_volt.o(.data)
    minVol_value                             0x200006d8   Data           2  app_volt.o(.data)
    .data                                    0x200006dc   Section       18  bsp_sifbus.o(.data)
    CutCOUNT                                 0x200006de   Data           1  bsp_sifbus.o(.data)
    AddCOUNT                                 0x200006df   Data           1  bsp_sifbus.o(.data)
    Show0Flag                                0x200006e0   Data           1  bsp_sifbus.o(.data)
    CMD                                      0x200006e1   Data           1  bsp_sifbus.o(.data)
    Timed                                    0x200006e4   Data           4  bsp_sifbus.o(.data)
    .data                                    0x200006ee   Section      238  pcmonitor_protocol.o(.data)
    TempNum                                  0x200006ee   Data           1  pcmonitor_protocol.o(.data)
    .data                                    0x200007dc   Section        2  bsp_sh367309.o(.data)
    .data                                    0x200007de   Section        6  bsp_hardiic_reg.o(.data)
    .bss                                     0x200007e4   Section      452  app_bms.o(.bss)
    .bss                                     0x200009a8   Section       80  app_flash.o(.bss)
    .bss                                     0x200009f8   Section      409  bsp_simuart.o(.bss)
    .bss                                     0x20000b92   Section      632  bsp_simiic.o(.bss)
    .bss                                     0x20000e0c   Section       56  bsp_hardiic_reg.o(.bss)
    STACK                                    0x20000e48   Section     1024  startup_stm32g030xx.o(STACK)

    Global Symbols

    Symbol Name                              Value     Ov Type        Size  Object(Section)

    BuildAttributes$$THM_ISAv3M$S$PE$A:L22$X:L11$S22$IEEE1$IW$USESV6$~STKCKD$USESV7$~SHL$OSPACE$ROPI$EBA8$MICROLIB$REQ8$PRES8$EABIv2 0x00000000   Number         0  anon$$obj.o ABSOLUTE
    __ARM_use_no_argv                        0x00000000   Number         0  main.o ABSOLUTE
    __use_no_errno                           0x00000000   Number         0  useno.o ABSOLUTE
    __use_no_exception_handling              0x00000000   Number         0  useno.o ABSOLUTE
    __use_no_fp                              0x00000000   Number         0  useno.o ABSOLUTE
    __use_no_heap                            0x00000000   Number         0  useno.o ABSOLUTE
    __use_no_heap_region                     0x00000000   Number         0  useno.o ABSOLUTE
    __use_no_semihosting                     0x00000000   Number         0  useno.o ABSOLUTE
    __use_no_semihosting_swi                 0x00000000   Number         0  useno.o ABSOLUTE
    __use_no_signal_handling                 0x00000000   Number         0  useno.o ABSOLUTE
    _printf_a                                0x00000000   Number         0  stubs.o ABSOLUTE
    _printf_c                                0x00000000   Number         0  stubs.o ABSOLUTE
    _printf_charcount                        0x00000000   Number         0  stubs.o ABSOLUTE
    _printf_d                                0x00000000   Number         0  stubs.o ABSOLUTE
    _printf_e                                0x00000000   Number         0  stubs.o ABSOLUTE
    _printf_f                                0x00000000   Number         0  stubs.o ABSOLUTE
    _printf_flags                            0x00000000   Number         0  stubs.o ABSOLUTE
    _printf_fp_dec                           0x00000000   Number         0  stubs.o ABSOLUTE
    _printf_fp_hex                           0x00000000   Number         0  stubs.o ABSOLUTE
    _printf_g                                0x00000000   Number         0  stubs.o ABSOLUTE
    _printf_i                                0x00000000   Number         0  stubs.o ABSOLUTE
    _printf_int_dec                          0x00000000   Number         0  stubs.o ABSOLUTE
    _printf_l                                0x00000000   Number         0  stubs.o ABSOLUTE
    _printf_lc                               0x00000000   Number         0  stubs.o ABSOLUTE
    _printf_ll                               0x00000000   Number         0  stubs.o ABSOLUTE
    _printf_lld                              0x00000000   Number         0  stubs.o ABSOLUTE
    _printf_lli                              0x00000000   Number         0  stubs.o ABSOLUTE
    _printf_llo                              0x00000000   Number         0  stubs.o ABSOLUTE
    _printf_llu                              0x00000000   Number         0  stubs.o ABSOLUTE
    _printf_llx                              0x00000000   Number         0  stubs.o ABSOLUTE
    _printf_longlong_dec                     0x00000000   Number         0  stubs.o ABSOLUTE
    _printf_longlong_hex                     0x00000000   Number         0  stubs.o ABSOLUTE
    _printf_longlong_oct                     0x00000000   Number         0  stubs.o ABSOLUTE
    _printf_ls                               0x00000000   Number         0  stubs.o ABSOLUTE
    _printf_mbtowc                           0x00000000   Number         0  stubs.o ABSOLUTE
    _printf_n                                0x00000000   Number         0  stubs.o ABSOLUTE
    _printf_o                                0x00000000   Number         0  stubs.o ABSOLUTE
    _printf_p                                0x00000000   Number         0  stubs.o ABSOLUTE
    _printf_percent                          0x00000000   Number         0  stubs.o ABSOLUTE
    _printf_pre_padding                      0x00000000   Number         0  stubs.o ABSOLUTE
    _printf_return_value                     0x00000000   Number         0  stubs.o ABSOLUTE
    _printf_s                                0x00000000   Number         0  stubs.o ABSOLUTE
    _printf_sizespec                         0x00000000   Number         0  stubs.o ABSOLUTE
    _printf_str                              0x00000000   Number         0  stubs.o ABSOLUTE
    _printf_truncate_signed                  0x00000000   Number         0  stubs.o ABSOLUTE
    _printf_truncate_unsigned                0x00000000   Number         0  stubs.o ABSOLUTE
    _printf_u                                0x00000000   Number         0  stubs.o ABSOLUTE
    _printf_wc                               0x00000000   Number         0  stubs.o ABSOLUTE
    _printf_wctomb                           0x00000000   Number         0  stubs.o ABSOLUTE
    _printf_widthprec                        0x00000000   Number         0  stubs.o ABSOLUTE
    _printf_x                                0x00000000   Number         0  stubs.o ABSOLUTE
    __cpp_initialize__aeabi_                  - Undefined Weak Reference
    __cxa_finalize                            - Undefined Weak Reference
    _clock_init                               - Undefined Weak Reference
    _microlib_exit                            - Undefined Weak Reference
    __Vectors_Size                           0x000000c0   Number         0  startup_stm32g030xx.o ABSOLUTE
    __Vectors                                0x08000000   Data           4  startup_stm32g030xx.o(RESET)
    __Vectors_End                            0x080000c0   Data           0  startup_stm32g030xx.o(RESET)
    __main                                   0x080000c1   Thumb Code     0  entry.o(.ARM.Collect$$$$00000000)
    _main_stk                                0x080000c1   Thumb Code     0  entry2.o(.ARM.Collect$$$$00000001)
    _main_scatterload                        0x080000c5   Thumb Code     0  entry5.o(.ARM.Collect$$$$00000004)
    __main_after_scatterload                 0x080000c9   Thumb Code     0  entry5.o(.ARM.Collect$$$$00000004)
    _main_clock                              0x080000c9   Thumb Code     0  entry7b.o(.ARM.Collect$$$$00000008)
    _main_cpp_init                           0x080000c9   Thumb Code     0  entry8b.o(.ARM.Collect$$$$0000000A)
    _main_init                               0x080000c9   Thumb Code     0  entry9a.o(.ARM.Collect$$$$0000000B)
    __rt_final_cpp                           0x080000d1   Thumb Code     0  entry10a.o(.ARM.Collect$$$$0000000D)
    __rt_final_exit                          0x080000d1   Thumb Code     0  entry11a.o(.ARM.Collect$$$$0000000F)
    Reset_Handler                            0x080000d5   Thumb Code     8  startup_stm32g030xx.o(.text)
    ADC1_IRQHandler                          0x080000e7   Thumb Code     0  startup_stm32g030xx.o(.text)
    DMA1_Ch4_5_DMAMUX1_OVR_IRQHandler        0x080000e7   Thumb Code     0  startup_stm32g030xx.o(.text)
    DMA1_Channel1_IRQHandler                 0x080000e7   Thumb Code     0  startup_stm32g030xx.o(.text)
    DMA1_Channel2_3_IRQHandler               0x080000e7   Thumb Code     0  startup_stm32g030xx.o(.text)
    FLASH_IRQHandler                         0x080000e7   Thumb Code     0  startup_stm32g030xx.o(.text)
    I2C1_IRQHandler                          0x080000e7   Thumb Code     0  startup_stm32g030xx.o(.text)
    RCC_IRQHandler                           0x080000e7   Thumb Code     0  startup_stm32g030xx.o(.text)
    SPI1_IRQHandler                          0x080000e7   Thumb Code     0  startup_stm32g030xx.o(.text)
    SPI2_IRQHandler                          0x080000e7   Thumb Code     0  startup_stm32g030xx.o(.text)
    TIM17_IRQHandler                         0x080000e7   Thumb Code     0  startup_stm32g030xx.o(.text)
    TIM1_BRK_UP_TRG_COM_IRQHandler           0x080000e7   Thumb Code     0  startup_stm32g030xx.o(.text)
    TIM1_CC_IRQHandler                       0x080000e7   Thumb Code     0  startup_stm32g030xx.o(.text)
    TIM3_IRQHandler                          0x080000e7   Thumb Code     0  startup_stm32g030xx.o(.text)
    WWDG_IRQHandler                          0x080000e7   Thumb Code     0  startup_stm32g030xx.o(.text)
    __aeabi_uidiv                            0x080000f1   Thumb Code     0  uidiv.o(.text)
    __aeabi_uidivmod                         0x080000f1   Thumb Code    44  uidiv.o(.text)
    __aeabi_idiv                             0x0800011d   Thumb Code     0  idiv.o(.text)
    __aeabi_idivmod                          0x0800011d   Thumb Code    40  idiv.o(.text)
    __aeabi_ldivmod                          0x08000145   Thumb Code    76  ldiv.o(.text)
    __aeabi_lmul                             0x08000191   Thumb Code   122  llmul.o(.text)
    _ll_mul                                  0x08000191   Thumb Code     0  llmul.o(.text)
    __aeabi_memset                           0x0800020b   Thumb Code    14  memseta.o(.text)
    __aeabi_memset4                          0x0800020b   Thumb Code     0  memseta.o(.text)
    __aeabi_memset8                          0x0800020b   Thumb Code     0  memseta.o(.text)
    __aeabi_memclr                           0x08000219   Thumb Code     4  memseta.o(.text)
    __aeabi_memclr4                          0x08000219   Thumb Code     0  memseta.o(.text)
    __aeabi_memclr8                          0x08000219   Thumb Code     0  memseta.o(.text)
    _memset$wrapper                          0x0800021d   Thumb Code    18  memseta.o(.text)
    __aeabi_uread4                           0x0800022f   Thumb Code    20  uread4.o(.text)
    __rt_uread4                              0x0800022f   Thumb Code     0  uread4.o(.text)
    _uread4                                  0x0800022f   Thumb Code     0  uread4.o(.text)
    __aeabi_uwrite4                          0x08000243   Thumb Code    18  uwrite4.o(.text)
    __rt_uwrite4                             0x08000243   Thumb Code     0  uwrite4.o(.text)
    _uwrite4                                 0x08000243   Thumb Code     0  uwrite4.o(.text)
    __aeabi_uldivmod                         0x08000255   Thumb Code    96  uldiv.o(.text)
    __aeabi_llsl                             0x080002b5   Thumb Code    32  llshl.o(.text)
    _ll_shift_l                              0x080002b5   Thumb Code     0  llshl.o(.text)
    __scatterload                            0x080002d5   Thumb Code    28  init.o(.text)
    __scatterload_rt2                        0x080002d5   Thumb Code     0  init.o(.text)
    __aeabi_llsr                             0x080002f9   Thumb Code    34  llushr.o(.text)
    _ll_ushift_r                             0x080002f9   Thumb Code     0  llushr.o(.text)
    __decompress                             0x0800031b   Thumb Code     0  __dclz77c.o(.text)
    __decompress2                            0x0800031b   Thumb Code    96  __dclz77c.o(.text)
    ADC_Calibration                          0x0800037d   Thumb Code   118  adc.o(i.ADC_Calibration)
    ADC_Disable                              0x08000405   Thumb Code    32  adc.o(i.ADC_Disable)
    ADC_Enable                               0x0800042d   Thumb Code    36  adc.o(i.ADC_Enable)
    ADC_GetValue                             0x08000459   Thumb Code    66  adc.o(i.ADC_GetValue)
    ADC_SelecteChannel                       0x080004a5   Thumb Code    24  adc.o(i.ADC_SelecteChannel)
    ADC_WaitSampleOver                       0x080004c5   Thumb Code    22  adc.o(i.ADC_WaitSampleOver)
    AlarmCheck                               0x080004e5   Thumb Code   654  app_alarm.o(i.AlarmCheck)
    AlarmFilter                              0x080007a1   Thumb Code    90  app_alarm.o(i.AlarmFilter)
    BalanceCtrl                              0x080007fb   Thumb Code    26  app_volt.o(i.BalanceCtrl)
    BootCmd_Process                          0x08000815   Thumb Code   222  bsp_sifbus.o(i.BootCmd_Process)
    CHGDSG_MOS_CheckOK                       0x0800090d   Thumb Code    96  app_alarm.o(i.CHGDSG_MOS_CheckOK)
    CRC8                                     0x08000975   Thumb Code    52  app_bms.o(i.CRC8)
    CheckFlash                               0x080009a9   Thumb Code    52  app_flash.o(i.CheckFlash)
    Crc16_Calculate                          0x080009e9   Thumb Code    36  bsp_sifbus.o(i.Crc16_Calculate)
    CurrentStateDetect                       0x08000a11   Thumb Code   114  app_current.o(i.CurrentStateDetect)
    CycleCount_Init                          0x08000a91   Thumb Code    50  app_soc.o(i.CycleCount_Init)
    Cycle_Integral                           0x08000add   Thumb Code   264  app_soc.o(i.Cycle_Integral)
    DeepSleep                                0x08000c09   Thumb Code    42  app_lowpower.o(i.DeepSleep)
    DeepSleepCheck                           0x08000c39   Thumb Code    76  app_lowpower.o(i.DeepSleepCheck)
    EXTI0_1_IRQHandler                       0x08000c95   Thumb Code    50  stm32g0xx_it.o(i.EXTI0_1_IRQHandler)
    EXTI2_3_IRQHandler                       0x08000cd1   Thumb Code    34  stm32g0xx_it.o(i.EXTI2_3_IRQHandler)
    EXTI4_15_IRQHandler                      0x08000cf9   Thumb Code   178  stm32g0xx_it.o(i.EXTI4_15_IRQHandler)
    Enter_StopMode                           0x08000db5   Thumb Code   114  app_lowpower.o(i.Enter_StopMode)
    Enter_Stop_ENable                        0x08000e35   Thumb Code    32  app_lowpower.o(i.Enter_Stop_ENable)
    FLASH_WaitForLastOperation               0x08000e5d   Thumb Code    90  flash.o(i.FLASH_WaitForLastOperation)
    Find_Adc_Temp                            0x08000ec5   Thumb Code    52  app_temprature.o(i.Find_Adc_Temp)
    FlashInit                                0x08000f01   Thumb Code    24  app_flash.o(i.FlashInit)
    FlashParaSetDefault                      0x08000f19   Thumb Code    92  app_flash.o(i.FlashParaSetDefault)
    Flash_ReadPara                           0x08000f81   Thumb Code   384  app_flash.o(i.Flash_ReadPara)
    Flash_WritePara                          0x08001109   Thumb Code   598  app_flash.o(i.Flash_WritePara)
    GPIO_CloseWEAK_EXTI                      0x08001369   Thumb Code    58  gpio.o(i.GPIO_CloseWEAK_EXTI)
    GPIO_ReadPin                             0x080013a3   Thumb Code    14  gpio.o(i.GPIO_ReadPin)
    GPIO_WritePin                            0x080013b1   Thumb Code    12  gpio.o(i.GPIO_WritePin)
    GTDS_SIF_process                         0x080013bd   Thumb Code   306  bsp_sifbus.o(i.GTDS_SIF_process)
    GT_GET_RTC                               0x080014fd   Thumb Code   104  rtc.o(i.GT_GET_RTC)
    GetCheck                                 0x0800156d   Thumb Code    90  app_flash.o(i.GetCheck)
    GetClibrationDiff_Current                0x080015cd   Thumb Code    10  app_current.o(i.GetClibrationDiff_Current)
    GetFactor_Cali_CHG                       0x080015d9   Thumb Code   184  app_soc.o(i.GetFactor_Cali_CHG)
    GetFactor_Cali_DSG                       0x0800169d   Thumb Code   230  app_soc.o(i.GetFactor_Cali_DSG)
    GetFactor_Cali_DSGTempCoeff              0x08001799   Thumb Code    44  app_soc.o(i.GetFactor_Cali_DSGTempCoeff)
    GetPage                                  0x080017c9   Thumb Code    10  flash.o(i.GetPage)
    Get_Percent                              0x080017d3   Thumb Code    36  app_soc.o(i.Get_Percent)
    Get_TableT_Coefficient                   0x080017f9   Thumb Code   120  app_soc.o(i.Get_TableT_Coefficient)
    Get_TableV_SOC                           0x0800187d   Thumb Code   160  app_soc.o(i.Get_TableV_SOC)
    HAL_FLASHEx_Erase                        0x0800191d   Thumb Code    84  flash.o(i.HAL_FLASHEx_Erase)
    HAL_FLASH_Lock                           0x08001979   Thumb Code    22  flash.o(i.HAL_FLASH_Lock)
    HAL_FLASH_Program                        0x08001995   Thumb Code    64  flash.o(i.HAL_FLASH_Program)
    HAL_FLASH_Unlock                         0x080019d9   Thumb Code    28  flash.o(i.HAL_FLASH_Unlock)
    HardFault_Handler                        0x08001a01   Thumb Code    18  stm32g0xx_it.o(i.HardFault_Handler)
    I2C2_IRQHandler                          0x08001a1d   Thumb Code   368  bsp_hardiic_reg.o(i.I2C2_IRQHandler)
    JudgeBalance                             0x08001ba1   Thumb Code   134  app_volt.o(i.JudgeBalance)
    LED_Ctrl                                 0x08001c39   Thumb Code   204  app_mos.o(i.LED_Ctrl)
    LL_ADC_DeInit                            0x08001d31   Thumb Code   260  stm32g0xx_ll_adc.o(i.LL_ADC_DeInit)
    LL_ADC_Init                              0x08001e4d   Thumb Code    52  stm32g0xx_ll_adc.o(i.LL_ADC_Init)
    LL_ADC_REG_Init                          0x08001e85   Thumb Code    86  stm32g0xx_ll_adc.o(i.LL_ADC_REG_Init)
    LL_EXTI_Init                             0x08001f51   Thumb Code   160  stm32g0xx_ll_exti.o(i.LL_EXTI_Init)
    LL_GPIO_DeInit                           0x0800203d   Thumb Code    96  stm32g0xx_ll_gpio.o(i.LL_GPIO_DeInit)
    LL_GPIO_Init                             0x080020ad   Thumb Code   168  stm32g0xx_ll_gpio.o(i.LL_GPIO_Init)
    LL_I2C_DeInit                            0x08002169   Thumb Code    46  stm32g0xx_ll_i2c.o(i.LL_I2C_DeInit)
    LL_Init1msTick                           0x080021f5   Thumb Code    26  stm32g0xx_ll_utils.o(i.LL_Init1msTick)
    LL_RCC_GetSystemClocksFreq               0x08002215   Thumb Code    24  stm32g0xx_ll_rcc.o(i.LL_RCC_GetSystemClocksFreq)
    LL_RCC_GetUSARTClockFreq                 0x0800222d   Thumb Code    88  stm32g0xx_ll_rcc.o(i.LL_RCC_GetUSARTClockFreq)
    LL_RTC_DATE_Init                         0x080022b5   Thumb Code   150  stm32g0xx_ll_rtc.o(i.LL_RTC_DATE_Init)
    LL_RTC_DATE_StructInit                   0x08002351   Thumb Code    14  stm32g0xx_ll_rtc.o(i.LL_RTC_DATE_StructInit)
    LL_RTC_EnterInitMode                     0x08002361   Thumb Code    70  stm32g0xx_ll_rtc.o(i.LL_RTC_EnterInitMode)
    LL_RTC_Init                              0x080023ad   Thumb Code    82  stm32g0xx_ll_rtc.o(i.LL_RTC_Init)
    LL_RTC_TIME_Init                         0x08002425   Thumb Code   144  stm32g0xx_ll_rtc.o(i.LL_RTC_TIME_Init)
    LL_RTC_TIME_StructInit                   0x080024b9   Thumb Code    12  stm32g0xx_ll_rtc.o(i.LL_RTC_TIME_StructInit)
    LL_RTC_WaitForSynchro                    0x080024c5   Thumb Code   110  stm32g0xx_ll_rtc.o(i.LL_RTC_WaitForSynchro)
    LL_SetSystemCoreClock                    0x08002539   Thumb Code     6  stm32g0xx_ll_utils.o(i.LL_SetSystemCoreClock)
    LL_TIM_DeInit                            0x08002545   Thumb Code    90  stm32g0xx_ll_tim.o(i.LL_TIM_DeInit)
    LL_TIM_Init                              0x080025b9   Thumb Code    98  stm32g0xx_ll_tim.o(i.LL_TIM_Init)
    LL_USART_Init                            0x08002645   Thumb Code   204  stm32g0xx_ll_usart.o(i.LL_USART_Init)
    LL_mDelay                                0x08002725   Thumb Code    24  stm32g0xx_ll_utils.o(i.LL_mDelay)
    MOS_Ctrl                                 0x08002741   Thumb Code   628  app_mos.o(i.MOS_Ctrl)
    MX_ADC1_Init                             0x080029f5   Thumb Code   292  adc.o(i.MX_ADC1_Init)
    MX_EXTI_Init                             0x08002b3d   Thumb Code   190  gpio.o(i.MX_EXTI_Init)
    MX_GPIO_Init                             0x08002c0d   Thumb Code   266  gpio.o(i.MX_GPIO_Init)
    MX_RTC_Init                              0x08002d25   Thumb Code   190  rtc.o(i.MX_RTC_Init)
    MX_TIM16_Init                            0x08002dfd   Thumb Code    66  tim.o(i.MX_TIM16_Init)
    MX_USART2_UART_Init                      0x08002e45   Thumb Code   232  usart.o(i.MX_USART2_UART_Init)
    NMI_Handler                              0x08002f3d   Thumb Code     2  stm32g0xx_it.o(i.NMI_Handler)
    PendSV_Handler                           0x08002f3f   Thumb Code     2  stm32g0xx_it.o(i.PendSV_Handler)
    Process_100ms_CYC                        0x08002f41   Thumb Code   124  app_bms.o(i.Process_100ms_CYC)
    Process_500ms_CYC1                       0x08002fd1   Thumb Code    74  app_bms.o(i.Process_500ms_CYC1)
    RCC_GetHCLKClockFreq                     0x08003025   Thumb Code    24  stm32g0xx_ll_rcc.o(i.RCC_GetHCLKClockFreq)
    RCC_GetPCLK1ClockFreq                    0x08003045   Thumb Code    22  stm32g0xx_ll_rcc.o(i.RCC_GetPCLK1ClockFreq)
    RCC_GetSystemClockFreq                   0x08003065   Thumb Code    46  stm32g0xx_ll_rcc.o(i.RCC_GetSystemClockFreq)
    RCC_PLL_GetFreqDomain_SYS                0x080030a1   Thumb Code    56  stm32g0xx_ll_rcc.o(i.RCC_PLL_GetFreqDomain_SYS)
    RTC_Bcd2ToByte                           0x080030e1   Thumb Code    16  rtc.o(i.RTC_Bcd2ToByte)
    RTC_TAMP_IRQHandler                      0x080030f1   Thumb Code    46  stm32g0xx_it.o(i.RTC_TAMP_IRQHandler)
    RealRemainCap_Calibration                0x08003129   Thumb Code    76  app_soc.o(i.RealRemainCap_Calibration)
    RemainCap_Integral                       0x0800317d   Thumb Code   128  app_soc.o(i.RemainCap_Integral)
    RingBuf_Write                            0x08003209   Thumb Code    40  pcmonitor_protocol.o(i.RingBuf_Write)
    SH367309_Config                          0x08003235   Thumb Code    74  bsp_sh367309.o(i.SH367309_Config)
    SH367309_I2C_Ack                         0x08003285   Thumb Code    72  bsp_sh367309.o(i.SH367309_I2C_Ack)
    SH367309_I2C_NAck                        0x080032cd   Thumb Code    58  bsp_sh367309.o(i.SH367309_I2C_NAck)
    SH367309_I2C_ReadByte                    0x08003307   Thumb Code    86  bsp_sh367309.o(i.SH367309_I2C_ReadByte)
    SH367309_I2C_SendByte                    0x0800335d   Thumb Code   100  bsp_sh367309.o(i.SH367309_I2C_SendByte)
    SH367309_I2C_Start                       0x080033c1   Thumb Code    82  bsp_sh367309.o(i.SH367309_I2C_Start)
    SH367309_I2C_Stop                        0x08003413   Thumb Code    60  bsp_sh367309.o(i.SH367309_I2C_Stop)
    SH367309_I2C_WaitAck                     0x0800344f   Thumb Code    78  bsp_sh367309.o(i.SH367309_I2C_WaitAck)
    SH367309_ReadData                        0x0800349d   Thumb Code   152  bsp_sh367309.o(i.SH367309_ReadData)
    SH367309_ReadRegVal                      0x08003535   Thumb Code    34  bsp_sh367309.o(i.SH367309_ReadRegVal)
    SH367309_WriteEEpromData                 0x08003559   Thumb Code   100  bsp_sh367309.o(i.SH367309_WriteEEpromData)
    SH367309_WriteRamData                    0x080035c1   Thumb Code   100  bsp_sh367309.o(i.SH367309_WriteRamData)
    SHA_EEPROM_Set                           0x08003629   Thumb Code   448  bsp_sh367309.o(i.SHA_EEPROM_Set)
    SH_Get_CellTemps                         0x08003809   Thumb Code   112  bsp_sh367309.o(i.SH_Get_CellTemps)
    SH_Get_CellVolts                         0x08003881   Thumb Code    56  bsp_sh367309.o(i.SH_Get_CellVolts)
    SH_Get_Current                           0x080038b9   Thumb Code    66  bsp_sh367309.o(i.SH_Get_Current)
    SH_MOSCtrl                               0x08003905   Thumb Code    50  bsp_sh367309.o(i.SH_MOSCtrl)
    SH_Read_Alarm                            0x0800393d   Thumb Code   194  bsp_sh367309.o(i.SH_Read_Alarm)
    SH_Reset                                 0x08003a0d   Thumb Code    52  bsp_sh367309.o(i.SH_Reset)
    SH_Set_Balance                           0x08003a45   Thumb Code    22  bsp_sh367309.o(i.SH_Set_Balance)
    SH_Set_CONF                              0x08003a5d   Thumb Code    56  bsp_sh367309.o(i.SH_Set_CONF)
    SH_Set_Default                           0x08003a99   Thumb Code    30  bsp_sh367309.o(i.SH_Set_Default)
    SH_Set_IDLE                              0x08003abd   Thumb Code    26  bsp_sh367309.o(i.SH_Set_IDLE)
    SIFProcess                               0x08003add   Thumb Code    94  bsp_sifbus.o(i.SIFProcess)
    SMBUS_DataProcess                        0x08003c81   Thumb Code   356  bsp_simiic.o(i.SMBUS_DataProcess)
    SUART_Protocol                           0x08003e15   Thumb Code    82  bsp_simuart.o(i.SUART_Protocol)
    SVC_Handler                              0x08003e71   Thumb Code     2  stm32g0xx_it.o(i.SVC_Handler)
    SetWakeUpTimer_IT                        0x08003e75   Thumb Code   106  rtc.o(i.SetWakeUpTimer_IT)
    SleepCheck                               0x08003eed   Thumb Code   342  app_lowpower.o(i.SleepCheck)
    Sleep_PinInit                            0x08004065   Thumb Code   148  gpio.o(i.Sleep_PinInit)
    Soc_ClrOrSetCtrl                         0x08004115   Thumb Code   400  app_soc.o(i.Soc_ClrOrSetCtrl)
    Soc_Init                                 0x08004311   Thumb Code   140  app_soc.o(i.Soc_Init)
    Soft_Delay                               0x080043b1   Thumb Code    16  app_bms.o(i.Soft_Delay)
    SysParaInit                              0x080043c1   Thumb Code    38  app_config.o(i.SysParaInit)
    SysTick_Handler                          0x080043f9   Thumb Code    52  stm32g0xx_it.o(i.SysTick_Handler)
    SystemClock_Config                       0x08004439   Thumb Code   188  main.o(i.SystemClock_Config)
    SystemInit                               0x08004505   Thumb Code    10  system_stm32g0xx.o(i.SystemInit)
    TIM14_IRQHandler                         0x08004515   Thumb Code    10  stm32g0xx_it.o(i.TIM14_IRQHandler)
    TIM16_IRQHandler                         0x08004525   Thumb Code    10  stm32g0xx_it.o(i.TIM16_IRQHandler)
    UART2RxDataPro                           0x08004535   Thumb Code    52  bsp_simuart.o(i.UART2RxDataPro)
    USART1_IRQHandler                        0x08004571   Thumb Code    62  stm32g0xx_it.o(i.USART1_IRQHandler)
    USART2_IRQHandler                        0x080045b9   Thumb Code    62  stm32g0xx_it.o(i.USART2_IRQHandler)
    USART2_SendByte                          0x08004601   Thumb Code    60  usart.o(i.USART2_SendByte)
    Update_CellTemps                         0x08004649   Thumb Code   100  app_temprature.o(i.Update_CellTemps)
    Update_CellVolt                          0x080046b5   Thumb Code   122  app_volt.o(i.Update_CellVolt)
    Update_Current                           0x0800473d   Thumb Code    30  app_current.o(i.Update_Current)
    VolFilter                                0x08004761   Thumb Code   168  adc.o(i.VolFilter)
    __0printf$3                              0x08004809   Thumb Code    24  printf3.o(i.__0printf$3)
    __1printf$3                              0x08004809   Thumb Code     0  printf3.o(i.__0printf$3)
    __2printf                                0x08004809   Thumb Code     0  printf3.o(i.__0printf$3)
    __scatterload_copy                       0x080048e1   Thumb Code    14  handlers.o(i.__scatterload_copy)
    __scatterload_null                       0x080048ef   Thumb Code     2  handlers.o(i.__scatterload_null)
    __scatterload_zeroinit                   0x080048f1   Thumb Code    14  handlers.o(i.__scatterload_zeroinit)
    bsp_init                                 0x08004acd   Thumb Code    34  main.o(i.bsp_init)
    fputc                                    0x08004af1   Thumb Code    12  usart.o(i.fputc)
    isCali_CHG_Enable                        0x08004b01   Thumb Code   146  app_soc.o(i.isCali_CHG_Enable)
    isCali_DSG_Enable                        0x08004ba5   Thumb Code   186  app_soc.o(i.isCali_DSG_Enable)
    isSocInitEnable                          0x08004c79   Thumb Code   138  app_soc.o(i.isSocInitEnable)
    main                                     0x08004d1d   Thumb Code   258  main.o(i.main)
    processavgCurr                           0x08004e41   Thumb Code   188  app_bms.o(i.processavgCurr)
    AHBPrescTable                            0x08004f34   Data          64  system_stm32g0xx.o(.constdata)
    APBPrescTable                            0x08004f74   Data          32  system_stm32g0xx.o(.constdata)
    Pos5vNTC3380AdTempTABLE                  0x08004f94   Data         322  app_temprature.o(.constdata)
    SH_TEMP_TABLE                            0x080052e4   Data         322  bsp_sh367309.o(.constdata)
    Region$$Table$$Base                      0x08005428   Number         0  anon$$obj.o(Region$$Table)
    Region$$Table$$Limit                     0x08005448   Number         0  anon$$obj.o(Region$$Table)
    systickCount                             0x20000000   Data           4  main.o(.data)
    ADC_VREFINT_CAL                          0x20000004   Data           2  adc.o(.data)
    ADC_VREFINT_DATA                         0x20000006   Data           2  adc.o(.data)
    NowTime                                  0x20000008   Data           4  rtc.o(.data)
    __stdout                                 0x20000010   Data           4  usart.o(.data)
    SystemCoreClock                          0x20000014   Data           4  system_stm32g0xx.o(.data)
    userAlarm                                0x20000018   Data           2  app_alarm.o(.data)
    shAlarm                                  0x2000001a   Data           2  app_alarm.o(.data)
    O_V                                      0x2000001c   Data           3  app_alarm.o(.data)
    O_TV                                     0x2000001f   Data           3  app_alarm.o(.data)
    U_TV                                     0x20000022   Data           3  app_alarm.o(.data)
    U_V_2700                                 0x20000025   Data           3  app_alarm.o(.data)
    U_V_2300                                 0x20000028   Data           3  app_alarm.o(.data)
    U_V_1500                                 0x2000002b   Data           3  app_alarm.o(.data)
    O_T_M                                    0x2000002e   Data           3  app_alarm.o(.data)
    O_T_C                                    0x20000031   Data           3  app_alarm.o(.data)
    O_T_D                                    0x20000034   Data           3  app_alarm.o(.data)
    U_T_C                                    0x20000037   Data           3  app_alarm.o(.data)
    U_T_D                                    0x2000003a   Data           3  app_alarm.o(.data)
    C_M_E                                    0x2000003d   Data           3  app_alarm.o(.data)
    D_M_E                                    0x20000040   Data           3  app_alarm.o(.data)
    C_O_C                                    0x20000043   Data           3  app_alarm.o(.data)
    D_O_C                                    0x20000046   Data           3  app_alarm.o(.data)
    D_O_C2                                   0x20000049   Data           3  app_alarm.o(.data)
    S_C_D                                    0x2000004c   Data           3  app_alarm.o(.data)
    avg20currcount                           0x20000050   Data           1  app_bms.o(.data)
    avg30currcount                           0x20000051   Data           1  app_bms.o(.data)
    avgcurr30add                             0x20000054   Data           4  app_bms.o(.data)
    avgcurr20add                             0x20000058   Data           4  app_bms.o(.data)
    sysflag                                  0x20000060   Data           2  app_bms.o(.data)
    deepSleepFlag                            0x2000006c   Data           1  app_lowpower.o(.data)
    CutCapValue                              0x2000007c   Data           2  app_soc.o(.data)
    Ctrl_CH_FET                              0x200006c6   Data           1  app_mos.o(.data)
    Ctrl_DS_FET                              0x200006c7   Data           1  app_mos.o(.data)
    tbTempCnt                                0x200006d0   Data           4  app_temprature.o(.data)
    SHOWSOC                                  0x200006dc   Data           1  bsp_sifbus.o(.data)
    BootFlag                                 0x200006dd   Data           1  bsp_sifbus.o(.data)
    SIFBUSData                               0x200006e8   Data           6  bsp_sifbus.o(.data)
    RS485Buf                                 0x200006f0   Data         208  pcmonitor_protocol.o(.data)
    VolNum_Ture                              0x200007c0   Data          28  pcmonitor_protocol.o(.data)
    SHTempCoeff                              0x200007dc   Data           1  bsp_sh367309.o(.data)
    CONF_Reg                                 0x200007dd   Data           1  bsp_sh367309.o(.data)
    i2c_sendcount                            0x200007de   Data           1  bsp_hardiic_reg.o(.data)
    I2C_DEVICE_REGADDRESS                    0x200007df   Data           1  bsp_hardiic_reg.o(.data)
    g_Receivecount                           0x200007e0   Data           1  bsp_hardiic_reg.o(.data)
    g_ReceiveBuff_pui                        0x200007e1   Data           3  bsp_hardiic_reg.o(.data)
    Temp20curr                               0x200007e4   Data          40  app_bms.o(.bss)
    Temp30curr                               0x2000080c   Data         240  app_bms.o(.bss)
    syspara                                  0x200008fc   Data         172  app_bms.o(.bss)
    flashpara                                0x200009a8   Data          80  app_flash.o(.bss)
    SUartInfo                                0x200009f8   Data         409  bsp_simuart.o(.bss)
    SysRegData                               0x20000b92   Data         512  bsp_simiic.o(.bss)
    SysReg_Type                              0x20000d92   Data          40  bsp_simiic.o(.bss)
    SysReg_VF                                0x20000dba   Data          40  bsp_simiic.o(.bss)
    SysReg_VH                                0x20000de2   Data          40  bsp_simiic.o(.bss)
    i2c_dev                                  0x20000e0c   Data          16  bsp_hardiic_reg.o(.bss)
    IIC_TEST_ISRcount                        0x20000e1c   Data          40  bsp_hardiic_reg.o(.bss)
    __initial_sp                             0x20001248   Data           0  startup_stm32g030xx.o(STACK)



==============================================================================

Memory Map of the image

  Image Entry point : 0x080000c1

  Load Region LR_IROM1 (Base: 0x08000000, Size: 0x00005c2c, Max: 0x00010000, ABSOLUTE, COMPRESSED[0x00005a40])

    Execution Region ER_IROM1 (Exec base: 0x08000000, Load base: 0x08000000, Size: 0x00005448, Max: 0x00010000, ABSOLUTE)

    Exec Addr    Load Addr    Size         Type   Attr      Idx    E Section Name        Object

    0x08000000   0x08000000   0x000000c0   Data   RO            3    RESET               startup_stm32g030xx.o
    0x080000c0   0x080000c0   0x00000000   Code   RO         2667  * .ARM.Collect$$$$00000000  mc_p.l(entry.o)
    0x080000c0   0x080000c0   0x00000004   Code   RO         2947    .ARM.Collect$$$$00000001  mc_p.l(entry2.o)
    0x080000c4   0x080000c4   0x00000004   Code   RO         2950    .ARM.Collect$$$$00000004  mc_p.l(entry5.o)
    0x080000c8   0x080000c8   0x00000000   Code   RO         2952    .ARM.Collect$$$$00000008  mc_p.l(entry7b.o)
    0x080000c8   0x080000c8   0x00000000   Code   RO         2954    .ARM.Collect$$$$0000000A  mc_p.l(entry8b.o)
    0x080000c8   0x080000c8   0x00000008   Code   RO         2955    .ARM.Collect$$$$0000000B  mc_p.l(entry9a.o)
    0x080000d0   0x080000d0   0x00000000   Code   RO         2957    .ARM.Collect$$$$0000000D  mc_p.l(entry10a.o)
    0x080000d0   0x080000d0   0x00000000   Code   RO         2959    .ARM.Collect$$$$0000000F  mc_p.l(entry11a.o)
    0x080000d0   0x080000d0   0x00000004   Code   RO         2948    .ARM.Collect$$$$00002712  mc_p.l(entry2.o)
    0x080000d4   0x080000d4   0x0000001c   Code   RO            4    .text               startup_stm32g030xx.o
    0x080000f0   0x080000f0   0x0000002c   Code   RO         2670    .text               mc_p.l(uidiv.o)
    0x0800011c   0x0800011c   0x00000028   Code   RO         2672    .text               mc_p.l(idiv.o)
    0x08000144   0x08000144   0x0000004c   Code   RO         2674    .text               mc_p.l(ldiv.o)
    0x08000190   0x08000190   0x0000007a   Code   RO         2676    .text               mc_p.l(llmul.o)
    0x0800020a   0x0800020a   0x00000024   Code   RO         2678    .text               mc_p.l(memseta.o)
    0x0800022e   0x0800022e   0x00000014   Code   RO         2943    .text               mc_p.l(uread4.o)
    0x08000242   0x08000242   0x00000012   Code   RO         2945    .text               mc_p.l(uwrite4.o)
    0x08000254   0x08000254   0x00000060   Code   RO         2961    .text               mc_p.l(uldiv.o)
    0x080002b4   0x080002b4   0x00000020   Code   RO         2963    .text               mc_p.l(llshl.o)
    0x080002d4   0x080002d4   0x00000024   Code   RO         2976    .text               mc_p.l(init.o)
    0x080002f8   0x080002f8   0x00000022   Code   RO         2978    .text               mc_p.l(llushr.o)
    0x0800031a   0x0800031a   0x00000060   Code   RO         2994    .text               mc_p.l(__dclz77c.o)
    0x0800037a   0x0800037a   0x00000002   PAD
    0x0800037c   0x0800037c   0x00000088   Code   RO          367    i.ADC_Calibration   adc.o
    0x08000404   0x08000404   0x00000028   Code   RO          368    i.ADC_Disable       adc.o
    0x0800042c   0x0800042c   0x0000002c   Code   RO          369    i.ADC_Enable        adc.o
    0x08000458   0x08000458   0x0000004c   Code   RO          370    i.ADC_GetValue      adc.o
    0x080004a4   0x080004a4   0x00000020   Code   RO          371    i.ADC_SelecteChannel  adc.o
    0x080004c4   0x080004c4   0x00000020   Code   RO          372    i.ADC_WaitSampleOver  adc.o
    0x080004e4   0x080004e4   0x000002bc   Code   RO         1653    i.AlarmCheck        app_alarm.o
    0x080007a0   0x080007a0   0x0000005a   Code   RO         1654    i.AlarmFilter       app_alarm.o
    0x080007fa   0x080007fa   0x0000001a   Code   RO         2110    i.BalanceCtrl       app_volt.o
    0x08000814   0x08000814   0x000000f8   Code   RO         2152    i.BootCmd_Process   bsp_sifbus.o
    0x0800090c   0x0800090c   0x00000068   Code   RO         1655    i.CHGDSG_MOS_CheckOK  app_alarm.o
    0x08000974   0x08000974   0x00000034   Code   RO         1694    i.CRC8              app_bms.o
    0x080009a8   0x080009a8   0x00000040   Code   RO         1864    i.CheckFlash        app_flash.o
    0x080009e8   0x080009e8   0x00000028   Code   RO         2154    i.Crc16_Calculate   bsp_sifbus.o
    0x08000a10   0x08000a10   0x00000080   Code   RO         1772    i.CurrentStateDetect  app_current.o
    0x08000a90   0x08000a90   0x0000004c   Code   RO         1920    i.CycleCount_Init   app_soc.o
    0x08000adc   0x08000adc   0x0000012c   Code   RO         1921    i.Cycle_Integral    app_soc.o
    0x08000c08   0x08000c08   0x00000030   Code   RO         1805    i.DeepSleep         app_lowpower.o
    0x08000c38   0x08000c38   0x0000005c   Code   RO         1806    i.DeepSleepCheck    app_lowpower.o
    0x08000c94   0x08000c94   0x0000003c   Code   RO          666    i.EXTI0_1_IRQHandler  stm32g0xx_it.o
    0x08000cd0   0x08000cd0   0x00000028   Code   RO          667    i.EXTI2_3_IRQHandler  stm32g0xx_it.o
    0x08000cf8   0x08000cf8   0x000000bc   Code   RO          668    i.EXTI4_15_IRQHandler  stm32g0xx_it.o
    0x08000db4   0x08000db4   0x00000080   Code   RO         1807    i.Enter_StopMode    app_lowpower.o
    0x08000e34   0x08000e34   0x00000028   Code   RO         1808    i.Enter_Stop_ENable  app_lowpower.o
    0x08000e5c   0x08000e5c   0x00000068   Code   RO          789    i.FLASH_WaitForLastOperation  flash.o
    0x08000ec4   0x08000ec4   0x0000003c   Code   RO         2071    i.Find_Adc_Temp     app_temprature.o
    0x08000f00   0x08000f00   0x00000018   Code   RO         1865    i.FlashInit         app_flash.o
    0x08000f18   0x08000f18   0x00000068   Code   RO         1866    i.FlashParaSetDefault  app_flash.o
    0x08000f80   0x08000f80   0x00000188   Code   RO         1867    i.Flash_ReadPara    app_flash.o
    0x08001108   0x08001108   0x00000260   Code   RO         1868    i.Flash_WritePara   app_flash.o
    0x08001368   0x08001368   0x0000003a   Code   RO          237    i.GPIO_CloseWEAK_EXTI  gpio.o
    0x080013a2   0x080013a2   0x0000000e   Code   RO          239    i.GPIO_ReadPin      gpio.o
    0x080013b0   0x080013b0   0x0000000c   Code   RO          240    i.GPIO_WritePin     gpio.o
    0x080013bc   0x080013bc   0x00000140   Code   RO         2156    i.GTDS_SIF_process  bsp_sifbus.o
    0x080014fc   0x080014fc   0x00000070   Code   RO          453    i.GT_GET_RTC        rtc.o
    0x0800156c   0x0800156c   0x00000060   Code   RO         1869    i.GetCheck          app_flash.o
    0x080015cc   0x080015cc   0x0000000a   Code   RO         1773    i.GetClibrationDiff_Current  app_current.o
    0x080015d6   0x080015d6   0x00000002   PAD
    0x080015d8   0x080015d8   0x000000c4   Code   RO         1922    i.GetFactor_Cali_CHG  app_soc.o
    0x0800169c   0x0800169c   0x000000fc   Code   RO         1923    i.GetFactor_Cali_DSG  app_soc.o
    0x08001798   0x08001798   0x00000030   Code   RO         1924    i.GetFactor_Cali_DSGTempCoeff  app_soc.o
    0x080017c8   0x080017c8   0x0000000a   Code   RO          790    i.GetPage           flash.o
    0x080017d2   0x080017d2   0x00000024   Code   RO         1926    i.Get_Percent       app_soc.o
    0x080017f6   0x080017f6   0x00000002   PAD
    0x080017f8   0x080017f8   0x00000084   Code   RO         1927    i.Get_TableT_Coefficient  app_soc.o
    0x0800187c   0x0800187c   0x000000a0   Code   RO         1928    i.Get_TableV_SOC    app_soc.o
    0x0800191c   0x0800191c   0x0000005c   Code   RO          791    i.HAL_FLASHEx_Erase  flash.o
    0x08001978   0x08001978   0x0000001c   Code   RO          792    i.HAL_FLASH_Lock    flash.o
    0x08001994   0x08001994   0x00000044   Code   RO          793    i.HAL_FLASH_Program  flash.o
    0x080019d8   0x080019d8   0x00000028   Code   RO          794    i.HAL_FLASH_Unlock  flash.o
    0x08001a00   0x08001a00   0x0000001c   Code   RO          669    i.HardFault_Handler  stm32g0xx_it.o
    0x08001a1c   0x08001a1c   0x00000184   Code   RO         2619    i.I2C2_IRQHandler   bsp_hardiic_reg.o
    0x08001ba0   0x08001ba0   0x00000098   Code   RO         2111    i.JudgeBalance      app_volt.o
    0x08001c38   0x08001c38   0x000000f8   Code   RO         2042    i.LED_Ctrl          app_mos.o
    0x08001d30   0x08001d30   0x0000011c   Code   RO         1060    i.LL_ADC_DeInit     stm32g0xx_ll_adc.o
    0x08001e4c   0x08001e4c   0x00000038   Code   RO         1061    i.LL_ADC_Init       stm32g0xx_ll_adc.o
    0x08001e84   0x08001e84   0x0000005c   Code   RO         1062    i.LL_ADC_REG_Init   stm32g0xx_ll_adc.o
    0x08001ee0   0x08001ee0   0x00000016   Code   RO          373    i.LL_ADC_SetSamplingTimeCommonChannels  adc.o
    0x08001ef6   0x08001ef6   0x00000002   PAD
    0x08001ef8   0x08001ef8   0x00000018   Code   RO          522    i.LL_APB2_GRP1_EnableClock  tim.o
    0x08001f10   0x08001f10   0x00000010   Code   RO         1409    i.LL_APB2_GRP1_ForceReset  stm32g0xx_ll_tim.o
    0x08001f20   0x08001f20   0x00000010   Code   RO         1410    i.LL_APB2_GRP1_ReleaseReset  stm32g0xx_ll_tim.o
    0x08001f30   0x08001f30   0x00000010   Code   RO          241    i.LL_EXTI_DisableEvent_0_31  gpio.o
    0x08001f40   0x08001f40   0x00000010   Code   RO          242    i.LL_EXTI_DisableIT_0_31  gpio.o
    0x08001f50   0x08001f50   0x000000a4   Code   RO          975    i.LL_EXTI_Init      stm32g0xx_ll_exti.o
    0x08001ff4   0x08001ff4   0x00000014   Code   RO          670    i.LL_EXTI_IsActiveFallingFlag_0_31  stm32g0xx_it.o
    0x08002008   0x08002008   0x00000014   Code   RO          671    i.LL_EXTI_IsActiveRisingFlag_0_31  stm32g0xx_it.o
    0x0800201c   0x0800201c   0x00000020   Code   RO          244    i.LL_EXTI_SetEXTISource  gpio.o
    0x0800203c   0x0800203c   0x00000070   Code   RO         1009    i.LL_GPIO_DeInit    stm32g0xx_ll_gpio.o
    0x080020ac   0x080020ac   0x000000a8   Code   RO         1010    i.LL_GPIO_Init      stm32g0xx_ll_gpio.o
    0x08002154   0x08002154   0x00000014   Code   RO          245    i.LL_GPIO_SetPinMode  gpio.o
    0x08002168   0x08002168   0x0000003c   Code   RO         1584    i.LL_I2C_DeInit     stm32g0xx_ll_i2c.o
    0x080021a4   0x080021a4   0x00000018   Code   RO          246    i.LL_IOP_GRP1_EnableClock  gpio.o
    0x080021bc   0x080021bc   0x00000018   Code   RO          585    i.LL_IOP_GRP1_EnableClock  usart.o
    0x080021d4   0x080021d4   0x00000010   Code   RO         1012    i.LL_IOP_GRP1_ForceReset  stm32g0xx_ll_gpio.o
    0x080021e4   0x080021e4   0x00000010   Code   RO         1013    i.LL_IOP_GRP1_ReleaseReset  stm32g0xx_ll_gpio.o
    0x080021f4   0x080021f4   0x00000020   Code   RO          868    i.LL_Init1msTick    stm32g0xx_ll_utils.o
    0x08002214   0x08002214   0x00000018   Code   RO         1173    i.LL_RCC_GetSystemClocksFreq  stm32g0xx_ll_rcc.o
    0x0800222c   0x0800222c   0x00000060   Code   RO         1174    i.LL_RCC_GetUSARTClockFreq  stm32g0xx_ll_rcc.o
    0x0800228c   0x0800228c   0x00000028   Code   RO         1268    i.LL_RTC_DATE_Config  stm32g0xx_ll_rtc.o
    0x080022b4   0x080022b4   0x0000009c   Code   RO         1269    i.LL_RTC_DATE_Init  stm32g0xx_ll_rtc.o
    0x08002350   0x08002350   0x0000000e   Code   RO         1270    i.LL_RTC_DATE_StructInit  stm32g0xx_ll_rtc.o
    0x0800235e   0x0800235e   0x00000002   PAD
    0x08002360   0x08002360   0x0000004c   Code   RO         1272    i.LL_RTC_EnterInitMode  stm32g0xx_ll_rtc.o
    0x080023ac   0x080023ac   0x00000052   Code   RO         1274    i.LL_RTC_Init       stm32g0xx_ll_rtc.o
    0x080023fe   0x080023fe   0x00000002   PAD
    0x08002400   0x08002400   0x00000024   Code   RO         1276    i.LL_RTC_TIME_Config  stm32g0xx_ll_rtc.o
    0x08002424   0x08002424   0x00000094   Code   RO         1277    i.LL_RTC_TIME_Init  stm32g0xx_ll_rtc.o
    0x080024b8   0x080024b8   0x0000000c   Code   RO         1278    i.LL_RTC_TIME_StructInit  stm32g0xx_ll_rtc.o
    0x080024c4   0x080024c4   0x00000074   Code   RO         1279    i.LL_RTC_WaitForSynchro  stm32g0xx_ll_rtc.o
    0x08002538   0x08002538   0x0000000c   Code   RO          872    i.LL_SetSystemCoreClock  stm32g0xx_ll_utils.o
    0x08002544   0x08002544   0x00000074   Code   RO         1413    i.LL_TIM_DeInit     stm32g0xx_ll_tim.o
    0x080025b8   0x080025b8   0x00000078   Code   RO         1420    i.LL_TIM_Init       stm32g0xx_ll_tim.o
    0x08002630   0x08002630   0x00000014   Code   RO          586    i.LL_USART_ConfigAsyncMode  usart.o
    0x08002644   0x08002644   0x000000e0   Code   RO         1535    i.LL_USART_Init     stm32g0xx_ll_usart.o
    0x08002724   0x08002724   0x0000001c   Code   RO          873    i.LL_mDelay         stm32g0xx_ll_utils.o
    0x08002740   0x08002740   0x000002b4   Code   RO         2043    i.MOS_Ctrl          app_mos.o
    0x080029f4   0x080029f4   0x00000148   Code   RO          374    i.MX_ADC1_Init      adc.o
    0x08002b3c   0x08002b3c   0x000000d0   Code   RO          247    i.MX_EXTI_Init      gpio.o
    0x08002c0c   0x08002c0c   0x00000118   Code   RO          248    i.MX_GPIO_Init      gpio.o
    0x08002d24   0x08002d24   0x000000d8   Code   RO          454    i.MX_RTC_Init       rtc.o
    0x08002dfc   0x08002dfc   0x00000048   Code   RO          524    i.MX_TIM16_Init     tim.o
    0x08002e44   0x08002e44   0x000000f8   Code   RO          588    i.MX_USART2_UART_Init  usart.o
    0x08002f3c   0x08002f3c   0x00000002   Code   RO          672    i.NMI_Handler       stm32g0xx_it.o
    0x08002f3e   0x08002f3e   0x00000002   Code   RO          673    i.PendSV_Handler    stm32g0xx_it.o
    0x08002f40   0x08002f40   0x00000090   Code   RO         1695    i.Process_100ms_CYC  app_bms.o
    0x08002fd0   0x08002fd0   0x00000054   Code   RO         1696    i.Process_500ms_CYC1  app_bms.o
    0x08003024   0x08003024   0x00000020   Code   RO         1175    i.RCC_GetHCLKClockFreq  stm32g0xx_ll_rcc.o
    0x08003044   0x08003044   0x00000020   Code   RO         1176    i.RCC_GetPCLK1ClockFreq  stm32g0xx_ll_rcc.o
    0x08003064   0x08003064   0x0000003c   Code   RO         1177    i.RCC_GetSystemClockFreq  stm32g0xx_ll_rcc.o
    0x080030a0   0x080030a0   0x00000040   Code   RO         1180    i.RCC_PLL_GetFreqDomain_SYS  stm32g0xx_ll_rcc.o
    0x080030e0   0x080030e0   0x00000010   Code   RO          455    i.RTC_Bcd2ToByte    rtc.o
    0x080030f0   0x080030f0   0x00000038   Code   RO          674    i.RTC_TAMP_IRQHandler  stm32g0xx_it.o
    0x08003128   0x08003128   0x00000054   Code   RO         1929    i.RealRemainCap_Calibration  app_soc.o
    0x0800317c   0x0800317c   0x0000008c   Code   RO         1930    i.RemainCap_Integral  app_soc.o
    0x08003208   0x08003208   0x0000002c   Code   RO         2340    i.RingBuf_Write     pcmonitor_protocol.o
    0x08003234   0x08003234   0x00000050   Code   RO         2405    i.SH367309_Config   bsp_sh367309.o
    0x08003284   0x08003284   0x00000048   Code   RO         2406    i.SH367309_I2C_Ack  bsp_sh367309.o
    0x080032cc   0x080032cc   0x0000003a   Code   RO         2407    i.SH367309_I2C_NAck  bsp_sh367309.o
    0x08003306   0x08003306   0x00000056   Code   RO         2408    i.SH367309_I2C_ReadByte  bsp_sh367309.o
    0x0800335c   0x0800335c   0x00000064   Code   RO         2409    i.SH367309_I2C_SendByte  bsp_sh367309.o
    0x080033c0   0x080033c0   0x00000052   Code   RO         2410    i.SH367309_I2C_Start  bsp_sh367309.o
    0x08003412   0x08003412   0x0000003c   Code   RO         2411    i.SH367309_I2C_Stop  bsp_sh367309.o
    0x0800344e   0x0800344e   0x0000004e   Code   RO         2412    i.SH367309_I2C_WaitAck  bsp_sh367309.o
    0x0800349c   0x0800349c   0x00000098   Code   RO         2414    i.SH367309_ReadData  bsp_sh367309.o
    0x08003534   0x08003534   0x00000022   Code   RO         2415    i.SH367309_ReadRegVal  bsp_sh367309.o
    0x08003556   0x08003556   0x00000002   PAD
    0x08003558   0x08003558   0x00000068   Code   RO         2416    i.SH367309_WriteEEpromData  bsp_sh367309.o
    0x080035c0   0x080035c0   0x00000068   Code   RO         2417    i.SH367309_WriteRamData  bsp_sh367309.o
    0x08003628   0x08003628   0x000001e0   Code   RO         2418    i.SHA_EEPROM_Set    bsp_sh367309.o
    0x08003808   0x08003808   0x00000078   Code   RO         2419    i.SH_Get_CellTemps  bsp_sh367309.o
    0x08003880   0x08003880   0x00000038   Code   RO         2420    i.SH_Get_CellVolts  bsp_sh367309.o
    0x080038b8   0x080038b8   0x0000004c   Code   RO         2421    i.SH_Get_Current    bsp_sh367309.o
    0x08003904   0x08003904   0x00000038   Code   RO         2422    i.SH_MOSCtrl        bsp_sh367309.o
    0x0800393c   0x0800393c   0x000000d0   Code   RO         2423    i.SH_Read_Alarm     bsp_sh367309.o
    0x08003a0c   0x08003a0c   0x00000038   Code   RO         2424    i.SH_Reset          bsp_sh367309.o
    0x08003a44   0x08003a44   0x00000016   Code   RO         2426    i.SH_Set_Balance    bsp_sh367309.o
    0x08003a5a   0x08003a5a   0x00000002   PAD
    0x08003a5c   0x08003a5c   0x0000003c   Code   RO         2427    i.SH_Set_CONF       bsp_sh367309.o
    0x08003a98   0x08003a98   0x00000024   Code   RO         2428    i.SH_Set_Default    bsp_sh367309.o
    0x08003abc   0x08003abc   0x00000020   Code   RO         2429    i.SH_Set_IDLE       bsp_sh367309.o
    0x08003adc   0x08003adc   0x0000006c   Code   RO         2157    i.SIFProcess        bsp_sifbus.o
    0x08003b48   0x08003b48   0x00000138   Code   RO         2158    i.SIF_QueryDataPack  bsp_sifbus.o
    0x08003c80   0x08003c80   0x00000194   Code   RO         2268    i.SMBUS_DataProcess  bsp_simiic.o
    0x08003e14   0x08003e14   0x0000005c   Code   RO         2220    i.SUART_Protocol    bsp_simuart.o
    0x08003e70   0x08003e70   0x00000002   Code   RO          675    i.SVC_Handler       stm32g0xx_it.o
    0x08003e72   0x08003e72   0x00000002   PAD
    0x08003e74   0x08003e74   0x00000078   Code   RO          457    i.SetWakeUpTimer_IT  rtc.o
    0x08003eec   0x08003eec   0x00000178   Code   RO         1809    i.SleepCheck        app_lowpower.o
    0x08004064   0x08004064   0x000000b0   Code   RO          249    i.Sleep_PinInit     gpio.o
    0x08004114   0x08004114   0x000001fc   Code   RO         1931    i.Soc_ClrOrSetCtrl  app_soc.o
    0x08004310   0x08004310   0x000000a0   Code   RO         1932    i.Soc_Init          app_soc.o
    0x080043b0   0x080043b0   0x00000010   Code   RO         1697    i.Soft_Delay        app_bms.o
    0x080043c0   0x080043c0   0x00000038   Code   RO         1747    i.SysParaInit       app_config.o
    0x080043f8   0x080043f8   0x00000040   Code   RO          676    i.SysTick_Handler   stm32g0xx_it.o
    0x08004438   0x08004438   0x000000cc   Code   RO           14    i.SystemClock_Config  main.o
    0x08004504   0x08004504   0x00000010   Code   RO         1620    i.SystemInit        system_stm32g0xx.o
    0x08004514   0x08004514   0x00000010   Code   RO          677    i.TIM14_IRQHandler  stm32g0xx_it.o
    0x08004524   0x08004524   0x00000010   Code   RO          678    i.TIM16_IRQHandler  stm32g0xx_it.o
    0x08004534   0x08004534   0x0000003c   Code   RO         2221    i.UART2RxDataPro    bsp_simuart.o
    0x08004570   0x08004570   0x00000048   Code   RO          679    i.USART1_IRQHandler  stm32g0xx_it.o
    0x080045b8   0x080045b8   0x00000048   Code   RO          680    i.USART2_IRQHandler  stm32g0xx_it.o
    0x08004600   0x08004600   0x00000048   Code   RO          590    i.USART2_SendByte   usart.o
    0x08004648   0x08004648   0x0000006c   Code   RO         2073    i.Update_CellTemps  app_temprature.o
    0x080046b4   0x080046b4   0x00000088   Code   RO         2112    i.Update_CellVolt   app_volt.o
    0x0800473c   0x0800473c   0x00000024   Code   RO         1774    i.Update_Current    app_current.o
    0x08004760   0x08004760   0x000000a8   Code   RO          375    i.VolFilter         adc.o
    0x08004808   0x08004808   0x00000020   Code   RO         2771    i.__0printf$3       mc_p.l(printf3.o)
    0x08004828   0x08004828   0x00000018   Code   RO          250    i.__NVIC_EnableIRQ  gpio.o
    0x08004840   0x08004840   0x00000018   Code   RO          525    i.__NVIC_EnableIRQ  tim.o
    0x08004858   0x08004858   0x00000044   Code   RO          251    i.__NVIC_SetPriority  gpio.o
    0x0800489c   0x0800489c   0x00000044   Code   RO          526    i.__NVIC_SetPriority  tim.o
    0x080048e0   0x080048e0   0x0000000e   Code   RO         2988    i.__scatterload_copy  mc_p.l(handlers.o)
    0x080048ee   0x080048ee   0x00000002   Code   RO         2989    i.__scatterload_null  mc_p.l(handlers.o)
    0x080048f0   0x080048f0   0x0000000e   Code   RO         2990    i.__scatterload_zeroinit  mc_p.l(handlers.o)
    0x080048fe   0x080048fe   0x00000002   PAD
    0x08004900   0x08004900   0x000001cc   Code   RO         2778    i._printf_core      mc_p.l(printf3.o)
    0x08004acc   0x08004acc   0x00000022   Code   RO           15    i.bsp_init          main.o
    0x08004aee   0x08004aee   0x00000002   PAD
    0x08004af0   0x08004af0   0x00000010   Code   RO          592    i.fputc             usart.o
    0x08004b00   0x08004b00   0x000000a4   Code   RO         1933    i.isCali_CHG_Enable  app_soc.o
    0x08004ba4   0x08004ba4   0x000000d4   Code   RO         1934    i.isCali_DSG_Enable  app_soc.o
    0x08004c78   0x08004c78   0x000000a4   Code   RO         1936    i.isSocInitEnable   app_soc.o
    0x08004d1c   0x08004d1c   0x00000124   Code   RO           16    i.main              main.o
    0x08004e40   0x08004e40   0x000000c4   Code   RO         1698    i.processavgCurr    app_bms.o
    0x08004f04   0x08004f04   0x00000030   Data   RO         1537    .constdata          stm32g0xx_ll_usart.o
    0x08004f34   0x08004f34   0x00000040   Data   RO         1621    .constdata          system_stm32g0xx.o
    0x08004f74   0x08004f74   0x00000020   Data   RO         1622    .constdata          system_stm32g0xx.o
    0x08004f94   0x08004f94   0x00000142   Data   RO         2074    .constdata          app_temprature.o
    0x080050d6   0x080050d6   0x00000002   PAD
    0x080050d8   0x080050d8   0x0000020c   Data   RO         2160    .constdata          bsp_sifbus.o
    0x080052e4   0x080052e4   0x00000142   Data   RO         2430    .constdata          bsp_sh367309.o
    0x08005426   0x08005426   0x00000002   PAD
    0x08005428   0x08005428   0x00000020   Data   RO         2986    Region$$Table       anon$$obj.o


    Execution Region RW_IRAM1 (Exec base: 0x20000000, Load base: 0x08005448, Size: 0x00001248, Max: 0x00002000, ABSOLUTE, COMPRESSED[0x000005f8])

    Exec Addr    Load Addr    Size         Type   Attr      Idx    E Section Name        Object

    0x20000000   COMPRESSED   0x00000004   Data   RW           17    .data               main.o
    0x20000004   COMPRESSED   0x00000004   Data   RW          376    .data               adc.o
    0x20000008   COMPRESSED   0x00000004   Data   RW          458    .data               rtc.o
    0x2000000c   COMPRESSED   0x00000001   Data   RW          459    .data               rtc.o
    0x2000000d   COMPRESSED   0x00000003   PAD
    0x20000010   COMPRESSED   0x00000004   Data   RW          593    .data               usart.o
    0x20000014   COMPRESSED   0x00000004   Data   RW         1623    .data               system_stm32g0xx.o
    0x20000018   COMPRESSED   0x00000031   Data   RW         1656    .data               app_alarm.o
    0x20000049   COMPRESSED   0x00000003   Data   RW         1658    .data               app_alarm.o
    0x2000004c   COMPRESSED   0x00000003   Data   RW         1659    .data               app_alarm.o
    0x2000004f   COMPRESSED   0x00000001   PAD
    0x20000050   COMPRESSED   0x00000010   Data   RW         1700    .data               app_bms.o
    0x20000060   COMPRESSED   0x00000002   Data   RW         1701    .data               app_bms.o
    0x20000062   COMPRESSED   0x00000008   Data   RW         1775    .data               app_current.o
    0x2000006a   COMPRESSED   0x00000006   Data   RW         1811    .data               app_lowpower.o
    0x20000070   COMPRESSED   0x00000656   Data   RW         1937    .data               app_soc.o
    0x200006c6   COMPRESSED   0x00000008   Data   RW         2044    .data               app_mos.o
    0x200006ce   COMPRESSED   0x00000002   PAD
    0x200006d0   COMPRESSED   0x00000004   Data   RW         2075    .data               app_temprature.o
    0x200006d4   COMPRESSED   0x00000006   Data   RW         2115    .data               app_volt.o
    0x200006da   COMPRESSED   0x00000002   PAD
    0x200006dc   COMPRESSED   0x00000012   Data   RW         2161    .data               bsp_sifbus.o
    0x200006ee   COMPRESSED   0x000000ee   Data   RW         2345    .data               pcmonitor_protocol.o
    0x200007dc   COMPRESSED   0x00000002   Data   RW         2431    .data               bsp_sh367309.o
    0x200007de   COMPRESSED   0x00000006   Data   RW         2626    .data               bsp_hardiic_reg.o
    0x200007e4        -       0x000001c4   Zero   RW         1699    .bss                app_bms.o
    0x200009a8        -       0x00000050   Zero   RW         1870    .bss                app_flash.o
    0x200009f8        -       0x00000199   Zero   RW         2222    .bss                bsp_simuart.o
    0x20000b91   COMPRESSED   0x00000001   PAD
    0x20000b92        -       0x00000278   Zero   RW         2269    .bss                bsp_simiic.o
    0x20000e0a   COMPRESSED   0x00000002   PAD
    0x20000e0c        -       0x00000038   Zero   RW         2624    .bss                bsp_hardiic_reg.o
    0x20000e44   COMPRESSED   0x00000004   PAD
    0x20000e48        -       0x00000400   Zero   RW            1    STACK               startup_stm32g030xx.o


==============================================================================

Image component sizes


      Code (inc. data)   RO Data    RW Data    ZI Data      Debug   Object Name

       878         98          0          4          0      42153   adc.o
       894         54          0         55          0       4029   app_alarm.o
       492         38          0         18        452       7534   app_bms.o
        56         18          0          0          0        438   app_config.o
       174         20          0          8          0       1670   app_current.o
      1288         48          0          0         80       5009   app_flash.o
       684         78          0          6          0      11807   app_lowpower.o
       940        108          0          8          0       1868   app_mos.o
      2632        330          0       1622          0      13197   app_soc.o
       168         16        322          4          0       2007   app_temprature.o
       314         32          0          6          0       2967   app_volt.o
       388         20          0          6         56      15105   bsp_hardiic_reg.o
      2212        104        322          2          0      24988   bsp_sh367309.o
      1028         80        524         18          0       6068   bsp_sifbus.o
       404         48          0          0        632       2699   bsp_simiic.o
       152         18          0          0        409       2500   bsp_simuart.o
       342         44          0          0          0       3975   flash.o
       948         96          0          0          0      98399   gpio.o
       530         50          0          4          0     321203   main.o
        44          4          0        238          0       2886   pcmonitor_protocol.o
       464         48          0          5          0      58482   rtc.o
        28          8        192          0       1024        616   startup_stm32g030xx.o
       658         98          0          0          0      98179   stm32g0xx_it.o
       432         34          0          0          0      38848   stm32g0xx_ll_adc.o
       164          4          0          0          0       6871   stm32g0xx_ll_exti.o
       312         28          0          0          0      11832   stm32g0xx_ll_gpio.o
        60         14          0          0          0      14276   stm32g0xx_ll_i2c.o
         0          0          0          0          0       3380   stm32g0xx_ll_pwr.o
       308         48          0          0          0      20394   stm32g0xx_ll_rcc.o
       680         32          0          0          0      35949   stm32g0xx_ll_rtc.o
       268         60          0          0          0      45598   stm32g0xx_ll_tim.o
       224         20         48          0          0      41752   stm32g0xx_ll_usart.o
        72         16          0          0          0     263493   stm32g0xx_ll_utils.o
        16          6         96          4          0       1127   system_stm32g0xx.o
       188         26          0          0          0      37284   tim.o
       380         38          0          4          0      34666   usart.o

    ----------------------------------------------------------------------
     18840       1784       1540       2020       2660    1283249   Object Totals
         0          0         32          0          0          0   (incl. Generated)
        18          0          4          8          7          0   (incl. Padding)

    ----------------------------------------------------------------------

      Code (inc. data)   RO Data    RW Data    ZI Data      Debug   Library Member Name

        96          0          0          0          0          0   __dclz77c.o
         0          0          0          0          0          0   entry.o
         0          0          0          0          0          0   entry10a.o
         0          0          0          0          0          0   entry11a.o
         8          4          0          0          0          0   entry2.o
         4          0          0          0          0          0   entry5.o
         0          0          0          0          0          0   entry7b.o
         0          0          0          0          0          0   entry8b.o
         8          4          0          0          0          0   entry9a.o
        30          0          0          0          0          0   handlers.o
        40          0          0          0          0         72   idiv.o
        36          8          0          0          0         68   init.o
        76          0          0          0          0         76   ldiv.o
       122          0          0          0          0         84   llmul.o
        32          0          0          0          0         68   llshl.o
        34          0          0          0          0         68   llushr.o
        36          0          0          0          0        100   memseta.o
       492         12          0          0          0        168   printf3.o
        44          0          0          0          0         72   uidiv.o
        96          0          0          0          0         84   uldiv.o
        20          0          0          0          0         60   uread4.o
        18          0          0          0          0         60   uwrite4.o

    ----------------------------------------------------------------------
      1196         28          0          0          0        980   Library Totals
         4          0          0          0          0          0   (incl. Padding)

    ----------------------------------------------------------------------

      Code (inc. data)   RO Data    RW Data    ZI Data      Debug   Library Name

      1192         28          0          0          0        980   mc_p.l

    ----------------------------------------------------------------------
      1196         28          0          0          0        980   Library Totals

    ----------------------------------------------------------------------

==============================================================================


      Code (inc. data)   RO Data    RW Data    ZI Data      Debug   

     20036       1812       1540       2020       2660    1276665   Grand Totals
     20036       1812       1540       1528       2660    1276665   ELF Image Totals (compressed)
     20036       1812       1540       1528          0          0   ROM Totals

==============================================================================

    Total RO  Size (Code + RO Data)                21576 (  21.07kB)
    Total RW  Size (RW Data + ZI Data)              4680 (   4.57kB)
    Total ROM Size (Code + RO Data + RW Data)      23104 (  22.56kB)

==============================================================================

