:020000040800F2
:1018F8002B56452B4C564F47600E0020D519000833
:10190800BD4500081D32000800000000000000006E
:1019180000000000000000000000000000000000BF
:101928000000000051530008000000000000000003
:10193800BF450008A1580008E7190008000000008A
:1019480069470008E7190008E7190008A9240008F2
:10195800E52400080D25000800000000E71900082C
:10196800E7190008E7190008E7190008E71900084F
:10197800E719000800000000E7190008000000004F
:10198800000000007D590008000000008D59000883
:10199800E7190008E7190008E7190008E71900081F
:1019A800E7190008D9590008215A0008000000006A
:1019B80000000000000000000348854600F0F4F82D
:1019C80000480047895F0008600E002004488047EF
:1019D80004480047FEE7FEE7FEE7FEE7FEE7FEE70E
:1019E8006D590008C119000830B50B4601460020A2
:1019F8002022012409E00D46D5409D4205D31D460D
:101A08009540491B2546954040191546521E002D04
:101A1800F1DC30BD70B500242546002801DA012428
:101A28004042002901DA01254942FFF7DDFFAC42B7
:101A380000D04042002C00D0494270BDF8B50024C7
:101A48002546002904DA0E46012400214042B1410E
:101A5800002B04DA1E46002352420125B34100F050
:101A680062F88C4617461E46AC4203D00025404219
:101A78008D41AC46002C02D0002657429E4161465B
:101A88003A46334601B0F0BDF0B51FB486B0002029
:101A98000090019002900698069980B204900798E9
:101AA800090C02040014114307900027089D0998A7
:101AB80006913E463C4603900398A9B20204000CE6
:101AC800039004982D0C154348430021224600F04A
:101AD8005AF8C719714110340E46402CECDB3846D1
:101AE800029A00F050F8009A019B80180090594122
:101AF80002980191103002904028CCDB00980BB07E
:101B0800F0BDD2B201E00270401C491EFBD2704702
:101B18000022F6E710B513460A4604461946FFF7B1
:101B2800F0FF204610BDF0B51FB40646002082B075
:101B380005464024019100901BE0019922460F467A
:101B4800304600F043F8049A059B801A994110D357
:101B580010461946224600F016F8361A8F410197AA
:101B6800224601200021009F00F00DF838184D4151
:101B780000902046641E0028DFDC019B009829465F
:101B8800324607B0F0BD10B5202A04DB0146203AE2
:101B98009140002010BD914020239C1A0346E34049
:101BA8001943904010BD0000064C0125064E05E083
:101BB800E36807CC2B430C3C98471034B442F7D366
:101BC800FFF7FEFEAC650008CC65000810B5202ABA
:101BD80004DB0846203AD040002110BD0B46D34014
:101BE800D0402024A21A91400843194610BD70B570
:101BF8008C180578401C6B075B0F01D10378401CDB
:101C08002A1106D10278401C03E006780E70401CA9
:101C1800491C5B1EF9D12B0705D40023521E0DD495
:101C28000B70491CFAE70378401CCB1A921C03E09E
:101C38001D780D70491C5B1C521EF9D5A142D8D3E2
:101C4800002070BD10B51D48002281681C4B490753
:101C580003D581681940103181601A4902E08A422F
:101C680003D2521C8468E406F9D48268D20703D0F0
:101C780082681A40921C8260002202E08A4203D2E3
:101C8800521C83689B07F9D4826817239A43DB07A1
:101C98001A43826083680022002B02DB05E08A4237
:101CA80003D28368521C002BF9DB04488030406B58
:101CB80005494006400E488010BD00000024014040
:101CC800E8FFFF7FFFFF030008000020074800210E
:101CD8008268074B1A40921C82605A1302E09142B4
:101CE80003D2491C83689B07F9D47047002401403C
:101CF800E8FFFF7F0020084901220A608A68074B35
:101D08001A40521C8A60DA1302E0904203D2401C47
:101D18000B68DB07F9D0704700240140E8FFFF7F1C
:101D2800F0B591B0002440216846FFF7F1FE0D4D53
:101D38006E4604272F60A8680B490840001DA8605C
:101D480000F024F8286C6100641CE4B27052202C66
:101D5800F0D308231A462021684603F031FF11B05A
:101D6800F0BD000000240140E8FFFF7F054A002184
:101D78009062054802E0814203D2491C13689B0423
:101D8800F9D5704700240140FFFF00000020054AF4
:101D9800054902E0904203D2401C0B685B07F9D565
:101DA80070470000FFFF000000240140FEB503F06B
:101DB800F9F87B48022404257A4F00907A49019566
:101DC80002943820385E0123774AC83100F0F4F8CD
:101DD800734E0A20B61D0190009602943C20AF2253
:101DE800385E00231201714900F0E6F80A20F11C60
:101DF8000091019002943C20AF22385E002312012A
:101E08006B4900F0D9F8B01D403F0195029400904D
:101E1800B87C01237322822100F0CEF830460F30BF
:101E2800019502940090F87B00232822232100F0DA
:101E3800C3F830460930019502940090B87B01231D
:101E480055225F2100F0B8F830461230019502940F
:101E58000090F87B002319220F2100F0ADF83046DE
:101E68000C30019502940090B87B0123642269210B
:101E780000F0A2F83746083F397830788907C90F4B
:101E88000843307000F04EF900F044FF4949F21C55
:101E98000860B11F09783888C907C90F0843F11EBF
:101EA80009781278830711433278DB0F1A431143FC
:101EB800C907890FA0430143B21D88061278C00FD5
:101EC800104320229143C007800E32460843153242
:101ED80001051278C90F1143A2029043C907090DE1
:101EE800324601431832C8041278C00F1043E20288
:101EF8009143C007C00C324608431232C10612781B
:101F0800C90F114310229043C907BF1EC90E32469C
:101F180001430F3248051278C00F1043C007400D27
:101F280062029143324608430C3281051278C90F88
:101F3800114322029043C907890D324601430932F1
:101F4800C8051278C00F1043E2019143C007C00DC5
:101F580032460843243201071278C90F1143082278
:101F68009043C907090F324601431B3248061278CD
:101F7800C00F10434022C0079143400E084331462A
:101F88001E31324621320978127811434207D20FA6
:101F98001143C907490FA84301433980FEBD00001A
:101FA8001C000020100800207A0D0000FC0800002A
:101FB800DC0500000C000020F0B50025069F079EF8
:101FC800059C002B02D0012B18D009E0884203DCC5
:101FD8006078401C607002E0904213DC6570A57068
:101FE8006078B84203D3012020700A376770A07860
:101FF800B04202D925700A36A670F0BD8842E7DAE9
:102008009042EBDA002AE9D0A078401CA0706570F5
:10201800E6E708B500200090684601F009F90028B5
:1020280001D0009880B203F041F808BD70B59CB0AB
:102038000D460646642102A8FFF76AFDBF2D19D296
:1020480007242846093003E0C82C19D2641CA4B21E
:102058008442F9D3A01E81B22C4800F0D1F8009038
:10206800002001902948694609380019C2794A7147
:10207800007A087101990098884204D0FF2D02D097
:1020880000201CB070BDAA2069460872552048720D
:10209800BB2088720320C8720E732A46314602A8F4
:1020A80003F088F804466946009048784873087831
:1020B8008873E01D81B202A800F0A2F8009003A87E
:1020C80069460330497821546946097804A821549F
:1020D800A12E01D0A02E03D10D484078012806D0AA
:1020E8000934A1B202A803F0BBFC0120C9E70A49E0
:1020F8000848086000F00EFCBFF34F8F08490748F6
:10210800C860BFF34F8F00BFFDE70000CD08002077
:10211800CC060020CDAB0000740800200400FA05AE
:1021280000ED00E070B5174D062328468030AE79E3
:10213800C269154801240021002E0CD1FF26F5366E
:10214800B24208DB4678761CF6B24670042E04D9F3
:102158004370047001E0417001700B48ED79C01CB8
:10216800002D0CD1FF25F535EA4208DC4178491CE1
:10217800C9B24170042901D94370047070BD41701F
:10218800017070BDD00700203700002030B503462D
:10219800002007240EE01A78504000225B1C050638
:1021A80002D54000604000E04000521CD2B2C0B2EC
:1021B800082AF4D30A46491EC9B2002AEBD130BD19
:1021C80010B500F0E3FA00F0DDFD0A490A4BCA8BAE
:1021D8009A4204D10A464032D289824201D0012073
:1021E80010BD06480A68824202D00860022010BD6D
:1021F800002010BD740800201916000034120000D9
:1022080070B5044600200246064D08E0A65C030AA5
:1022180073405B00EB5A0002584080B2521C8A425D
:10222800F4D370BD5C62000830B596250624002200
:102238001A4B1B49E8420DDA4A808888401C80B254
:102248008880CA80012826D97D208C80C000D8804B
:1022580044201FE096280CDD4888401C80B2488046
:102268008A80CA80012816D94C800E48988043205D
:1022780010E04A808A80C888401C85B2CD80D86921
:10228800002800DA4042962800DADA61012D02D9E6
:10229800CC8049200870087830BD00005008002024
:1022A800520000201A04000070B50C4C0020606138
:1022B8000B480C49408B88420DD20B4D642808D935
:1022C80032216438FFF7A6FB08494843281A2061E1
:1022D80070BD256170BD0648F9E700005008002070
:1022E80074080020AC0D0000808EF20DA0B423000D
:1022F800400E6501F8B5414A414E52790025414CDE
:10230800442A02D0432A2DD03CE06582A28A3C2A86
:1023180001D9657201E0521CA282002800DA40420D
:102328004843C821FFF776FB344F8037B969401816
:10233800B8613969884225D33348814222D9BD61C1
:10234800708B401C80B27083642808D932216438AD
:10235800FFF760FB2D4948432D49081A00E02C4837
:1023680038610FE0608A2B49884206D365820120D4
:102378006072306A401C306204E0617A002901D141
:10238800401C60822448AF2203781C483C2140301E
:102398001201415E012B0DD191420BDC2583E07ABD
:1023A800002812D10120E072154840308189491C6B
:1023B80081810AE0914207DD208B1E2802D2401C51
:1023C800208302E0E57200E025831448A17A0088A2
:1023D800012908D0E582000704D5706A401C7062A4
:1023E8000120A072F8BD0007FCD4E08A1E2802D2A2
:1023F800401CE082F8BDA572F8BD0000D00700209F
:102408007408002060000020802FA604A0B42300D8
:10241800808EF20D701700002200002018000020A6
:1024280010B500F077FA7D20C00001F03BFC0520D4
:1024380000228021000700F0C7FB7D20000101F089
:1024480031FC10BD10B51249002212480A703C2315
:10245800C35E1148834201DA012000E0104608708B
:1024680004460E48FF21038801318B430849891E21
:10247800002C0AD04C78641CE4B24C70282C03D988
:102488004A700380FFF7CCFF10BD03804A7010BD6F
:102498005C00002010080020FC080000500000200C
:1024A80070B5012001F08EF80A4E0B4CF514002887
:1024B80004D00120F060208828432080012001F00A
:1024C80077F8002804D00120306120882843208034
:1024D80070BD0000001802405000002010B5082010
:1024E80001F070F8064C002801D00820E0600820B0
:1024F80001F05EF8002801D00820206110BD00001E
:1025080000180240F8B50126B603304601F05AF823
:102518003711294D294C002803D0EE602088384314
:102528002080304601F044F8002803D02E6120882E
:1025380038432080102001F045F801267602002853
:1025480004D01020E860208830432080102001F05B
:102558002FF8002804D010202861208830432080DC
:10256800202001F02FF801263603002804D020206F
:10257800E860208830432080202001F019F80028E6
:1025880004D020202861208830432080FF2601368F
:10259800304601F017F87701002803D0EE60208854
:1025A80038432080304601F003F8002803D02E611C
:1025B800208838432080F8BD0018024050000020D1
:1025C800F8B502F0B1FDFF262D36304601F06AFB62
:1025D80002F0DCFF174C20690225A8432061042182
:1025E800304602F0B3FE00F02BF800F0C3FA1248B0
:1025F800012102680A4302600068084000900E4802
:1026080009074038C26B0A43C263C06B0840009098
:10261800012003F051F90948C1690902090A620455
:102628001143C161206928432061012003F087FB21
:10263800F8BD000000E000E04010024004ED00E0BA
:1026480007480168C908C900491C016005480269B2
:1026580004210A43026130BF02698A43026170475C
:102668000070004000ED00E030B5164A11680B1804
:10267800154902E014689C421BD20C69E443E40348
:10268800F8D50B69114C2340641C0C618C69012539
:10269800AD072C4003D08D6925438D612343002B62
:1026A80001D0012030BD1368181804E01368834274
:1026B80001D3032030BD0B69DB43DB03F6D50020D3
:1026C80030BD00000000002000200240FA83000016
:1026D800012200211203101A82B210B509480A4BD0
:1026E800006805E04C001C5B944203D8491CC9B241
:1026F8008142F7DB002901D0814201DDFE2010BDB7
:10270800084610BDC00600201861000810B5FFF784
:1027180057FD002805D0012801D100F003F800F08A
:10272800F9F810BD7FB500221548134611460092EE
:10273800019202926D4603928418267AFF2E01D0E8
:10274800012B02D1AE5C01232672521C102AF3DB46
:10275800002283182033521C1972202AF9DB094AF7
:1027680002604160012202760322427641830162BF
:10277800034A41624032816491810349C1837FBD2C
:102788007408002034120000191600003EB55F4995
:102798000022086849680090019168460178017232
:1027A8004178417281788172C178C172584B029820
:1027B80018606846017901724179417281798172A4
:1027C800C179C1720298586050480830D100081881
:1027D80004684568009401956C46C91824780C7201
:1027E8006C4664784C726C46A4788C726C46E478BB
:1027F800CC726C4624790C736C4664794C736C46C5
:10280800A4798C736C46E479521CCC73022ADDDB04
:102818008168C2680091019269460978197669460B
:102828004978597669468A784A72CA780A72098953
:10283800598369460A794A704A790A7009889983DE
:1028480069468A794A70CA790A700988D983016900
:1028580042690091019269460A780A724A784A7276
:102868008A788A72CA78CA720299196269460A799C
:102878000A724A794A728A798A72CA79CA7202993C
:10288800002218305962D10008180468456800947D
:10289800C91801956C46203124780C726C4664780E
:1028A8004C726C46A4788C726C46E478CC726C4698
:1028B80024790C736C4664794C736C46A4798C73D8
:1028C8006C46E479521CCC73042ADCDB8168C0684E
:1028D80001900091684601780172417841728178CF
:1028E8008172C178C1720298986468460179417012
:1028F80041790170064900884031888168468279AB
:102908004270C27902700088C8813EBD00F8000894
:1029180074080020F0B589B00025944E079500F0A2
:1029280031FA014692480190C18172B600F05EFC0E
:1029380002200490304600F051FB059001200690DB
:1029480007A904A800F0F4FB00287DD188486A464E
:10295800403801680091117811725178517291785C
:102968009172D178D17240680090107810735078C5
:10297800507390789073D078D073029A039B17465F
:102988001C463146012000F00FFC0028DDD13068DC
:102998007168784061400843D7D1744C0834744852
:1029A800EA0040381018037A69460B72437A4B7272
:1029B800837A8B72C37ACB72037B0B73437B4B7323
:1029C800837B8B73C07BC8731419029A039B1746C9
:1029D8001E462146012000F0E7FB0028B5D12068FB
:1029E8006168784071400843AFD16D1C022DD6DB79
:1029F80025465F4C6846403C217E0172617E4172EB
:102A0800618B0180417881720178C172A18B01804C
:102A18004178017301784173E18B018041788173BA
:102A28000178C173029A039B083517461E4629464A
:102A3800012000F0B9FB002806D1286869687840B1
:102A48007140084300D100E082E0206A00906846A7
:102A5800027802724278427282788272C278C272B6
:102A6800606A009068460178017341784173817803
:102A78008173C178C173029A039B083516461C46B8
:102A88002946012000F090FB002861D12868696878
:102A98007040614008435BD12C4608340025344817
:102AA800EA00403810182030037A69460B72437ADE
:102AB8004B72837A8B72C37ACB72037B0B73437B23
:102AC8004B73837B8B73C07BC8731419029A039B67
:102AD80016461F462146012000F066FB002837D124
:102AE8002168606871407840014331D16D1C042D24
:102AF800D5DB1F4825464038806C00906846017831
:102B080001724178417281788172C178C1720198ED
:102B180008358189684601804178017301784173DD
:102B28000198C18968460180417881730178C17331
:102B3800029A039B14461E462946012000F034FBE6
:102B4800002805D12868696860407140084305D0AD
:102B580000F01CFB62B6012009B0F0BD00F016FBC6
:102B680062B6FFF713FE0020F6E7000000F8000841
:102B7800B408002010B5012000F0C0FC012000F0CE
:102B8800B5FC102000F0BAFC102000F0AFFC2020AB
:102B980000F0B4FC202000F0A9FCFF2401342046FA
:102BA80000F0ACFC204600F0A1FCA401204600F097
:102BB800A5FC204600F09AFC10BD0069814301D0B5
:102BC8000020704701207047002A01D081617047BA
:102BD80081627047F8B5044600204B4D0146064611
:102BE8004A005219928A00926A4652782254401C2E
:102BF8006A46C0B212782254401C491CC9B2C0B2FD
:102C08000B29EDD307E02654401CC0B22654401CC3
:102C1800491CC0B2C9B21829F5D33B4A3821403201
:102C2800515E0091694649782154401C6946C0B2FA
:102C3800097821543C21515E0091401C6946C0B27C
:102C480049782154401C6946C0B209782154401C77
:102C5800C7B23E20105E0A21FEF7DCFE0B21484376
:102C6800694600904878E0557F1CF8B209782154ED
:102C7800401CC7B224480A218030C069FEF7CAFE4A
:102C880022494018694600904878E0557F1CF8B200
:102C980009782154401CC0B2A9782154EA79A9794D
:102CA80052001143401C8907C0B2890F21541849AA
:102CB800401C098800916946C0B249782154401CDB
:102CC8006946C0B209782154401CC0B2A97C21547D
:102CD800401CC0B2697C2154401CC0B2297A2154DE
:102CE800401CC0B2697A2154401CC0B22654401C12
:102CF800C0B22654401CC0B22654401CC0B2265450
:102D0800401CC0B2F8BD0000D0070020307500009C
:102D180018000020F0B5194B986818691868184908
:102D28000840810242044506890E540E6D0E08467D
:102D380001F00EFD0646204601F00AFD044628462D
:102D480001F006FD59680546C020C0430840090245
:102D5800C2048706090ED30EBF0E084601F0F8FC20
:102D6800184601F0F5FC384601F0F2FCE1200001BC
:102D780046433C20444330194019F0BD0028004028
:102D88007F7F7F0010B5164800210CC89A180838B4
:102D980043181B7A491C9A1889B21029F8D3017E66
:102DA8008918427E5118428B51181C22825E511894
:102DB800C28B5118026A5118426A521800214318EE
:102DC80028241C57491CA21889B22029F7D3044982
:102DD800806C403189898018081880B210BD0000C5
:102DE8007408002010B502F0A1F810BDFEB500244B
:102DF80069468C8005460C72264601A902A802F095
:102E0800B1FF00284CD06846007A264F012802D02E
:102E180002280DD101E0244801E02348A8300090A1
:102E280069468B88387C0422204900F031F9C4B205
:102E3800BA78502A20D9101B401D0A281CD94B27C4
:102E48005A263F01642C0CD26420011B801A7D2273
:102E5800D2005043FEF7C8FD80B22880B84203D89C
:102E680004E07D20000128802F8019E0FF21F53142
:102E7800884215D2298013E0111B7D20C000491C0F
:102E880002290BD907498031A24202D2CB8883425A
:102E980004D3A24204D9C988814201D928805A267C
:102EA8003046FEBDD0070020020400207D0000202F
:102EB800FEB5002469468C8005460C72274601A998
:102EC80002A802F0A1FF00285DD06846007A324EC1
:102ED800032804D0042804D005280DD128E02F4861
:102EE80000E02F48009069468B882C49307C0722E7
:102EF8000F3900F0CDF8C4B2B078411E132904D9B7
:102F0800142C3BD8317C3C2938D92449012230394A
:102F18000A70011B7D264A1D36010A2A0DD9002C8C
:102F280008D0204948432146FEF75EFD288002E08C
:102F38001D48D7E72E805A270DE01A4A491C022956
:102F480006D9A04207D2144880308088904202D91E
:102F58002A805A271DE02888B04201D92E8018E01F
:102F68007D21C900884203D20B4A127C3C2A03D82F
:102F7800FF21F53188420CD229800AE00749002058
:102F88003039087004E0054830380078002800D14E
:102F9800AA273846FEBD0000D00700209000002078
:102FA800B60100201A040000DC02002010B5044617
:102FB800094800218278142A0CD9007C00F026F8F0
:102FC8007D225A2112012080904202D8921090420C
:102FD80000D22280084610BDD00700201F21C90654
:102FE8004018C00A704770B50E4604466421304642
:102FF800FEF7FAFC0546C8213046FEF7F5FC001935
:103008002946FEF7F1FCC0B270BD0000F8B51D49B5
:1030180000254E882C46AA008A5A82421AD9002DC9
:1030280008D0AC0063181F46403F095BBA8FFC8F7D
:103038005B8803E00A8834461146234691420DD93D
:10304800A3420BD9801A1B1B5843891AFEF7E2FCCE
:1030580081B204E06D1CEDB2052DDCD300210A48D5
:10306800002D08D0052D0BD26118322905D9FEF79D
:10307800BBFC80B2F8BD3146F9E729204001F8BD14
:103088000248F8BD52050020289A01001A040000E1
:1030980070B50024049E04E00D5D854203D8641CCD
:1030A800E4B29442F8D30025002C0BD0002D15D0A3
:1030B800601E1521484340194000801940383E21C0
:1030C800415E10E06900705E002D04D08A19403A14
:1030D8003E21515E0DE00021715E0AE0601E15215F
:1030E80048434000315E601E15225043401940009D
:1030F800305E834204DC6D1CEDB2152DD4D301E0A3
:10310800002D10D0142D10D881420CDD091A181A80
:1031180082008018FEF77EFC1421491B8A0089185A
:10312800401800B202E0642000E0002080B270BDC8
:10313800F0B506467D200F46C000FFF795FA002837
:103148001FD1411E39600F4C756811E06069FF217D
:10315800F9318843E90001430B48014361617D204F
:10316800C000FFF781FA002801D03D6005E06D1C22
:103178007268B1685118A942E8D86169022291437E
:103188006161F0BD002002400200010005490120F4
:103198004A69C3071A434A614969002900DA0020CD
:1031A8007047000000200240F0B51FB406467D209D
:1031B80017460D46C000FFF757FA002812D10A4CEF
:1031C800012E08D160690121084360612F60BFF3B7
:1031D8006F8F039868607D20C000FFF745FA61692A
:1031E800B143616105B0F0BD0020024006490020EE
:1031F8004A69002A07DA054A8A60054A8A604969E5
:10320800002900DA012070470020024023016745A9
:10321800AB89EFCDBFF34F8F04490348C860BFF3B4
:103228004F8F00BFFDE700000400FA0500ED00E045
:10323800F8B52A4E38243C25345F755F0021641B9D
:1032480027460937264D8C468E460B460A46122FCE
:1032580001D9012703E0271D082F01D800276F7027
:10326800204FE4197F00BC4201D900246C703E2431
:10327800345F0094194C403C4E003619B68A1A4FF8
:10328800BE4206D9009FBE4203DD0126B6468E40E7
:103298003243491CC9B20B29EED36179432909D1BC
:1032A800A17B642906D27146012903D169780129D5
:1032B80000D18C4600210124016025469D4015421D
:1032C80004D0254606688D402E4306605B1C491CC9
:1032D800C9B2DBB20B29F0D36046F8BD1008002054
:1032E800C4060020E7030000520D000018B50021B5
:1032F80000918268D207D20F2DD0C26837239B0174
:103308009A43C26082683A4B5207D20F07D082684C
:10331800D206D20F03D182681A401032826001228D
:10332800D203009203E0009C641E009409D08468D4
:10333800E406E40FF7D184681C40A41C8460009262
:1033480005E00121F7E7009A521E00923BD08268FF
:103358009207D20FF7D1826817231A4230D14268F8
:10336800244B1A4042600268DB431A4302608268B9
:1033780001231B079A438260C2681F4B1A40C26030
:1033880002691E4B1A40026142691D4B1A40426194
:10339800026A130B1B4A1B0313430362436A1B0B8A
:1033A8001B0313434362C36A1B0B1B031343C36210
:1033B800826AD20CD204826203221204009208E0CC
:1033C8000121084618BD0121C5E7009A521E009246
:1033D8000CD002689204D20FF7D001225203026087
:1033E8008030426BD209D2014263EAE70121F4E757
:1033F800E8FFFF7F60D4FFFF00023E8302FCFF3F2F
:10340800880000F80000FF0F70B583680022DB0712
:10341800DB0F02D00122104670BD8C684B68C5686E
:103428002343CC68054E35402C432343C3600369CE
:1034380009689B009B080B430361ECE7C73FFFFF4C
:1034480070B54D6883680022DB07DB0F02D00122CC
:10345800104670BDC46801235B051C420E4B01D0A9
:10346800F02D08D08D680C680E692C43CD68354363
:103478002C434D6905E0CD680C684E692C430D69F5
:1034880035432C43C5681D402C43C4604968836A92
:103498000B438362DCE700003CC2FEFF10B54369C2
:1034A8000424214007248C40A3438A4013434361EA
:1034B80010BD000008B504490A6802430A6009689B
:1034C8000140009108BD00004010024002490A6B0B
:1034D80002430A63704700000010024002490A6B69
:1034E80082430A63704700000010024002494A689C
:1034F80082434A60704700008018024002490A6807
:1035080082430A60704700008018024010B50479B1
:10351800002326490268002C41D0002A3DD0447976
:10352800002C12D0012C18D0022C19D0012382793A
:10353800002A32D01D498039012A19D0022A20D008
:10354800032A22D00220034327E04C6894434C60AE
:1035580002680C6814430C60E9E70C68944301E0C6
:103568000C6814430C6002684C6814434C60DEE736
:1035780002684C6894434C6000680A6802430A6019
:103588000BE002680C68944302E002680C6814437C
:103598000C6000684A6802434A60184610BD0C680F
:1035A80094430C6000684A688243F5E7801802403B
:1035B80003490969884301D00020704701207047FA
:1035C800001802400349C968884301D000207047A9
:1035D80001207047001802408A07130F054A10B5EA
:1035E8009B181A6E090C07248C40A243884002439A
:1035F8001A6610BD0018024010B5052100240907FD
:10360800884204D1012000F0A5F801201EE01249EB
:10361800884204D1022000F09DF8022016E00F49EC
:10362800884204D1042000F095F804200EE00C49EB
:10363800884204D1082000F08DF8082006E00949E6
:10364800884206D1202000F085F8202000F08AF872
:1036580000E00124204610BD00040050000800507E
:10366800000C005000140050F0B500243EE0012387
:103678002A46A3401A4038D04F6806681346534379
:103688005D005D19AE435F433E4306604E68012E00
:1036980001D0022E05D18F6886685F43AE433E4352
:1036A80086600F69C668AE431D467D432E43C660DB
:1036B8004D68022D19D1FF2A0AD84E69056A53436D
:1036C80053431A01D21A954373431D4305620CE014
:1036D800130A1A465A435A435A4313019E1A4D690C
:1036E800436A6A43B34313434362641C0A6815463A
:1036F800E240BCD14A68012A01D0022A06D1CB682F
:1037080041682A4691435A43114341600020F0BD65
:1037180010B5036849434C000C19A34351430B43AC
:10372800036010BD08B504494A6B02434A63496BFC
:103738000140009108BD00000010024008B504498E
:103748004A6B02434A63496B0140009108BD00007F
:103758000010024002494A6A02434A627047000068
:103768000010024002494A6A82434A6270470000D8
:103778000010024010B57D21C900FEF735F9044953
:10378800401E4861002088610520086110BD0000C6
:1037980000E000E010B5044600F09CFF206000F057
:1037A80079FF606000F086FFA06010BD014610B58B
:1037B8000020032913D1134A516903238907890F6C
:1037C8001B041943DB43C9180AD001290BD002296D
:1037D80011D000F07FFF00F05DFF00F06BFF10BD1F
:1037E80000F078FF10BD0749403909684905C90F3D
:1037F800F8D0054810BDD1698907C90FFAD0012052
:10380800C00310BD401002400024F40010B5029C13
:1038180049032406240A1B0621431B0C1943D2B270
:1038280011434268024B1A400A43426010BD00002F
:10383800C00000FFF8B5012614460F4605460029CA
:1038480006D16078C10603D5EF2108400A306070C0
:10385800CA20686253206862284600F041F80128AF
:103868002AD0E078002F04D000906378A2782178DD
:1038780016E00A21FEF7B8F800010843C7B26078DD
:103888000A21FEF7B1F800010843C6B2A0780A2160
:10389800FEF7AAF80001084300972178C2B2334620
:1038A8002846FFF7B3FF80200849C043C860A869CD
:1038B8008006C00F04D00026FF2068623046F8BD9D
:1038C800284600F0BFF80646F6E70000002800404A
:1038D80001210170817041700021C17070470000A2
:1038E80018B57D21C9000091C16800224906C90F99
:1038F80015D1491EC160C1680B4B4906C90F0CE0C0
:103908001969C903C90F02D00099491E0091C168FD
:10391800009C4906C90F002C03D00029F0D010469E
:1039280018BD0122FBE7000000E000E070B5044686
:103938000126CA200D466062532060622046FFF7C8
:10394800CFFF012817D02968A06940229043084377
:10395800A061A8682169C90BC90301432161A9882D
:1039680020697F22120490430904084320618020C3
:10397800C043E0600026FF206062304670BD000052
:103988001206120A10B50A431906090C029C0A43CA
:10399800E1B20A430168024B19401143016010BDAE
:1039A800808080FFF8B5054614460F4601260020A2
:1039B800AA6940210A4200D12060CA2068625320C7
:1039C80068622846FFF78CFF01282AD0A079002FCB
:1039D80004D0009063792279216816E00A21FEF765
:1039E80003F800010843C7B260790A21FDF7FCFF1C
:1039F80000010843C6B220790A21FDF7F5FF00014E
:103A0800084300972168C2B233462846FFF7B8FF3B
:103A180080200849C043C860A8698006C00F04D048
:103A28000026FF2068623046F8BD284600F00AF8F4
:103A38000646F6E700280040002101600171417147
:103A48008171704738B57D24E4000094C268002174
:103A580080231A40A13AC260C268164B9206D20F60
:103A68000CE01A69D203D20F02D0009A521E0092BB
:103A7800C268009D9206D20F002D18D0002AF0D1FE
:103A8800002912D10094C2689206D20F0BE01A697D
:103A9800D203D20F01D0621E0092C268009C920627
:103AA800D20F002C03D0002AF1D0084638BD0121DE
:103AB800FBE7000000E000E00149086070470000F3
:103AC8001400002070B516490024884201D1C5149D
:103AD8001BE01449884208D113480221C26A0A43EC
:103AE800C262C26A8A43C26217E01049884201D1A1
:103AF800C5130AE00E49884202D101256D0404E08D
:103B08000C49884208D10125AD042846FFF7DEFCA0
:103B18002846FFF7E3FC00E00124204670BD0000C2
:103B2800002C01400004004000100240002000402A
:103B3800004401400048014070B50268174B184D19
:103B4800984201D0A84203D17024A2434C68224372
:103B5800144E154C984208D0A84206D0134DA842DE
:103B680003D0B04201D0A04204D103252D02AA43BC
:103B7800CD682A4302608A68C2620A8882629842D3
:103B880003D0B04201D0A04201D1097C0163416950
:103B9800012211434161002070BD0000002C01404A
:103BA800000400400044014000480140002000405B
:103BB80041680922D2029143416081682A229143D7
:103BC80081607047FEB5044600680D4601273840FD
:103BD8005CD12969A868EA690843696911430843FF
:103BE80021682B4A114008432060E9686068032275
:103BF8001203904308436060A969A06812119043BA
:103C08000843A0602348844203D10320FFF7CEFD78
:103C180006E02148844232D16846FFF7BBFD02988E
:103C280000282CD06E68002E29D029680027EA6960
:103C38000B2924D80123DB039A4213D109068A0DE4
:103C480016498958FDF7D0FE4000710840183146E2
:103C5800FDF7CAFE81B2124808400907490F01431F
:103C6800E1600CE009068A0D0C498958FDF7BCFE95
:103C7800710840183146FDF7B7FE80B2E060288829
:103C8800E16A80B2090909010143E1623846FEBDD3
:103C9800F369FFEF003801400044004088600008E5
:103CA800F0FF000008B505490A69009203E00A69B7
:103CB800D20300D5401E0028F9D108BD00E000E07D
:103CC800FEB5002168468180984900790988400836
:103CD8008A074000D20F1043FD221040CA06D20FB7
:103CE80052001043F72210408A05D20FD200104329
:103CF8008906EF22C90F104009010843DF21084057
:103D08008B490978C907890E0843BF2108408949AA
:103D180009788901084341068748490E0078C0019F
:103D28000143684601714079410884484900007898
:103D3800C007C00F014368464171FF210131804827
:103D4800FEF73BFFC007010F7E48082200887F4C22
:103D5800904308437B4908807B490D462E464A79A3
:103D680040368035432A01D0002107E02179032914
:103D780003D900216B46998009E0491C21716946E5
:103D88008988002903D07248A880002010E03C21CF
:103D9800715E704B994206DD6B498B7B692B02D2B1
:103DA800C97B052901D8432A03D1000701D5012081
:103DB8006070002769460F8008785C4940080988C8
:103DC8004000CA07D20F10434A05FD23D20F1840FE
:103DD80052001043F7221040CA05D20FD2001043F8
:103DE8008906EF22C90F104009010843DF21084066
:103DF80052495A4A0978C907890E0843BF21084021
:103E08004B490978890108434B4940060978400E17
:103E1800C901084369460870487846494008097846
:103E28004000C907C90F08434B4918400978C9071A
:103E3800890F0843694648703C21715E914202DC53
:103E48000421084301E0FB210840694648700190BD
:103E580010213B48FEF7B1FEC007420F3948042342
:103E68000188994311430180480711D4FF22E8696A
:103E78002D3290420CDAE088394A904201D2401C37
:103E8800E08080B2782804D301980822104303E028
:103E9800E7800198F72210406A4650702A48437913
:103EA800442B0AD067716A461288002A0AD07D21FD
:103EB800E770C900E98027701FE06279032A12D9E8
:103EC8006A461780E278002A10D03822B25E254D63
:103ED800AA4205DA827B5F2A02D2C27B052A08D869
:103EE800442B06D009E0521C6271DCE70121E17025
:103EF80003E0490701D501212170C27961788A421E
:103F080003D18079237898420DD0012904D1012A60
:103F180002D0A078002803D0207801F02DF8FEBD4B
:103F28000120A070FEBDA770FEBD00001800002093
:103F38004000002043000020460000203D000020F3
:103F48000004005050000020D0070020B6060020D2
:103F58001A040000FC08000025000020DC05000011
:103F680030750000420E000030B591B00024069470
:103F780007940894182168460994FDF7C9FD18218B
:103F88000AA8FDF7C5FD414D2846FFF7AFF940489F
:103F98000121026809050A43026000680840109080
:103FA8003B4801214038426B0A434263406B0E9400
:103FB8000840109020200A9003200B9005200AA9A1
:103FC8000007FFF751FBE868012149058843E860CD
:103FD800480206900794089406A909942846FFF712
:103FE80013FAF02000940190029403940494694613
:103FF80005942846FFF724FA2869400840002861FC
:104008002869E90488432861072200212846FFF728
:1040180045FA07221F492846FFF740FAA8681E49B3
:104028000840012109070843A8601C481C49408929
:104038000880FDF707FE1C481A490068FDF7D4FC04
:10404800142148430A21FDF7CFFC00E0401E002858
:10405800FCD1164803220168D2040F239B0499431C
:104068001143016001220168920507239B059943CA
:1040780011430160A86A0521000900010843A862EC
:10408800686951128843686111B030BD002401404D
:104098004010024004FFFF07E8FFFF7FA075FF1FE5
:1040A80008000020400D03001400002008270140EC
:1040B800FEB50025364800950195C16949084900B3
:1040C800C16129462846FFF787FA32490120FFF7E0
:1040D80083FA01210846FFF77FFA2F490120FFF7ED
:1040E8007BFA02210120FFF777FA0520002201213F
:1040F8000007FFF70DFB294C002210212046FFF78F
:1041080007FB002220212046FFF702FBFF2601368D
:10411800002231462046FFF7FBFA270100223946E4
:104128002046FFF7F5FA012468460094457184712A
:104138000471FFF7EBF968460097457184710471C3
:10414800FFF7E4F910200090684645718471047106
:10415800FFF7DCF9202000906846457184710471EE
:10416800FFF7D4F968460096457184710471FFF72A
:10417800CDF90021052001F08FFD052001F074FD27
:104188000021072001F088FD072001F06DFDFEBD2C
:104198004010024003001000010008000004005015
:1041A800F0B587B018216846FDF7B2FC0520000776
:1041B800FFF722FA4A4E3046FFF71EFA4948FFF742
:1041C8001BFA4948FFF718FA4848C16949084900E5
:1041D800C1610120FFF7A6FA0220FFF7A3FA042025
:1041E800FFF7A0FA0820FFF79DFA80200124002598
:1041F80000900520019403956946049502940007F0
:10420800FFF732FA0520012280210007FEF7DCFCC7
:1042180040270520694600070097FFF725FA052083
:1042280000078762E703694630460097FFF71CFAE4
:10423800B761082769462C480097FFF715FA102040
:104248000090052069460007FFF70EFA022000904B
:10425800052069460007FFF707FA694630460097C8
:10426800FFF702FA694620480097FFF7FDF9E002D8
:104278000090052001940394694604950294000770
:10428800FFF7F2F927030520694600070097FFF7B3
:10429800EBF9694630460097FFF7E6F9B762052063
:1042A8006946000701950094FFF7DEF92020009089
:1042B80069463046FFF7D8F9102000906946304625
:1042C800FFF7D2F9A003009069463046FFF7CCF912
:1042D8002002009069463046FFF7C6F907B0F0BDE6
:1042E8000004005000080050000C0050401002402C
:1042F800F0B587B000252E48039501688215114353
:1043080001602C48C169D2011143C16101152948D6
:104318004038C26B0A43C263C06B08402649069006
:104328000868FF273A0490430122D2051043086029
:1043380001262249042008607F20214C049003A90B
:1043480005972046FFF7F2FA1E480178012921D087
:1043580006706846FFF770FB02A8FFF7B9FA0E204F
:1043680069460871322048718D716A4600212046DD
:104378000095FFF717FB022069460872062048726D
:104388008E721520C87202AA00212046FFF752FA41
:1043980007B0F0BDCA20606253206062A069800641
:1043A800C00F02D12046FFF74DFB6762F0E700001F
:1043B800007000404010024000E400E000E100E02E
:1043C800002800401000002000B585B01421684680
:1043D800FDF79EFB01204004FFF76CF80021152033
:1043E80001F07CFC152001F04BFC0F206946088089
:1043F800FF210020F531029101900390694608746D
:104408000248FFF799FB05B000BD000000440140D9
:10441800F0B58FB0202106A8FDF77AFB1821684671
:10442800FDF776FB23480121026889030A430260ED
:10443800006808400E900120FFF780F90120002451
:10444800012540020527059502263F0700900294A2
:1044580003946946019604943846FFF705F9A802C3
:104468000595009002940394694601960494384691
:10447800FFF7FAF8E120400207900894069409949F
:104488000A940C940D940C200B4C0B9006A9204612
:10449800FFF798FB2046FFF78BFB20682843206036
:1044A800E0698002C00FFBD0E0694002C00FF7D07E
:1044B8000FB0F0BD4010024000380140F0B58FB099
:1044C800202106A8FDF724FB18216846FDF720FBEC
:1044D8003448C26A012149040A43C262C26A8A4353
:1044E800C262C26B0A43C263C06B08400E900120CF
:1044F800FFF724F900240125082005270595022641
:104508003F07009002940394694601960494384644
:10451800FFF7AAF8042005950090029403946946D1
:10452800019604943846FFF79FF8E1208001079030
:104538000894069409940A940C940D940C201A4C2F
:104548000B9006A92046FFF73DFBA068C000C008F5
:1045580079000843A060A068072149068843F9103C
:104568000843A0602046FFF723FB10480168090AAA
:10457800090201600E49A004086020682021084350
:1045880020602068102108432060206828432060AC
:10459800E0698002C00FFBD0E0694002C00FF7D08D
:1045A8000FB0F0BD00100240004400401CE400E0E1
:1045B80000E100E07047704710B501F0EFFA1C4CBD
:1045C800E061204620300178552907D1002101708B
:1045D800FEF708FC17498883FEF79CF9E069FDF7A8
:1045E80023FE134980394871442817D043281CD02A
:1045F8001148124A20811068114B1968401A00D5D9
:10460800404281B26180106818602289E06900F038
:10461800EDF86188E069FDF76DFE10BDA08868219E
:1046280048436421FDF7E0F9E3E7E088E1E70000AB
:1046380050080020740800201A0400000000002020
:104648004C00002070B501F065FAFDF7E2FC01F0BE
:104658002BFAFDF7ABFBFFF733FB01F0A9F800F0ED
:104668009BF80A4C21696069FEF7BDFC2546803D30
:10467800A87007492069FEF7B6FCE87000F0E2FF71
:10468800FDF7E0FE00F09EFE70BD0000500800201F
:10469800808EF20D054989688A093C210A400A4042
:1046A8000349895CC906C90EC8407047001002401A
:1046B800B860000805498968054A4904490F890016
:1046C800515CC906C90EC84070470000001002407E
:1046D800F860000810B50B4988683822104008288F
:1046E8000AD010280AD0086801218004400F8140B0
:1046F8000548FDF779F910BD044810BD00F008F829
:1047080010BD0000001002400024F40000127A00DE
:1047180010B50D4AD0680D498007800F022802D0D5
:10472800032800D14910D068440FD0684006430FD1
:10473800D068641C4004400E4843591CFDF754F9E6
:104748002146FDF751F910BD001002400024F40085
:1047580001090A2200075143000F4018C0B27047F0
:104768000B48016DC907C90F03D0C16D0122114360
:10477800C165016D4907C90F08D0C16D04221143F5
:10478800C165044892010188114301807047000007
:10479800002800405000002070B51249114C49799A
:1047A80000208034104D432908D0442910D12846D0
:1047B8001030FEF77DFBAA280BD00EE000202870F1
:1047C80009481030FEF712FB5A2801D1298AE180E6
:1047D80070BD05481030FEF7E9FB5A28F8D1298A40
:1047E800A18070BDD00700206000002070B515467C
:1047F8000A460024C1172346FDF746F92A462346F0
:10480800FDF742F97D22D2000023FDF717F9C822EF
:104818000023FDF713F90025144A2B4612882D1A98
:104828008B4101DAD30603D4002903DA920601D5B5
:10483800002001460E4A938994819B1CDD17C01AFB
:104848000C4AA9415369002906DA002801DB014610
:1048580000E041428B4202D31818506100E05461D5
:1048680051691069814200D3506170BD5000002029
:10487800600000205008002010B5094C6288211DF6
:1048880050546088C821401C80B2FDF7ADF86180A3
:104898002088814203D1C821FDF7A6F8218010BDE8
:1048A800E006002008B500206946087000F0F4F919
:1048B8000520012202210007FEF786F90A20FFF7EA
:1048C800F1F900F0D7FBFA20FFF7ECF900F01AFC39
:1048D80001226946192000F065F940B2002805D187
:1048E8006846007802494006400E087008BD00007E
:1048F800CC07002070B50124052524032D070022CC
:1049080021462846FEF760F9012000F0A1FF0122A8
:10491800D60231462846FEF757F9022000F098FFE4
:10492800002231462846FEF74FF9022000F090FF9A
:10493800012221462846FEF747F970BD70B50524C7
:104948000122240711032046FEF73EF9012000F05A
:104958007FFF0122D50229462046FEF735F90220BD
:1049680000F076FF002229462046FEF72DF90220A6
:1049780000F06EFF70BDF8B500240127FF02052680
:1049880025463607022000F063FF012239463046EB
:10499800FEF71AF9012000F05BFF6006040E012102
:1049A80009033046FEF709F9002801D0641CE4B277
:1049B800012000F04DFF002239463046FEF704F989
:1049C8006D1CEDB2082DDDD32046F8BDF8B50127E2
:1049D8000024FF02052605463607280601D50122D0
:1049E80000E00022012109033046FEF7EDF801201E
:1049F80000F02EFF012239463046FEF7E5F868063A
:104A0800050E022000F024FF002239463046FEF74A
:104A1800DBF8012000F01CFF072C04D10122110350
:104A28003046FEF7D1F8641CE4B2082CD5D3F8BDA3
:104A380070B5022000F00CFF0122052514032D0794
:104A480021462846FEF7C0F8012000F001FF0122A8
:104A5800D60231462846FEF7B7F8042000F0F8FEE3
:104A6800002221462846FEF7AFF8042000F0F0FEA9
:104A7800002231462846FEF7A7F8012000F0E8FE9C
:104A880070BD70B50124052524032D070022214699
:104A98002846FEF799F8022000F0DAFE0122D1023A
:104AA8002846FEF791F8012000F0D2FE01222146A7
:104AB8002846FEF789F8022000F0CAFE70BD70B5DE
:104AC8000122052514032D0721462846FEF77CF808
:104AD800022000F0BDFE0122D60231462846FEF72C
:104AE80073F8012000F0B4FE21462846FEF765F869
:104AF800C4B2012000F0ACFE002231462846FEF781
:104B080063F8022000F0A4FE204670BDF0B58DB019
:104B18000E4607461446042534216846FCF7F8FF7C
:104B2800342168460170477084703521C170FFF7E1
:104B38007FFF3420FFF74AFFFFF7C1FF3846FFF732
:104B480045FFFFF7BCFF2046FFF740FFFFF7B7FF21
:104B5800FFF76EFF3520FFF739FFFFF7B0FF6F460D
:104B680009E0FFF708FF7855FFF7C4FE785D6D1C74
:104B78003070EDB2761C2046641EE4B20028F0D1F5
:104B8800FFF7F9FE0446FFF7D9FEFFF77AFF29463B
:104B98006846FDF7FBFAA04202D100200DB0F0BD37
:104BA800FF20FBE7F8B515460E46074600242A46BF
:104BB80031463846FFF7AAFF641CE4B2002801D04A
:104BC800032CF4D3F8BD0000FEB50D4606460021BF
:104BD8006846017115A00068009068460C4646704A
:104BE80085700321FDF7D2FA01466846C170FFF7C8
:104BF8001FFF6F46385DFFF7E9FEFFF760FF641C93
:104C0800E4B2042CF6D3FFF73CFF2320FFF74AF861
:104C1800012201A93046FFF7C5FF684600798542A1
:104C280001D10020FEBD0020C043FEBD34000000BD
:104C3800FEB50D46064600216846017115A00068BC
:104C4800009068460C46467085700321FDF79EFA71
:104C580001466846C170FFF7EBFE6F46385DFFF707
:104C6800B5FEFFF72CFF641CE4B2042CF6D3FFF763
:104C780008FF0520FFF716F8012201A93046FFF7C3
:104C880091FF68460079854201D10020FEBD0020D1
:104C9800C043FEBD34000000F0B5002797B03C4685
:104CA800FA20FEF7FFFF1A2207A90020FFF72EFFC0
:104CB800641CE4B2002801D0032CF4D308A9487D71
:104CC80010244206520E4A7540210B200843204307
:104CD8002021084310A90874694608702046DF217E
:104CE80008408021084310A9087469464870088F55
:104CF8005A49800A80024018032189028843000526
:104D0800000DC900401869460887040A8C70C870ED
:104D18005249F323283908460121C9034018694636
:104D28000887040A0C714871732088717820C8714B
:104D3800AA200872732048724B208872BE20C8725D
:104D480008A9087F0007000F303000090001801D06
:104D580008776946087310A908780007000F3030F3
:104D680000090001401D08706946487310A95320C6
:104D780008716946887310A90A2008726946C873C1
:104D880010A9087BCF218006800E084010301840FB
:104D980008308008800010A90873694608749000DC
:104DA80014182F4821182F48FCF71EFE694648742E
:104DB8002B485C382118FF204002FCF715FE694695
:104DC80048752748323821182748FCF70DFE6946F0
:104DD8008875234887302118F1208002FCF704FEEB
:104DE80069468874214821182148FCF7FDFD694669
:104DF8000546C8741F4821181F48FCF7F5FD694689
:104E08000875CD750876002007AE6D46315C2A5CC2
:104E1800914200D00127401C1928F7DB002F1BD036
:104E28000520002202210007FDF7CEFE0A20FEF72A
:104E380039FF0024305D295D88420AD00027295DAA
:104E4800E0B2FFF7C1FE7F1CFFB2002801D0032F9C
:104E5800F5D3641C192CEDDB17B0F0BDDA020000A5
:104E68000304000000B6020000520200BA3C000031
:104E780000247400FD2E000000AA5800F1B586B089
:104E88000024062201A94620FFF78CFE1748184F78
:104E9800007801AD810040185521C900461861000D
:104EA8006A5C684642704819417868460170008813
:104EB80001220146D2037043511AFCF7ABFD81B2BF
:104EC800002001E0401CC0B24200BA5A8A4201D90F
:104ED800A128F7D3002801D0A12800D9FE200699DF
:104EE8000855641C032CDADB07B0F0BDCC070020A2
:104EF8006864000830B591B005460024162201A95F
:104F08004E20FFF74FFE01A962008B5C6846437094
:104F180050184378684603700088641C8300C018E2
:104F28004009A8520B2CEFDB11B030BD08B50222A6
:104F380069464C20FFF736FE694608784978000232
:104F480000B20843C113CA07094908D0002800DA8B
:104F58004042084A5043FCF75DFD404208BD002826
:104F680000DA4042034A5043FCF754FD08BD0000F4
:104F78006A340000A086010010B5094BE9241A78AC
:104F8800C007520852002240C00E1043DF22C90752
:104F98001040890E0843187000F096F810BD000004
:104FA800CD07002038B50020009003226946432031
:104FB800FFF7F8FD002855D16B461B782A49DA0718
:104FC8000888D20F400840001043022290439A07F5
:104FD800D20F52001043042290435A07DC06D20F26
:104FE800920010434022E40F9043A40120439B0603
:104FF8000824DB0FA043DB001843130198436B46DA
:105008005B78DC07640D20439400A0439C07E40F01
:10501800240220431024A0435C07E40F240120430A
:10502800D4001B07A043DB0F5B0218436B469B7839
:1050380080241D07ED0FA043ED0128430880980741
:10504800C10F0A488171D907C90FC1710849088879
:105058009043DA09920110435A06D20FA043D201B5
:105068001043088038BD00001A000020D007002037
:105078005000002038B50CA00068009000240321DF
:105088006846FDF783F86946C870FFF7D1FC6D469E
:10509800285DFFF79BFCFFF712FD641CE4B2042CAB
:1050A800F6D3FFF7EEFC38BD34EAC00008B5694610
:1050B800088049784120FFF7BBFD694609784220FE
:1050C800FFF7B6FD08BD000038B50DA109680091CD
:1050D80069468870002403216846FDF757F8694639
:1050E800C870FFF7A5FC6D46285DFFF76FFCFFF75A
:1050F800E6FC641CE4B2042CF6D3FFF7C2FC38BD0E
:105108003440000010B507490822087810438B2264
:10511800104040084000FD2210400870FFF7D4FFFF
:1051280010BD0000CD07002010B5064901220878FF
:105138001043F12210404006400E0870FFF7C4FFEC
:1051480010BD0000CD07002070B5174A9168411ABC
:1051580000D54942154DFF24F534AB78A14211DD45
:1051680090600120012B0FD000280AD05079E02848
:1051780014D0E12814D0E0215171FF215079FCF7B7
:1051880055FF70BD012BFCD1074800240C308470FA
:105198000748847300F0AAF8AC7070BDE12000E005
:1051A800FE205071E9E70000CC060020C40800206A
:1051B800A0070020F8B507240026474F0123474DD4
:1051C800E12937D006DCA0290BD0A4290ED0E0298C
:1051D8007ED10EE0EA2971D0EB2947D0FE2977D19C
:1051E8000DE03D483B700C38437071E0C3710824F2
:1051F8006EE03B70C01DFDF7EDFCC41D68E03B7020
:105208007821C171002101721922427265228272CD
:105218000B22C37202730D22427383730222C2737C
:105228006C22027441748174C17401754175817571
:1052380017244DE03B70698B090AC171A97E017280
:10524800A98C090A4172A98C8172244940318A8942
:10525800120AC272097B0173298C090A4173298CCD
:1052680081731F491024C978C17331E01D4E3B700A
:10527800307C632805D1707C632802D1B07C632818
:1052880003D00720072A07D822E015485521A03067
:1052980001701DE014281BD2291837184B787F7A23
:1052A800BB4205D04F70104901270B883B430B8048
:1052B800401CC0B29042EDD30AE0FFE73B70A91949
:1052C800097A0155641C761CF6B2A4B2102EF6D3E6
:1052D800E41FA0B2F8BD0000D80600207408002022
:1052E800D0070020C40800205000002008B5144A48
:1052F80000219079052801D2917108BD114B012038
:1053080018700F48807A5528F7D10D48C07ABB2805
:10531800F3D10B48007B0328EFD10948407B00916B
:1053280007498B7B69464B700549CB7B69460B70F7
:105338000099AA2389B25372FCF778FE08BD0000D1
:10534800C4080020D80600207047000070B51A4A2B
:10535800CA2353625323536293691515AB43936170
:10536800D36D04242343D365D3685B060AD4134C56
:105378002668D3685B0705D423689B1B00D55B426E
:10538800642BF6DB50619069C008C0009061906999
:10539800084390610A4801230168DB04194301604E
:1053A8009069591108439061906928439061FF20E2
:1053B8005062002070BD000000280040000000205E
:1053C80080180240F8B50021684601806548C06928
:1053D800002800DA4042644C962805DD20780A2827
:1053E80003D2401C207000E0217060480079012839
:1053F8006846007817D0400840006A461070594A3D
:10540800803AD57B1346DB79AC460F2D01D8012BAA
:105418000CD0FD2528406D462870927B5F2A08D362
:105428000422104307E001221043E6E7022528433F
:10543800F1E7FB22104028704A4D3826403D2A46A5
:10544800AE5F4B4F403A9279BE4201DD012A09D046
:10545800F72630406E4630702678002E05D010268C
:10546800304304E008263043F4E7EF2630406E4628
:105478003070404E404F36883E4202D0202630439E
:1054880001E0DF2630406E4630706646232E01D894
:10549800012A0DD0BF2210406A4610703248801C85
:1054A80006786846002E06D042780120024305E0BF
:1054B80040221043F0E740784208520068464270A4
:1054C8003C20285E2D4DA84201DA012B12D0FD2088
:1054D8000240FB202A4D024028884304DB0F9B0032
:1054E8001A436B465A70274B9B7B052B05D2082322
:1054F8001A4304E002200243EBE7F7231A40EF23A4
:105508001A400307DB0F1B011A436B465A701B88AE
:10551800FF220132002B08D04004400CA1802880D3
:10552800002E01D190432880F8BDA188491C89B27A
:10553800A1803C2901D8C10BF6D007214902884334
:1055480003219043090388434004400C2880FDF759
:1055580037F82888C00502D50B49B42008803220C6
:10556800A080F8BD500800205A000020D80600206E
:10557800AC0D0000180000206D0300001A0900009F
:1055880050000020A00700206C00002010B586B055
:1055980018216846FCF7BCFA234C2046FEF792FA1D
:1055A80020684008400020602048016849084900F8
:1055B80001601F480168490849000160402005242E
:1055C8002407A062010201222046FDF7FDFA7D2092
:1055D800C000FEF767FB0220FEF7A4F80420FEF7E0
:1055E800A1F80820FEF79EF80120FEF79BF801209D
:1055F8000290002003900490032001900D48009031
:1056080069460D48FEF730F869460C48FEF72CF855
:1056180069460B48FEF728F869462046FEF724F845
:10562800FEF746FD06B010BD0044014000440040AE
:1056380000380140FFFF000000040050000C00503B
:1056480000080050F0B54F4A3C25104640308446CB
:10565800455F4D48937820240188022B04D24B4E95
:10566800B54201DD214300E0A143464C01804034AE
:1056780038271021E75F622B06D9E1231B019F42DF
:1056880002DA03880B4301E003888B4303803D4B18
:105698005679803300213E485C69DA69432E0FD081
:1056A8003C4E3D4F9619BE425ED88170C826C171E6
:1056B800F24232DA82790A2A2DD2521C82712DE006
:1056C8008171C170C5790A2D02D26D1CC57100E0C7
:1056D8000171324D7D19324FBD4210D966463E25C3
:1056E800755F2E4E4636AD192D4E4636B54210D84A
:1056F800002A00DA52427D25ED00AA4209DA8278B2
:10570800521CD2B28270032A1ED9817001224271C2
:105718001AE0817018E0417100E081717D22D200A9
:10572800AA1A1F4D1E3DAA4203D91E4A1278920793
:1057380009D5C278521CD2B2C270032A04D9C170EA
:105748000122027112E0C1700279012A0ED0427959
:10575800012A08D1144D1A695519AC420ED21248C3
:10576800404220185861F0BDC170D2E70F4A9442F8
:1057780001D95042F5E759610171F0BD5A61417193
:10578800F0BD0000D007002050000020EA0B000008
:1057980060000020DB370000B66F0000DCF1FFFF7F
:1057A80064050000180000208011C9FF40771B0025
:1057B8003EB5002469460C728C802049487803283D
:1057C80002D2401C48703EBD1D4D28788007FAD48F
:1057D80001A902A800F082FB0028F4D06846017AEB
:1057E8001848002921D0012902D0022910D101E04E
:1057F800154901E01449A831009169468B880F4981
:10580800007C04221D31FDF743FCC4B2642CDAD8B5
:1058180028880221084328800A4D64218035286998
:10582800FCF7E2F8604368613EBD084900916946AB
:105838008B8802490822007C2831E4E760000020B8
:1058480050000020D0070020020400206605002038
:105858000A2148430004000C01D0401EFAE77047B3
:1058680010B5A4210848FCF753F90849002008801E
:1058780007497D2208800448064980308180D2008B
:10588800C280018110BD0000D00700201800002050
:10589800500000201A04000005480168491C0160F6
:1058A80004480168002902D00168491E0160704758
:1058B800000000200400002070B527490B688A15F5
:1058C80013430B600B685B05DB0FFBD0224C4034A5
:1058D800236A01252B432362236A9B07DB0FFBD036
:1058E8001E4B1D6815431D60002807D1E269012081
:1058F80000040243E261E2698243E26188680F22A0
:105908001202904388608868C008C0008860382206
:1059180088681042FCD18868072212039043886087
:105928000F4D2846FDF726FF2846FEF7C5F801214A
:10593800E06949020322120290430843E061E069EA
:1059480089010843E06160698008800060616069DE
:1059580080008008606170BD001002400070004047
:105968000024F400024901488860704700190008C3
:1059780000ED00E001200249C043086170470000C3
:105988000044014001200249C043086170470000FB
:105998000044014070B50D4C0B4A0025217A904215
:1059A8000BD0224609328854207AC821401CC0B244
:1059B800FCF71AF82172257170BD0029FCD001206E
:1059C800A070A171257270BDFFFF0000C4080020FF
:1059D80070B50F4CE569E0698006C00F03D0606AB6
:1059E800C0B2FEF749FFE069C006C10F10200029C8
:1059F80003D02062074901224A73E1690907C90FE8
:105A080003D0616A206208202062256270BD000010
:105A180000380140A007002070B50F4CE569E06927
:105A28008006C00F03D0606AC0B2FFF7B3FFE06919
:105A38001026C006C00F002803D026620748FFF7CB
:105A4800A9FFE0690007C00F03D0606A266208203A
:105A58002062256270BD000000440040FFFF000086
:105A6800F8B501260D4F36030C460546BE610220E7
:105A7800FEF718F90A490B4B09E02878886218469E
:105A88006D1CCA695206D20F01D1401EF9D22046B8
:105A9800641EA4B20028F0D1BE62F8BD0004005014
:105AA80000440040FFFF00007CB5002000900190FA
:105AB800402005252D07A8610A20FEF7F3F8FCF71A
:105AC80019F91248FCF752F9FCF72AF9FCF700FE1D
:105AD8000F4CA074FCF7FAF84020A8626846FFF75C
:105AE800CDF968460178217280786072814201D9C7
:105AF8000A4600E00246A273814201D20A4600E04B
:105B080002460818E273400820747CBD2000001487
:105B1800D0070020F0B500278FB03E463C461C4D0C
:105B280068460D97FFF7E6F979006846415A194823
:105B38007200101846221152174A28239219D35678
:105B4800C91889B28182A14203D90C461149603132
:105B58008F76808AA84200D205460D99761C401897
:105B68007F1CFFB2F6B20D900B2FDDD30949621BE3
:105B780080310F46403FC8603C87BD870A80002EB1
:105B880003D03146FBF730FFF8870FB0F0BD0000B7
:105B980050C30000D00700207408002010B5FFF79C
:105BA800C5F9002801DB014600E04142322900DC4A
:105BB8000020024A1C21515E081A10BD74080020FA
:105BC800FEB500259E46002919D10020FEBD0024FF
:105BD8004F1B7F1E0FE06600B446835B36180096A5
:105BE8007688B34205D90196009E73806346019E6C
:105BF800C652641CE4B2A742EDDC6D1CEDB29542BE
:105C0800E5D3002518E000244E1BF61E10E06700BF
:105C1800BC466346C75B1B1800935B889F4205D24E
:105C28000193009B5F806746019BC353641CE4B2E9
:105C3800A642ECDC6D1CEDB27545E4D30024724439
:105C48002346891A04E05A00825A14195B1CDBB2F5
:105C58009942F8DC002B05D019462046FBF7C4FE14
:105C680080B2FEBD0088FEBD002805DBC106C90E56
:105C780001208840014908607047000000E100E009
:105C8800002805DBC106C90E0120884001490860CB
:105C98007047000000E100E08307FF22DB0E9A4016
:105CA8008907090E9940002808DB830809489B00EA
:105CB8001B18186890430843186070470007000FC6
:105CC8000838830804489B001B18D8699043084388
:105CD800D861704700E400E000ED00E08307FF2290
:105CE800DB0E9A408907090E9940002808DB8308D3
:105CF80009489B001B1818689043084318607047B0
:105D08000007000F0838830804489B001B18D8694F
:105D180090430843D861704700E400E000ED00E0DC
:105D280002E008C8121F08C1002AFAD1704770475C
:105D3800002001E001C1121F002AFBD1704710B5F5
:105D48000446FEF72DFAFEF763FBFEF7B7FBFEF7F6
:105D58000BF9FEF739FBFEF7CBFA002C01D1FEF761
:105D6800A1FD10BDF0B58C4623490646CC6900203C
:105D78006342002C01DB214600E019461F4A00253A
:105D8800891857421E4AB94207D21178491CC9B22C
:105D98001170557014290ED80AE0002C00DA1C4640
:105DA80018496118B9420ED25178491C51701570C2
:105DB8005178142909D911785A20142906D90121B2
:105DC8003170157008E015705570F0BD51781429C0
:105DD80002D90221317055700749382240393E23D3
:105DE8008A5ECB5ED21A142A01DB0A8F00E0CA8FC2
:105DF80061460A80F0BD000050080020D8F5FFFF7A
:105E08006E000020B0EBFFFFF0B58C462D49002650
:105E1800CC696342002C01DB214600E019462A4A7E
:105E2800002589185742294AB94208D21178491CD5
:105E3800C9B2117055709570142914D80DE0271E39
:105E480000DA1F46224979181F4F7F42B94212D201
:105E58005178491C5170157095705178142902D8E1
:105E6800917814292BD911785A26142915D9032188
:105E7800017015701EE0002C00DA1C461549164BFF
:105E88006118994205D29178491C91705570157026
:105E9800E6E715705570957011E05178142903D90B
:105EA80004210170557005E09178142902D9052163
:105EB8000170957003484038818F604601803046F4
:105EC800F0BD000050080020D8F5FFFF7A00002040
:105ED800B0EBFFFF88E1FFFF6419000070B5224AAC
:105EE8003E23D35E214D00245B19214DAB4238D2AD
:105EF8003823D35E1F4DAB4233DA3C231C4DD35EAF
:105F08006D1CAB422DDD1346403B5B795A24432B75
:105F18001BD113464033DB69002B01DB1D4600E033
:105F28005D427D26F600B5420FDD134D5B196D000D
:105F3800AB4201D8012300E0022303703C20105E2D
:105F48000E4B984203DA908F0AE00023F5E73820D9
:105F58000A4B105EBE33984201DD108F00E0D08FEF
:105F68000880204670BD0000100800203BF6FFFFA7
:105F7800C3090000D80E00004F1400004E0C0000AA
:105F8800002786B03D46049762B60121364802686C
:105F98000A43026000680840009033480907403807
:105FA800C26B0A43C263C06B084000900020FFF731
:105FB80083FC2E48C16903220902090A920711438A
:105FC800C1612B4801690222114301610020FFF7DA
:105FD800B6FEFCF79BFBFFF743FCFCF765F9254C85
:105FE80025480390254806682088C00B02D1304612
:105FF800FFF7AAF8F01B00D54042642802DC20888D
:10600800C00BEFD00398807B642802D20399401C10
:1060180088733746FEF7D0FA6D1C05212846FBF732
:10602800E3FC002902D02088C00B07D00498002880
:106038000BD000200490FEF705FB0025052128461B
:10604800FBF7D2FC042902D004E00120F2E700208B
:10605800FFF72CF82088C107C4D0400840002080F2
:10606800FCF758FCBEE700004010024004ED00E0D9
:1060780000E000E050000020A00700200000002001
:1060880001000000020000000400000006000000FB
:10609800080000000A0000000C00000010000000CA
:1060A8002000000040000000800000000001000007
:1060B80000000000000000000000000000000000D8
:1060C80000000000000000000000000000000000C8
:1060D80001000000020000000300000004000000AE
:1060E800060000000700000008000000090000008A
:1060F8000000000000000000000000000000000098
:10610800010000000200000003000000040000007D
:10611800D000DB00E600F200FE000B0118012601AA
:106128003401430153016301730184019601A901FC
:10613800BC01D001E401F9010F0225023C0254021E
:106148006C0286029F02BA02D502F1020D032A03ED
:10615800480366038503A403C403E503060428046F
:106168004A046D049004B404D804FD0422054705CC
:106178006D059205B905DF0506062C0653067A0655
:10618800A106C806EF0617073E0765078C07B20782
:10619800D907000826084C0872089708BC08E108C7
:1061A80006092A094D0971099409B609D809FA0995
:1061B8001B0A3C0A5C0A7C0A9B0ABA0AD80AF60A35
:1061C800130B300B4C0B680B830B9D0BB70BD10BD0
:1061D800EA0B020C1A0C320C490C5F0C760C8B0C77
:1061E800A00CB50CC90CDC0CF00C020D150D270D1C
:1061F800380D490D5A0D6A0D7A0D890D980DA70DA8
:10620800B60DC40DD10DDE0DEB0DF80D040E100EFC
:106218001C0E280E330E3E0E480E530E5D0E660EF3
:10622800700E790E820E8B0E940E9C0EA40EAC0E80
:10623800B40EBC0EC30ECA0ED10ED80EDF0EE50E7C
:10624800EB0EF20EF80EFD0E030F090F0E0F130FD3
:10625800190F000000002110422063308440A5502F
:10626800C660E770088129914AA16BB18CC1ADD194
:10627800CEE1EFF13112100273325222B55294423C
:10628800F772D662399318837BB35AA3BDD39CC3E4
:10629800FFF3DEE36224433420040114E664C77488
:1062A800A44485546AA54BB528850995EEE5CFF534
:1062B800ACC58DD55336722611163006D776F666DC
:1062C8009556B4465BB77AA719973887DFF7FEE784
:1062D8009DD7BCC7C448E5588668A77840086118A8
:1062E80002282338CCC9EDD98EE9AFF948896999D4
:1062F8000AA92BB9F55AD44AB77A966A711A500A7C
:10630800333A122AFDDBDCCBBFFB9EEB799B588B23
:106318003BBB1AABA66C877CE44CC55C222C033CC7
:10632800600C411CAEED8FFDECCDCDDD2AAD0BBD73
:10633800688D499D977EB66ED55EF44E133E322E1B
:10634800511E700E9FFFBEEFDDDFFCCF1BBF3AAFC3
:10635800599F788F8891A981CAB1EBA10CD12DC121
:106368004EF16FE18010A100C230E32004502540B7
:1063780046706760B9839893FBA3DAB33DC31CD317
:106388007FE35EF3B1029012F322D2323542145207
:1063980077625672EAB5CBA5A89589856EF54FE563
:1063A8002CD50DC5E234C324A01481046674476457
:1063B80024540544DBA7FAB79987B8975FE77EF7B7
:1063C8001DC73CD7D326F2369106B01657667676A7
:1063D800154634564CD96DC90EF92FE9C899E98983
:1063E8008AB9ABA94458654806782768C018E108F7
:1063F8008238A3287DCB5CDB3FEB1EFBF98BD89B57
:10640800BBAB9ABB754A545A376A167AF10AD01A46
:10641800B32A923A2EFD0FED6CDD4DCDAABD8BADA2
:10642800E89DC98D267C076C645C454CA23C832C96
:10643800E01CC10C1FEF3EFF5DCF7CDF9BAFBABFF6
:10644800D98FF89F176E367E554E745E932EB23EE6
:10645800D10EF01E03010000000000000000000043
:10646800D24C94489A44DE405C3D123AFA361134D4
:106478005431C12E552C0D2AE727E025F8232B226D
:106488007720DC1E591DEB1B901A49191418EF16BA
:10649800DA15D314DB13F01211123E117510B70F71
:1064A800030F580EB50D1B0D880CFD0B780BFA0A5F
:1064B800820A100AA4093C09DA087C082208CD07D8
:1064C8007C072F07E5069E065B061A06DD05A30571
:1064D8006B0535050205D104A20476044B04220499
:1064E800FB03D503B1038F036D034D032F03120381
:1064F800F602DC02C202A90291027B026502500286
:106508003C02280216020402F301E201D201C3018F
:10651800B401A60199018B017F01730167015B0139
:10652800510146013C0132012901200117010F01E7
:106538000701FF00F700F000E800E200DB00D500EB
:10654800CF00C900C300BD00B800B300AE00A90069
:10655800A400A0009B00970093008F008B00870089
:10656800840080007D0079007600730070006D0063
:106578006A0067006500620060005D005B0059000A
:1065880057005400520050004E004C004B00490088
:10659800470045004400420040003F003D003C00E9
:1065A8003A000000CC65000800000020D007000079
:1065B800F61B0008606B0008D0070020900600005A
:1065C800385D00080115036624F42808282D324197
:1065D800191E23075A1408182E790CB60BB60BB3DC
:1065E8000BAF0BA90BA20B9A0B900B850B770B64C7
:1065F8000B4A0B270BF90ABE0A770A250ACA09674C
:1066080009FC08930C0B021812090C050CFF0BF976
:106618000BF30BEB0BE10BD60BC73C1C940B672E53
:106628001808D20A6D0AFD09832A1818F40C4A0CB6
:10663800490C460C420C3B0C360C300C2A0C230C33
:106648001A0C113A180EF60BE00BBD0B7F0B190B49
:10665800830ACE2A1812340D730C700C6C0C660C5D
:10666800610C590C530C4D361A3F341C2C0C1E6C03
:10667800180AEB0BB10B460BA50AE32A3812200DBA
:10668800960C930C8F0C890C830C7D0C780C71364E
:106698001E600C580C4E68182A310C190CEF0B8927
:1066A8000B910AFC08650D650DAA0CA80CA40C9E9C
:1066B8000C970C910C8B0C860C810C7C0C750C6D5A
:1066C8000C64661A4892181C070CA80BBA0A370DF6
:1066D800370DC90CC90CC60CC30CBD0CB50CAD0CE0
:1066E800A70CA2361E9A0C940C8D681810770C65AE
:1066F8000C4C0C330CE40BFA0B5D0B5B02182057A7
:106708000B500B480B3D0B2F0B1C0B030BE50AC062
:106718000A960A670A330AFC09C209840942A82DA5
:106728001C0CB50B021814AF0BA90BA10B970B8B04
:106738000B7B0B660B490B240BF72E180A830A3FB9
:106748000AF809AB09572A1C940C09E418120B0C17
:10675800080C040CFF0BF80BF00BE60BDA0BCA3C29
:10676800180E960B680B270BD30A6E0AFF09862AA8
:106778001816EC0C340C320C2F0C2A0C230C1C0CA5
:10678800140C0C0C020CF52E1810D00BB10B840B4A
:10679800450BF10A8C0A1A0A982A1CDB0C6EE61AB9
:1067A80069B81E5F0C5A0C52BE1816460C3E0C35C2
:1067B8000C2B0C1D0C0A0CEF0BBF0B610BC70AFD51
:1067C8002A18101F0D1F0D8C0C8A0C860C800C7A51
:1067D8000C7436180E670C600C590C500C450C37AD
:1067E8000C22941826CE0B670BCA0A070A370D37F6
:1067F8000DB70CB50CB10CAD0CA70CA00C9A0C94F1
:106808000C8F0C890C840C7D0C756C1E5B0C470C72
:106818002D921814660B590BFA0A0E0B200B2D0B30
:10682800340B360B330B2C0C18140E0BF40AD20A4B
:10683800A80A760A3E0A020AC4098309407E181A81
:10684800A50B470B5B0B6C0B760B7C0B7D0B7B0B4B
:10685800740B6A0B5A0B420B212E180CBC0A7A0ACD
:10686800330AEA099F09502A180C250CA80BB20B09
:10687800BC0BC10BC304180CBE0BB80BB00BA60B9A
:10688800980B863E180C450B090BB50A500AE3090C
:10689800722A180A420CD40BDA0BE00BE202180A2F
:1068A800DE0BD90BD30BCB0BC03C18109F0B840B02
:1068B8005C0B1F0BC90A620AF3097E2A1E840C1D91
:1068C8000C200218121F0C1C0C180C110C0C0C05B7
:1068D8000CFD0BF40BE836180CC50BAA0B7E0B2F1E
:1068E8000BA30AE52A1EB50CA10C9CF21C970C936D
:1068F800F418128A0C900C8C0C880C830C7E0C7982
:106908000C6F0C62FA080928330C1E0CF20B8F0A64
:106918002A382A420E410E1C0EF10DD70DC40DB5B2
:106928000DA90D9F0D970D8F0D870D810D7C0D768F
:106938000D6F0D610D4A0D330DFE0C7F2A1021DD00
:106948000DB30D9C0D8E0D820D790D720D6A0D62C1
:106958000D5A0D530D4D0D490D440D340D1A0D1DD5
:106968000DD30CCD2A1812BD0D900D7E0D730D6B35
:106978000D650D5F0D590D5246381A430D3F0D3BFD
:106988000D390D310D1F0D060DEF0CBE0CF90A4126
:106998000E7F0D64201A4E22381C460D3E0D350D13
:1069A8002C0D270D230D210D1E0D170D040DEA0CBE
:1069B800D10CA60CFC7E180A390E060EE80DD30D74
:1069C800C3AA1814AA0DA10D980D910D8A0D850D55
:1069D800800D7A0D6E0D5B620D2C290DE20B2A1EBF
:1069E800EF0DC50DAEF61C930D89F41C790D71D60B
:1069F8001C630D5ED81816540D470D300D160DFA90
:106A08000C9C0B2E0E9A0D780D690D613C1E570DCE
:106A18004C0D45F01E3E0D3A0D37B01010330D2ABF
:106A28000D180DFE0CE80CA00C020B14124C121ED3
:106A380012551228125C123212611241126418089F
:106A4800F40C920C8E0C8A02185E7E0C770C700C7B
:106A5800690C620C5A0C500C420C2E0C100CDD0BFD
:106A6800860BFD0A480A1D0AC4096A0DBA0CB70C40
:106A7800B40CAE0CA70C9F0C970C8F0C880C820CD6
:106A88007B0C720C660C540C390C070CAF0BE50A26
:106A9800C709C4096F0DD20CD00CCD0CC90CC20C9F
:106AA800BA0CB10CAA0CA58018209B0C940C8C0C69
:106AB8007F0C6A0C480C060C780B5C0AC609630D3F
:106AC800E10CE00CDE0CDB0CD630292E1AB662186D
:106AD8001AB00CAC0CA60C9D0C900C7C0C600C45F0
:106AE8000CE40BC509A30DE90CE9C81EE50CE10C83
:106AF800DA2C3EC30CBF0CBC301AB1901A9B8C1018
:106B08000D6E0C550C090CC6099C0D020D19F418D4
:106B180018FD0CF80CF70CF50CF30CEE0CDF0CD888
:106B28000CC70CC40CB90CA8BA0809527E0C6C0C22
:106B38001E0C540B2AA102EDA12264401801020385
:106B48000405060708090A0B0C0D0E0F1011121385
:086B5800141516173235000078
:04000005080019C115
:00000001FF
